S01700004763634170706C69636174696F6E312E737265635B
S11300000C9456000C9473000C9473000C943001FF
S11300100C9473000C9473000C9473000C94730090
S11300200C9473000C9473000C9473000C94730080
S11300300C9473000C9473000C9473000C94730070
S11300400C9473000C9473000C9473000C94730060
S11300500C9473000C9473000C9473000C94730050
S11300600C9473000C9473000C9473000C94730040
S11300700C9473000C9473000C9473000C94730030
S11300800C9473000C9473000C9473000C94730020
S11300900C9473000C9473000C9473000C94730010
S11300A00C9473000C9473000C94730011241FBE01
S11300B0CFEFDAE0DEBFCDBF11E0A0E0B1E0E6E2D1
S11300C0F4E002C005900D92A230B107D9F721E007
S11300D0A2E0B1E001C01D92AE30B207E1F70E9488
S11300E082000C9411020C94000010928B00109268
S11300F08A0010928D0010928C0008955D9A0895E4
S11301005D9808950E9449014AE062E481E00E94FA
S11301105A016E9A769878946894DD24D6F803E6AA
S113012010E0C5E1D0E00F2EF6E1EF2EF12CF02D1A
S113013080910C0190910D01019789F46E9A8EB112
S11301408D258EB96AE082E091E00E94B00110939F
S113015001010093000110920D0110920C01809195
S11301600001909101018531910509F46FC01CF4DF
S1130170892BF1F272C08631910509F453C083369C
S1130180910509F06AC02FE986E891E0215080408A
S11301909040E1F700C000006E9A8EB18D258EB9B3
S11301A080910201833A21F138F4813A91F0C0F44C
S11301B0803A09F0BDCF08C0863A39F1873A51F147
S11301C0843A09F0B5CF1CC0F0920101E09200011D
S11301D0AFCF10920101109200010E947E00A8CFBF
S11301E083B10E947500D0930101C0930001A0CF98
S11301F083B10E947500D0930101C093000198CF90
S1130200D0930101C093000193CFD0930101C09317
S113021000018ECF83B10E947500D0930101C09379
S1130220000186CF0E9475000E947E002FEB87E2BA
S113023099E0215080409040E1F700C000000E9406
S11302408000D0930101C093000172CF6A9A729822
S11302500E9480000E9475006BCF0E94750068CFD9
S11302601F920F920FB60F9211248F939F9381E0E8
S113027090E090930D0180930C016A9A9EB184E002
S113028089278EB99F918F910F900FBE0F901F9069
S11302901895589A599A5A9A8CE08093B800E9E6CE
S11302A0F0E080818062808380818F7E8083EA9AFF
S11302B0789408951F93CF93DF93182FD62FC42FCC
S11302C00E94490194EA9093BC00ECEBF0E0908129
S11302D09923ECF790E59093BB0094E89093BC00CD
S11302E0ECEBF0E090819923ECF79091B900987FC2
S11302F0903229F484E98093BC0080E02DC081E031
S11303008093BB0084E88093BC00ECEBF0E0908128
S11303109923ECF71093BB0084E88093BC00ECEBCA
S1130320F0E080818823ECF7D093BB0084E88093CD
S1130330BC00ECEBF0E080818823ECF7C093BB00B9
S113034084E88093BC00ECEBF0E080818823ECF738
S113035084E98093BC0081E0DF91CF911F910895DF
S1130360CF93DF9324EA2093BC00ECEBF0E02081F0
S11303702223ECF721E52093BB0024E82093BC0062
S1130380ECEBF0E020812223ECF72091B900287FE8
S1130390283429F484E98093BC0080E03FC024EC35
S11303A02093BC00ECEBF0E020812223ECF7409199
S11303B0BB00461309C050E04150510914161506FC
S11303C044F040E050E018C084E98093BC0080E031
S11303D025C0DC0120E030E0ECEBF0E074ECCBEB8A
S11303E0D0E0708360816623ECF768816D932F5FA2
S11303F03F4F24173507ACF324E82093BC00ECEB03
S1130400F0E020812223ECF72091BB00FC01E40FF3
S1130410F51F208384E98093BC0081E0DF91CF91B4
S10904200895F894FFCFDB
S10504261500BB
S9030000FC
