:100000000C9456000C9473000C9473000C9424010F
:100010000C9473000C9473000C9473000C94730094
:100020000C9473000C9473000C9473000C94730084
:100030000C9473000C9473000C9473000C94730074
:100040000C9473000C9473000C9473000C94730064
:100050000C9473000C9473000C9473000C943D0189
:100060000C9473000C9473000C9473000C94730044
:100070000C9473000C9473000C9473000C94730034
:100080000C9473000C9473000C9473000C94730024
:100090000C9473000C9473000C9473000C94730014
:1000A0000C9473000C9473000C94730011241FBE05
:1000B000CFEFDAE0DEBFCDBF11E0A0E0B1E0E6E3D4
:1000C000F4E002C005900D92A230B107D9F721E00B
:1000D000A2E0B1E001C01D92A031B207E1F70E9499
:1000E00079000C9419020C9400005D9A08955D98B3
:1000F00008950E9451014AE062E481E00E94620199
:100100006E9A769A6A9A729A78946894CC24C6F811
:1001100003E610E06894DD24D2F8C5E1D0E00F2EAC
:10012000F6E1EF2EF12CF02D80910E0190910F0150
:10013000019789F46E9A8EB18C258EB96AE082E0BF
:1001400091E00E94B8011093010100930001109208
:100150000F0110920E0180910C0190910D010197F9
:1001600009F46A9A8EB18D258EB980910001909123
:1001700001018631910509F452C08336910519F0C9
:10018000459791F65EC080910201843AC9F128F446
:10019000803A41F0813A41F61BC0863AB1F1873A84
:1001A00019F638C0F0920101E09200016E9A8EB10A
:1001B0008C258EB92FED83E994E02150804090404A
:1001C000E1F700C000006E9A8EB18C258EB9ACCFDD
:1001D00010920101109200010E9475006A9A8EB17E
:1001E0008D258EB92FED83E994E021508040904019
:1001F000E1F700C000006A9A8EB18D258EB994CFC8
:10020000D0930101C09300018FCFD0930101C0931F
:1002100000018ACFD0930101C093000185CF0E94D5
:1002200075002FEB87E299E0215080409040E1F784
:1002300000C000000E947700D0930101C09300012C
:1002400073CF0E94770070CF1F920F920FB60F925C
:1002500011248F939F9381E090E090930F018093FE
:100260000E016A9A9EB184E089278EB99F918F9181
:100270000F900FBE0F901F9018951F920F920FB600
:100280000F9211248F939F9381E090E090930D0142
:1002900080930C019F918F910F900FBE0F901F9034
:1002A0001895589A599A5A9A8CE08093B800E9E6C2
:1002B000F0E080818062808380818F7E8083EA9AF3
:1002C000789408951F93CF93DF93182FD62FC42FC0
:1002D0000E94510194EA9093BC00ECEBF0E0908115
:1002E0009923ECF790E59093BB0094E89093BC00C1
:1002F000ECEBF0E090819923ECF79091B900987FB6
:10030000903229F484E98093BC0080E02DC081E024
:100310008093BB0084E88093BC00ECEBF0E090811C
:100320009923ECF71093BB0084E88093BC00ECEBBE
:10033000F0E080818823ECF7D093BB0084E88093C1
:10034000BC00ECEBF0E080818823ECF7C093BB00AD
:1003500084E88093BC00ECEBF0E080818823ECF72C
:1003600084E98093BC0081E0DF91CF911F910895D3
:10037000CF93DF9324EA2093BC00ECEBF0E02081E4
:100380002223ECF721E52093BB0024E82093BC0056
:10039000ECEBF0E020812223ECF72091B900287FDC
:1003A000283429F484E98093BC0080E03FC024EC29
:1003B0002093BC00ECEBF0E020812223ECF740918D
:1003C000BB00461309C050E04150510914161506F0
:1003D00044F040E050E018C084E98093BC0080E025
:1003E00025C0DC0120E030E0ECEBF0E074ECCBEB7E
:1003F000D0E0708360816623ECF768816D932F5F96
:100400003F4F24173507ACF324E82093BC00ECEBF6
:10041000F0E020812223ECF72091BB00FC01E40FE7
:10042000F51F208384E98093BC0081E0DF91CF91A8
:060430000895F894FFCFCF
:020436001500AF
:00000001FF
