S0160000776972656C6573735F636F6D6D732E7372656322
S11300000C947C000C9499000C9499000C94990025
S11300100C9499000C9499000C9499000C949900F8
S11300200C9499000C9499000C9499000C949900E8
S11300300C9499000C9499000C9499000C949900D8
S11300400C9499000C9499000C9499000C949900C8
S11300500C9499000C9499000C9499000C949900B8
S11300600C9499000C9499000C9499000C949900A8
S11300700C9499000C9499000C9499000C94990098
S11300800C942A0C0C9499000C9499000C949900EB
S11300900C9499000C9499000C9499000C94990078
S11300A00C9499000C9499000C949900084AD73B3D
S11300B03BCE016E84BCBFFDC12F3D6C74319ABD33
S11300C056833DDA3D00C77F11BED9E4BB4C3E9157
S11300D06BAAAABE000000803F05A84CCDB2D44E46
S11300E0B93836A9020C50B9918688083CA6AAAA48
S11300F02ABE000000803F0011241FBECFEFDAE0CB
S1130100DEBFCDBF11E0A0E0B1E0ECE7FFE102C04B
S113011005900D92A430B107D9F721E0A4E0B1E035
S113012001C01D92A635B207E1F70E94060B0C949C
S1130130BC0F0C9400002F923F924F925F926F92EB
S11301407F928F929F92AF92BF92CF92DF92EF9263
S1130150FF920F931F93CF93DF9300D000D000D072
S1130160CDB7DEB79C828B828F3FE3E09E0709F414
S113017069C66F3FF3E07F0709F466C64F3FE3E0CB
S11301805E0709F463C62F3FF3E03F0709F460C636
S11301900F3FE3E01E0709F45DC6FFEFEF16F3E03F
S11301A0FF0609F459C6EFEFCE16E3E0DE0609F4C4
S11301B055C6FFEFAF16F3E0BF0609F451C6E09150
S11301C00201F09103014C018E1A9F0A90922901B9
S11301D0809228018091000190910101081B190B64
S11301E010932B0100932A013B016E1A7F0A70922F
S11301F0250160922401E81AF90AF0922701E0929D
S113020026012A014E1A5F0A5092210140922001D0
S11302101601281A390A3092230120922201690119
S1130220CE1ADF0AD0921D01C0921C01A81AB90A85
S1130230B0921F01A0921E01930128193909C70128
S1130240801B910B229FB001239F700D700D112410
S1130250889F9001899F300D300D1124620F731F08
S1130260882777FD8095982F0E94A70D0E942D0F57
S11302706093040170930501809306019093070134
S1130280920128193909C101801B910B229FB001E9
S1130290239F700D700D1124889F9001899F300D4C
S11302A0300D1124620F731F882777FD8095982FD6
S11302B00E94A70D0E942D0F6093080170930901FD
S11302C080930A0190930B01960128193909C501FD
S11302D0801B910B229FB001239F700D700D112480
S11302E0889F9001899F300D300D1124620F731F78
S11302F0882777FD8095982F0E94A70D0E942D0FC7
S113030060930C0170930D0180930E0190930F0183
S1130310920126193709C1018E199F09229FB00144
S1130320239F700D700D1124889F9001899F300DBB
S1130330300D1124620F731F882777FD8095982F45
S11303400E94A70D0E942D0F60931001709311015C
S11303508093120190931301960126193709C50160
S11303608E199F09229FB001239F700D700D1124D7
S1130370889F9001899F300D300D1124620F731FE7
S1130380882777FD8095982F0E94A70D0E942D0F36
S113039060931401709315018093160190931701D3
S11303A0C418D508A218B308CC9CB001CD9C700D1C
S11303B0700D1124AA9CC001AB9C900D900D1124CA
S11303C0680F791F882777FD8095982F0E94A70DC5
S11303D00E942D0F609318017093190180931A01E4
S11303E090931B0104E011E0E12CF12C1E821D828C
S11303F01A821982212C6894332436F80F2EFCE1DA
S11304004F2EF02D0F2EF6E45F2EF02D612C712C63
S1130410812C912CF801A080B180C280D3800C5F24
S11304201F4F262D372D482D592D6A2D7B2D8C2DB0
S11304309D2D0E94B50E181634F4FA82E9826A2CB6
S11304407B2C8C2C9D2C222D332D442D552D6A2D47
S11304507B2D8C2D9D2D0E94050D882334F4FE8266
S1130460ED822A2C3B2C4C2C5D2CFFEFEF1AFF0A5B
S113047086E0E816F10471F6E981FA81E230F105CB
S113048009F434C134F4309781F0319709F06FC323
S11304909DC089819A818430910509F447C20CF486
S11304A0B5C1059709F063C3D1C2ED81FE81E23085
S11304B0F10539F124F4319709F06EC009C08D813A
S11304C09E8183309105B1F1049709F065C04BC05A
S11304D088E291E0909349018093480180E291E0A1
S11304E0909333018093320184E291E0909335013B
S11304F0809334018CE191E0909343018093420115
S113050036C388E291E090934901809348018CE1DD
S113051091E0909333018093320184E291E09093CF
S113052035018093340180E291E0909343018093FC
S113053042011DC384E291E09093490180934801F4
S113054080E291E0909333018093320188E291E05C
S113055090933501809334018CE191E090934301B1
S11305608093420104C384E291E090934901809313
S113057048018CE191E0909333018093320188E249
S113058091E0909335018093340180E291E090935F
S1130590430180934201EBC288E291E090934901C8
S11305A08093480184E291E0909333018093320177
S11305B080E291E090933501809334018CE191E0E5
S11305C0909343018093420180E04BC4ED81FE810E
S11305D0E230F10531F11CF4EF2B51F06DC08D8147
S11305E09E8183309105B1F1059709F065C04BC038
S11305F088E291E0909349018093480184E291E07C
S1130600909333018093320180E291E0909335011D
S1130610809334018CE191E09093430180934201F3
S1130620A6C288E291E090934901809348018CE14D
S113063091E0909333018093320180E291E09093B2
S113064035018093340184E291E0909343018093D7
S113065042018DC280E291E0909349018093480168
S113066084E291E0909333018093320188E291E037
S113067090933501809334018CE191E09093430190
S11306808093420174C280E291E090934901809387
S113069048018CE191E0909333018093320188E228
S11306A091E0909335018093340184E291E090933A
S11306B04301809342015BC288E291E09093490137
S11306C08093480184E291E0909333018093320156
S11306D080E291E090933501809334018CE191E0C4
S11306E0909343018093420180E0BBC3ED81FE817E
S11306F0E130F10531F11CF4EF2B51F06DC08D8127
S11307009E8184309105B1F1059709F065C04BC015
S113071088E291E0909349018093480184E291E05A
S113072090933301809332018CE191E090933501F1
S11307308093340180E291E09093430180934201DD
S113074016C288E291E0909349018093480180E2C7
S113075091E090933301809332018CE191E0909386
S113076035018093340184E291E0909343018093B6
S11307704201FDC18CE191E09093490180934801CD
S113078084E291E0909333018093320188E291E016
S1130790909335018093340180E291E0909343017A
S11307A080934201E4C18CE191E0909349018093EC
S11307B0480180E291E0909333018093320188E212
S11307C091E0909335018093340184E291E0909319
S11307D0430180934201CBC188E291E090934901A7
S11307E08093480184E291E0909333018093320135
S11307F080E291E090933501809334018CE191E0A3
S1130800909343018093420180E02BC3ED81FE81EC
S1130810E130F10531F11CF4EF2B51F06DC08D8105
S11308209E8184309105B1F1059709F065C04BC0F4
S113083084E291E0909349018093480188E291E039
S1130840909333018093320180E291E090933501DB
S1130850809334018CE191E09093430180934201B1
S113086086C180E291E0909349018093480188E237
S113087091E0909333018093320184E291E090936C
S11308803501809334018CE191E09093430180938E
S113089042016DC184E291E0909349018093480143
S11308A08CE191E0909333018093320180E291E0F6
S11308B0909335018093340188E291E09093430151
S11308C08093420154C180E291E090934901809366
S11308D048018CE191E0909333018093320184E2EA
S11308E091E0909335018093340188E291E09093F4
S11308F04301809342013BC188E291E09093490116
S11309008093480184E291E0909333018093320113
S113091080E291E090933501809334018CE191E081
S1130920909343018093420180E09BC2ED81FE815C
S1130930E230F10531F11CF4EF2B51F06DC08D81E3
S11309409E8183309105B1F1059709F065C04BC0D4
S113095084E291E0909349018093480188E291E018
S113096090933301809332018CE191E090933501AF
S11309708093340180E291E090934301809342019B
S1130980F6C08CE191E0909349018093480188E29C
S113099091E0909333018093320184E291E090934B
S11309A035018093340180E291E090934301809378
S11309B04201DDC084E291E09093490180934801B3
S11309C080E291E090933301809332018CE191E0D5
S11309D0909335018093340188E291E09093430130
S11309E080934201C4C08CE191E0909349018093CB
S11309F0480180E291E0909333018093320184E2D4
S1130A0091E0909335018093340188E291E09093D2
S1130A10430180934201ABC088E291E09093490185
S1130A208093480184E291E09093330180933201F2
S1130A3080E291E090933501809334018CE191E060
S1130A40909343018093420180E00BC2ED81FE81CB
S1130A50E230F10539F124F4319709F06EC009C090
S1130A608D819E8183309105B1F1049709F065C0B1
S1130A704BC080E291E0909349018093480188E261
S1130A8091E090933301809332018CE191E0909353
S1130A9035018093340184E291E090934301809383
S1130AA0420165C08CE191E0909349018093480133
S1130AB088E291E0909333018093320180E291E0E7
S1130AC0909335018093340184E291E09093430143
S1130AD0809342014CC080E291E09093490180935D
S1130AE0480184E291E090933301809332018CE1D8
S1130AF091E0909335018093340188E291E09093E2
S1130B0043018093420133C08CE191E09093490109
S1130B108093480184E291E0909333018093320101
S1130B2080E291E0909335018093340188E291E072
S1130B3090934301809342011AC088E291E090931C
S1130B4049018093480184E291E0909333018093BA
S1130B50320180E291E090933501809334018CE17D
S1130B6091E0909343018093420180E07AC1262D65
S1130B70372D482D592D60E070E088EE91E40E94F5
S1130B800C0D462E572E682E792E00914801109197
S1130B904901F80160817181882777FD8095982F3C
S1130BA00E94A70D242D352D462D572D0E94C00ED1
S1130BB00E94740D4B0170933B0160933A01F8015C
S1130BC062817381882777FD8095982F0E94A70DF5
S1130BD0242D352D462D572D0E94C00E0E94740DD4
S1130BE06B0170933D0160933C01E0903401F090FF
S1130BF03501F70160817181882777FD8095982FF1
S1130C000E94A70D242D352D462D572D0E94C00E70
S1130C100E94740D5B0170932F0160932E01F70104
S1130C2062817381882777FD8095982F0E94A70D94
S1130C30242D352D462D572D0E94C00E0E94740D73
S1130C403B017093310160933001B4016A0D7B1D47
S1130C50882777FD8095982F0E94A70D20E030E02B
S1130C6040E05FE30E94C00E0E94740D5B0170932C
S1130C704F0160934E01B601660D771D882777FDFD
S1130C808095982F0E94A70D20E030E040E05FE3BC
S1130C900E94C00E0E94740D6B0170935101609309
S1130CA05001AA9CB001AB9C700D700D1124CC9C1A
S1130CB0C001CD9C900D900D1124680F791F8827D9
S1130CC077FD8095982F0E94A70D0E942D0F6093A9
S1130CD03601709337018093380190933901F701FD
S1130CE060817181F80180819181681B790B88276B
S1130CF077FD8095982F0E94A70D2B013C01F701E9
S1130D0062817381F80182819381681B790B882742
S1130D1077FD8095982F0E94A70DA30192010E9450
S1130D20B20C2B013C0160933E0170933F01809310
S1130D30400190934101B601882777FD8095982F53
S1130D400E94A70D6B017C01B501882777FD809572
S1130D50982F0E94A70DA70196010E94B20CDC01F6
S1130D60CB01B0588093520190935301A093540146
S1130D70B093550120E030E044E353E4C301B201F1
S1130D800E94C00E2BED3FE049E450E40E940C0D9C
S1130D900E94740DED8DFE8D71836083209152014C
S1130DA030915301409154015091550160913E019D
S1130DB070913F0180914001909141010E943E0C4D
S1130DC00E94090D9B01AC0180913601909137017D
S1130DD0A0913801B0913901BC01CD0190580E9415
S1130DE0C00E0E94740DEB81FC817183608320919D
S1130DF05201309153014091540150915501609139
S1130E003E0170913F0180914001909141010E9407
S1130E103E0C0E94230F9B01AC01809136019091FE
S1130E203701A0913801B0913901BC01CD0190582E
S1130E300E94C00E0E94740DEB8DFC8D7183608343
S1130E4081E00FC080E00DC080E00BC080E009C0ED
S1130E5080E007C080E005C080E003C080E001C0FE
S1130E6080E026960FB6F894DEBF0FBECDBFDF91AB
S1130E70CF911F910F91FF90EF90DF90CF90BF9093
S1130E80AF909F908F907F906F905F904F903F9026
S1130E902F900895589A599A5A9A8CE08093B800E2
S1130EA0E9E6F0E080818062808380818F7E8083A8
S1130EB0EA9A789408951F93CF93DF93182FD62F2F
S1130EC0C42F0E944A0794EA9093BC00ECEBF0E034
S1130ED090819923ECF790E59093BB0094E890936C
S1130EE0BC00ECEBF0E090819923ECF79091B90011
S1130EF0987F903229F484E98093BC0080E02DC06F
S1130F0081E08093BB0084E88093BC00ECEBF0E0CC
S1130F1090819923ECF71093BB0084E88093BC0084
S1130F20ECEBF0E080818823ECF7D093BB0084E8FD
S1130F308093BC00ECEBF0E080818823ECF7C09355
S1130F40BB0084E88093BC00ECEBF0E08081882354
S1130F50ECF784E98093BC0081E0DF91CF911F918D
S1130F600895CF93DF93F89494EA9093BC00ECEB4C
S1130F70F0E090819923ECF790E59093BB0094E81E
S1130F809093BC00ECEBF0E090819923ECF7909106
S1130F90B900987F903231F484E98093BC0078944E
S1130FA080E032C093E09093BB0094E89093BC003F
S1130FB0ECEBF0E090819923ECF78093BB0084E89C
S1130FC08093BC00ECEBF0E080818823ECF7242FC5
S1130FD030E0121613069CF4A62FB72F80E090E0A1
S1130FE0CBEBD0E0ECEBF0E054E84D914883508338
S1130FF040814423ECF7019682179307B4F384E904
S11310008093BC00789481E0DF91CF91089520E033
S113101030E0ECEBF0E08081882334F02F5F3F4F29
S1131020293E83E03807B9F781E0283E334009F4CC
S113103080E008958093BB0084E88093BC000E9404
S11310400708882321F08091B900887F089580E003
S11310500895CF93C82F94EA9093BC000E94070888
S1131060882361F08C2F880F8F5F0E941A088834C0
S113107039F484E98093BC0080E003C080E001C0BF
S113108081E0CF910895CF93C82F94EA9093BC0048
S11310900E940708882359F08C2F880F0E941A0891
S11310A0803239F484E98093BC0080E003C080E09E
S11310B001C081E0CF91089584E98093BC00089534
S11310C0EF92FF920F931F93CF93DF93CDB7DEB7C9
S11310D060970FB6F894DEBF0FBECDBFE82EF92E91
S11310E0FE01319680E1DF011D928A95E9F788E5DA
S11310F00E944308882309F466C086E30E941A0804
S1131100882309F462C00E945C08B8E0BA95F1F73C
S1131110000088E50E942908882309F458C0AE011C
S11311204F5F5F4F8E01005F1F4FECEBF0E094ECDC
S11311302BEB30E0908380818823ECF7D9018C91EC
S1131140DA018D93AD01A017B107A1F784E880936C
S1131150BC00ECEBF0E080818823ECF78091BB00CD
S1131160888B0E945C08DE0114966E2D7F2D4C91B5
S1131170242F2073CD010297FC01808190E0F0E1DF
S11311802F9F800D911D1124FB0191838083842F57
S1131190807C90E0880F991F880F991F9D01215032
S11311A03109F9012081820F911DFB019383828310
S11311B04F704483158213966A5F7F4F0A171B078B
S11311C0B1F681E005C080E003C080E001C080E0AA
S11311D060960FB6F894DEBF0FBECDBFDF91CF91FE
S11311E01F910F91FF90EF9008950E944A0788E5A0
S11311F00E944308882309F4C7C080E30E941A08A8
S1131200882309F4C3C081E00E941A08882309F4E2
S1131210BFC00E945C0883EC99E00197F1F700C01D
S1131220000088E50E944308882309F4B3C080E0E5
S11312300E941A08882309F4AFC080E00E941A08AB
S1131240882309F4ABC080E00E941A08882309F4BB
S1131250A7C080E00E941A08882309F4A3C080E094
S11312600E941A08882309F49FC080E00E941A088B
S1131270882309F49BC080E00E941A08882309F49B
S113128097C080E90E941A08882309F493C00E9439
S11312905C0883EC99E00197F1F700C0000088E551
S11312A00E944308882309F487C087E00E941A0833
S11312B0882309F483C080E00E941A08882309F473
S11312C07FC081E40E941A08882309F47BC00E942D
S11312D05C0883EC99E00197F1F700C0000088E511
S11312E00E944308882309F46FC08AE10E941A0807
S11312F0882309F46BC080E40E941A08882309F447
S113130067C080E00E941A08882309F463C00E9421
S11313105C0883EC99E00197F1F700C0000088E5D0
S11313200E944308882309F457C083E30E941A08E3
S1131330882309F453C083E00E941A08882309F41F
S11313404FC00E945C0883EC99E00197F1F700C05C
S1131350000088E50E944308882309F443C080E321
S11313600E941A08882309F43FC088E00E941A08E2
S11313708823E1F10E945C0883EC99E00197F1F77E
S113138000C0000081E0089580E0089580E00895A1
S113139080E0089580E0089580E0089580E0089555
S11313A080E0089580E0089580E0089580E0089545
S11313B080E0089580E0089580E0089580E0089535
S11313C080E0089580E0089580E0089580E0089525
S11313D080E0089580E0089580E0089580E0089515
S11313E080E0089580E0089580E0089580E0089505
S11313F087E891E090939900809398003E9AE1E900
S1131400F0E080818F7E8083808188608083A0E982
S1131410B0E08C918D7F8C938C918E7F8C938C918A
S11314208F778C938C9180648C93A1E7B0E08C913E
S113143082608C9380818460808380818D7F8083AF
S11314408081816080830895ECE7F0E080818F776C
S11314508083808180648083AAE7B0E08C9184607B
S11314608C938C9182608C938C9181608C93EEE749
S1131470F0E08081816080838081826080838081CC
S113148080618083808180628083808180648083A6
S1131490808180688083EDE7F0E0808181608083D3
S11314A08081826080838C9180628C930895EAE7C6
S11314B0F0E020812F7720838330910509F449C01F
S11314C03CF48130910519F19CF5892B79F095C094
S11314D08530910509F45FC00CF44CC08630910549
S11314E009F46AC0079709F088C077C0EBE7F0E019
S11314F080818F7D8083ECE7F0E080818B7F808327
S113150080818D7F808380818E7F808376C0EBE7AE
S1131510F0E080818F7D8083ECE7F0E080818B7F39
S1131520808380818D7F808380818160808365C09A
S1131530EBE7F0E080818F7D8083ECE7F0E0808151
S11315408460808380818D7F808380818E7F80838F
S113155054C0EBE7F0E080818F7D8083ECE7F0E01E
S113156080818460808380818D7F8083808181609D
S1131570808343C0EBE7F0E080818F7D8083ECE7DC
S1131580F0E08081846080838081826080838081B8
S11315908E7F808332C0EBE7F0E080818F7D808393
S11315A0ECE7F0E0808184608083808182608083C6
S11315B080818160808321C0EBE7F0E080818062DC
S11315C08083ECE7F0E080818B7F808380818D7F56
S11315D0808380818E7F808310C0EBE7F0E0808180
S11315E080628083ECE7F0E080818B7F8083808160
S11315F08D7F8083808181608083EAE7F0E0808151
S1131600806880838081806480830895CF93DF9392
S1131610CDB7DEB7C455D1090FB6F894DEBF0FBEFF
S1131620CDBF81E1FE013196DF01282F1D922A955D
S1131630E9F7FE017296DF011D928A95E9F71CAE67
S11316401BAE1EAE1DAE21961FAE1EAE2197FE012F
S1131650EF5BFF4F80E1DF011D928A95E9F7E1E638
S1131660F0E080E8808310826A9A729A6E9A769A81
S11316700E944A070E94F8090E94240A0E94F50861
S11316808823E1F36A9A7298BFE3EDE0F3E0B15086
S1131690E040F040E1F700C000006A9A729A41E12C
S11316A069E481E00E945B077894CE01CF9663964B
S11316B09FAF8EAF6397DE01DD966596BFAFAEAF89
S11316C065970F2EFAE76F2E712CF02D0F2EF8E789
S11316D04F2E512CF02D0F2EF1E42F2E312CF02D06
S11316E02C0E3D1EB0E12B0E311CCE0183960E94C0
S11316F06008882309F4A3C0AFA8B8ACC9A8DAA8C5
S1131700EBA4FCA40DA11EA12DA93EA94FA558A987
S113171069A57AA56396EFAD6397EF936296FFADE3
S11317206297FF9365968FAD65978F9364969FAD8F
S113173064979F930F2EFBE38F2E912CF02D8C0E2C
S11317409D1E8BA19CA10E949B000F900F900F9057
S11317500F90811114C06E9A9EB180E489278EB9CE
S113176082E99FEF9CAF8BAF86E490E09EAF8DAF94
S11317708DEF92E021969FAF8EAF219701C06A9AB8
S11317809EB184E089278EB95AC0C8010E94570AC5
S1131790D3018C9184FFFCCFF20180819181D70128
S11317A08D939D937D01F3018081806180830F5F20
S11317B01F4F0830110549F780912C0190912D019C
S11317C0019709F092CF82E089838BAD8A838DAD36
S11317D08B8360E870E021968EAD9FAD21970E94C7
S11317E0940F6C838D8341E1BE016F5F7F4F87E46B
S11317F00E94B10783E08A8B8E010C5E1F4F60E06C
S113180071E0D6018D919D916D010E94940FF801B4
S113181031976083F80180830E5F1F4FC214D30495
S113182071F741E1BE016E5E7F4F87E40E94B1070C
S113183010922D0110922C016E9A769A56CF0F2E8B
S1131840F1E4CF2ED12CF02DCC0EDD1E760100E07C
S113185010E09BCF1F920F920FB60F9211248F931B
S11318609F9381E090E090932D0180932C019F91B0
S11318708F910F900FBE0F901F9018955058BB2753
S1131880AA270ED027C2F0D130F0F5D120F031F4E0
S11318909F3F11F41EF4C0C10EF4E095E7FBB6C1FE
S11318A0E92F3AD280F3BA176207730784079507C2
S11318B018F071F49EF552C20EF4E0950B2EBA2F77
S11318C0A02D0B01B90190010C01CA01A001112442
S11318D0FF27591B99F0593F50F4503E68F11A16EE
S11318E0F040A22F232F342F4427585FF3CF46957F
S11318F037952795A795F0405395C9F77EF41F16A1
S1131900BA0B620B730B840BBAF09150A1F0FF0F6A
S1131910BB1F661F771F881FC2F70EC0BA0F621F56
S1131920731F841F48F4879577956795B795F79546
S11319309E3F08F0B3CF9395880F08F09927EE0FD8
S113194097958795089590D158F080E891E009F42F
S11319509EEF91D128F040E851E059F45EEF09C0C0
S11319605BC1FCC1E92FE078D7D168F3092E052AC1
S1131970C1F3261737074807590738F00E2E07F822
S1131980E02569F0E025E0640AC0EF6307F80094FD
S113199007FADB01B9019D01DC01CA01AD01EF9336
S11319A04AD098D10AD05F91552331F02BED3FE016
S11319B049E450FD49EC63CF0895DF93DD27B92F47
S11319C0BF7740E85FE31616170648075B0710F475
S11319D0D92FCFD19F938F937F936F937CD2ECEACF
S11319E0F0E01DD177D12F913F914F915F91D4D1E8
S11319F0DD2349F09058A2EA2AED3FE049EC5FE389
S1131A00D0785D274DDFDF9165C1DCD008F481E03B
S1131A10089539D1E3956FC10CD05CC12CD140F04D
S1131A2023D130F021F45F3F19F0F0C0511197C178
S1131A30F3C072D198F39923C9F35523B1F3951BDD
S1131A40550BBB27AA2762177307840738F09F5FDB
S1131A505F4F220F331F441FAA1FA9F333D00E2E4A
S1131A603AF0E0E830D091505040E695001CCAF7B7
S1131A7029D0FE2F27D0660F771F881FBB1F26177C
S1131A8037074807AB07B0E809F0BB0B802DBF014F
S1131A90FF2793585F4F2AF09E3F510568F0B6C068
S1131AA05EC15F3FECF3983EDCF3869577956795CE
S1131AB0B795F7959F5FC9F7880F911D9695879500
S1131AC097F90895E1E0660F771F881FBB1F62171F
S1131AD073078407BA0720F0621B730B840BBA0BDD
S1131AE0EE1F88F7E095089504D06894B11137C1CA
S1131AF008951AD188F09F5790F0B92F9927B751BC
S1131B00A0F0D1F0660F771F881F991F1AF0BA95BD
S1131B10C9F712C0B13081F021D1B1E008951EC1DE
S1131B20672F782F8827B85F39F0B93FCCF38695B3
S1131B3077956795B395D9F73EF490958095709510
S1131B4061957F4F8F4F9F4F0895E89409C097FB8D
S1131B503EF490958095709561957F4F8F4F9F4F80
S1131B609923A9F0F92F96E9BB279395F6958795C4
S1131B7077956795B795F111F8CFFAF4BB0F11F487
S1131B8060FF1BC06F5F7F4F8F4F9F4F16C088232E
S1131B9011F096E911C0772321F09EE8872F762F64
S1131BA005C0662371F096E8862F70E060E02AF0A5
S1131BB09A95660F771F881FDAF7880F9695879591
S1131BC097F90895990F0008550FAA0BE0E8FEEF66
S1131BD016161706E807F907C0F012161306E407ED
S1131BE0F50798F0621B730B840B950B39F40A26E6
S1131BF061F0232B242B252B21F408950A2609F4C4
S1131C00A140A6958FEF811D811D089597F99F67C7
S1131C1080E870E060E008959FEF80EC0895DF9322
S1131C20CF931F930F93FF92EF92DF927B018C016E
S1131C30689405C0DA2EEF01AFD0FE01E894A591B7
S1131C402591359145915591AEF3EF0129DEFE01C1
S1131C509701A801DA9479F7DF90EF90FF900F9144
S1131C601F91CF91DF91089500240A941616170648
S1131C7018060906089500240A9412161306140679
S1131C8005060895C9CF50D0E8F3E894E0E0BB27F7
S1131C909F57F0F02AED3FE049EC06C0EE0FBB0F72
S1131CA0661F771F881F28F0B23A620773078407FC
S1131CB028F0B25A620B730B840BE3959A9572F772
S1131CC0803830F49A95BB0F661F771F881FD2F7B0
S1131CD0904806C1092E0394000C11F4882352F095
S1131CE0BB0F40F4BF2B11F460FF04C06F5F7F4F44
S1131CF08F4F9F4F0895EF93E0FF06C0A2EA2AEDAD
S1131D003FE049EC5FEBCCDDE5DF0F90039401FC91
S1131D109058E9EDF0E0F7C057FD9058440F551F77
S1131D2059F05F3F71F04795880F97FB991F61F059
S1131D309F3F79F087950895121613061406551FD0
S1131D40F2CF4695F1DF08C0161617061806991F3C
S1131D50F1CF86957105610508940895E894BB2731
S1131D6066277727CB0197F908952CDF08F48FEFC6
S1131D7008959B01AC0160E070E080E89FE34CCEE5
S1131D800BD0A8CF71DF28F076DF18F0952309F087
S1131D903DCF42CF1124E3CFBFDFA0F3959FD1F312
S1131DA0950F50E0551F629FF001729FBB27F00D05
S1131DB0B11D639FAA27F00DB11DAA1F649F66275A
S1131DC0B00DA11D661F829F2227B00DA11D621FA9
S1131DD0739FB00DA11D621F839FA00D611D221F63
S1131DE0749F3327A00D611D231F849F600D211D47
S1131DF0822F762F6A2F11249F5750408AF0E1F0EA
S1131E0088234AF0EE0FFF1FBB1F661F771F881F32
S1131E1091505040A9F79E3F510570F0F7CE9FCFE7
S1131E205F3FECF3983EDCF3869577956795B7951D
S1131E30F795E7959F5FC1F7FE2B880F911D969547
S1131E40879597F908959F931EDF0F9007FCEE5F27
S1131E5052CF11F40EF4E0CE41C066DFD0F39923E3
S1131E60D9F3CEF39F57550B87FF46D00024A0E645
S1131E7040EA900180585695979528F4805C660F47
S1131E80771F881F20F026173707480730F4621B96
S1131E90730B840B202931294A2BA6951794079498
S1131EA0202531254A2758F7660F771F881F20F011
S1131EB026173707480730F4620B730B840B200D89
S1131EC0311D411DA09581F7B901842F9158880FC8
S1131ED09695879508959B01AC0152CF9F3F31F0B1
S1131EE0915020F4879577956795B795880F911D44
S1131EF09695879597F9089591505040660F771FEE
S1131F00881FD2F708959F938F937F936F93FF93C6
S1131F10EF939B01AC0134DFEF91FF9180DE2F91B1
S1131F203F914F915F912CCF97FB072E16F40094AD
S1131F3007D077FD09D00E94A80F07FC05D03EF416
S1131F40909581959F4F0895709561957F4F089561
S1131F50AA1BBB1B51E107C0AA1FBB1FA617B707CB
S1131F6010F0A61BB70B881F991F5A95A9F78095E7
S10F1F709095BC01CD010895F894FFCFBA
S1071F7C80010002DA
S9030000FC
