:100000000C947C000C9499000C9499000C94990029
:100010000C9499000C9499000C9499000C949900FC
:100020000C9499000C9499000C9499000C949900EC
:100030000C9499000C9499000C9499000C949900DC
:100040000C9499000C9499000C9499000C949900CC
:100050000C9499000C9499000C9499000C949900BC
:100060000C9499000C9499000C9499000C949900AC
:100070000C9499000C9499000C9499000C9499009C
:100080000C9499000C9499000C9499000C9499008C
:100090000C9499000C9499000C9499000C9499007C
:1000A0000C9499000C94350D0C949900084AD73B98
:1000B0003BCE016E84BCBFFDC12F3D6C74319ABD37
:1000C00056833DDA3D00C77F11BED9E4BB4C3E915B
:1000D0006BAAAABE000000803F05A84CCDB2D44E4A
:1000E000B93836A9020C50B9918688083CA6AAAA4C
:1000F0002ABE000000803F0011241FBECFEFDAE0CF
:10010000DEBFCDBF11E0A0E0B1E0EEEEF6E202C04E
:1001100005900D92A830B107D9F721E0A8E0B1E031
:1001200001C01D92AE36B207E1F70E9490090C940F
:1001300075130C9400002F923F924F925F926F9232
:100140007F928F929F92AF92BF92CF92DF92EF9267
:10015000FF920F931F93CF93DF93CDB7DEB728970E
:100160000FB6F894DEBF0FBECDBF98868F82109277
:100170000901109208018F3FE3E09E0701F16F3FF4
:10018000F3E07F07E1F04F3FE3E05E07C1F02F3F70
:10019000F3E03F07A1F00F3FE3E01E0781F0FFEF20
:1001A000EF16F3E0FF0659F0EFEFCE16E3E0DE06C0
:1001B00031F0FFEFAF16F3E0BF0609F0A4C681E00F
:1001C00090E09093090180930801D1C3F801A080C9
:1001D000B180C280D3800C5F1F4F262D372D482D54
:1001E000592D6A2D7B2D8C2D9D2D0E946E12181677
:1001F00034F4FA82E9826A2C7B2C8C2C9D2C222DE3
:10020000332D442D552D6A2D7B2D8C2D9D2D0E9437
:10021000BE10882334F4FE82ED822A2C3B2C4C2C19
:100220005D2CFFEFEF1AFF0A86E0E816F10471F685
:10023000E981FA81E230F10509F43EC134F43097E6
:1002400081F0319709F08DC3A2C089819A818430F1
:10025000910509F45BC20CF4C4C1059709F081C390
:10026000EAC2ED81FE81E230F10539F124F43197E3
:1002700009F06EC009C08D819E8183309105B1F176
:10028000049709F065C04BC08AE391E09093610147
:100290008093600182E391E090934701809346014F
:1002A00086E391E090934901809348018EE291E0CA
:1002B00090935B0180935A0154C38AE391E0909339
:1002C0006101809360018EE291E0909347018093F9
:1002D000460186E391E0909349018093480182E3CF
:1002E00091E090935B0180935A013BC386E391E0D8
:1002F000909361018093600182E391E090934701C4
:10030000809346018AE391E09093490180934801EC
:100310008EE291E090935B0180935A0122C386E3C1
:1003200091E090936101809360018EE291E090935F
:100330004701809346018AE391E0909349018093BD
:10034000480182E391E090935B0180935A0109C3D5
:100350008AE391E0909361018093600186E391E0EC
:10036000909347018093460182E391E09093490185
:10037000809348018EE291E090935B0180935A0153
:1003800081E090E09093090180930801F0C2ED8133
:10039000FE81E230F10531F11CF4EF2B51F06DC01C
:1003A0008D819E8183309105B1F1059709F065C07B
:1003B0004BC08AE391E0909361018093600186E3F2
:1003C00091E0909347018093460182E391E09093FE
:1003D0004901809348018EE291E090935B01809304
:1003E0005A01BFC28AE391E090936101809360015A
:1003F0008EE291E0909347018093460182E391E081
:10040000909349018093480186E391E090935B01CA
:1004100080935A01A6C282E391E090936101809398
:10042000600186E391E090934701809346018AE35F
:1004300091E090934901809348018EE291E090937E
:100440005B0180935A018DC282E391E09093610138
:10045000809360018EE291E0909347018093460182
:100460008AE391E0909349018093480186E391E00B
:1004700090935B0180935A0174C28AE391E0909358
:1004800061018093600186E391E09093470180933E
:10049000460182E391E090934901809348018EE206
:1004A00091E090935B0180935A0181E090E09093FA
:1004B0000901809308015BC2ED81FE81E130F10505
:1004C00031F11CF4EF2B51F06DC08D819E81843091
:1004D0009105B1F1059709F065C04BC08AE391E041
:1004E000909361018093600186E391E090934701CE
:1004F000809346018EE291E09093490180934801F8
:1005000082E391E090935B0180935A012AC28AE3CF
:1005100091E0909361018093600182E391E0909378
:100520004701809346018EE291E0909349018093C8
:10053000480186E391E090935B0180935A0111C2D8
:100540008EE291E0909361018093600186E391E0F7
:1005500090934701809346018AE391E0909349018B
:100560008093480182E391E090935B0180935A016C
:10057000F8C18EE291E0909361018093600182E383
:1005800091E090934701809346018AE391E0909334
:1005900049018093480186E391E090935B01809349
:1005A0005A01DFC18AE391E0909361018093600179
:1005B00086E391E0909347018093460182E391E0C6
:1005C00090934901809348018EE291E090935B0102
:1005D00080935A0181E090E0909309018093080193
:1005E000C6C1ED81FE81E130F10531F11CF4EF2B44
:1005F00051F06DC08D819E8184309105B1F10597D8
:1006000009F065C04BC086E391E09093610180934F
:1006100060018AE391E0909347018093460182E371
:1006200091E090934901809348018EE291E090938C
:100630005B0180935A0195C182E391E0909361013F
:10064000809360018AE391E0909347018093460193
:1006500086E391E090934901809348018EE291E016
:1006600090935B0180935A017CC186E391E0909363
:100670006101809360018EE291E090934701809345
:10068000460182E391E090934901809348018AE317
:1006900091E090935B0180935A0163C182E391E002
:1006A00090936101809360018EE291E09093470105
:1006B0008093460186E391E090934901809348013D
:1006C0008AE391E090935B0180935A014AC18AE3E7
:1006D00091E0909361018093600186E391E09093B3
:1006E00047018093460182E391E090934901809312
:1006F00048018EE291E090935B0180935A0181E082
:1007000090E0909309018093080131C1ED81FE8151
:10071000E230F10531F11CF4EF2B51F06DC08D8109
:100720009E8183309105B1F1059709F065C04BC0FA
:1007300086E391E090936101809360018AE391E008
:1007400090934701809346018EE291E09093490196
:100750008093480182E391E090935B0180935A017A
:1007600000C18EE291E090936101809360018AE381
:1007700091E0909347018093460186E391E0909346
:1007800049018093480182E391E090935B0180935B
:100790005A01E7C086E391E0909361018093600184
:1007A00082E391E090934701809346018EE291E0CD
:1007B00090934901809348018AE391E090935B0113
:1007C00080935A01CEC08EE291E0909361018093B4
:1007D000600182E391E0909347018093460186E3B4
:1007E00091E090934901809348018AE391E09093CE
:1007F0005B0180935A01B5C08AE391E09093610157
:100800008093600186E391E09093470180934601D5
:1008100082E391E090934901809348018EE291E058
:1008200090935B0180935A0181E090E090930901DD
:10083000809308019CC0ED81FE81E230F10539F121
:1008400024F4319709F06EC009C08D819E818330F8
:100850009105B1F1049709F065C04BC082E391E0C6
:1008600090936101809360018AE391E09093470146
:10087000809346018EE291E0909349018093480174
:1008800086E391E090935B0180935A016AC08EE207
:1008900091E090936101809360018AE391E09093ED
:1008A00047018093460182E391E090934901809350
:1008B000480186E391E090935B0180935A0151C017
:1008C00082E391E0909361018093600186E391E07F
:1008D00090934701809346018EE291E09093490105
:1008E000809348018AE391E090935B0180935A01E1
:1008F00038C08EE291E0909361018093600186E3BD
:1009000091E0909347018093460182E391E09093B8
:100910004901809348018AE391E090935B018093C1
:100920005A011FC08AE391E09093610180936001B6
:1009300086E391E0909347018093460182E391E042
:1009400090934901809348018EE291E090935B017E
:1009500080935A0181E090E090930901809308010F
:1009600006C08091080190910901892BD1F08091F6
:10097000140190911501EF8DF8A1918380838091EE
:10098000120190911301EF81F8859183808380910A
:10099000100190911101ED8DFE8D9183808380E097
:1009A000DEC3262D372D482D592D60E070E088EEEE
:1009B00091E40E94C510262E372E482E592EE09025
:1009C0006001F09061010F2EF2E58F2EF1E09F2E75
:1009D000F02DF70160817181882777FD8095982F30
:1009E0000E946011222D332D442D552D0E94791225
:1009F0000E942D11F401718360830F2EF4E56F2E98
:100A0000F1E07F2EF02DF70162817381882777FD59
:100A10008095982F0E946011222D332D442D552D45
:100A20000E9479120E942D11F3017183608300915D
:100A30004801109149010F2EF2E4AF2EF1E0BF2ED4
:100A4000F02DF80160817181882777FD8095982FBE
:100A50000E946011222D332D442D552D0E947912B4
:100A60000E942D11F501718360830F2EF4E4CF2EC7
:100A7000F1E0DF2EF02DF80162817381882777FD88
:100A80008095982F0E946011222D332D442D552DD5
:100A90000E9479120E942D11F60171836083F70183
:100AA00060817181F80180819181680F791F8827A9
:100AB00077FD8095982F0E94601120E030E040E0A3
:100AC0005FE30E9479120E942D11E9A1FAA17183BE
:100AD0006083A0916001B0916101E0914801F091C3
:100AE000490112966D917C91139782819381680FD1
:100AF000791F882777FD8095982F0E94601120E04C
:100B000030E040E05FE30E9479120E942D11EBA1DA
:100B1000FCA171836083F40160817181F5018081A2
:100B20009181680F791F882777FD8095982F0E9403
:100B3000601120E030E040E05FE30E9479120E9403
:100B40002D111B017093670160936601F3016081B1
:100B50007181F60180819181680F791F882777FD67
:100B60008095982F0E94601120E030E040E05FE324
:100B70000E9479120E942D118B017093690160937C
:100B80006801229CB001239C700D700D1124009F00
:100B9000C001019F900D900D1124680F791F8827C7
:100BA00077FD8095982F0E9460110E94E6122B011C
:100BB0003C0160934A0170934B0180934C019093E8
:100BC0004D0180914801909149019A838983E09178
:100BD0006001F0916101FE83ED83FC016081718110
:100BE000ED81FE8180819181681B790B882777FDDB
:100BF0008095982F0E9460116B017C01E981FA8138
:100C000062817381ED81FE8182819381681B790B02
:100C1000882777FD8095982F0E946011A701960183
:100C20000E946B104B015C01609356017093570159
:100C30008093580190935901ED81FE81608171810B
:100C4000E981FA8180819181681B790B882777FD82
:100C50008095982F0E9460116B017C01ED81FE81CF
:100C600062817381E981FA8182819381681B790BAA
:100C7000882777FD8095982F0E946011A701960123
:100C80000E946B106B017C0160934E0170934F01C9
:100C90008093500190935101B801882777FD80958A
:100CA000982F0E94601169837A838B839C83B101A2
:100CB000882777FD8095982F0E94601129813A81BD
:100CC0004B815C810E946B109B01AC01DC01CB016C
:100CD000B05880936A0190936B01A0936C01B0931C
:100CE0006D0177FA709477F87094C501B4010E9491
:100CF000F80F862E972EA82EB92E0E94C2109B01A7
:100D0000AC01C301B2010E9479120E942D118B0126
:100D100070930D0160930C01682D792D8A2D9B2D08
:100D20000E94DC129B01AC01C301B2010E94791246
:100D30000E942D1170930B0160930A0120E030E0B6
:100D400044E353E4C701B6010E9479122BED3FE062
:100D500049E450E40E94C5100E942D1170930F01C8
:100D600060930E01C0900001D0900101E09002015B
:100D7000F09003016091120170911301882777FDB3
:100D80008095982F0E946011A70196010E94791208
:100D90004B015C01A701960160E070E080E89FE3F1
:100DA0000E94F70F6B017C01B801882777FD8095C1
:100DB000982F0E9460119B01AC01C701B6010E94EF
:100DC00079129B01AC01C501B4010E94F80F0E9489
:100DD0002D11EF81F88571836083C0900001D09060
:100DE0000101E0900201F090030160911001709107
:100DF0001101882777FD8095982F0E946011A70127
:100E000096010E9479124B015C01A701960160E0F6
:100E100070E080E89FE30E94F70F6B017C01609116
:100E20000A0170910B01882777FD8095982F0E9409
:100E300060119B01AC01C701B6010E9479129B01B0
:100E4000AC01C501B4010E94F80F0E942D11ED8D77
:100E5000FE8D71836083C0900001D0900101E0900D
:100E60000201F0900301609114017091150188272F
:100E700077FD8095982F0E946011A70196010E942E
:100E800079124B015C01A701960160E070E080E8F7
:100E90009FE30E94F70F6B017C0160910E0170913E
:100EA0000F01882777FD8095982F0E9460119B0184
:100EB000AC01C701B6010E9479129B01AC01C501CA
:100EC000B4010E94F80F0E942D11EF8DF8A17183DB
:100ED0006083EF81F88580819181909313018093E5
:100EE0001201ED8DFE8D808191819093110180938F
:100EF0001001EF8DF8A1808191819093150180936D
:100F0000140181E02CC1E0910601F09107014C0130
:100F10008E1A9F0A90923B0180923A0180910401BF
:100F200090910501081B190B10933D0100933C01A2
:100F30003B016E1A7F0A7092370160923601E81AFF
:100F4000F90AF0923901E09238012A014E1A5F0A3B
:100F500050923301409232011601281A390A309218
:100F60003501209234016901CE1ADF0AD0922F0197
:100F7000C0922E01A81AB90AB0923101A092300194
:100F8000930128193909C701801B910B229FB001D9
:100F9000239F700D700D1124889F9001899F300D43
:100FA000300D1124620F731F882777FD8095982FCD
:100FB0000E9460110E94E61260931601709317015F
:100FC0008093180190931901920128193909C101E0
:100FD000801B910B229FB001239F700D700D112477
:100FE000889F9001899F300D300D1124620F731F6F
:100FF000882777FD8095982F0E9460110E94E61245
:1010000060931A0170931B0180931C0190931D0142
:10101000960128193909C501801B910B229FB00147
:10102000239F700D700D1124889F9001899F300DB2
:10103000300D1124620F731F882777FD8095982F3C
:101040000E9460110E94E61260931E0170931F01BE
:101050008093200190932101920126193709C10143
:101060008E199F09229FB001239F700D700D1124CE
:10107000889F9001899F300D300D1124620F731FDE
:10108000882777FD8095982F0E9460110E94E612B4
:101090006093220170932301809324019093250192
:1010A000960126193709C5018E199F09229FB001A3
:1010B000239F700D700D1124889F9001899F300D22
:1010C000300D1124620F731F882777FD8095982FAC
:1010D0000E9460110E94E61260932601709327011E
:1010E0008093280190932901C418D508A218B30849
:1010F000CC9CB001CD9C700D700D1124AA9CC00138
:10110000AB9C900D900D1124680F791F882777FDF7
:101110008095982F0E9460110E94E61260932A0128
:1011200070932B0180932C0190932D0106E111E027
:10113000E12CF12C1E821D821A821982212C6894C6
:10114000332436F80F2EFCE14F2EF02D0F2EF6E44F
:101150005F2EF02D612C712C812C912C37C8289694
:101160000FB6F894DEBF0FBECDBFDF91CF911F91B8
:101170000F91FF90EF90DF90CF90BF90AF909F9036
:101180008F907F906F905F904F903F902F90089539
:10119000269A279A84EF91E09093890080938800A3
:1011A00010928B0010928A0010928D0010928C0089
:1011B000A1E8B0E08C9180618C938C9188608C93D5
:1011C000E0E8F0E0808182608083808181608083BC
:1011D00080818062808380818F7E8083808188602F
:1011E000808380818B7F80838C918B7F8C938C918B
:1011F0008D7F8C938C9181608C93089583EC809388
:10120000D100E3ECF0E080818D7F808380818E7F50
:101210008083E2E7F0E0808184608083E1ECF0E0AD
:1012200080818860808380818460808380818D7FDD
:1012300080838081816080830895ECE7F0E0808185
:101240008F778083808180648083AAE7B0E08C916F
:1012500084608C938C9182608C938C9181608C9350
:10126000EEE7F0E08081816080838081826080830E
:1012700080818061808380818062808380818064BE
:101280008083808180688083EDE7F0E080818160E9
:1012900080838081826080838C9180628C930895AA
:1012A000209A219A289A29982298089510928B00C2
:1012B00010928A0010928D0010928C000895289A46
:1012C000299A88E691E090938B0080938A008CE7BE
:1012D00091E090938D0080938C006A9A729A0895A1
:1012E0002898299888E691E090938B0080938A0053
:1012F0008CE791E090938D0080938C006A9A7298AD
:1013000008952898299A80E791E090938B00809324
:101310008A0083E891E090938D0080938C0008957B
:10132000CF93DF93CDB7DEB7CF54D1090FB6F89482
:10133000DEBF0FBECDBF1A8219821C821B82FE0146
:10134000359683E1DF011D928A95E9F719AA18AA5B
:101350001BAA1AAA1DAA1CAAE1E6F0E080E8808375
:1013600010826A9A729A6E9A769A6E9A76980E940B
:10137000490D0E9450090E94C8080E94FE080E9460
:101380001D090E94F40E8823E1F3BFE3EDE0F3E0D2
:10139000B150E040F040E1F700C000006E9A769A4C
:1013A00043E169E481E00E945A0D7894212C312CAC
:1013B0002C961CAE1DAE1EAE1FAE2C9725961FAEF2
:1013C000259726961FAE269727961FAE2797289615
:1013D0001FAE28972D961FAE2D972E961FAE2E97D7
:1013E0002F961FAE2F9760961FAE609724961CAE67
:1013F0001DAE1EAE1FAE2497412C512C612C712CBA
:101400009E012D5F3F4F3FAB2EABCE01019699AFB2
:1014100088AFDE01D496BBAFAAAFFE01F296FDAF56
:10142000ECAF19C06894662461F8712C14C0212CAB
:10143000312C11C0212C312C0EC0212C312C0BC091
:101440000F2EF3E06F2E712CF02D05C0612C712C46
:1014500002C0612C712CF894CE0148960E945F0E58
:1014600078948823A9F1ACA4BDA4CEA0DFA0E8A005
:10147000F9A00A8D1B8D2AA53BA54CA15DA16E8DFF
:101480007F8DFFA9FF938EA98F9399AD9F93A8ADF0
:10149000AF93BBADBF93EAADEF93FDADFF938CADC2
:1014A0008F930F2EF0E38F2E912CF02D8C0E9D1E1E
:1014B000888D998D0E949B000FB6F894DEBF0FBEF9
:1014C000CDBF811103C06E9A769801C06E9A769A4C
:1014D0008091400190914101019709F081C0EEE3B4
:1014E000F1E080818D8388A98E838AA98F8360E84B
:1014F00070E08CA99DA90E944D13688789876A8630
:1015000024966CAD7DAD8EAD9FAD24970E942D11BC
:10151000DC01CB0160E870E00E944D136B878C8783
:101520002D965FAD2D972E964FAD2E972F963FADF2
:101530002F9760962FAD6097652F742F832F922F72
:101540000E942D11DC01CB0160E870E00E944D1378
:101550006D878E8725965FAD259726964FAD26978A
:1015600027963FAD279728962FAD2897652F742F84
:10157000832F922F0E942D11DC01CB0160E870E0D7
:101580000E944D136F87888B2C966CAD7DAD8EAD10
:101590009FAD2C970E942D11DC01CB0160E870E01B
:1015A0000E944D13698B8A8B60E870E089819A8173
:1015B0000E944D136B8B8C8B60E870E08B819C815B
:1015C0000E944D136D8B8E8B2F8A43E1BE016B5FA2
:1015D0007F4F80E60E94B00D1092410110924001B1
:1015E00080913E0190913F01009721F0019709F011
:1015F00025C217C01A9B07C00F2EFDE84F2E552499
:101600005A94F02D05C00F2EF3E74F2E512CF02DDC
:1016100021E030E030933F0120933E01612C712C9A
:101620001ACF6114710409F055C088A999A9B201B3
:10163000681B790B882777FD8095982F0E94601191
:10164000462F572F682F792F24964CAF5DAF6EAF82
:101650007FAF24976AA97BA9719561957109882745
:1016600077FD8095982F0E946011262F372F482FE5
:10167000592F2D966FAF2D972E967FAF2E972F96C1
:101680008FAF2F9760969FAF609724966CAD7DAD1E
:101690008EAD9FAD249790580E946B1020E030E0F3
:1016A00044E353E40E9479122BED3FE049E450E417
:1016B0000E94C51025966FAF259726967FAF269777
:1016C00027968FAF279728969FAF28976624639415
:1016D000712CC1CE31E06316710409F01FC188A9D5
:1016E00099A9B201681B790B882777FD8095982FFF
:1016F0000E946011462F572F682F792F24964CAFE8
:101700005DAF6EAF7FAF24976AA97BA97195619594
:101710007109882777FD8095982F0E946011262FE8
:10172000372F482F592F2D966FAF2D972E967FAFBD
:101730002E972F968FAF2F9760969FAF6097249626
:101740006CAD7DAD8EAD9FAD249790580E946B100F
:1017500020E030E044E353E40E9479122BED3FE0B7
:1017600049E450E40E94C510B62EA72E982E892E6B
:1017700025966FAF259726967FAF269727968FAF32
:10178000279728969FAF28970CA91DA9B8018827ED
:1017900077FD8095982F0E9460116B017C0120E0FD
:1017A00030E040EE50E46B2D7A2D892D982D0E946B
:1017B000F70F9B01AC01C701B6010E946E1288238E
:1017C0009CF020E030E040EE50E46B2D7A2D892D26
:1017D000982D0E94F80F9B01AC01C701B6010E9431
:1017E000BE1018160CF01ECE20E030E044E353E4A7
:1017F0006B2D7A2D892D982D0E94F70F362E272ECE
:101800008EAF9FAF20E030E044E353EC0E94BE1067
:1018100088230CF01CC120E030E044EB53E4FEAD23
:10182000EFAD632D722D8F2F9E2F0E94F80F6EAF9C
:101830007FAF282E392EA70196016B2D7A2D892D89
:10184000982D0E946E1288237CF532C0A701960164
:101850006B2D7A2D892D982D0E946E12882334F0DD
:101860000E94700922242394312CF5CD9EAD8FADBA
:10187000232D322D492F582FC701B6010E94BE10CB
:1018800088235CF0A70196016B2D7A2D892D982D68
:101890000E94BE1088230CF0CACD0E945F09689494
:1018A000222421F8312CD7CD0C348FEF18077CF48B
:1018B0007EAD6FAD272F362F422D532DC701B601B8
:1018C0000E946E1288235CF0053B110544F40E94CF
:1018D00070090F2EF3E02F2E312CF02DBCCDA70177
:1018E00096016B2D7A2D892D982D0E94BE1088238C
:1018F0000CF0A0CD7EAD6FAD272F362F422D532D8E
:10190000C701B6010E94BE1088230CF096CD0E943C
:101910005F096894222422F8312C9DCD92E069164B
:10192000710409F07BC028A939A9241935098AA9AD
:101930009BA9229FB001239F700D700D1124889FD9
:101940009001899F300D300D1124620F731F88277D
:1019500077FD8095982F0E9460110E94E6122C96C8
:101960006CAF7DAF8EAF9FAF2C9720E030E040E7AB
:1019700051E40E94BE1088230CF462CD6CA97DA9AD
:10198000882777FD8095982F0E9460116B017C015C
:1019900020E030E040EE50E42596BFAD2597269636
:1019A000AFAD26972796FFAD27972896EFAD2897DE
:1019B0006B2F7A2F8F2F9E2F0E94F70F9B01AC0168
:1019C000C701B6010E94BE1088230CF43FCD20E071
:1019D00030E040EE50E42596FFAD25972696EFAD1A
:1019E00026972796BFAD27972896AFAD28976F2FDC
:1019F0007E2F8B2F9A2F0E94F80F9B01AC01C701FD
:101A0000B6010E946E1218160CF423CD0E948109B3
:101A10000F2EF5E02F2E312CF02D1DCDA3E06A16F0
:101A2000710409F018CDE2E0F0E0F0933F01E0939B
:101A30003E016894662462F8712C0DCD0E9456090F
:101A400083E294EF0197F1F700C00000F9CF9EAD5B
:101A50008FAD232D322D492F582FC701B6010E947B
:101A60006E1288230CF0F2CE01CF1F920F920FB6A8
:101A70000F9211248F939F9381E090E09093410106
:101A8000809340019F918F910F900FBE0F901F90F8
:101A90001895589A599A5A9A8CE08093B800E9E6BA
:101AA000F0E080818062808380818F7E8083EA9AEB
:101AB000789408951F93CF93DF93182FD62FC42FB8
:101AC0000E94490D94EA9093BC00ECEBF0E0908109
:101AD0009923ECF790E59093BB0094E89093BC00B9
:101AE000ECEBF0E090819923ECF79091B900987FAE
:101AF000903229F484E98093BC0080E02DC081E01D
:101B00008093BB0084E88093BC00ECEBF0E0908114
:101B10009923ECF71093BB0084E88093BC00ECEBB6
:101B2000F0E080818823ECF7D093BB0084E88093B9
:101B3000BC00ECEBF0E080818823ECF7C093BB00A5
:101B400084E88093BC00ECEBF0E080818823ECF724
:101B500084E98093BC0081E0DF91CF911F910895CB
:101B6000CF93DF93F89494EA9093BC00ECEBF0E011
:101B700090819923ECF790E59093BB0094E89093C3
:101B8000BC00ECEBF0E090819923ECF79091B90068
:101B9000987F903231F484E98093BC00789480E09F
:101BA00032C093E09093BB0094E89093BC00ECEBC0
:101BB000F0E090819923ECF78093BB0084E8809358
:101BC000BC00ECEBF0E080818823ECF7242F30E0C0
:101BD000121613069CF4A62FB72F80E090E0CBEBF3
:101BE000D0E0ECEBF0E054E84D9148835083408125
:101BF0004423ECF7019682179307B4F384E98093AA
:101C0000BC00789481E0DF91CF91089520E030E02E
:101C1000ECEBF0E08081882334F02F5F3F4F293ECA
:101C200083E03807B9F781E0283E334009F480E0CB
:101C300008958093BB0084E88093BC000E94060E48
:101C4000882321F08091B900887F089580E008956D
:101C5000CF93C82F94EA9093BC000E94060E88236D
:101C600061F08C2F880F8F5F0E94190E883439F431
:101C700084E98093BC0080E003C080E001C081E083
:101C8000CF910895CF93C82F94EA9093BC000E94FF
:101C9000060E882359F08C2F880F0E94190E80326F
:101CA00039F484E98093BC0080E003C080E001C087
:101CB00081E0CF91089584E98093BC000895EF926C
:101CC000FF920F931F93CF93DF93CDB7DEB760974B
:101CD0000FB6F894DEBF0FBECDBFE82EF92EFE0181
:101CE000319680E1DF011D928A95E9F788E50E942F
:101CF000420E882309F466C086E30E94190E8823E9
:101D000009F462C00E945B0EB8E0BA95F1F70000DA
:101D100088E50E94280E882309F458C0AE014F5F61
:101D20005F4F8E01005F1F4FECEBF0E094EC2BEB6C
:101D300030E0908380818823ECF7D9018C91DA011F
:101D40008D93AD01A017B107A1F784E88093BC0083
:101D5000ECEBF0E080818823ECF78091BB00888B6E
:101D60000E945B0EDE0114966E2D7F2D4C91242F68
:101D70002073CD010297FC01808190E0F0E12F9F5C
:101D8000800D911D1124FB0191838083842F807C21
:101D900090E0880F991F880F991F9D0121503109EC
:101DA000F9012081820F911DFB01938382834F7083
:101DB0004483158213966A5F7F4F0A171B07B1F69B
:101DC00081E005C080E003C080E001C080E0609653
:101DD0000FB6F894DEBF0FBECDBFDF91CF911F913C
:101DE0000F91FF90EF9008950E94490D88E50E94A1
:101DF000420E882309F4C7C080E30E94190E88238D
:101E000009F4C3C081E00E94190E882309F4BFC001
:101E10000E945B0E83EC99E00197F1F700C000008F
:101E200088E50E94420E882309F4B3C080E00E9436
:101E3000190E882309F4AFC080E00E94190E882390
:101E400009F4ABC080E00E94190E882309F4A7C0F2
:101E500080E00E94190E882309F4A3C080E00E944C
:101E6000190E882309F49FC080E00E94190E882370
:101E700009F49BC080E00E94190E882309F497C0E2
:101E800080E90E94190E882309F493C00E945B0E1A
:101E900083EC99E00197F1F700C0000088E50E940B
:101EA000420E882309F487C087E00E94190E882318
:101EB00009F483C080E00E94190E882309F47FC0D2
:101EC00081E40E94190E882309F47BC00E945B0EF6
:101ED00083EC99E00197F1F700C0000088E50E94CB
:101EE000420E882309F46FC08AE10E94190E8823EC
:101EF00009F46BC080E40E94190E882309F467C0BE
:101F000080E00E94190E882309F463C00E945B0ED2
:101F100083EC99E00197F1F700C0000088E50E948A
:101F2000420E882309F457C083E30E94190E8823C8
:101F300009F453C083E00E94190E882309F44FC0AE
:101F40000E945B0E83EC99E00197F1F700C000005E
:101F500088E50E94420E882309F443C080E30E9472
:101F6000190E882309F43FC088E00E94190E8823C7
:101F7000E1F10E945B0E83EC99E00197F1F700C05C
:101F8000000081E0089580E0089580E0089580E0F9
:101F9000089580E0089580E0089580E0089580E04D
:101FA000089580E0089580E0089580E0089580E03D
:101FB000089580E0089580E0089580E0089580E02D
:101FC000089580E0089580E0089580E0089580E01D
:101FD000089580E0089580E0089580E0089580E00D
:101FE000089580E0089580E0089580E008955058B5
:101FF000BB27AA270ED027C2F0D130F0F5D120F0B0
:1020000031F49F3F11F41EF4C0C10EF4E095E7FBDC
:10201000B6C1E92F3AD280F3BA1762077307840773
:10202000950718F071F49EF552C20EF4E0950B2E50
:10203000BA2FA02D0B01B90190010C01CA01A0011A
:102040001124FF27591B99F0593F50F4503E68F175
:102050001A16F040A22F232F342F4427585FF3CFB6
:10206000469537952795A795F0405395C9F77EF487
:102070001F16BA0B620B730B840BBAF09150A1F0D0
:10208000FF0FBB1F661F771F881FC2F70EC0BA0F56
:10209000621F731F841F48F4879577956795B795DE
:1020A000F7959E3F08F0B3CF9395880F08F09927D6
:1020B000EE0F97958795089590D158F080E891E0BC
:1020C00009F49EEF91D128F040E851E059F45EEF19
:1020D00009C05BC1FCC1E92FE078D7D168F3092EB4
:1020E000052AC1F3261737074807590738F00E2E7F
:1020F00007F8E02569F0E025E0640AC0EF6307F81F
:10210000009407FADB01B9019D01DC01CA01AD01B0
:10211000EF934AD098D10AD05F91552331F02BED3F
:102120003FE049E450FD49EC63CF0895DF93DD279C
:10213000B92FBF7740E85FE31616170648075B071D
:1021400010F4D92FCFD19F938F937F936F937CD22D
:10215000ECEAF0E01DD177D12F913F914F915F9143
:10216000D4D1DD2349F09058A2EA2AED3FE049ECB2
:102170005FE3D0785D274DDFDF9165C1DCD008F4E7
:1021800081E0089539D1E3956FC10CD05CC12CD1A9
:1021900040F023D130F021F45F3F19F0F0C051112D
:1021A00097C1F3C072D198F39923C9F35523B1F3C2
:1021B000951B550BBB27AA2762177307840738F0B6
:1021C0009F5F5F4F220F331F441FAA1FA9F333D015
:1021D0000E2E3AF0E0E830D091505040E695001CC9
:1021E000CAF729D0FE2F27D0660F771F881FBB1F85
:1021F000261737074807AB07B0E809F0BB0B802D5F
:10220000BF01FF2793585F4F2AF09E3F510568F0AA
:10221000B6C05EC15F3FECF3983EDCF386957795E0
:102220006795B795F7959F5FC9F7880F911D9695AC
:10223000879597F90895E1E0660F771F881FBB1F08
:10224000621773078407BA0720F0621B730B840BB5
:10225000BA0BEE1F88F7E095089504D06894B11189
:1022600037C108951AD188F09F5790F0B92F992758
:10227000B751A0F0D1F0660F771F881F991F1AF091
:10228000BA95C9F712C0B13081F021D1B1E00895FB
:102290001EC1672F782F8827B85F39F0B93FCCF37C
:1022A000869577956795B395D9F73EF49095809587
:1022B000709561957F4F8F4F9F4F0895E89409C0A7
:1022C00097FB3EF490958095709561957F4F8F4F69
:1022D0009F4F9923A9F0F92F96E9BB279395F6957F
:1022E000879577956795B795F111F8CFFAF4BB0FFD
:1022F00011F460FF1BC06F5F7F4F8F4F9F4F16C061
:10230000882311F096E911C0772321F09EE8872FEA
:10231000762F05C0662371F096E8862F70E060E0A6
:102320002AF09A95660F771F881FDAF7880F96951F
:10233000879597F90895990F0008550FAA0BE0E8C3
:10234000FEEF16161706E807F907C0F01216130677
:10235000E407F50798F0621B730B840B950B39F4B7
:102360000A2661F0232B242B252B21F408950A261D
:1023700009F4A140A6958FEF811D811D089597F95D
:102380009F6780E870E060E008959FEF80EC08951B
:10239000DF93CF931F930F93FF92EF92DF927B0116
:1023A0008C01689405C0DA2EEF01AFD0FE01E894ED
:1023B000A5912591359145915591AEF3EF0129DE17
:1023C000FE019701A801DA9479F7DF90EF90FF9072
:1023D0000F911F91CF91DF91089500240A94161652
:1023E000170618060906089500240A941216130603
:1023F000140605060895C9CF50D0E8F3E894E0E04C
:10240000BB279F57F0F02AED3FE049EC06C0EE0FE6
:10241000BB0F661F771F881F28F0B23A6207730749
:10242000840728F0B25A620B730B840BE3959A95DC
:1024300072F7803830F49A95BB0F661F771F881F9C
:10244000D2F7904806C1092E0394000C11F488239A
:1024500052F0BB0F40F4BF2B11F460FF04C06F5F5C
:102460007F4F8F4F9F4F0895EF93E0FF06C0A2EA82
:102470002AED3FE049EC5FEBCCDDE5DF0F90039404
:1024800001FC9058E9EDF0E0F7C057FD9058440F7B
:10249000551F59F05F3F71F04795880F97FB991FC3
:1024A00061F09F3F79F08795089512161306140680
:1024B000551FF2CF4695F1DF08C01616170618060D
:1024C000991FF1CF86957105610508940895E894E8
:1024D000BB2766277727CB0197F908952CDF08F4EF
:1024E0008FEF08959B01AC0160E070E080E89FE30E
:1024F0004CCE0BD0A8CF71DF28F076DF18F09523F3
:1025000009F03DCF42CF1124E3CFBFDFA0F3959F69
:10251000D1F3950F50E0551F629FF001729FBB27CA
:10252000F00DB11D639FAA27F00DB11DAA1F649F76
:102530006627B00DA11D661F829F2227B00DA11D29
:10254000621F739FB00DA11D621F839FA00D611DAF
:10255000221F749F3327A00D611D231F849F600DD0
:10256000211D822F762F6A2F11249F5750408AF009
:10257000E1F088234AF0EE0FFF1FBB1F661F771F95
:10258000881F91505040A9F79E3F510570F0F7CE3B
:102590009FCF5F3FECF3983EDCF386957795679588
:1025A000B795F795E7959F5FC1F7FE2B880F911DB3
:1025B0009695879597F908959F931EDF0F9007FCD6
:1025C000EE5F52CF11F40EF4E0CE41C066DFD0F3DF
:1025D0009923D9F3CEF39F57550B87FF46D000249C
:1025E000A0E640EA900180585695979528F4805CC3
:1025F000660F771F881F20F026173707480730F42B
:10260000621B730B840B202931294A2BA695179442
:102610000794202531254A2758F7660F771F881F12
:1026200020F026173707480730F4620B730B840B32
:10263000200D311D411DA09581F7B901842F9158BE
:10264000880F9695879508959B01AC0152CF9F3FC7
:1026500031F0915020F4879577956795B795880F5D
:10266000911D9695879597F9089591505040660F62
:10267000771F881FD2F708959F938F937F936F934F
:10268000FF93EF939B01AC0134DFEF91FF9180DE6C
:102690002F913F914F915F912CCF97FB072E16F40E
:1026A000009407D077FD09D00E94611307FC05D084
:1026B0003EF4909581959F4F0895709561957F4F59
:1026C0000895AA1BBB1B51E107C0AA1FBB1FA61779
:1026D000B70710F0A61BB70B881F991F5A95A9F7CB
:0E26E00080959095BC01CD010895F894FFCF30
:0826EE00CDCC4C3FE601A10137
:00000001FF
