:100000000C94D5000C94F2000C94F2000C942F1177
:100010000C94F2000C94F2000C94F2000C94F20098
:100020000C94F2000C94F2000C9482120C94C01206
:100030000C94F2000C94F2000C94F2000C94F20078
:100040000C94F2000C94F2000C94F2000C94F20068
:100050000C94F2000C94F2000C94F2000C94071132
:100060000C94F2000C94F2000C94F2000C94F20048
:100070000C94F2000C94F2000C94F2000C94F20038
:100080000C94F2000C94F2000C94F2000C94F20028
:100090000C94F2000C94F2000C94F2000C94F20018
:1000A0000C94F2000C94DD100C94F200084AD73B3B
:1000B0003BCE016E84BCBFFDC12F3D6C74319ABD37
:1000C00056833DDA3D00C77F11BED9E4BB4C3E915B
:1000D0006BAAAABE000000803F05A84CCDB2D44E4A
:1000E000B93836A9020C50B9918688083CA6AAAA4C
:1000F0002ABE000000803F000100002B0112000218
:1001000000003D01430003000080010401030904D5
:100110008401120203090498010603030904A001E3
:10012000080001C11201803601813612010002026D
:10013000000010C0167A0400010102030109024305
:1001400000020100C03209040000010202010005A2
:1001500024001001052401010104240206052406DF
:1001600000010705820310004009040100020A0093
:10017000000007050302400000070584024000005C
:100180000403090412034A002E00200046006900FF
:1001900065006E006500000006034D00320000009F
:1001A0000803340031003000000011241FBECFEFDF
:1001B000DAE0DEBFCDBF11E0A0E0B1E0E2E2F3E3C0
:1001C00002C005900D92A031B107D9F721E0A0E15E
:1001D000B1E001C01D92A13AB207E1F70E94A80C5C
:1001E0000C948F190C9400005D9A08955D98089501
:1001F000239A539A2B9A5B9A22982A9A559A5D9839
:100200000895EAE7F0E020812F772083833091057D
:1002100009F449C03CF48130910519F19CF5892B12
:1002200079F095C08530910509F45FC00CF44CC09D
:100230008630910509F46AC0079709F088C077C035
:10024000EBE7F0E080818F7D8083ECE7F0E0808158
:100250008B7F808380818D7F808380818E7F808370
:1002600076C0EBE7F0E080818F7D8083ECE7F0E003
:1002700080818B7F808380818D7F8083808181607E
:10028000808365C0EBE7F0E080818F7D8083ECE7C1
:10029000F0E080818460808380818D7F8083808195
:1002A0008E7F808354C0EBE7F0E080818F7D808378
:1002B000ECE7F0E080818460808380818D7F8083A3
:1002C00080818160808343C0EBE7F0E080818F7D97
:1002D0008083ECE7F0E080818460808380818260AD
:1002E000808380818E7F808332C0EBE7F0E0808165
:1002F0008F7D8083ECE7F0E0808184608083808163
:100300008260808380818160808321C0EBE7F0E0A0
:10031000808180628083ECE7F0E080818B7F808346
:1003200080818D7F808380818E7F808310C0EBE70A
:10033000F0E0808180628083ECE7F0E080818B7F59
:10034000808380818D7F8083808181608083EAE7E4
:10035000F0E08081806880838081806480838081F8
:1003600080618083089583EC8093D100E3ECF0E01A
:1003700080818D7F808380818E7F8083E2E7F0E0C3
:10038000808184608083E1ECF0E0808188608083FC
:1003900080818460808380818D7F80838081816083
:1003A00080830895ECE7F0E080818F7780838081FF
:1003B00080648083AAE7B0E08C9184608C938C91F8
:1003C00082608C938C9181608C93EEE7F0E0808169
:1003D000816080838081826080838081806180836E
:1003E0008081806280838081806480838081806856
:1003F0008083EDE7F0E0808181608083808182608E
:1004000080838C9180628C9308958DE787BD85B53C
:10041000877F85BD84B58D7F84BD84B58E7F84BD87
:1004200085B58B7F85BD85B58D7F85BD85B58E7F77
:1004300085BDEEE6F0E0808181608083089585B51A
:100440008B7F85BD85B58D7F85BD85B5816085BD7B
:10045000089585B58B7F85BD85B58D7F85BD85B5B7
:100460008E7F85BD16BC0895269A279A88E893E169
:10047000909389008093880010928B0010928A00DC
:1004800010928D0010928C00A1E8B0E08C918061F8
:100490008C938C9188608C93E0E8F0E0808182609E
:1004A000808380818160808380818062808380817D
:1004B0008F7E808380818860808380818B7F808332
:1004C0008C918B7F8C938C918D7F8C938C918160A0
:1004D0008C9308952F923F924F925F926F927F92EA
:1004E0008F929F92AF92BF92CF92DF92EF92FF9244
:1004F0000F931F93CF93DF93CDB7DEB728970FB637
:10050000F894DEBF0FBECDBF98868F821092110186
:10051000109210018F3FE3E09E0701F16F3FF3E07F
:100520007F07E1F04F3FE3E05E07C1F02F3FF3E0CC
:100530003F07A1F00F3FE3E01E0781F0FFEFEF164A
:10054000F3E0FF0659F0EFEFCE16E3E0DE0631F000
:10055000FFEFAF16F3E0BF0609F0B0C681E090E010
:100560009093110180931001D1C3F801A080B18054
:10057000C280D3800C5F1F4F262D372D482D592D5B
:100580006A2D7B2D8C2D9D2D0E94B018181634F4E9
:10059000FA82E9826A2C7B2C8C2C9D2C222D332D07
:1005A000442D552D6A2D7B2D8C2D9D2D0E940017DD
:1005B000882334F4FE82ED822A2C3B2C4C2C5D2CBB
:1005C000FFEFEF1AFF0A86E0E816F10471F6E98101
:1005D000FA81E230F10509F43EC134F4309781F03C
:1005E000319709F08DC3A2C089819A818430910529
:1005F00009F45BC20CF4C4C1059709F081C3EAC2D7
:10060000ED81FE81E230F10539F124F4319709F0F2
:100610006EC009C08D819E8183309105B1F1049730
:1006200009F065C04BC086E491E0909394018093FB
:1006300093018EE391E090937A018093790182E4B3
:1006400091E090937C0180937B018AE391E0909309
:100650008E0180938D0154C386E491E090939401C0
:10066000809393018AE391E090937A0180937901DA
:1006700082E491E090937C0180937B018EE391E092
:1006800090938E0180938D013BC382E491E090931F
:100690009401809393018EE391E090937A0180938B
:1006A000790186E491E090937C0180937B018AE359
:1006B00091E090938E0180938D0122C382E491E0BA
:1006C00090939401809393018AE391E090937A014F
:1006D0008093790186E491E090937C0180937B0183
:1006E0008EE391E090938E0180938D0109C386E49F
:1006F00091E0909394018093930182E491E0909330
:100700007A01809379018EE391E090937C0180934C
:100710007B018AE391E090938E0180938D0181E0CB
:1007200090E09093110180931001F0C2ED81FE8161
:10073000E230F10531F11CF4EF2B51F06DC08D81E9
:100740009E8183309105B1F1059709F065C04BC0DA
:1007500086E491E0909394018093930182E491E088
:1007600090937A01809379018EE391E090937C01DC
:1007700080937B018AE391E090938E0180938D01B9
:10078000BFC286E491E090939401809393018AE341
:1007900091E090937A01809379018EE391E09093B8
:1007A0007C0180937B0182E491E090938E018093A1
:1007B0008D01A6C28EE391E0909394018093930102
:1007C00082E491E090937A018093790186E491E04C
:1007D00090937C0180937B018AE391E090938E015A
:1007E00080938D018DC28EE391E09093940180936C
:1007F00093018AE391E090937A018093790186E4F2
:1008000091E090937C0180937B0182E491E090934E
:100810008E0180938D0174C286E491E090939401DF
:100820008093930182E491E090937A01809379011F
:100830008EE391E090937C0180937B018AE391E0C9
:1008400090938E0180938D0181E090E0909311014F
:10085000809310015BC2ED81FE81E130F10531F141
:100860001CF4EF2B51F06DC08D819E818430910579
:10087000B1F1059709F065C04BC086E491E0909313
:1008800094018093930182E491E090937A018093A4
:1008900079018AE391E090937C0180937B018EE360
:1008A00091E090938E0180938D012AC286E491E0BD
:1008B00090939401809393018EE391E090937A0159
:1008C000809379018AE391E090937C0180937B018E
:1008D00082E491E090938E0180938D0111C28AE3AE
:1008E00091E0909394018093930182E491E090933E
:1008F0007A018093790186E491E090937C01809362
:100900007B018EE391E090938E0180938D01F8C17D
:100910008AE391E090939401809393018EE391E0B8
:1009200090937A018093790186E491E090937C0121
:1009300080937B0182E491E090938E0180938D01FE
:10094000DFC186E491E0909394018093930182E467
:1009500091E090937A01809379018EE391E09093F6
:100960007C0180937B018AE391E090938E018093D8
:100970008D0181E090E09093110180931001C6C138
:10098000ED81FE81E130F10531F11CF4EF2B51F0E6
:100990006DC08D819E8184309105B1F1059709F07C
:1009A00065C04BC082E491E09093940180939301E1
:1009B00086E491E090937A01809379018EE391E04F
:1009C00090937C0180937B018AE391E090938E0168
:1009D00080938D0195C18EE391E090939401809373
:1009E000930186E491E090937A018093790182E407
:1009F00091E090937C0180937B018AE391E0909356
:100A00008E0180938D017CC182E491E090939401EA
:100A1000809393018AE391E090937A018093790126
:100A20008EE391E090937C0180937B0186E491E0DA
:100A300090938E0180938D0163C18EE391E090933A
:100A40009401809393018AE391E090937A018093DB
:100A5000790182E491E090937C0180937B0186E4AC
:100A600091E090938E0180938D014AC186E491E0DC
:100A7000909394018093930182E491E090937A01A2
:100A8000809379018EE391E090937C0180937B01C8
:100A90008AE391E090938E0180938D0181E090E054
:100AA000909311018093100131C1ED81FE81E230FC
:100AB000F10531F11CF4EF2B51F06DC08D819E8159
:100AC00083309105B1F1059709F065C04BC082E410
:100AD00091E0909394018093930186E491E0909348
:100AE0007A01809379018AE391E090937C0180936D
:100AF0007B018EE391E090938E0180938D0100C184
:100B00008AE391E0909394018093930186E491E0CD
:100B100090937A018093790182E491E090937C0133
:100B200080937B018EE391E090938E0180938D0101
:100B3000E7C082E491E090939401809393018EE367
:100B400091E090937A01809379018AE391E0909308
:100B50007C0180937B0186E491E090938E018093E9
:100B60008D01CEC08AE391E090939401809393012C
:100B70008EE391E090937A018093790182E491E091
:100B800090937C0180937B0186E491E090938E01A9
:100B900080938D01B5C086E491E090939401809399
:100BA000930182E491E090937A01809379018EE33E
:100BB00091E090937C0180937B018AE391E0909394
:100BC0008E0180938D0181E090E0909311018093DC
:100BD00010019CC0ED81FE81E230F10539F124F471
:100BE000319709F06EC009C08D819E8183309105D7
:100BF000B1F1049709F065C04BC08EE391E090938A
:100C000094018093930186E491E090937A0180931C
:100C100079018AE391E090937C0180937B0182E4E7
:100C200091E090938E0180938D016AC08AE391E0F8
:100C3000909394018093930186E491E090937A01DC
:100C4000809379018EE391E090937C0180937B0106
:100C500082E491E090938E0180938D0151C08EE3E8
:100C600091E0909394018093930182E491E09093BA
:100C70007A01809379018AE391E090937C018093DB
:100C80007B0186E491E090938E0180938D0138C0C2
:100C90008AE391E0909394018093930182E491E040
:100CA00090937A01809379018EE391E090937C0197
:100CB00080937B0186E491E090938E0180938D0177
:100CC0001FC086E491E0909394018093930182E4A5
:100CD00091E090937A01809379018EE391E0909373
:100CE0007C0180937B018AE391E090938E01809355
:100CF0008D0181E090E0909311018093100106C076
:100D00008091100190911101892BD1F080912001E7
:100D100090912101EF8DF8A19183808380911E0134
:100D200090911F01EF81F8859183808380911C0150
:100D300090911D01ED8DFE8D9183808380E0EAC34B
:100D4000262D372D482D592D60E070E088EE91E476
:100D50000E940717262E372E482E592EE090930119
:100D6000F09094010F2EF5E88F2EF1E09F2EF02DDC
:100D7000F70160817181882777FD8095982F0E9407
:100D8000A217222D332D442D552D0E94BB180E94F1
:100D90006F17F401718360830F2EF7E86F2EF1E077
:100DA0007F2EF02DF70162817381882777FD809572
:100DB000982F0E94A217222D332D442D552D0E94CD
:100DC000BB180E946F17F3017183608300917B0150
:100DD00010917C010F2EF5E7AF2EF1E0BF2EF02D24
:100DE000F80160817181882777FD8095982F0E9496
:100DF000A217222D332D442D552D0E94BB180E9481
:100E00006F17F501718360830F2EF7E7CF2EF1E0A6
:100E1000DF2EF02DF80162817381882777FD8095A0
:100E2000982F0E94A217222D332D442D552D0E945C
:100E3000BB180E946F17F60171836083F701608110
:100E40007181F80180819181680F791F882777FD72
:100E50008095982F0E94A21720E030E040E05FE3E9
:100E60000E94BB180E946F17E9A1FAA171836083E9
:100E7000A0919301B0919401E0917B01F0917C01EC
:100E800012966D917C91139782819381680F791FDF
:100E9000882777FD8095982F0E94A21720E030E0E8
:100EA00040E05FE30E94BB180E946F17EBA1FCA11A
:100EB00071836083F40160817181F501808191818A
:100EC000680F791F882777FD8095982F0E94A217B9
:100ED00020E030E040E05FE30E94BB180E946F1703
:100EE0001B0170939A0160939901F30160817181F4
:100EF000F60180819181680F791F882777FD8095A1
:100F0000982F0E94A21720E030E040E05FE30E94AB
:100F1000BB180E946F178B0170939C0160939B011B
:100F2000229CB001239C700D700D1124009FC00104
:100F3000019F900D900D1124680F791F882777FD70
:100F40008095982F0E94A2170E9428192B013C011E
:100F500060937D0170937E0180937F019093800167
:100F600080917B0190917C019A838983E091930128
:100F7000F0919401FE83ED83FC0160817181ED812C
:100F8000FE8180819181681B790B882777FD809590
:100F9000982F0E94A2176B017C01E981FA8162817E
:100FA0007381ED81FE8182819381681B790B882793
:100FB00077FD8095982F0E94A217A70196010E94A5
:100FC000AD164B015C016093890170938A01809397
:100FD0008B0190938C01ED81FE8160817181E981AB
:100FE000FA8180819181681B790B882777FD809534
:100FF000982F0E94A2176B017C01ED81FE81628116
:101000007381E981FA8182819381681B790B88273A
:1010100077FD8095982F0E94A217A70196010E9444
:10102000AD166B017C016093810170938201809306
:10103000830190938401B801882777FD8095982FCC
:101040000E94A21769837A838B839C83B1018827CE
:1010500077FD8095982F0E94A21729813A814B81B4
:101060005C810E94AD169B01AC01DC01CB01B05844
:1010700080939D0190939E01A0939F01B093A00146
:1010800077FA709477F87094C501B4010E943A160B
:10109000862E972EA82EB92E0E9404179B01AC0114
:1010A000C301B2010E94BB1820E030E040E051E4EF
:1010B0000E9439160E946F178B017093190160937B
:1010C0001801682D792D8A2D9B2D0E941E199B01D8
:1010D000AC01C301B2010E94BB1820E030E040EE39
:1010E00050E40E943A160E946F17709317016093A4
:1010F000160120E030E044E353E4C701B6010E944A
:10110000BB182BED3FE049E450E40E9407170E9412
:101110006F1770931B0160931A01C0901201D09059
:101120001301E0901401F090150160911E0170917F
:101130001F01882777FD8095982F0E94A217A7018D
:1011400096010E94BB184B015C01A701960160E06B
:1011500070E080E89FE30E9439166B017C01B801C2
:10116000882777FD8095982F0E94A2179B01AC01DC
:10117000C701B6010E94BB189B01AC01C501B401B7
:101180000E943A160E946F17EF81F8857183608381
:10119000C0901201D0901301E0901401F09015015D
:1011A00060911C0170911D01882777FD8095982F13
:1011B0000E94A217A70196010E94BB184B015C0177
:1011C000A701960160E070E080E89FE30E94391675
:1011D0006B017C016091160170911701882777FDE2
:1011E0008095982F0E94A2179B01AC01C701B60100
:1011F0000E94BB189B01AC01C501B4010E943A16C4
:101200000E946F17ED8DFE8D71836083C090120177
:10121000D0901301E0901401F0901501609120012D
:1012200070912101882777FD8095982F0E94A21741
:10123000A70196010E94BB184B015C01A701960112
:1012400060E070E080E89FE30E9439166B017C014A
:1012500060911A0170911B01882777FD8095982F66
:101260000E94A2179B01AC01C701B6010E94BB18E6
:101270009B01AC01C501B4010E943A160E946F1790
:10128000EF8DF8A171836083EF81F8858081918172
:1012900090931F0180931E01ED8DFE8D80819181C1
:1012A00090931D0180931C01EF8DF8A180819181A5
:1012B000909321018093200181E02CC1E0910201F3
:1012C000F09103014C018E1A9F0A9092470180927F
:1012D00046018091000190910101081B190B1093A8
:1012E0004901009348013B016E1A7F0A7092430145
:1012F00060924201E81AF90AF0924501E092440135
:101300002A014E1A5F0A50923F0140923E01160197
:10131000281A390A30924101209240016901CE1AFF
:10132000DF0AD0923B01C0923A01A81AB90AB092E2
:101330003D01A0923C01930128193909C701801B86
:10134000910B229FB001239F700D700D1124889F77
:101350009001899F300D300D1124620F731F882773
:1013600077FD8095982F0E94A2170E9428196093FC
:10137000220170932301809324019093250192010F
:1013800028193909C101801B910B229FB001239FAD
:10139000700D700D1124889F9001899F300D300DC4
:1013A0001124620F731F882777FD8095982F0E9464
:1013B000A2170E9428196093260170932701809339
:1013C000280190932901960128193909C501801B2C
:1013D000910B229FB001239F700D700D1124889FE7
:1013E0009001899F300D300D1124620F731F8827E3
:1013F00077FD8095982F0E94A2170E94281960936C
:101400002A0170932B0180932C0190932D0192015E
:1014100026193709C1018E199F09229FB001239F08
:10142000700D700D1124889F9001899F300D300D33
:101430001124620F731F882777FD8095982F0E94D3
:10144000A2170E94281960932E0170932F01809398
:10145000300190933101960126193709C5018E1983
:101460009F09229FB001239F700D700D1124889F4A
:101470009001899F300D300D1124620F731F882752
:1014800077FD8095982F0E94A2170E9428196093DB
:101490003201709333018093340190933501C41865
:1014A000D508A218B308CC9CB001CD9C700D700D6E
:1014B0001124AA9CC001AB9C900D900D1124680FC3
:1014C000791F882777FD8095982F0E94A2170E9488
:1014D00028196093360170933701809338019093F7
:1014E000390102E211E0E12CF12C1E821D821A82E8
:1014F0001982212C6894332436F80F2EFCE14F2EEC
:10150000F02D0F2EF6E45F2EF02D612C712C812C26
:10151000912C2BC828960FB6F894DEBF0FBECDBF16
:10152000DF91CF911F910F91FF90EF90DF90CF90BF
:10153000BF90AF909F908F907F906F905F904F90F3
:101540003F902F9008952F923F924F925F926F920B
:101550007F928F929F92AF92BF92CF92DF92EF9243
:10156000FF920F931F93CF93DF936B017C01EA01EE
:10157000890120E030E044E353E40E943916962EBE
:10158000872E382E292E20E030E044E353EC0E94D1
:10159000001788230CF0C8C020E030E044EB53E48F
:1015A000692D782D832D922D0E943A16262E372EE6
:1015B000882E992EA0905A01B0905B01B501882722
:1015C00077FD8095982F0E94A2172B013C019B016B
:1015D000AC01C701B6010E94B01888230CF04EC0C0
:1015E00052C0A3019201C701B6010E94B01888231E
:1015F00074F0A3019201C701B6010E9439166883F5
:1016000079838A839B83F80111821082A6C0A3018B
:101610009201692D782D832D922D0E94B0181816F5
:101620004CF0A3019201C701B6010E940017882364
:101630000CF093C0BB2094F4B50168597E4F882705
:1016400077FD8095982F0E94A217A70196010E940E
:101650003916688379838A839B830AC0A701960120
:10166000C301B2010E943916688379838A839B8300
:1016700081E090E0F801918380836FC0FCE4AF16B5
:10168000FFEFBF0674F4A3019201622D732D882D24
:10169000992D0E94001718162CF185EBA816B1049D
:1016A0000CF5BB205CF4A3019201C701B6010E94B6
:1016B0003916688379838A839B8310C020E030E0E9
:1016C00044EB53E4C701B6010E943A16A30192010C
:1016D0000E943916688379838A839B83F80111827B
:1016E00010823BC0A3019201C701B6010E940017FE
:1016F00088239CF5A3019201622D732D882D992DCD
:101700000E94B01818164CF5A7019601C301B2014A
:101710000E943916688379838A839B8381E090E0F5
:10172000F8019183808319C0A0905A01B0905B01A9
:10173000B501882777FD8095982F0E94A2172B016D
:101740003C019B01AC01692D782D832D922D0E94C7
:10175000001718160CF045CF5ACFDF91CF911F918B
:101760000F91FF90EF90DF90CF90BF90AF909F9040
:101770008F907F906F905F904F903F902F90089543
:1017800041305105C9F420E030E040E051E40E94CE
:10179000BB1820E030E041EE54E40E943A160E946B
:1017A0006F1770938B0060938A0070938D00609325
:1017B0008C002B9A5B98089520E030E040E051E4E3
:1017C0000E94BB1820E030E041EE54E40E943A163B
:1017D0000E946F1770938D0060938C0070938B0044
:1017E00060938A002B985B9A089541305105D9F493
:1017F00028E23AE030938B0020938A0020E030E02A
:1018000040E251E40E94BB1820E030E44CE155E492
:101810000E943A160E946F1770938D0060938C009F
:101820002B985B98089520E030E040E251E40E945C
:10183000BB1820E030E842E255E40E943A160E94CC
:101840006F1770938B0060938A0084EC99E09093FB
:101850008D0080938C002B985B980895019709F573
:1018600088E29AE090938B0080938A00882777FD26
:101870008095982F0E94A2172DEC3CEC4CEC5DE378
:101880000E94BB1820E030E44CE155E40E943A1677
:101890000E946F1770938D0060938C002B985B985B
:1018A0000895882777FD8095982F0E94A2172DEC28
:1018B0003CEC4CEC5DE30E94BB1820E030E842E2D7
:1018C00055E40E943A160E946F1770938B00609344
:1018D0008A0084EC99E090938D0080938C002B9883
:1018E0005B98089510928B0010928A0010928D00E0
:1018F00010928C0008952B985B9A8CEF98E090934F
:101900008D0080938C0088E998E090938B00809301
:101910008A0008952B9A5B988CEF98E090938D0045
:1019200080938C0088E998E090938B0080938A00E4
:1019300008952B9A5B9A88E29AE090938D008093A9
:101940008C0084EC99E090938B0080938A0008953A
:10195000CF93DF93CDB7DEB7C654D1090FB6F89455
:10196000DEBF0FBECDBF80E885BF85BF19821A825A
:101970001B821C821E821D8218861F821A8619866F
:10198000FE013B969AE0DF011D929A95E9F71EA6AB
:101990001DA618AA1FA6E1E6F0E0808310826A9ACD
:1019A000729A6E9A769A6E9A76980E9464110E9444
:1019B000F8000E9434020E9405020E941F020E9449
:1019C000B3010E94D2010E9436158823E1F34AE058
:1019D00060E481E00E94751178946E9A769A109274
:1019E00064011092650110926601109267011092D5
:1019F0005C0110925D0110925E0110925F011092E5
:101A000068011092690110926A0110926B011092A4
:101A1000600110926101109262011092630118AE90
:101A20001FAA1AAE19AE1CAE1BAE1EAE1DAE21967D
:101A30001FAE1EAE2197412C512C27961FAE1EAE15
:101A4000279723961FAE1EAE23970F2EFAE72F2E51
:101A5000312CF02D0F2EF8E76F2E712CF02DFE019A
:101A60003996FAABE9AB9E01295F3F4F3CAB2BABFC
:101A7000CE018F969EAB8DAB8091040190910501B4
:101A8000019751F483E690E09093570180935601BB
:101A90001092050110920401809158019091590112
:101AA000019789F480E48B878DA58C878FA58D871E
:101AB0004AE0BE01655F7F4F8AED0E942C121092B2
:101AC0005901109258018091060190910701892BCC
:101AD00099F6F894CE0145960E94A1147894882333
:101AE00009F462C3A9A4BAA4CBA0DCA0ED8CFE8C3F
:101AF0000F89188D2FA138A549A15AA16B8D7C8D16
:101B00009AA99F93A9A9AF93BCA9BF93EBA9EF93FF
:101B10008AE591E09F938F93FEA9FF938DA98F9300
:101B20000F2EFDE28F2E912CF02D8C0E9D1E8D8997
:101B30009E890E946A020FB6F894DEBF0FBECDBF29
:101B400033C3BFEFEB1AFB0A870101501109C8012B
:101B50000E940101F101808184FFFCCF0330110557
:101B600029F13CF40130110589F0CCF4012B51F03E
:101B70004BC00530110541F104F10630110509F0A3
:101B800043C029C0D3014D905C9012C3F301019072
:101B9000F081E02D2196FFAFEEAF219709C3D3016D
:101BA0000D90BC91A02DBEAFADAF02C3F30101906B
:101BB000F081E02DFCAFEBAFFBC2D3010D90BC91E7
:101BC000A02DBAAFA9AFF4C2F3010190F081E02DCE
:101BD000F8AFEFABEDC2D3018D919C91F101808103
:101BE000806180838FA898AC29AD3AAD25963FAF30
:101BF0002EAF2597EBACFCACCDACDEAC2196AEACF9
:101C0000BFAC219782011AC0D1018C9180618C9365
:101C1000B7E0EB16F1040CF494CF8FA898ACE9ADC3
:101C2000FAAD2596FFAFEEAF2597EBACFCACCDAC93
:101C3000DEAC2196AEACBFAC2197820180915601FB
:101C4000909157018530910509F4FCC15CF4823014
:101C5000910509F4B9C08330910581F0892B09F40D
:101C600099C082C28631910509F461C2833691051B
:101C700009F4F3C1459709F077C26FC2E016F10687
:101C800064F481E090E00815190514F080E090E01C
:101C900023969FAF8EAF23970FC081E090E02596EB
:101CA0002EAD3FAD2597E216F30614F080E090E0EC
:101CB00023969FAF8EAF2397B5016C0D7D1D8827AE
:101CC00077FD8095982F0E94A21720E030E040E039
:101CD0005FE30E94BB1820E030E04AE753E40E9433
:101CE000B01888235CF10D3B32E013073CF58DEB17
:101CF000E81682E0F80614F5C5018C199D091AF45E
:101D0000919581959109682F792FAC14BD045CF0F1
:101D100081E090E00E942E0CA1E0B0E02396BFAFDE
:101D2000AEAF239738C280E090E00E942E0CE1E035
:101D3000F0E02396FFAFEEAF23972DC223962EAD92
:101D40003FAD2397232B89F40E151F053CF00E940D
:101D50007B0C23961FAE1EAE23971DC20E948A0CD9
:101D600023961FAE1EAE239716C225968EAD9FAD4D
:101D70002597881699063CF00E947B0C23961FAE8F
:101D80001EAE239708C20E948A0C23961FAE1EAE79
:101D9000239701C21A9B07C0ACE9BFEF2796BFAFDC
:101DA000AEAF279706C0E3E7F0E02796FFAFEEAFB0
:101DB000279783E090E090935701809356012396F4
:101DC0001FAE1EAE2397E7C16FA578A971956195E7
:101DD0007109882777FD8095982F0E94A2176B01C3
:101DE0007C018DA59EA527966EAD7FAD2797681BBC
:101DF000790B882777FD8095982F0E94A21790581D
:101E0000A70196010E94AD1620E030E044E353E4C0
:101E10000E94BB182BED3FE049E450E40E940717F5
:101E20009E012B5F3F4FAE014F5F5F4F0E94A30AA1
:101E3000C980DA80EB80FC80C701B6010E946F1771
:101E40008B0170936F0160936E0120916C01309152
:101E50006D01021B130B10937101009370017093BD
:101E60006D0160936C0123962EAD3FAD2397232B1C
:101E700009F044C02DA53EA527968EAD9FAD2797AE
:101E8000281B390B8FA598A9229FB001239F700DA5
:101E9000700D1124889F9001899F300D300D112401
:101EA000620F731F882777FD8095982F0E94A217D5
:101EB0000E94281920E030E040EA50E40E94001718
:101EC00088230CF454C120E030E040E751E4C7011E
:101ED000B6010E94001788230CF450C1B80188276E
:101EE00077FD8095982F0E94A2178B019C014D8150
:101EF0005E81C701B6010E94C00B4DC12396AEADF5
:101F0000BFAD2397119709F056C02DA53EA5279682
:101F1000EEADFFAD27972E1B3F0B8FA598A9229FF3
:101F2000B001239F700D700D1124889F9001899F2F
:101F3000300D300D1124620F731F882777FD8095B7
:101F4000982F0E94A2170E94281920E030E040EA52
:101F500050E40E940017882344F45D9A22E030E0A8
:101F600023963FAF2EAF239716C120E030E040EF1D
:101F700051E4C701B6010E94B018181634F45D9AF6
:101F800023961FAE1EAE239706C15D986091700127
:101F900070917101882777FD8095982F0E94A21774
:101FA0008B019C014D815E8169817A818B819C814D
:101FB0000E94F50BF0C023968EAD9FAD239702973C
:101FC00069F59E012B5F3F4FAE014F5F5F4F60E0B1
:101FD00070E0CB010E94A30AC980DA80EB80FC800C
:101FE00020E030E040E751E4C701B6010E9400174D
:101FF00088230CF4CAC06091700170917101882728
:1020000077FD8095982F0E94A2178B019C014D812E
:102010005E81C701B6010E94C00BBDC02396AEAD64
:10202000BFAD2397139709F0B6C00E94720C83E0EE
:1020300090E0909357018093560123961FAE1EAEF9
:102040002397A9C083E090E09093570180935601B5
:1020500023961FAE1EAE23979EC080914A01833AFD
:1020600049F138F4813AA9F0D8F4803A09F093C0E4
:1020700009C0863AC9F1873A09F446C0843A09F0A2
:102080008AC022C086E190E0909357018093560168
:1020900082C010925701109256010E94F4007BC03A
:1020A00083B10E94720C85E190E090935701809378
:1020B000560171C083B10E94720C85E190E090934B
:1020C00057018093560167C00E94990C80E090E010
:1020D0000196883EB3E09B07D9F785E190E09093A5
:1020E00057018093560157C00E94990C80E090E000
:1020F0000196883EE3E09E07D9F785E190E0909352
:1021000057018093560147C083B10E94720C0E9410
:10211000990C80E090E00196883EF3E09F07D9F7A4
:1021200085E190E0909357018093560134C00E945E
:10213000720C0E94F4002FEB37E289E0215030400E
:102140008040E1F700C000000E94F60085E190E0C9
:1021500090935701809356011EC06A9A72980E940C
:10216000F6000E94720C17C00E94720C14C0A2E00C
:10217000B0E02396BFAFAEAF23970DC0E1E0F0E033
:102180002396FFAFEEAF239706C023E030E02396FF
:102190003FAF2EAF239781E090E0909307018093AB
:1021A00006010E941F0268CCEE24E394F12CCCCCF3
:1021B000D1018C9180618C93C4CC1F920F920FB689
:1021C0000F9211242F933F934F935F936F937F93BD
:1021D0008F939F93AF93BF93EF93FF9381E090E032
:1021E00090935901809358010E942902FF91EF9129
:1021F000BF91AF919F918F917F916F915F914F911F
:102200003F912F910F900FBE0F901F9018951F9226
:102210000F920FB60F9211242F933F934F935F931A
:102220006F937F938F939F93AF93BF93EF93FF939E
:1022300010920701109206010E942902FF91EF916E
:10224000BF91AF919F918F917F916F915F914F91CE
:102250003F912F910F900FBE0F901F9018951F92D6
:102260000F920FB60F9211242F933F934F935F93CA
:102270006F937F938F939F93AF93BF93EF93FF934E
:102280006AE08AE491E00E94CB118091560190911E
:102290005701909355018093540181E090E0909311
:1022A000050180930401FF91EF91BF91AF919F9140
:1022B0008F917F916F915F914F913F912F910F90EF
:1022C0000FBE0F901F901895589A599A5A9A8CE001
:1022D0008093B800E9E6F0E08081806280838081AD
:1022E0008F7E8083EA9A789408951F93CF93DF932B
:1022F000182FD62FC42F0E94641194EA9093BC002B
:10230000ECEBF0E090819923ECF790E59093BB0023
:1023100094E89093BC00ECEBF0E090819923ECF70B
:102320009091B900987F903229F484E98093BC00A1
:1023300080E02DC081E08093BB0084E88093BC00E6
:10234000ECEBF0E090819923ECF71093BB0084E86C
:102350008093BC00ECEBF0E080818823ECF7D09315
:10236000BB0084E88093BC00ECEBF0E08081882324
:10237000ECF7C093BB0084E88093BC00ECEBF0E08A
:1023800080818823ECF784E98093BC0081E0DF91B1
:10239000CF911F910895CF93DF9324EA2093BC003F
:1023A000ECEBF0E020812223ECF721E52093BB0049
:1023B00024E82093BC00ECEBF0E020812223ECF732
:1023C0002091B900287F283429F484E98093BC0047
:1023D00080E03FC024EC2093BC00ECEBF0E02081D7
:1023E0002223ECF74091BB00461309C050E0415056
:1023F00051091416150644F040E050E018C084E975
:102400008093BC0080E025C0DC0120E030E0ECEBF4
:10241000F0E074ECCBEBD0E0708360816623ECF7E6
:1024200068816D932F5F3F4F24173507ACF324E885
:102430002093BC00ECEBF0E020812223ECF720910C
:10244000BB00FC01E40FF51F208384E98093BC00EE
:1024500081E0DF91CF910895CF93DF93F89494EAD0
:102460009093BC00ECEBF0E090819923ECF790E5C1
:102470009093BB0094E89093BC00ECEBF0E090816B
:102480009923ECF79091B900987F903231F484E968
:102490008093BC00789480E032C093E09093BB00BE
:1024A00094E89093BC00ECEBF0E090819923ECF77A
:1024B0008093BB0084E88093BC00ECEBF0E080816B
:1024C0008823ECF7242F30E0121613069CF4A62F75
:1024D000B72F80E090E0CBEBD0E0ECEBF0E054E8FD
:1024E0004D914883508340814423ECF70196821735
:1024F0009307B4F384E98093BC00789481E0DF9182
:10250000CF9108951F920F920FB60F9211248F93BF
:102510009F93EF93FF93E1EEF0E08081108283FFC1
:1025200011C01092E90091E09093EB001092EC0042
:1025300092E19093ED0098E09093F0001092730177
:102540001092740182FF13C080917301882379F087
:1025500080917201882359F081508093720181111A
:1025600006C084E08093E9008AE38093E800FF914D
:10257000EF919F918F910F900FBE0F901F90189524
:102580001F920F920FB60F9211240F931F932F9348
:102590003F934F935F936F937F938F939F93AF93EB
:1025A000BF93CF93DF93EF93FF931092E900809155
:1025B000E80083FF51C1E1EFF0E0708140812081AC
:1025C0003081932F80E0DC01A22B9D01508160813E
:1025D000962F80E0852BA081B08152EF5093E800C8
:1025E000463009F05CC004C081E28093EB003BC13F
:1025F000C6E047EF50E0FA0165917491261737075E
:1026000019F0495F5F4F20C0FA01329665917491CD
:102610008617970719F0495F5F4F16C0FA01349685
:1026200085919491282F392FFA01369644919B2F4A
:1026300080E08A2B8F3F910519F010F08FEF90E02A
:10264000841728F4482F03C0C150A9F6CDCFC8EE97
:10265000D0E07EEFA1EFB0E010E18881982F957077
:10266000E1F382FD00C1642F413108F0612F662340
:1026700009F4F6C0C901562FFC010196E491EC93D0
:102680005150D1F7862F815090E00196280F391FC5
:10269000461B78834111E1CF6031F9F2E4C0453047
:1026A00061F48EEF8093E800E8EEF0E0808180FF37
:1026B000FDCF20682093E300D6C04930A1F5711109
:1026C0005BC02093730110927401109272018EEF1F
:1026D0008093E80011E081E291E0C9EED0E0ABEE3A
:1026E000B0E06CEE70E04DEE50E018839C012F5F7F
:1026F0003F4FFC0104910C93002359F0F901249100
:10270000FB012083FC01329603962491FA01208379
:1027100001C0C9011F5F153041F7EAEEF0E08EE11C
:1027200080831082A0C0483081F4703809F03FC027
:10273000E8EEF0E0808180FFFDCF8091730180930F
:10274000F1008EEF8093E8008EC04132A9F4713A17
:10275000F1F5E8EEF0E0808180FFFDCFE8E0F1E008
:10276000A1EFB0E081918C9341E0EF30F407D1F715
:102770008EEF8093E80077C04032C9F4713209F0DF
:102780006BC0E8EEF0E0808182FFFDCFE8E0F1E091
:10279000A1EFB0E08C91819351E0EF30F507D1F7D4
:1027A000E8EEF0E08BEF80838EEF80835CC04232F6
:1027B00071F4713209F050C020937401E8EEF0E03A
:1027C000808180FFFDCF8EEF8093E8004CC04111E7
:1027D0001AC0E8EEF0E0208120FFFDCF723851F4FE
:1027E000E9EEF0E080838091EB0085FB882780F99B
:1027F000108201C080E0E1EFF0E0808310828EEF74
:102800008093E80030C0413011F0433029F5723038
:1028100019F5232B09F58F779927382F315034304C
:10282000D8F43EEF3093E8008093E900433021F480
:1028300081E28093EB0017C099E19093EB0021E0D7
:1028400030E0D90102C0AA0FBB1F8A95E2F7EAEE79
:10285000F0E0A083108207C081E28093EB0003C008
:1028600078834111FACEFF91EF91DF91CF91BF9123
:10287000AF919F918F917F916F915F914F913F9118
:102880002F911F910F910F900FBE0F901F901895D1
:1028900020E030E0ECEBF0E08081882334F02F5F23
:1028A0003F4F293E83E03807B9F781E0283E3340A7
:1028B00009F480E008958093BB0084E88093BC0015
:1028C0000E944814882321F08091B900887F0895E0
:1028D00080E00895CF93C82F94EA9093BC000E94A3
:1028E0004814882361F08C2F880F8F5F0E945B143F
:1028F000883439F484E98093BC0080E003C080E030
:1029000001C081E0CF910895CF93C82F94EA9093AE
:10291000BC000E944814882359F08C2F880F0E9415
:102920005B14803239F484E98093BC0080E003C0FA
:1029300080E001C081E0CF91089584E98093BC00DC
:102940000895EF92FF920F931F93CF93DF93CDB72C
:10295000DEB760970FB6F894DEBF0FBECDBFE82E8E
:10296000F92EFE01319680E1DF011D928A95E9F78B
:1029700088E50E948414882309F466C086E30E94D7
:102980005B14882309F462C00E949D14B8E0BA95D4
:10299000F1F7000088E50E946A14882309F458C002
:1029A000AE014F5F5F4F8E01005F1F4FECEBF0E019
:1029B00094EC2BEB30E0908380818823ECF7D901F5
:1029C0008C91DA018D93AD01A017B107A1F784E8CE
:1029D0008093BC00ECEBF0E080818823ECF78091E1
:1029E000BB00888B0E949D14DE0114966E2D7F2DF6
:1029F0004C91242F2073CD010297FC01808190E03F
:102A0000F0E12F9F800D911D1124FB0191838083A4
:102A1000842F807C90E0880F991F880F991F9D015B
:102A200021503109F9012081820F911DFB0193830F
:102A300082834F704483158213966A5F7F4F0A1713
:102A40001B07B1F681E005C080E003C080E001C053
:102A500080E060960FB6F894DEBF0FBECDBFDF9169
:102A6000CF911F910F91FF90EF9008950E946411F4
:102A700088E50E948414882309F4C7C080E30E947B
:102A80005B14882309F4C3C081E00E945B1488238F
:102A900009F4BFC00E949D1483EC99E00197F1F7FF
:102AA00000C0000088E50E948414882309F4B3C0A4
:102AB00080E00E945B14882309F4AFC080E00E948C
:102AC0005B14882309F4ABC080E00E945B14882368
:102AD00009F4A7C080E00E945B14882309F4A3C016
:102AE00080E00E945B14882309F49FC080E00E946C
:102AF0005B14882309F49BC080E00E945B14882348
:102B000009F497C080E90E945B14882309F493C0FC
:102B10000E949D1483EC99E00197F1F700C000003A
:102B200088E50E948414882309F487C087E00E9406
:102B30005B14882309F483C080E00E945B1488231F
:102B400009F47FC081E40E945B14882309F47BC0F0
:102B50000E949D1483EC99E00197F1F700C00000FA
:102B600088E50E948414882309F46FC08AE10E94DA
:102B70005B14882309F46BC080E40E945B148823F3
:102B800009F467C080E00E945B14882309F463C0E5
:102B90000E949D1483EC99E00197F1F700C00000BA
:102BA00088E50E948414882309F457C083E30E94B7
:102BB0005B14882309F453C083E00E945B148823CC
:102BC00009F44FC00E949D1483EC99E00197F1F73E
:102BD00000C0000088E50E948414882309F443C0E3
:102BE00080E30E945B14882309F43FC088E00E94C0
:102BF0005B148823E1F10E949D1483EC99E0019716
:102C0000F1F700C0000081E0089580E0089580E0C1
:102C1000089580E0089580E0089580E0089580E0C0
:102C2000089580E0089580E0089580E0089580E0B0
:102C3000089580E0089580E0089580E0089580E0A0
:102C4000089580E0089580E0089580E0089580E090
:102C5000089580E0089580E0089580E0089580E080
:102C6000089580E0089580E0089580E0089580E070
:102C700008955058BB27AA270ED027C2F0D130F0B4
:102C8000F5D120F031F49F3F11F41EF4C0C10EF4D1
:102C9000E095E7FBB6C1E92F3AD280F3BA17620795
:102CA00073078407950718F071F49EF552C20EF46D
:102CB000E0950B2EBA2FA02D0B01B90190010C014C
:102CC000CA01A0011124FF27591B99F0593F50F464
:102CD000503E68F11A16F040A22F232F342F4427BC
:102CE000585FF3CF469537952795A795F0405395B4
:102CF000C9F77EF41F16BA0B620B730B840BBAF084
:102D00009150A1F0FF0FBB1F661F771F881FC2F7EE
:102D10000EC0BA0F621F731F841F48F48795779502
:102D20006795B795F7959E3F08F0B3CF9395880FB9
:102D300008F09927EE0F97958795089590D158F050
:102D400080E891E009F49EEF91D128F040E851E04D
:102D500059F45EEF09C05BC1FCC1E92FE078D7D11F
:102D600068F3092E052AC1F32617370748075907C4
:102D700038F00E2E07F8E02569F0E025E0640AC07F
:102D8000EF6307F8009407FADB01B9019D01DC014C
:102D9000CA01AD01EF934AD098D10AD05F91552373
:102DA00031F02BED3FE049E450FD49EC63CF08954D
:102DB000DF93DD27B92FBF7740E85FE316161706CC
:102DC00048075B0710F4D92FCFD19F938F937F9340
:102DD0006F937CD2ECEAF0E01DD177D12F913F9137
:102DE0004F915F91D4D1DD2349F09058A2EA2AEDAA
:102DF0003FE049EC5FE3D0785D274DDFDF9165C1AF
:102E0000DCD008F481E0089539D1E3956FC10CD08E
:102E10005CC12CD140F023D130F021F45F3F19F098
:102E2000F0C0511197C1F3C072D198F39923C9F33F
:102E30005523B1F3951B550BBB27AA2762177307C0
:102E4000840738F09F5F5F4F220F331F441FAA1F74
:102E5000A9F333D00E2E3AF0E0E830D09150504034
:102E6000E695001CCAF729D0FE2F27D0660F771FE2
:102E7000881FBB1F261737074807AB07B0E809F0C4
:102E8000BB0B802DBF01FF2793585F4F2AF09E3F59
:102E9000510568F0B6C05EC15F3FECF3983EDCF3CD
:102EA000869577956795B795F7959F5FC9F7880FD2
:102EB000911D9695879597F90895E1E0660F771F24
:102EC000881FBB1F621773078407BA0720F0621BB5
:102ED000730B840BBA0BEE1F88F7E095089504D0AE
:102EE0006894B11137C108951AD188F09F5790F0B6
:102EF000B92F9927B751A0F0D1F0660F771F881F1F
:102F0000991F1AF0BA95C9F712C0B13081F021D1DA
:102F1000B1E008951EC1672F782F8827B85F39F078
:102F2000B93FCCF3869577956795B395D9F73EF47D
:102F300090958095709561957F4F8F4F9F4F089525
:102F4000E89409C097FB3EF4909580957095619543
:102F50007F4F8F4F9F4F9923A9F0F92F96E9BB27F9
:102F60009395F695879577956795B795F111F8CF75
:102F7000FAF4BB0F11F460FF1BC06F5F7F4F8F4FE0
:102F80009F4F16C0882311F096E911C0772321F0D6
:102F90009EE8872F762F05C0662371F096E8862F6E
:102FA00070E060E02AF09A95660F771F881FDAF7C5
:102FB000880F9695879597F90895990F0008550FF2
:102FC000AA0BE0E8FEEF16161706E807F907C0F0AF
:102FD00012161306E407F50798F0621B730B840BB7
:102FE000950B39F40A2661F0232B242B252B21F491
:102FF00008950A2609F4A140A6958FEF811D811D31
:10300000089597F99F6780E870E060E008959FEF6A
:1030100080EC0895DF93CF931F930F93FF92EF926D
:10302000DF927B018C01689405C0DA2EEF01AFD0EE
:10303000FE01E894A5912591359145915591AEF306
:10304000EF0129DEFE019701A801DA9479F7DF90FC
:10305000EF90FF900F911F91CF91DF910895002481
:103060000A941616170618060906089500240A94ED
:1030700012161306140605060895C9CF50D0E8F3BA
:10308000E894E0E0BB279F57F0F02AED3FE049ECE1
:1030900006C0EE0FBB0F661F771F881F28F0B23ADD
:1030A00062077307840728F0B25A620B730B840B14
:1030B000E3959A9572F7803830F49A95BB0F661FA6
:1030C000771F881FD2F7904806C1092E0394000C81
:1030D00011F4882352F0BB0F40F4BF2B11F460FFB2
:1030E00004C06F5F7F4F8F4F9F4F0895EF93E0FFB6
:1030F00006C0A2EA2AED3FE049EC5FEBCCDDE5DF5C
:103100000F90039401FC9058E9EDF0E0F7C057FDF3
:103110009058440F551F59F05F3F71F04795880F45
:1031200097FB991F61F09F3F79F0879508951216DC
:1031300013061406551FF2CF4695F1DF08C0161688
:1031400017061806991FF1CF869571056105089439
:103150000895E894BB2766277727CB0197F9089550
:103160002CDF08F48FEF08959B01AC0160E070E064
:1031700080E89FE34CCE0BD0A8CF71DF28F076DF3C
:1031800018F0952309F03DCF42CF1124E3CFBFDFE4
:10319000A0F3959FD1F3950F50E0551F629FF0016A
:1031A000729FBB27F00DB11D639FAA27F00DB11DC3
:1031B000AA1F649F6627B00DA11D661F829F22274C
:1031C000B00DA11D621F739FB00DA11D621F839FD3
:1031D000A00D611D221F749F3327A00D611D231FA9
:1031E000849F600D211D822F762F6A2F11249F57F7
:1031F00050408AF0E1F088234AF0EE0FFF1FBB1F1A
:10320000661F771F881F91505040A9F79E3F5105B8
:1032100070F0F7CE9FCF5F3FECF3983EDCF38695DE
:1032200077956795B795F795E7959F5FC1F7FE2B63
:10323000880F911D9695879597F908959F931EDFA6
:103240000F9007FCEE5F52CF11F40EF4E0CE41C0B8
:1032500066DFD0F39923D9F3CEF39F57550B87FF41
:1032600046D00024A0E640EA9001805856959795F4
:1032700028F4805C660F771F881F20F02617370719
:10328000480730F4621B730B840B202931294A2B29
:10329000A69517940794202531254A2758F7660FDD
:1032A000771F881F20F026173707480730F4620B76
:1032B000730B840B200D311D411DA09581F7B901C1
:1032C000842F9158880F9695879508959B01AC019E
:1032D00052CF9F3F31F0915020F4879577956795B5
:1032E000B795880F911D9695879597F908959150F8
:1032F0005040660F771F881FD2F708959F938F93D2
:103300007F936F93FF93EF939B01AC0134DFEF91B9
:10331000FF9180DE2F913F914F915F912CCFF894D8
:02332000FFCFDD
:103322007001C0010100010000E10000000008007E
:00000001FF
