:100000000C947C000C9499000C9499000C94181199
:100010000C9499000C9499000C9499000C949900FC
:100020000C9499000C9499000C9499000C949900EC
:100030000C9499000C9499000C9499000C949900DC
:100040000C9499000C9499000C9499000C949900CC
:100050000C9499000C9499000C9499000C949900BC
:100060000C9499000C9499000C9499000C949900AC
:100070000C9499000C9499000C9499000C9499009C
:100080000C9499000C9499000C9499000C9499008C
:100090000C9499000C9499000C9499000C9499007C
:1000A0000C9499000C9404110C949900084AD73BC5
:1000B0003BCE016E84BCBFFDC12F3D6C74319ABD37
:1000C00056833DDA3D00C77F11BED9E4BB4C3E915B
:1000D0006BAAAABE000000803F05A84CCDB2D44E4A
:1000E000B93836A9020C50B9918688083CA6AAAA4C
:1000F0002ABE000000803F0011241FBECFEFDAE0CF
:10010000DEBFCDBF11E0A0E0B1E0ECEBFFE202C04A
:1001100005900D92A830B107D9F721E0A8E0B1E031
:1001200001C01D92AA37B207E1F70E9486090C941C
:10013000DC170C9400002F923F924F925F926F92C7
:100140007F928F929F92AF92BF92CF92DF92EF9267
:10015000FF920F931F93CF93DF93CDB7DEB728970E
:100160000FB6F894DEBF0FBECDBF98868F82109277
:100170000901109208018F3FE3E09E0701F16F3FF4
:10018000F3E07F07E1F04F3FE3E05E07C1F02F3F70
:10019000F3E03F07A1F00F3FE3E01E0781F0FFEF20
:1001A000EF16F3E0FF0659F0EFEFCE16E3E0DE06C0
:1001B00031F0FFEFAF16F3E0BF0609F0A4C681E00F
:1001C00090E09093090180930801D1C3F801A080C9
:1001D000B180C280D3800C5F1F4F262D372D482D54
:1001E000592D6A2D7B2D8C2D9D2D0E94D51618160C
:1001F00034F4FA82E9826A2C7B2C8C2C9D2C222DE3
:10020000332D442D552D6A2D7B2D8C2D9D2D0E9437
:100210002515882334F4FE82ED822A2C3B2C4C2CAD
:100220005D2CFFEFEF1AFF0A86E0E816F10471F685
:10023000E981FA81E230F10509F43EC134F43097E6
:1002400081F0319709F08DC3A2C089819A818430F1
:10025000910509F45BC20CF4C4C1059709F081C390
:10026000EAC2ED81FE81E230F10539F124F43197E3
:1002700009F06EC009C08D819E8183309105B1F176
:10028000049709F065C04BC08AE391E090936D013B
:1002900080936C0182E391E090935301809352012B
:1002A00086E391E090935501809354018EE291E0B2
:1002B000909367018093660154C38AE391E0909321
:1002C0006D0180936C018EE291E0909353018093D5
:1002D000520186E391E0909355018093540182E3AB
:1002E00091E090936701809366013BC386E391E0C0
:1002F00090936D0180936C0182E391E090935301A0
:10030000809352018AE391E09093550180935401C8
:100310008EE291E0909367018093660122C386E3A9
:1003200091E090936D0180936C018EE291E0909347
:100330005301809352018AE391E090935501809399
:10034000540182E391E0909367018093660109C3B1
:100350008AE391E090936D0180936C0186E391E0D4
:10036000909353018093520182E391E09093550161
:10037000809354018EE291E090936701809366012F
:1003800081E090E09093090180930801F0C2ED8133
:10039000FE81E230F10531F11CF4EF2B51F06DC01C
:1003A0008D819E8183309105B1F1059709F065C07B
:1003B0004BC08AE391E090936D0180936C0186E3DA
:1003C00091E0909353018093520182E391E09093E6
:1003D0005501809354018EE291E0909367018093E0
:1003E0006601BFC28AE391E090936D0180936C0136
:1003F0008EE291E0909353018093520182E391E069
:10040000909355018093540186E391E090936701A6
:1004100080936601A6C282E391E090936D01809380
:100420006C0186E391E090935301809352018AE33B
:1004300091E090935501809354018EE291E0909366
:100440006701809366018DC282E391E090936D0114
:1004500080936C018EE291E090935301809352015E
:100460008AE391E0909355018093540186E391E0F3
:10047000909367018093660174C28AE391E0909340
:100480006D0180936C0186E391E09093530180931A
:10049000520182E391E090935501809354018EE2E2
:1004A00091E0909367018093660181E090E09093E2
:1004B0000901809308015BC2ED81FE81E130F10505
:1004C00031F11CF4EF2B51F06DC08D819E81843091
:1004D0009105B1F1059709F065C04BC08AE391E041
:1004E00090936D0180936C0186E391E090935301AA
:1004F000809352018EE291E09093550180935401D4
:1005000082E391E090936701809366012AC28AE3B7
:1005100091E090936D0180936C0182E391E0909360
:100520005301809352018EE291E0909355018093A4
:10053000540186E391E0909367018093660111C2B4
:100540008EE291E090936D0180936C0186E391E0DF
:1005500090935301809352018AE391E09093550167
:100560008093540182E391E0909367018093660148
:10057000F8C18EE291E090936D0180936C0182E36B
:1005800091E090935301809352018AE391E090931C
:1005900055018093540186E391E090936701809325
:1005A0006601DFC18AE391E090936D0180936C0155
:1005B00086E391E0909353018093520182E391E0AE
:1005C00090935501809354018EE291E090936701DE
:1005D0008093660181E090E0909309018093080187
:1005E000C6C1ED81FE81E130F10531F11CF4EF2B44
:1005F00051F06DC08D819E8184309105B1F10597D8
:1006000009F065C04BC086E391E090936D01809343
:100610006C018AE391E0909353018093520182E34D
:1006200091E090935501809354018EE291E0909374
:1006300067018093660195C182E391E090936D011B
:1006400080936C018AE391E090935301809352016F
:1006500086E391E090935501809354018EE291E0FE
:1006600090936701809366017CC186E391E090934B
:100670006D0180936C018EE291E090935301809321
:10068000520182E391E090935501809354018AE3F3
:1006900091E0909367018093660163C182E391E0EA
:1006A00090936D0180936C018EE291E090935301E1
:1006B0008093520186E391E0909355018093540119
:1006C0008AE391E090936701809366014AC18AE3CF
:1006D00091E090936D0180936C0186E391E090939B
:1006E00053018093520182E391E0909355018093EE
:1006F00054018EE291E0909367018093660181E05E
:1007000090E0909309018093080131C1ED81FE8151
:10071000E230F10531F11CF4EF2B51F06DC08D8109
:100720009E8183309105B1F1059709F065C04BC0FA
:1007300086E391E090936D0180936C018AE391E0F0
:1007400090935301809352018EE291E09093550172
:100750008093540182E391E0909367018093660156
:1007600000C18EE291E090936D0180936C018AE369
:1007700091E0909353018093520186E391E090932E
:1007800055018093540182E391E090936701809337
:100790006601E7C086E391E090936D0180936C0160
:1007A00082E391E090935301809352018EE291E0B5
:1007B00090935501809354018AE391E090936701EF
:1007C00080936601CEC08EE291E090936D0180939C
:1007D0006C0182E391E0909353018093520186E390
:1007E00091E090935501809354018AE391E09093B6
:1007F000670180936601B5C08AE391E090936D0133
:1008000080936C0186E391E09093530180935201B1
:1008100082E391E090935501809354018EE291E040
:10082000909367018093660181E090E090930901C5
:10083000809308019CC0ED81FE81E230F10539F121
:1008400024F4319709F06EC009C08D819E818330F8
:100850009105B1F1049709F065C04BC082E391E0C6
:1008600090936D0180936C018AE391E09093530122
:10087000809352018EE291E0909355018093540150
:1008800086E391E090936701809366016AC08EE2EF
:1008900091E090936D0180936C018AE391E09093D5
:1008A00053018093520182E391E09093550180932C
:1008B000540186E391E0909367018093660151C0F3
:1008C00082E391E090936D0180936C0186E391E067
:1008D00090935301809352018EE291E090935501E1
:1008E000809354018AE391E09093670180936601BD
:1008F00038C08EE291E090936D0180936C0186E3A5
:1009000091E0909353018093520182E391E09093A0
:100910005501809354018AE391E09093670180939D
:1009200066011FC08AE391E090936D0180936C0192
:1009300086E391E0909353018093520182E391E02A
:1009400090935501809354018EE291E0909367015A
:100950008093660181E090E0909309018093080103
:1009600006C08091080190910901892BD1F08091F6
:10097000140190911501EF8DF8A1918380838091EE
:10098000120190911301EF81F8859183808380910A
:10099000100190911101ED8DFE8D9183808380E097
:1009A000DEC3262D372D482D592D60E070E088EEEE
:1009B00091E40E942C15262E372E482E592EE090B9
:1009C0006C01F0906D010F2EFEE58F2EF1E09F2E51
:1009D000F02DF70160817181882777FD8095982F30
:1009E0000E94C715222D332D442D552D0E94E0164F
:1009F0000E949415F401718360830F2EF0E66F2E30
:100A0000F1E07F2EF02DF70162817381882777FD59
:100A10008095982F0E94C715222D332D442D552DDA
:100A20000E94E0160E949415F30171836083009187
:100A30005401109155010F2EFEE4AF2EF1E0BF2EB0
:100A4000F02DF80160817181882777FD8095982FBE
:100A50000E94C715222D332D442D552D0E94E016DE
:100A60000E949415F501718360830F2EF0E5CF2E5F
:100A7000F1E0DF2EF02DF80162817381882777FD88
:100A80008095982F0E94C715222D332D442D552D6A
:100A90000E94E0160E949415F60171836083F701AD
:100AA00060817181F80180819181680F791F8827A9
:100AB00077FD8095982F0E94C71520E030E040E038
:100AC0005FE30E94E0160E949415E9A1FAA17183E8
:100AD0006083A0916C01B0916D01E0915401F0919F
:100AE000550112966D917C91139782819381680FC5
:100AF000791F882777FD8095982F0E94C71520E0E1
:100B000030E040E05FE30E94E0160E949415EBA104
:100B1000FCA171836083F40160817181F5018081A2
:100B20009181680F791F882777FD8095982F0E9403
:100B3000C71520E030E040E05FE30E94E0160E942D
:100B400094151B017093730160937201F30160812E
:100B50007181F60180819181680F791F882777FD67
:100B60008095982F0E94C71520E030E040E05FE3B9
:100B70000E94E0160E9494158B017093750160939A
:100B80007401229CB001239C700D700D1124009FF4
:100B9000C001019F900D900D1124680F791F8827C7
:100BA00077FD8095982F0E94C7150E944D172B0145
:100BB0003C016093560170935701809358019093C4
:100BC000590180915401909155019A838983E09154
:100BD0006C01F0916D01FE83ED83FC0160817181F8
:100BE000ED81FE8180819181681B790B882777FDDB
:100BF0008095982F0E94C7156B017C01E981FA81CD
:100C000062817381ED81FE8182819381681B790B02
:100C1000882777FD8095982F0E94C715A701960118
:100C20000E94D2144B015C016093620170936301D6
:100C30008093640190936501ED81FE8160817181F3
:100C4000E981FA8180819181681B790B882777FD82
:100C50008095982F0E94C7156B017C01ED81FE8164
:100C600062817381E981FA8182819381681B790BAA
:100C7000882777FD8095982F0E94C715A7019601B8
:100C80000E94D2146B017C0160935A0170935B0146
:100C900080935C0190935D01B801882777FD809572
:100CA000982F0E94C71569837A838B839C83B10137
:100CB000882777FD8095982F0E94C71529813A8152
:100CC0004B815C810E94D2149B01AC01DC01CB0101
:100CD000B0588093760190937701A0937801B093F8
:100CE000790177FA709477F87094C501B4010E9485
:100CF0005F14862E972EA82EB92E0E9429159B01CF
:100D0000AC01C301B2010E94E0160E9494158B0150
:100D100070930D0160930C01682D792D8A2D9B2D08
:100D20000E9443179B01AC01C301B2010E94E0166F
:100D30000E94941570930B0160930A0120E030E04B
:100D400044E353E4C701B6010E94E0162BED3FE0F7
:100D500049E450E40E942C150E94941570930F01F1
:100D600060930E01C0900001D0900101E09002015B
:100D7000F09003016091120170911301882777FDB3
:100D80008095982F0E94C715A70196010E94E01632
:100D90004B015C01A701960160E070E080E89FE3F1
:100DA0000E945E146B017C01B801882777FD809555
:100DB000982F0E94C7159B01AC01C701B6010E9484
:100DC000E0169B01AC01C501B4010E945F140E94B2
:100DD0009415EF81F88571836083C0900001D090F5
:100DE0000101E0900201F090030160911001709107
:100DF0001101882777FD8095982F0E94C715A701BC
:100E000096010E94E0164B015C01A701960160E08B
:100E100070E080E89FE30E945E146B017C016091AA
:100E20000A0170910B01882777FD8095982F0E9409
:100E3000C7159B01AC01C701B6010E94E0169B01DA
:100E4000AC01C501B4010E945F140E949415ED8DA0
:100E5000FE8D71836083C0900001D0900101E0900D
:100E60000201F0900301609114017091150188272F
:100E700077FD8095982F0E94C715A70196010E94C3
:100E8000E0164B015C01A701960160E070E080E88C
:100E90009FE30E945E146B017C0160910E017091D2
:100EA0000F01882777FD8095982F0E94C7159B0119
:100EB000AC01C701B6010E94E0169B01AC01C5015F
:100EC000B4010E945F140E949415EF8DF8A1718304
:100ED0006083EF81F88580819181909313018093E5
:100EE0001201ED8DFE8D808191819093110180938F
:100EF0001001EF8DF8A1808191819093150180936D
:100F0000140181E02CC1E0910601F09107014C0130
:100F10008E1A9F0A90923B0180923A0180910401BF
:100F200090910501081B190B10933D0100933C01A2
:100F30003B016E1A7F0A7092370160923601E81AFF
:100F4000F90AF0923901E09238012A014E1A5F0A3B
:100F500050923301409232011601281A390A309218
:100F60003501209234016901CE1ADF0AD0922F0197
:100F7000C0922E01A81AB90AB0923101A092300194
:100F8000930128193909C701801B910B229FB001D9
:100F9000239F700D700D1124889F9001899F300D43
:100FA000300D1124620F731F882777FD8095982FCD
:100FB0000E94C7150E944D17609316017093170188
:100FC0008093180190931901920128193909C101E0
:100FD000801B910B229FB001239F700D700D112477
:100FE000889F9001899F300D300D1124620F731F6F
:100FF000882777FD8095982F0E94C7150E944D176E
:1010000060931A0170931B0180931C0190931D0142
:10101000960128193909C501801B910B229FB00147
:10102000239F700D700D1124889F9001899F300DB2
:10103000300D1124620F731F882777FD8095982F3C
:101040000E94C7150E944D1760931E0170931F01E7
:101050008093200190932101920126193709C10143
:101060008E199F09229FB001239F700D700D1124CE
:10107000889F9001899F300D300D1124620F731FDE
:10108000882777FD8095982F0E94C7150E944D17DD
:101090006093220170932301809324019093250192
:1010A000960126193709C5018E199F09229FB001A3
:1010B000239F700D700D1124889F9001899F300D22
:1010C000300D1124620F731F882777FD8095982FAC
:1010D0000E94C7150E944D17609326017093270147
:1010E0008093280190932901C418D508A218B30849
:1010F000CC9CB001CD9C700D700D1124AA9CC00138
:10110000AB9C900D900D1124680F791F882777FDF7
:101110008095982F0E94C7150E944D1760932A0151
:1011200070932B0180932C0190932D0106E111E027
:10113000E12CF12C1E821D821A821982212C6894C6
:10114000332436F80F2EFCE14F2EF02D0F2EF6E44F
:101150005F2EF02D612C712C812C912C37C8289694
:101160000FB6F894DEBF0FBECDBFDF91CF911F91B8
:101170000F91FF90EF90DF90CF90BF90AF909F9036
:101180008F907F906F905F904F903F902F90089539
:10119000269A279A84EF91E09093890080938800A3
:1011A00010928B0010928A0010928D0010928C0089
:1011B000A1E8B0E08C9180618C938C9188608C93D5
:1011C000E0E8F0E0808182608083808181608083BC
:1011D00080818062808380818F7E8083808188602F
:1011E000808380818B7F80838C918B7F8C938C918B
:1011F0008D7F8C938C9181608C93089583EC809388
:10120000D100E3ECF0E080818D7F808380818E7F50
:101210008083E2E7F0E0808184608083E1ECF0E0AD
:1012200080818860808380818460808380818D7FDD
:1012300080838081816080830895ECE7F0E0808185
:101240008F778083808180648083AAE7B0E08C916F
:1012500084608C938C9182608C938C9181608C9350
:10126000EEE7F0E08081816080838081826080830E
:1012700080818061808380818062808380818064BE
:101280008083808180688083EDE7F0E080818160E9
:1012900080838081826080838C9180628C930895AA
:1012A000209A219A289A29982298089510928B00C2
:1012B00010928A0010928D0010928C000895289A46
:1012C000299A8CE791E090938B0080938A00909309
:1012D0008D0080938C000895289829988CE791E0E0
:1012E00090938B0080938A0090938D0080938C0064
:1012F00008952898299A8CE791E090938B00809329
:101300008A0090938D0080938C000895CF93DF9393
:10131000CDB7DEB7CC56D1090FB6F894DEBF0FBEFD
:10132000CDBF1A8219821C821B82FE0135968AE08B
:10133000DF011D928A95E9F7FE013F968AE1DF0100
:101340001D928A95E9F723961FAE1EAE2397259628
:101350001FAE1EAE259727961FAE1EAE2797E1E65D
:10136000F0E080E8808310826A9A729A6E9A769A88
:101370006E9A76980E944F110E9450090E94C808E8
:101380000E94FE080E941D090E945B138823E1F35E
:10139000BFE3EDE0F3E0B150E040F040E1F700C022
:1013A00000006E9A769A4AE062E481E00E94601141
:1013B000789461961FAE1EAE619763961FAE1EAE07
:1013C000639767961FAE1EAE6797A4961FAEA4974D
:1013D000A6961FAEA697A7961FAEA797A8961FAE74
:1013E000A8976B961CAE1DAE1EAE1FAE6B976C968B
:1013F0001FAE6C976D961FAE6D976E961FAE6E9773
:101400006F961FAE6F97A0961FAEA097A1961FAEC6
:10141000A197A2961FAEA297A3961FAEA397412CA9
:10142000512C3201AB961FAE1EAEAB9765961FAE28
:101430001EAE6597212C312C9E012D5F3F4F2996C2
:101440003FAF2EAF2997CE0101962B969FAF8EAF5F
:101450002B97DE01AB5BBF4F2D96BFAFAEAF2D9785
:10146000FE01ED5BFF4F2F96FFAFEEAF2F9762C0EF
:101470006894222421F8312C5DC063961FAE1EAE05
:10148000639758C063961FAE1EAE639753C06396B2
:101490001FAE1EAE63974EC00F2EF3E02F2E312CE1
:1014A000F02D48C0212C312C45C0212C312C42C0BC
:1014B00022242394312C3EC063961FAE1EAE639748
:1014C00067961FAE1EAE6797A4961FAEA497A6960A
:1014D0001FAEA697A7961FAEA797A8961FAEA89770
:1014E00029C063961FAE1EAE639767961FAE1EAEF1
:1014F0006797A4961FAEA497A6961FAEA697A79629
:101500001FAEA797A8961FAEA89714C063961FAEEC
:101510001EAE639767961FAE1EAE6797A4961FAE6A
:10152000A497A6961FAEA697A7961FAEA797A896B4
:101530001FAEA897F894CE0189960E94C61278949F
:101540008823F1F1ADACBEACCFA8D8ACE9A8FAA81D
:101550000BA51CA52BAD3CAD4DA95EA96FA578A927
:101560002996FFAD2997FF9328968FAD28978F93E3
:101570002B969FAD2B979F932A96AFAD2A97AF934B
:101580002D96BFAD2D97BF932C96EFAD2C97EF9373
:101590002F96FFAD2F97FF932E968FAD2E978F939B
:1015A0000F2EF1E48F2E912CF02D8C0E9D1E89A50F
:1015B0009AA50E949B000FB6F894DEBF0FBECDBF68
:1015C00080914C0190914D01019709F0E4C0619622
:1015D000EEADFFAD6197EF2BC1F482E48D832296CF
:1015E0008FAD22978E8324968FAD24978F834AE008
:1015F000BE016B5F7F4F8AED0E94171221E030E041
:1016000061963FAF2EAF6197C2C04AE169E482E0C4
:101610000E946011AAE4B1E08C918F8722968FAD71
:101620002297888B24968FAD2497898B60E870E091
:1016300027968EAD9FAD27970E94B4176A8B8B8B30
:101640002C8AC301B2010E949415DC01CB0160E831
:1016500070E00E94B4176D8B8E8BA0965FADA09743
:10166000A1964FADA197A2963FADA297A3962FAD9D
:10167000A397652F742F832F922F0E949415DC015E
:10168000CB0160E870E00E94B4176F8B888F6C9676
:101690005FAD6C976D964FAD6D976E963FAD6E9743
:1016A0006F962FAD6F97652F742F832F922F0E9407
:1016B0009415DC01CB0160E870E00E94B417698FDB
:1016C0008A8F6B966CAD7DAD8EAD9FAD6B970E9492
:1016D0009415DC01CB0160E870E00E94B4176B8FB9
:1016E0008C8F60E870E089819A810E94B4176D8FB9
:1016F0008E8F60E870E08B819C810E94B4176F8FA1
:1017000088A36296BFAD6297B9A3A4965FADA49774
:10171000A6964FADA697A7963FADA797A8962FADD3
:10172000A897652F742F832F922F0E949415DC01A8
:10173000CB0160E870E00E94B4176AA38BA3EAE8CB
:10174000F0E08081918160E870E00E94B4176CA3A2
:101750008DA3ACE8B0E08D919C9160E870E00E94B0
:10176000B4176EA38FA36696BFAD6697B8A74AE17C
:10177000BE01615F7F4F80E60E9417124AE062E47B
:1017800081E00E94601161961FAE1EAE61971092BB
:101790004D0110924C0180914A0190914B01823091
:1017A000910509F468C234F4009781F0019709F0BB
:1017B000F3C424C08631910509F4E2C4833691054F
:1017C00009F475C4459709F0E7C4E3C41A9B07C040
:1017D000EDE8FFEF6596FFAFEEAF659706C023E734
:1017E00030E065963FAF2EAF659781E090E0909333
:1017F0004B0180934A01212C312C9CCE21143104C1
:1018000009F052C023968EAD9FAD239765966EADBD
:101810007FAD6597681B790B882777FD8095982F9A
:101820000E94C715462E572E682E792E25966EAD2E
:101830007FAD2597719561957109882777FD809512
:10184000982F0E94C715262F372F482F592FA09663
:101850006FAFA097A1967FAFA197A2968FAFA297E7
:10186000A3969FAFA397C301B20190580E94D214D0
:1018700020E030E044E353E40E94E0162BED3FE02B
:1018800049E450E40E942C156C966FAF6C976D96EE
:101890007FAF6D976E968FAF6E976F969FAF6F9776
:1018A00022242394312C46CE91E02916310409F0EC
:1018B00049C123968EAD9FAD239765966EAD7FADE2
:1018C0006597681B790B882777FD8095982F0E9474
:1018D000C715462E572E682E792E25966EAD7FADF4
:1018E0002597719561957109882777FD8095982FC7
:1018F0000E94C715262F372F482F592FA0966FAF5C
:10190000A097A1967FAFA197A2968FAFA297A3961B
:101910009FAFA397C301B20190580E94D21420E058
:1019200030E044E353E40E94E0162BED3FE049E44D
:1019300050E40E942C15B62EA72E182F092F6C9656
:101940006FAF6C976D967FAF6D976E968FAF6E97FA
:101950006F969FAF6F972796AEADBFAD2797AD96A9
:10196000BFAFAEAFAD97BD01882777FD8095982FAB
:101970000E94C7156B017C0120E030E040EE50E48E
:101980006B2D7A2D812F902F0E945E149B01AC014C
:10199000C701B6010E94D51688239CF020E030E0F4
:1019A00040EE50E46B2D7A2D812F902F0E945F1412
:1019B0009B01AC01C701B6010E94251518160CF059
:1019C00057CD20E030E044E353E46B2D7A2D812F96
:1019D000902F0E945E1462966FAF6297A9967FAFB8
:1019E000A997982E892E20E030E044E353EC0E9422
:1019F000251588230CF0D3C320E030E044EB53E4FA
:101A00006296BFAD6297A996AFADA9976B2F7A2F5B
:101A1000892D982D0E945F1462966FAF6297A996E8
:101A20007FAFA997982E892EA70196016B2D7A2D4D
:101A3000812F902F0E94D5168823C4F53EC0A701A0
:101A400096016B2D7A2D812F902F0E94D516882319
:101A50004CF00E945F09E1E0F0E06396FFAFEEAF6B
:101A6000639768CD62967FAD6297A9966FADA9978F
:101A7000272F362F492D582DC701B6010E94251555
:101A800088235CF0A70196016B2D7A2D812F902F72
:101A90000E94251588230CF0F0CC0E946C0922E0EE
:101AA00030E063963FAF2EAF639744CDAD968EADD9
:101AB0009FADAD978C349F4FBCF462967FAD62971B
:101AC000A9966FADA997272F362F492D582DC701FD
:101AD000B6010E94D516882384F0AD96EEADFFAD19
:101AE000AD97E53BF1054CF40E945F0923E030E03F
:101AF00063963FAF2EAF63971DCDA70196016B2D67
:101B00007A2D812F902F0E94251588230CF0BACCB6
:101B100062967FAD6297A9966FADA997272F362F52
:101B2000492D582DC701B6010E94251588230CF0B8
:101B3000AECC0E946C0984E090E063969FAF8EAFBC
:101B40006397F8CC92E02916310409F086C02396F9
:101B50002EAD3FAD23976596AEADBFAD65972A1B01
:101B60003B0B25968EAD9FAD2597229FB001239FFD
:101B7000700D700D1124889F9001899F300D300DDC
:101B80001124620F731F882777FD8095982F0E947C
:101B9000C7150E944D176B966CAF7DAF8EAF9FAF90
:101BA0006B9720E030E048E851E40E942515882337
:101BB0000CF472CC27966EAD7FAD2797882777FD02
:101BC0008095982F0E94C7156B017C0120E030E0C2
:101BD00040EE50E46C96FFAD6C976D96EFAD6D974F
:101BE0006E96BFAD6E976F96AFAD6F976F2F7E2FCE
:101BF0008B2F9A2F0E945E149B01AC01C701B60186
:101C00000E94251588230CF44DCC20E030E040EEF6
:101C100050E46C96BFAD6C976D96AFAD6D976E96B8
:101C2000FFAD6E976F96EFAD6F976B2F7A2F8F2F5B
:101C30009E2F0E945F149B01AC01C701B6010E9458
:101C4000D51618160CF431CC0E947909E5E0F0E0C5
:101C50006396FFAFEEAF63976DCCF3E02F163104C0
:101C600009F068CC85E190E090934B0180934A01A4
:101C7000212C312C5FCC2114310409F008C22396A9
:101C8000EEACFFAC2397C70165962EAD3FAD6597CF
:101C9000821B930B25960EAD1FAD2597889FB00133
:101CA000899F700D700D1124009FC001019F900D40
:101CB000900D1124680F791F882777FD8095982F44
:101CC0000E94C7150E944D176B966CAF7DAF8EAF0B
:101CD0009FAF6B9720E030E048E851E40E94251563
:101CE00088230CF4E5CB65966EAD7FAD65976E19D4
:101CF0007F09882777FD8095982F0E94C715462E6B
:101D0000572E682E792E66277727601B710B882740
:101D100077FD8095982F0E94C715262F372F482FC3
:101D2000592FA0966FAFA097A1967FAFA197A296CB
:101D30008FAFA297A3969FAFA397C301B20190580C
:101D40000E94D21420E030E044E353E40E94E01605
:101D50002BED3FE049E450E40E942C15962E872E8F
:101D6000182F092F6C966FAF6C976D967FAF6D979C
:101D70006E968FAF6E976F969FAF6F9720E030E0B3
:101D800044E353E40E945E14B62EA72E62968FAFF2
:101D9000629766969FAF669720E030E044E353EC8D
:101DA0000E94251588230CF00CC220E030E044EBA3
:101DB00053E46296FFAD62976696EFAD66976B2D22
:101DC0007A2D8F2F9E2F0E945F1462966FAF6297BD
:101DD00066967FAF6697A4968FAFA497A6969FAF9F
:101DE000A6972796AEACBFAC2797B501882777FD9D
:101DF0008095982F0E94C7156B017C019B01AC0157
:101E0000692D782D812F902F0E94D51688230CF0F4
:101E100094C098C0A7019601692D782D812F902F2D
:101E20000E94D5168823FCF0A7019601692D782D14
:101E3000812F902F0E945E14A4966FAFA497A69650
:101E40007FAFA697A7968FAFA797A8969FAFA897A3
:101E500081E090E063969FAF8EAF639767961FAE69
:101E60001EAE679767CBA70196016296FFAD62979A
:101E70006696EFAD66976B2D7A2D8F2F9E2F0E9461
:101E8000D51618165CF0A7019601692D782D812FC3
:101E9000902F0E94251588230CF00ECBA596AEAD91
:101EA000BFADA597BB2344F5BD0168597E4F882778
:101EB00077FD8095982F0E94C715292D382D412F29
:101EC000502F0E945E14A4966FAFA497A6967FAF82
:101ED000A697A7968FAFA797A8969FAFA897E2E07F
:101EE000F0E06396FFAFEEAF639721E030E06796D6
:101EF0003FAF2EAF67971ECB292D382D412F502F86
:101F0000C701B6010E945E14A4966FAFA497A6966F
:101F10007FAFA697A7968FAFA797A8969FAFA897D2
:101F200082E090E063969FAF8EAF6397A1E0B0E050
:101F30006796BFAFAEAF6797FDCABCE4AB16BFEF05
:101F4000BB06E4F4A70196016296BFAD6297669660
:101F5000AFAD6697A496FFADA497A696EFADA697F2
:101F60006B2F7A2F8F2F9E2F0E94251518160CF499
:101F70004BC0E5EBAE16B1040CF046C0BB20FCF440
:101F8000A7019601692D782D812F902F0E945E1454
:101F9000A4966FAFA497A6967FAFA697A7968FAF8C
:101FA000A797A8969FAFA89723E030E063963FAF2E
:101FB0002EAF639767961FAE1EAE6797BBCA20E031
:101FC00030E044EB53E4692D782D812F902F0E944F
:101FD0005F14A70196010E945E14A4966FAFA497A8
:101FE000A6967FAFA697A7968FAFA797A8969FAF05
:101FF000A89783E090E063969FAF8EAF6397679654
:102000001FAE1EAE679796CAA7019601692D782D5F
:10201000812F902F0E94251588230CF062CAA701FA
:1020200096016296BFAD62976696AFAD6697A4962D
:10203000FFADA497A696EFADA6976B2F7A2F8F2FA3
:102040009E2F0E94D51618160CF060CA292D382D27
:10205000412F502FC701B6010E945E14A4966FAFA6
:10206000A497A6967FAFA697A7968FAFA797A89697
:102070009FAFA897A4E0B0E06396BFAFAEAF639701
:10208000E1E0F0E06796FFAFEEAF679753CAF1E08B
:102090002F16310409F04ECA23E030E030934B0193
:1020A00020934A016894222421F8312C43CA80915C
:1020B0003E01833AE9F138F4813AB1F078F5803A9B
:1020C00009F038CA0AC0863A09F449C0873A09F4C7
:1020D0004DC0843A09F02ECA35C086E190E0909355
:1020E0004B0180934A0126CAAB968EAD9FADAB974C
:1020F000892B49F0809148019091490190934B01BF
:1021000080934A0104C010924B0110924A016E9ACA
:102110007698AB961FAE1EAEAB970CCA83B10E94E9
:10212000560985E190E090934B0180934A0102CAE1
:1021300083B10E94560985E190E090934B01809312
:102140004A01F8C985E190E090934B0180934A01E0
:10215000A1E0B0E0AB96BFAFAEAFAB97EBC985E106
:1021600090E090934B0180934A01E4C983B10E94AF
:10217000560985E190E090934B0180934A01DAC9BA
:102180000E94560985E190E090934B0180934A01AB
:10219000D1C90E945609CEC90E945609CBC9629680
:1021A0007FAD6297A9966FADA997272F362F492D3E
:1021B000582DC701B6010E94D51688230CF03FCCDC
:1021C00051CC2796EEADFFAD2797A596FFAFEEAFAA
:1021D000A597BF01882777FD8095982F0E94C71586
:1021E0006B017C019B01AC016296FFAD6297669624
:1021F000EFAD66976B2D7A2D8F2F9E2F0E942515A0
:1022000018160CF007CE2FCE1F920F920FB60F921A
:1022100011248F939F9381E090E090934D018093E0
:102220004C019F918F910F900FBE0F901F901895AA
:102230001F920F920FB60F9211242F933F934F933B
:102240005F936F937F938F939F93AF93BF93EF931E
:10225000FF936AE08EE391E00E94B61180914A01FB
:1022600090914B01909349018093480183E690E05F
:1022700090934B0180934A016A9A7298FF91EF9173
:10228000BF91AF919F918F917F916F915F914F918E
:102290003F912F910F900FBE0F901F901895589A55
:1022A000599A5A9A8CE08093B800E9E6F0E0808170
:1022B0008062808380818F7E8083EA9A78940895FB
:1022C0001F93CF93DF93182FD62FC42F0E944F1147
:1022D00094EA9093BC00ECEBF0E090819923ECF74A
:1022E00090E59093BB0094E89093BC00ECEBF0E099
:1022F00090819923ECF79091B900987F903229F45E
:1023000084E98093BC0080E02DC081E08093BB0015
:1023100084E88093BC00ECEBF0E090819923ECF72B
:102320001093BB0084E88093BC00ECEBF0E080816C
:102330008823ECF7D093BB0084E88093BC00ECEBDF
:10234000F0E080818823ECF7C093BB0084E88093A1
:10235000BC00ECEBF0E080818823ECF784E980930B
:10236000BC0081E0DF91CF911F910895CF93DF935F
:1023700024EA2093BC00ECEBF0E020812223ECF770
:1023800021E52093BB0024E82093BC00ECEBF0E0B7
:1023900020812223ECF72091B900287F283429F4EA
:1023A00084E98093BC0080E03FC024EC2093BC0013
:1023B000ECEBF0E020812223ECF74091BB004613C8
:1023C00009C050E0415051091416150644F040E090
:1023D00050E018C084E98093BC0080E025C0DC0197
:1023E00020E030E0ECEBF0E074ECCBEBD0E070837D
:1023F00060816623ECF768816D932F5F3F4F241750
:102400003507ACF324E82093BC00ECEBF0E020812E
:102410002223ECF72091BB00FC01E40FF51F208381
:1024200084E98093BC0081E0DF91CF910895CF9340
:10243000DF93F89494EA9093BC00ECEBF0E0908189
:102440009923ECF790E59093BB0094E89093BC003F
:10245000ECEBF0E090819923ECF79091B900987F34
:10246000903231F484E98093BC00789480E032C0EB
:1024700093E09093BB0094E89093BC00ECEBF0E009
:1024800090819923ECF78093BB0084E88093BC0093
:10249000ECEBF0E080818823ECF7242F30E012167B
:1024A00013069CF4A62FB72F80E090E0CBEBD0E092
:1024B000ECEBF0E054E84D91488350834081442395
:1024C000ECF7019682179307B4F384E98093BC007C
:1024D000789481E0DF91CF91089520E030E0ECEB3B
:1024E000F0E08081882334F02F5F3F4F293E83E066
:1024F0003807B9F781E0283E334009F480E00895B9
:102500008093BB0084E88093BC000E946D128823F6
:1025100021F08091B900887F089580E00895CF93DD
:10252000C82F94EA9093BC000E946D12882361F03A
:102530008C2F880F8F5F0E948012883439F484E9D1
:102540008093BC0080E003C080E001C081E0CF91B7
:102550000895CF93C82F94EA9093BC000E946D1207
:10256000882359F08C2F880F0E948012803239F412
:1025700084E98093BC0080E003C080E001C081E07A
:10258000CF91089584E98093BC000895EF92FF9263
:102590000F931F93CF93DF93CDB7DEB760970FB63E
:1025A000F894DEBF0FBECDBFE82EF92EFE013196A6
:1025B00080E1DF011D928A95E9F788E50E94A91262
:1025C000882309F466C086E30E948012882309F4F8
:1025D00062C00E94C212B8E0BA95F1F7000088E527
:1025E0000E948F12882309F458C0AE014F5F5F4FDD
:1025F0008E01005F1F4FECEBF0E094EC2BEB30E032
:10260000908380818823ECF7D9018C91DA018D9336
:10261000AD01A017B107A1F784E88093BC00ECEBF3
:10262000F0E080818823ECF78091BB00888B0E94CA
:10263000C212DE0114966E2D7F2D4C91242F207333
:10264000CD010297FC01808190E0F0E12F9F800D89
:10265000911D1124FB0191838083842F807C90E065
:10266000880F991F880F991F9D0121503109F90189
:102670002081820F911DFB01938382834F704483DD
:10268000158213966A5F7F4F0A171B07B1F681E028
:1026900005C080E003C080E001C080E060960FB616
:1026A000F894DEBF0FBECDBFDF91CF911F910F9188
:1026B000FF90EF9008950E944F1188E50E94A912A3
:1026C000882309F4C7C080E30E948012882309F49C
:1026D000C3C081E00E948012882309F4BFC00E9419
:1026E000C21283EC99E00197F1F700C0000088E581
:1026F0000E94A912882309F4B3C080E00E948012CE
:10270000882309F4AFC080E00E948012882309F476
:10271000ABC080E00E948012882309F4A7C080E04B
:102720000E948012882309F4A3C080E00E948012D6
:10273000882309F49FC080E00E948012882309F456
:102740009BC080E00E948012882309F497C080E932
:102750000E948012882309F493C00E94C21283EC65
:1027600099E00197F1F700C0000088E50E94A912E6
:10277000882309F487C087E00E948012882309F427
:1027800083C080E00E948012882309F47FC081E426
:102790000E948012882309F47BC00E94C21283EC3D
:1027A00099E00197F1F700C0000088E50E94A912A6
:1027B000882309F46FC08AE10E948012882309F4FB
:1027C0006BC080E40E948012882309F467C080E017
:1027D0000E948012882309F463C00E94C21283EC15
:1027E00099E00197F1F700C0000088E50E94A91266
:1027F000882309F457C083E30E948012882309F4D8
:1028000053C083E00E948012882309F44FC00E94C5
:10281000C21283EC99E00197F1F700C0000088E54F
:102820000E94A912882309F443C080E30E94801209
:10283000882309F43FC088E00E9480128823E1F1D8
:102840000E94C21283EC99E00197F1F700C00000EA
:1028500081E0089580E0089580E0089580E0089583
:1028600080E0089580E0089580E0089580E0089574
:1028700080E0089580E0089580E0089580E0089564
:1028800080E0089580E0089580E0089580E0089554
:1028900080E0089580E0089580E0089580E0089544
:1028A00080E0089580E0089580E0089580E0089534
:1028B00080E0089580E0089580E008955058BB2797
:1028C000AA270ED027C2F0D130F0F5D120F031F494
:1028D0009F3F11F41EF4C0C10EF4E095E7FBB6C1B2
:1028E000E92F3AD280F3BA17620773078407950776
:1028F00018F071F49EF552C20EF4E0950B2EBA2F2B
:10290000A02D0B01B90190010C01CA01A0011124F5
:10291000FF27591B99F0593F50F4503E68F11A16A1
:10292000F040A22F232F342F4427585FF3CF469532
:1029300037952795A795F0405395C9F77EF41F1654
:10294000BA0B620B730B840BBAF09150A1F0FF0F1E
:10295000BB1F661F771F881FC2F70EC0BA0F621F0A
:10296000731F841F48F4879577956795B795F795FA
:102970009E3F08F0B3CF9395880F08F09927EE0F8C
:1029800097958795089590D158F080E891E009F4E3
:102990009EEF91D128F040E851E059F45EEF09C074
:1029A0005BC1FCC1E92FE078D7D168F3092E052A75
:1029B000C1F3261737074807590738F00E2E07F8D6
:1029C000E02569F0E025E0640AC0EF6307F80094B1
:1029D00007FADB01B9019D01DC01CA01AD01EF93EA
:1029E0004AD098D10AD05F91552331F02BED3FE0CA
:1029F00049E450FD49EC63CF0895DF93DD27B92FFB
:102A0000BF7740E85FE31616170648075B0710F428
:102A1000D92FCFD19F938F937F936F937CD2ECEA82
:102A2000F0E01DD177D12F913F914F915F91D4D19B
:102A3000DD2349F09058A2EA2AED3FE049EC5FE33C
:102A4000D0785D274DDFDF9165C1DCD008F481E0EF
:102A5000089539D1E3956FC10CD05CC12CD140F001
:102A600023D130F021F45F3F19F0F0C0511197C12C
:102A7000F3C072D198F39923C9F35523B1F3951B91
:102A8000550BBB27AA2762177307840738F09F5F8F
:102A90005F4F220F331F441FAA1FA9F333D00E2EFE
:102AA0003AF0E0E830D091505040E695001CCAF76B
:102AB00029D0FE2F27D0660F771F881FBB1F261730
:102AC00037074807AB07B0E809F0BB0B802DBF0103
:102AD000FF2793585F4F2AF09E3F510568F0B6C01C
:102AE0005EC15F3FECF3983EDCF386957795679582
:102AF000B795F7959F5FC9F7880F911D96958795B4
:102B000097F90895E1E0660F771F881FBB1F6217D2
:102B100073078407BA0720F0621B730B840BBA0B90
:102B2000EE1F88F7E095089504D06894B11137C17D
:102B300008951AD188F09F5790F0B92F9927B7516F
:102B4000A0F0D1F0660F771F881F991F1AF0BA9571
:102B5000C9F712C0B13081F021D1B1E008951EC192
:102B6000672F782F8827B85F39F0B93FCCF3869567
:102B700077956795B395D9F73EF4909580957095C4
:102B800061957F4F8F4F9F4F0895E89409C097FB41
:102B90003EF490958095709561957F4F8F4F9F4F34
:102BA0009923A9F0F92F96E9BB279395F695879578
:102BB00077956795B795F111F8CFFAF4BB0F11F43B
:102BC00060FF1BC06F5F7F4F8F4F9F4F16C08823E2
:102BD00011F096E911C0772321F09EE8872F762F18
:102BE00005C0662371F096E8862F70E060E02AF059
:102BF0009A95660F771F881FDAF7880F9695879545
:102C000097F90895990F0008550FAA0BE0E8FEEF19
:102C100016161706E807F907C0F012161306E407A0
:102C2000F50798F0621B730B840B950B39F40A2699
:102C300061F0232B242B252B21F408950A2609F477
:102C4000A140A6958FEF811D811D089597F99F677B
:102C500080E870E060E008959FEF80EC0895DF93D6
:102C6000CF931F930F93FF92EF92DF927B018C0122
:102C7000689405C0DA2EEF01AFD0FE01E894A5916B
:102C80002591359145915591AEF3EF0129DEFE0175
:102C90009701A801DA9479F7DF90EF90FF900F91F8
:102CA0001F91CF91DF91089500240A9416161706FC
:102CB00018060906089500240A941216130614062D
:102CC00005060895C9CF50D0E8F3E894E0E0BB27AB
:102CD0009F57F0F02AED3FE049EC06C0EE0FBB0F26
:102CE000661F771F881F28F0B23A620773078407B0
:102CF00028F0B25A620B730B840BE3959A9572F726
:102D0000803830F49A95BB0F661F771F881FD2F763
:102D1000904806C1092E0394000C11F4882352F048
:102D2000BB0F40F4BF2B11F460FF04C06F5F7F4FF7
:102D30008F4F9F4F0895EF93E0FF06C0A2EA2AED60
:102D40003FE049EC5FEBCCDDE5DF0F90039401FC45
:102D50009058E9EDF0E0F7C057FD9058440F551F2B
:102D600059F05F3F71F04795880F97FB991F61F00D
:102D70009F3F79F087950895121613061406551F84
:102D8000F2CF4695F1DF08C0161617061806991FF0
:102D9000F1CF86957105610508940895E894BB27E5
:102DA00066277727CB0197F908952CDF08F48FEF7A
:102DB00008959B01AC0160E070E080E89FE34CCE99
:102DC0000BD0A8CF71DF28F076DF18F0952309F03B
:102DD0003DCF42CF1124E3CFBFDFA0F3959FD1F3C6
:102DE000950F50E0551F629FF001729FBB27F00DB9
:102DF000B11D639FAA27F00DB11DAA1F649F66270E
:102E0000B00DA11D661F829F2227B00DA11D621F5C
:102E1000739FB00DA11D621F839FA00D611D221F16
:102E2000749F3327A00D611D231F849F600D211DFA
:102E3000822F762F6A2F11249F5750408AF0E1F09D
:102E400088234AF0EE0FFF1FBB1F661F771F881FE6
:102E500091505040A9F79E3F510570F0F7CE9FCF9B
:102E60005F3FECF3983EDCF3869577956795B795D1
:102E7000F795E7959F5FC1F7FE2B880F911D9695FB
:102E8000879597F908959F931EDF0F9007FCEE5FDB
:102E900052CF11F40EF4E0CE41C066DFD0F3992397
:102EA000D9F3CEF39F57550B87FF46D00024A0E6F9
:102EB00040EA900180585695979528F4805C660FFB
:102EC000771F881F20F026173707480730F4621B4A
:102ED000730B840B202931294A2BA695179407944C
:102EE000202531254A2758F7660F771F881F20F0C5
:102EF00026173707480730F4620B730B840B200D3D
:102F0000311D411DA09581F7B901842F9158880F7B
:102F10009695879508959B01AC0152CF9F3F31F064
:102F2000915020F4879577956795B795880F911DF7
:102F30009695879597F9089591505040660F771FA1
:102F4000881FD2F708959F938F937F936F93FF937A
:102F5000EF939B01AC0134DFEF91FF9180DE2F9165
:102F60003F914F915F912CCF97FB072E16F4009461
:102F700007D077FD09D00E94C81707FC05D03EF4A2
:102F8000909581959F4F0895709561957F4F089515
:102F9000AA1BBB1B51E107C0AA1FBB1FA617B7077F
:102FA00010F0A61BB70B881F991F5A95A9F780959B
:0C2FB0009095BC01CD010895F894FFCF6E
:082FBC00CDCC4C3FE601A10160
:00000001FF
