:100000000C947C000C9499000C9499000C941B0D9A
:100010000C9499000C9499000C9499000C949900FC
:100020000C9499000C9499000C9499000C949900EC
:100030000C9499000C9499000C9499000C949900DC
:100040000C9499000C9499000C9499000C949900CC
:100050000C9499000C9499000C9499000C949900BC
:100060000C9499000C9499000C9499000C949900AC
:100070000C9499000C9499000C9499000C9499009C
:100080000C9499000C9499000C9499000C9499008C
:100090000C9499000C9499000C9499000C9499007C
:1000A0000C9499000C94070D0C949900084AD73BC6
:1000B0003BCE016E84BCBFFDC12F3D6C74319ABD37
:1000C00056833DDA3D00C77F11BED9E4BB4C3E915B
:1000D0006BAAAABE000000803F05A84CCDB2D44E4A
:1000E000B93836A9020C50B9918688083CA6AAAA4C
:1000F0002ABE000000803F0011241FBECFEFDAE0CF
:10010000DEBFCDBF11E0A0E0B1E0EEE6F7E202C055
:1001100005900D92A830B107D9F721E0A8E0B1E031
:1001200001C01D92AA37B207E1F70E948C090C9416
:10013000B5130C9400002F923F924F925F926F92F2
:100140007F928F929F92AF92BF92CF92DF92EF9267
:10015000FF920F931F93CF93DF93CDB7DEB728970E
:100160000FB6F894DEBF0FBECDBF98868F82109277
:100170000901109208018F3FE3E09E0701F16F3FF4
:10018000F3E07F07E1F04F3FE3E05E07C1F02F3F70
:10019000F3E03F07A1F00F3FE3E01E0781F0FFEF20
:1001A000EF16F3E0FF0659F0EFEFCE16E3E0DE06C0
:1001B00031F0FFEFAF16F3E0BF0609F0A4C681E00F
:1001C00090E09093090180930801D1C3F801A080C9
:1001D000B180C280D3800C5F1F4F262D372D482D54
:1001E000592D6A2D7B2D8C2D9D2D0E94D61218160F
:1001F00034F4FA82E9826A2C7B2C8C2C9D2C222DE3
:10020000332D442D552D6A2D7B2D8C2D9D2D0E9437
:100210002611882334F4FE82ED822A2C3B2C4C2CB0
:100220005D2CFFEFEF1AFF0A86E0E816F10471F685
:10023000E981FA81E230F10509F43EC134F43097E6
:1002400081F0319709F08DC3A2C089819A818430F1
:10025000910509F45BC20CF4C4C1059709F081C390
:10026000EAC2ED81FE81E230F10539F124F43197E3
:1002700009F06EC009C08D819E8183309105B1F176
:10028000049709F065C04BC08AE391E090936D013B
:1002900080936C0182E391E090935301809352012B
:1002A00086E391E090935501809354018EE291E0B2
:1002B000909367018093660154C38AE391E0909321
:1002C0006D0180936C018EE291E0909353018093D5
:1002D000520186E391E0909355018093540182E3AB
:1002E00091E090936701809366013BC386E391E0C0
:1002F00090936D0180936C0182E391E090935301A0
:10030000809352018AE391E09093550180935401C8
:100310008EE291E0909367018093660122C386E3A9
:1003200091E090936D0180936C018EE291E0909347
:100330005301809352018AE391E090935501809399
:10034000540182E391E0909367018093660109C3B1
:100350008AE391E090936D0180936C0186E391E0D4
:10036000909353018093520182E391E09093550161
:10037000809354018EE291E090936701809366012F
:1003800081E090E09093090180930801F0C2ED8133
:10039000FE81E230F10531F11CF4EF2B51F06DC01C
:1003A0008D819E8183309105B1F1059709F065C07B
:1003B0004BC08AE391E090936D0180936C0186E3DA
:1003C00091E0909353018093520182E391E09093E6
:1003D0005501809354018EE291E0909367018093E0
:1003E0006601BFC28AE391E090936D0180936C0136
:1003F0008EE291E0909353018093520182E391E069
:10040000909355018093540186E391E090936701A6
:1004100080936601A6C282E391E090936D01809380
:100420006C0186E391E090935301809352018AE33B
:1004300091E090935501809354018EE291E0909366
:100440006701809366018DC282E391E090936D0114
:1004500080936C018EE291E090935301809352015E
:100460008AE391E0909355018093540186E391E0F3
:10047000909367018093660174C28AE391E0909340
:100480006D0180936C0186E391E09093530180931A
:10049000520182E391E090935501809354018EE2E2
:1004A00091E0909367018093660181E090E09093E2
:1004B0000901809308015BC2ED81FE81E130F10505
:1004C00031F11CF4EF2B51F06DC08D819E81843091
:1004D0009105B1F1059709F065C04BC08AE391E041
:1004E00090936D0180936C0186E391E090935301AA
:1004F000809352018EE291E09093550180935401D4
:1005000082E391E090936701809366012AC28AE3B7
:1005100091E090936D0180936C0182E391E0909360
:100520005301809352018EE291E0909355018093A4
:10053000540186E391E0909367018093660111C2B4
:100540008EE291E090936D0180936C0186E391E0DF
:1005500090935301809352018AE391E09093550167
:100560008093540182E391E0909367018093660148
:10057000F8C18EE291E090936D0180936C0182E36B
:1005800091E090935301809352018AE391E090931C
:1005900055018093540186E391E090936701809325
:1005A0006601DFC18AE391E090936D0180936C0155
:1005B00086E391E0909353018093520182E391E0AE
:1005C00090935501809354018EE291E090936701DE
:1005D0008093660181E090E0909309018093080187
:1005E000C6C1ED81FE81E130F10531F11CF4EF2B44
:1005F00051F06DC08D819E8184309105B1F10597D8
:1006000009F065C04BC086E391E090936D01809343
:100610006C018AE391E0909353018093520182E34D
:1006200091E090935501809354018EE291E0909374
:1006300067018093660195C182E391E090936D011B
:1006400080936C018AE391E090935301809352016F
:1006500086E391E090935501809354018EE291E0FE
:1006600090936701809366017CC186E391E090934B
:100670006D0180936C018EE291E090935301809321
:10068000520182E391E090935501809354018AE3F3
:1006900091E0909367018093660163C182E391E0EA
:1006A00090936D0180936C018EE291E090935301E1
:1006B0008093520186E391E0909355018093540119
:1006C0008AE391E090936701809366014AC18AE3CF
:1006D00091E090936D0180936C0186E391E090939B
:1006E00053018093520182E391E0909355018093EE
:1006F00054018EE291E0909367018093660181E05E
:1007000090E0909309018093080131C1ED81FE8151
:10071000E230F10531F11CF4EF2B51F06DC08D8109
:100720009E8183309105B1F1059709F065C04BC0FA
:1007300086E391E090936D0180936C018AE391E0F0
:1007400090935301809352018EE291E09093550172
:100750008093540182E391E0909367018093660156
:1007600000C18EE291E090936D0180936C018AE369
:1007700091E0909353018093520186E391E090932E
:1007800055018093540182E391E090936701809337
:100790006601E7C086E391E090936D0180936C0160
:1007A00082E391E090935301809352018EE291E0B5
:1007B00090935501809354018AE391E090936701EF
:1007C00080936601CEC08EE291E090936D0180939C
:1007D0006C0182E391E0909353018093520186E390
:1007E00091E090935501809354018AE391E09093B6
:1007F000670180936601B5C08AE391E090936D0133
:1008000080936C0186E391E09093530180935201B1
:1008100082E391E090935501809354018EE291E040
:10082000909367018093660181E090E090930901C5
:10083000809308019CC0ED81FE81E230F10539F121
:1008400024F4319709F06EC009C08D819E818330F8
:100850009105B1F1049709F065C04BC082E391E0C6
:1008600090936D0180936C018AE391E09093530122
:10087000809352018EE291E0909355018093540150
:1008800086E391E090936701809366016AC08EE2EF
:1008900091E090936D0180936C018AE391E09093D5
:1008A00053018093520182E391E09093550180932C
:1008B000540186E391E0909367018093660151C0F3
:1008C00082E391E090936D0180936C0186E391E067
:1008D00090935301809352018EE291E090935501E1
:1008E000809354018AE391E09093670180936601BD
:1008F00038C08EE291E090936D0180936C0186E3A5
:1009000091E0909353018093520182E391E09093A0
:100910005501809354018AE391E09093670180939D
:1009200066011FC08AE391E090936D0180936C0192
:1009300086E391E0909353018093520182E391E02A
:1009400090935501809354018EE291E0909367015A
:100950008093660181E090E0909309018093080103
:1009600006C08091080190910901892BD1F08091F6
:10097000140190911501EF8DF8A1918380838091EE
:10098000120190911301EF81F8859183808380910A
:10099000100190911101ED8DFE8D9183808380E097
:1009A000DEC3262D372D482D592D60E070E088EEEE
:1009B00091E40E942D11262E372E482E592EE090BC
:1009C0006C01F0906D010F2EFEE58F2EF1E09F2E51
:1009D000F02DF70160817181882777FD8095982F30
:1009E0000E94C811222D332D442D552D0E94E11255
:1009F0000E949511F401718360830F2EF0E66F2E33
:100A0000F1E07F2EF02DF70162817381882777FD59
:100A10008095982F0E94C811222D332D442D552DDD
:100A20000E94E1120E949511F3017183608300918D
:100A30005401109155010F2EFEE4AF2EF1E0BF2EB0
:100A4000F02DF80160817181882777FD8095982FBE
:100A50000E94C811222D332D442D552D0E94E112E4
:100A60000E949511F501718360830F2EF0E5CF2E62
:100A7000F1E0DF2EF02DF80162817381882777FD88
:100A80008095982F0E94C811222D332D442D552D6D
:100A90000E94E1120E949511F60171836083F701B3
:100AA00060817181F80180819181680F791F8827A9
:100AB00077FD8095982F0E94C81120E030E040E03B
:100AC0005FE30E94E1120E949511E9A1FAA17183EE
:100AD0006083A0916C01B0916D01E0915401F0919F
:100AE000550112966D917C91139782819381680FC5
:100AF000791F882777FD8095982F0E94C81120E0E4
:100B000030E040E05FE30E94E1120E949511EBA10A
:100B1000FCA171836083F40160817181F5018081A2
:100B20009181680F791F882777FD8095982F0E9403
:100B3000C81120E030E040E05FE30E94E1120E9433
:100B400095111B017093730160937201F301608131
:100B50007181F60180819181680F791F882777FD67
:100B60008095982F0E94C81120E030E040E05FE3BC
:100B70000E94E1120E9495118B01709375016093A0
:100B80007401229CB001239C700D700D1124009FF4
:100B9000C001019F900D900D1124680F791F8827C7
:100BA00077FD8095982F0E94C8110E944E132B014B
:100BB0003C016093560170935701809358019093C4
:100BC000590180915401909155019A838983E09154
:100BD0006C01F0916D01FE83ED83FC0160817181F8
:100BE000ED81FE8180819181681B790B882777FDDB
:100BF0008095982F0E94C8116B017C01E981FA81D0
:100C000062817381ED81FE8182819381681B790B02
:100C1000882777FD8095982F0E94C811A70196011B
:100C20000E94D3104B015C016093620170936301D9
:100C30008093640190936501ED81FE8160817181F3
:100C4000E981FA8180819181681B790B882777FD82
:100C50008095982F0E94C8116B017C01ED81FE8167
:100C600062817381E981FA8182819381681B790BAA
:100C7000882777FD8095982F0E94C811A7019601BB
:100C80000E94D3106B017C0160935A0170935B0149
:100C900080935C0190935D01B801882777FD809572
:100CA000982F0E94C81169837A838B839C83B1013A
:100CB000882777FD8095982F0E94C81129813A8155
:100CC0004B815C810E94D3109B01AC01DC01CB0104
:100CD000B0588093760190937701A0937801B093F8
:100CE000790177FA709477F87094C501B4010E9485
:100CF0006010862E972EA82EB92E0E942A119B01D5
:100D0000AC01C301B2010E94E1120E9495118B0156
:100D100070930D0160930C01682D792D8A2D9B2D08
:100D20000E9444139B01AC01C301B2010E94E11275
:100D30000E94951170930B0160930A0120E030E04E
:100D400044E353E4C701B6010E94E1122BED3FE0FA
:100D500049E450E40E942D110E94951170930F01F7
:100D600060930E01C0900001D0900101E09002015B
:100D7000F09003016091120170911301882777FDB3
:100D80008095982F0E94C811A70196010E94E11238
:100D90004B015C01A701960160E070E080E89FE3F1
:100DA0000E945F106B017C01B801882777FD809558
:100DB000982F0E94C8119B01AC01C701B6010E9487
:100DC000E1129B01AC01C501B4010E9460100E94B8
:100DD0009511EF81F88571836083C0900001D090F8
:100DE0000101E0900201F090030160911001709107
:100DF0001101882777FD8095982F0E94C811A701BF
:100E000096010E94E1124B015C01A701960160E08E
:100E100070E080E89FE30E945F106B017C016091AD
:100E20000A0170910B01882777FD8095982F0E9409
:100E3000C8119B01AC01C701B6010E94E1129B01E0
:100E4000AC01C501B4010E9460100E949511ED8DA6
:100E5000FE8D71836083C0900001D0900101E0900D
:100E60000201F0900301609114017091150188272F
:100E700077FD8095982F0E94C811A70196010E94C6
:100E8000E1124B015C01A701960160E070E080E88F
:100E90009FE30E945F106B017C0160910E017091D5
:100EA0000F01882777FD8095982F0E94C8119B011C
:100EB000AC01C701B6010E94E1129B01AC01C50162
:100EC000B4010E9460100E949511EF8DF8A171830A
:100ED0006083EF81F88580819181909313018093E5
:100EE0001201ED8DFE8D808191819093110180938F
:100EF0001001EF8DF8A1808191819093150180936D
:100F0000140181E02CC1E0910601F09107014C0130
:100F10008E1A9F0A90923B0180923A0180910401BF
:100F200090910501081B190B10933D0100933C01A2
:100F30003B016E1A7F0A7092370160923601E81AFF
:100F4000F90AF0923901E09238012A014E1A5F0A3B
:100F500050923301409232011601281A390A309218
:100F60003501209234016901CE1ADF0AD0922F0197
:100F7000C0922E01A81AB90AB0923101A092300194
:100F8000930128193909C701801B910B229FB001D9
:100F9000239F700D700D1124889F9001899F300D43
:100FA000300D1124620F731F882777FD8095982FCD
:100FB0000E94C8110E944E1360931601709317018E
:100FC0008093180190931901920128193909C101E0
:100FD000801B910B229FB001239F700D700D112477
:100FE000889F9001899F300D300D1124620F731F6F
:100FF000882777FD8095982F0E94C8110E944E1374
:1010000060931A0170931B0180931C0190931D0142
:10101000960128193909C501801B910B229FB00147
:10102000239F700D700D1124889F9001899F300DB2
:10103000300D1124620F731F882777FD8095982F3C
:101040000E94C8110E944E1360931E0170931F01ED
:101050008093200190932101920126193709C10143
:101060008E199F09229FB001239F700D700D1124CE
:10107000889F9001899F300D300D1124620F731FDE
:10108000882777FD8095982F0E94C8110E944E13E3
:101090006093220170932301809324019093250192
:1010A000960126193709C5018E199F09229FB001A3
:1010B000239F700D700D1124889F9001899F300D22
:1010C000300D1124620F731F882777FD8095982FAC
:1010D0000E94C8110E944E1360932601709327014D
:1010E0008093280190932901C418D508A218B30849
:1010F000CC9CB001CD9C700D700D1124AA9CC00138
:10110000AB9C900D900D1124680F791F882777FDF7
:101110008095982F0E94C8110E944E1360932A0157
:1011200070932B0180932C0190932D0106E111E027
:10113000E12CF12C1E821D821A821982212C6894C6
:10114000332436F80F2EFCE14F2EF02D0F2EF6E44F
:101150005F2EF02D612C712C812C912C37C8289694
:101160000FB6F894DEBF0FBECDBFDF91CF911F91B8
:101170000F91FF90EF90DF90CF90BF90AF909F9036
:101180008F907F906F905F904F903F902F90089539
:10119000269A279A84EF91E09093890080938800A3
:1011A00010928B0010928A0010928D0010928C0089
:1011B000A1E8B0E08C9180618C938C9188608C93D5
:1011C000E0E8F0E0808182608083808181608083BC
:1011D00080818062808380818F7E8083808188602F
:1011E000808380818B7F80838C918B7F8C938C918B
:1011F0008D7F8C938C9181608C93089583EC809388
:10120000D100E3ECF0E080818D7F808380818E7F50
:101210008083E2E7F0E0808184608083E1ECF0E0AD
:101220008081886080838081846080838081826007
:10123000808380818E7F80830895ECE7F0E0808159
:101240008F778083808180648083AAE7B0E08C916F
:1012500084608C938C9182608C938C9181608C9350
:10126000EEE7F0E08081816080838081826080830E
:1012700080818061808380818062808380818064BE
:101280008083808180688083EDE7F0E080818160E9
:1012900080838081826080838C9180628C930895AA
:1012A000209A219A289A29982298089510928B00C2
:1012B00010928A0010928D0010928C000895289A46
:1012C000299A88E691E090938B0080938A008CE7BE
:1012D00091E090938D0080938C0008952898299830
:1012E00088E691E090938B0080938A008CE791E0F0
:1012F00090938D0080938C0008952898299A80E718
:1013000091E090938B0080938A0083E891E0909322
:101310008D0080938C000895CF93DF93CDB7DEB717
:10132000EC970FB6F894DEBF0FBECDBF1A821982BC
:101330001C821B82FE0135968AE0DF011D928A9590
:10134000E9F718A61FA21AA619A61CA61BA6E1E675
:10135000F0E080E8808310826A9A729A6E9A769A98
:101360006E9A76980E94500D0E9450090E94C808FB
:101370000E94FE080E941D090E945C0F8823E1F371
:10138000BFE3EDE0F3E0B150E040F040E1F700C032
:1013900000006E9A769A4AE062E481E00E94610D54
:1013A00078941FAA18AE19AE1AAE1CAE1BAE1EAAB8
:1013B0001DAA612C712C9E012D5F3F4F3EA72DA7CA
:1013C000CE01019698AB8FA7DE019B96BAABA9AB75
:1013D000FE01B996FCABEBAB14C06894662461F8CF
:1013E000712C0FC00F2EF3E06F2E712CF02D09C061
:1013F000612C712C06C0612C712C03C0662463948F
:10140000712CF894CE010F960E94C70E7894882311
:1014100071F1ABA0BCA0CD8CDE8CEF88F88C098973
:101420001A8929A13AA14B8D5C8D6D897E89FEA513
:10143000FF938DA58F9398A99F93AFA5AF93BAA95A
:10144000BF93E9A9EF93FCA9FF938BA98F930F2E6C
:10145000F7E28F2E912CF02D8C0E9D1E8F85988992
:101460000E949B000FB6F894DEBF0FBECDBF8091E7
:101470004C0190914D01019789F4B2E4BD838FA195
:101480008E8389A58F834AE0BE016B5F7F4F8AED13
:101490000E94180E10924D0110924C0180914A0149
:1014A00090914B018230910509F4BCC134F400974E
:1014B00081F0019709F08CC220C08631910509F4B2
:1014C0007BC28336910509F415C2459709F080C2A5
:1014D0007CC21A9B05C0EDE8FFEFFEABEDAB04C08C
:1014E00023E730E03EAB2DAB82E090E090934B01E0
:1014F00080934A01612C712C84CF6114710491F5A1
:1015000069A57AA5719561957109882777FD809500
:10151000982F0E94C8116B017C018FA198A56DA91D
:101520007EA9681B790B882777FD8095982F0E94EC
:10153000C8119058A70196010E94D31020E030E016
:1015400044E353E40E94E1122BED3FE049E450E410
:101550000E942D116FAB78AF89AF9AAF6624639468
:10156000712C4FCF91E06916710409F0E4C069A5B0
:101570007AA5719561957109882777FD8095982FD7
:101580000E94C8116B017C018FA198A56DA97EA94D
:10159000681B790B882777FD8095982F0E94C811CA
:1015A0009058A70196010E94D31020E030E044E358
:1015B00053E40E94E1122BED3FE049E450E40E9425
:1015C0002D11B62EA72E982E892E6FAB78AF89AF2E
:1015D0009AAF0BA51CA5B801882777FD8095982F99
:1015E0000E94C8116B017C0120E030E040EE50E425
:1015F0006B2D7A2D892D982D0E945F109B01AC01D7
:10160000C701B6010E94D61288239CF020E030E08A
:1016100040EE50E46B2D7A2D892D982D0E9460109C
:101620009B01AC01C701B6010E94261118160CF0EF
:10163000D4CE20E030E044E353E46B2D7A2D892DA5
:10164000982D0E945F10562E472E382E292E20E00E
:1016500030E044E353EC0E94261188230CF0CBC108
:1016600020E030E044EB53E4652D742D832D922D62
:101670000E946010262E372E482E592EA701960163
:101680006B2D7A2D892D982D0E94D612882334F542
:1016900029C0A70196016B2D7A2D892D982D0E94C6
:1016A000D61288231CF00E946E09ABCE252D342D56
:1016B000432D522DC701B6010E94261188235CF0EC
:1016C000A70196016B2D7A2D892D982D0E94261148
:1016D00088230CF096CE0E945F0993CE0C34AFEFB6
:1016E0001A076CF4222D332D442D552DC701B60158
:1016F0000E94D612882334F0053B11051CF40E9489
:101700006E097FCEA70196016B2D7A2D892D982D1C
:101710000E94261188230CF074CE222D332D442DE7
:10172000552DC701B6010E94261188230CF069CE01
:101730000E945F0966CEB2E06B16710409F062C0C8
:101740002FA138A5EDA9FEA92E1B3F0B89A59AA5AF
:10175000229FB001239F700D700D1124889F90016E
:10176000899F300D300D1124620F731F882777FD7C
:101770008095982F0E94C8110E944E1320E030E0FF
:1017800040E751E40E94261188230CF42BCE6BA570
:101790007CA5882777FD8095982F0E94C8116B0142
:1017A0007C0120E030E040EE50E4BFA9A8ADF9ADE7
:1017B000EAAD6B2F7A2F8F2F9E2F0E945F109B0117
:1017C000AC01C701B6010E94261188230CF410CE8B
:1017D00020E030E040EE50E4FFA9E8ADB9ADAAAD9D
:1017E0006F2F7E2F8B2F9A2F0E9460109B01AC01D0
:1017F000C701B6010E94D61218160CF4FCCD0E9447
:101800007D09FFCDF3E06F16710409F0FACD22E0F7
:1018100030E030934B0120934A016894662462F8CB
:10182000712CEFCD6114710409F054C00FA118A5FB
:10183000C801ADA9BEA98A1B9B0BE9A4FAA4889F85
:10184000B001899F700D700D1124EE9CC001EF9CBA
:10185000900D900D1124680F791F882777FD8095D2
:10186000982F0E94C8110E944E1320E030E040E7FC
:1018700051E40E94261188230CF4C0CD66277727F7
:101880006E197F09882777FD8095982F0E94C811CF
:101890006B017C016DA97EA9601B710B882777FD08
:1018A0008095982F0E94C8119058A70196010E9418
:1018B000D31020E030E044E353E40E94E1122BED2A
:1018C0003FE049E450E40E942D116FAB78AF89AF3F
:1018D0009AAF97CDB1E06B16710409F092CDE3E0B9
:1018E000F0E0F0934B01E0934A016894662461F8BC
:1018F000712C87CDAEE3B1E08C91833AB9F138F425
:10190000813AB1F048F5803A09F07BCD0AC0863AB9
:1019100009F441C0873A09F445C0843A09F071CD11
:101920002FC086E190E090934B0180934A0169CDEE
:10193000EBADFCADEF2B59F080914801909149013E
:1019400090934B0180934A011CAE1BAE5ACD10926E
:101950004B0110924A0155CD83B10E94560925E1F1
:1019600030E030934B0120934A014BCD83B10E946C
:10197000560985E190E090934B0180934A0141CD57
:10198000A5E1B0E0B0934B01A0934A01E1E0F0E0A3
:10199000FCAFEBAF36CD25E130E030934B01209327
:1019A0004A012FCD83B10E94560985E190E09093C2
:1019B0004B0180934A0125CD0E945609A5E1B0E074
:1019C000B0934B01A0934A011CCD0E94560919CD3A
:1019D0000E94560920E494E06E9A8EB182278EB957
:1019E0006A9A8EB189278EB9E3E2F4EF3197F1F765
:1019F00000C00000F1CF252D342D432D522DC701FD
:101A0000B6010E94D61288230CF043CE4FCE1F920F
:101A10000F920FB60F9211248F939F9381E090E065
:101A200090934D0180934C019F918F910F900FBE29
:101A30000F901F9018951F920F920FB60F921124BE
:101A40002F933F934F935F936F937F938F939F93C6
:101A5000AF93BF93EF93FF936AE08EE391E00E9410
:101A6000B70D80914A0190914B0190934901809369
:101A7000480183E690E090934B0180934A01FF91E7
:101A8000EF91BF91AF919F918F917F916F915F91F6
:101A90004F913F912F910F900FBE0F901F9018956F
:101AA000589A599A5A9A8CE08093B800E9E6F0E087
:101AB00080818062808380818F7E8083EA9A78949F
:101AC00008951F93CF93DF93182FD62FC42F0E9412
:101AD000500D94EA9093BC00ECEBF0E090819923D8
:101AE000ECF790E59093BB0094E89093BC00ECEB8E
:101AF000F0E090819923ECF79091B900987F9032B3
:101B000029F484E98093BC0080E02DC081E08093BB
:101B1000BB0084E88093BC00ECEBF0E0908199235B
:101B2000ECF71093BB0084E88093BC00ECEBF0E092
:101B300080818823ECF7D093BB0084E88093BC00BD
:101B4000ECEBF0E080818823ECF7C093BB0084E8E5
:101B50008093BC00ECEBF0E080818823ECF784E913
:101B60008093BC0081E0DF91CF911F910895CF93C6
:101B7000DF9324EA2093BC00ECEBF0E020812223E9
:101B8000ECF721E52093BB0024E82093BC00ECEBAC
:101B9000F0E020812223ECF72091B900287F28343F
:101BA00029F484E98093BC0080E03FC024EC2093BA
:101BB000BC00ECEBF0E020812223ECF74091BB006D
:101BC000461309C050E0415051091416150644F05F
:101BD00040E050E018C084E98093BC0080E025C05C
:101BE000DC0120E030E0ECEBF0E074ECCBEBD0E09B
:101BF000708360816623ECF768816D932F5F3F4FA0
:101C000024173507ACF324E82093BC00ECEBF0E09C
:101C100020812223ECF72091BB00FC01E40FF51F8B
:101C2000208384E98093BC0081E0DF91CF91089507
:101C3000CF93DF93F89494EA9093BC00ECEBF0E040
:101C400090819923ECF790E59093BB0094E89093F2
:101C5000BC00ECEBF0E090819923ECF79091B90097
:101C6000987F903231F484E98093BC00789480E0CE
:101C700032C093E09093BB0094E89093BC00ECEBEF
:101C8000F0E090819923ECF78093BB0084E8809387
:101C9000BC00ECEBF0E080818823ECF7242F30E0EF
:101CA000121613069CF4A62FB72F80E090E0CBEB22
:101CB000D0E0ECEBF0E054E84D9148835083408154
:101CC0004423ECF7019682179307B4F384E98093D9
:101CD000BC00789481E0DF91CF91089520E030E05E
:101CE000ECEBF0E08081882334F02F5F3F4F293EFA
:101CF00083E03807B9F781E0283E334009F480E0FB
:101D000008958093BB0084E88093BC000E946E0E0F
:101D1000882321F08091B900887F089580E008959C
:101D2000CF93C82F94EA9093BC000E946E0E882334
:101D300061F08C2F880F8F5F0E94810E883439F4F8
:101D400084E98093BC0080E003C080E001C081E0B2
:101D5000CF910895CF93C82F94EA9093BC000E942E
:101D60006E0E882359F08C2F880F0E94810E8032CE
:101D700039F484E98093BC0080E003C080E001C0B6
:101D800081E0CF91089584E98093BC000895EF929B
:101D9000FF920F931F93CF93DF93CDB7DEB760977A
:101DA0000FB6F894DEBF0FBECDBFE82EF92EFE01B0
:101DB000319680E1DF011D928A95E9F788E50E945E
:101DC000AA0E882309F466C086E30E94810E882348
:101DD00009F462C00E94C30EB8E0BA95F1F70000A2
:101DE00088E50E94900E882309F458C0AE014F5F29
:101DF0005F4F8E01005F1F4FECEBF0E094EC2BEB9C
:101E000030E0908380818823ECF7D9018C91DA014E
:101E10008D93AD01A017B107A1F784E88093BC00B2
:101E2000ECEBF0E080818823ECF78091BB00888B9D
:101E30000E94C30EDE0114966E2D7F2D4C91242F2F
:101E40002073CD010297FC01808190E0F0E12F9F8B
:101E5000800D911D1124FB0191838083842F807C50
:101E600090E0880F991F880F991F9D01215031091B
:101E7000F9012081820F911DFB01938382834F70B2
:101E80004483158213966A5F7F4F0A171B07B1F6CA
:101E900081E005C080E003C080E001C080E0609682
:101EA0000FB6F894DEBF0FBECDBFDF91CF911F916B
:101EB0000F91FF90EF9008950E94500D88E50E94C9
:101EC000AA0E882309F4C7C080E30E94810E8823EC
:101ED00009F4C3C081E00E94810E882309F4BFC0C9
:101EE0000E94C30E83EC99E00197F1F700C0000057
:101EF00088E50E94AA0E882309F4B3C080E00E94FE
:101F0000810E882309F4AFC080E00E94810E8823EF
:101F100009F4ABC080E00E94810E882309F4A7C0B9
:101F200080E00E94810E882309F4A3C080E00E9413
:101F3000810E882309F49FC080E00E94810E8823CF
:101F400009F49BC080E00E94810E882309F497C0A9
:101F500080E90E94810E882309F493C00E94C30E79
:101F600083EC99E00197F1F700C0000088E50E943A
:101F7000AA0E882309F487C087E00E94810E882377
:101F800009F483C080E00E94810E882309F47FC099
:101F900081E40E94810E882309F47BC00E94C30E55
:101FA00083EC99E00197F1F700C0000088E50E94FA
:101FB000AA0E882309F46FC08AE10E94810E88234B
:101FC00009F46BC080E40E94810E882309F467C085
:101FD00080E00E94810E882309F463C00E94C30E32
:101FE00083EC99E00197F1F700C0000088E50E94BA
:101FF000AA0E882309F457C083E30E94810E882328
:1020000009F453C083E00E94810E882309F44FC075
:102010000E94C30E83EC99E00197F1F700C0000025
:1020200088E50E94AA0E882309F443C080E30E9439
:10203000810E882309F43FC088E00E94810E882326
:10204000E1F10E94C30E83EC99E00197F1F700C023
:10205000000081E0089580E0089580E0089580E028
:10206000089580E0089580E0089580E0089580E07C
:10207000089580E0089580E0089580E0089580E06C
:10208000089580E0089580E0089580E0089580E05C
:10209000089580E0089580E0089580E0089580E04C
:1020A000089580E0089580E0089580E0089580E03C
:1020B000089580E0089580E0089580E008955058E4
:1020C000BB27AA270ED027C2F0D130F0F5D120F0DF
:1020D00031F49F3F11F41EF4C0C10EF4E095E7FB0C
:1020E000B6C1E92F3AD280F3BA17620773078407A3
:1020F000950718F071F49EF552C20EF4E0950B2E80
:10210000BA2FA02D0B01B90190010C01CA01A00149
:102110001124FF27591B99F0593F50F4503E68F1A4
:102120001A16F040A22F232F342F4427585FF3CFE5
:10213000469537952795A795F0405395C9F77EF4B6
:102140001F16BA0B620B730B840BBAF09150A1F0FF
:10215000FF0FBB1F661F771F881FC2F70EC0BA0F85
:10216000621F731F841F48F4879577956795B7950D
:10217000F7959E3F08F0B3CF9395880F08F0992705
:10218000EE0F97958795089590D158F080E891E0EB
:1021900009F49EEF91D128F040E851E059F45EEF48
:1021A00009C05BC1FCC1E92FE078D7D168F3092EE3
:1021B000052AC1F3261737074807590738F00E2EAE
:1021C00007F8E02569F0E025E0640AC0EF6307F84E
:1021D000009407FADB01B9019D01DC01CA01AD01E0
:1021E000EF934AD098D10AD05F91552331F02BED6F
:1021F0003FE049E450FD49EC63CF0895DF93DD27CC
:10220000B92FBF7740E85FE31616170648075B074C
:1022100010F4D92FCFD19F938F937F936F937CD25C
:10222000ECEAF0E01DD177D12F913F914F915F9172
:10223000D4D1DD2349F09058A2EA2AED3FE049ECE1
:102240005FE3D0785D274DDFDF9165C1DCD008F416
:1022500081E0089539D1E3956FC10CD05CC12CD1D8
:1022600040F023D130F021F45F3F19F0F0C051115C
:1022700097C1F3C072D198F39923C9F35523B1F3F1
:10228000951B550BBB27AA2762177307840738F0E5
:102290009F5F5F4F220F331F441FAA1FA9F333D044
:1022A0000E2E3AF0E0E830D091505040E695001CF8
:1022B000CAF729D0FE2F27D0660F771F881FBB1FB4
:1022C000261737074807AB07B0E809F0BB0B802D8E
:1022D000BF01FF2793585F4F2AF09E3F510568F0DA
:1022E000B6C05EC15F3FECF3983EDCF38695779510
:1022F0006795B795F7959F5FC9F7880F911D9695DC
:10230000879597F90895E1E0660F771F881FBB1F37
:10231000621773078407BA0720F0621B730B840BE4
:10232000BA0BEE1F88F7E095089504D06894B111B8
:1023300037C108951AD188F09F5790F0B92F992787
:10234000B751A0F0D1F0660F771F881F991F1AF0C0
:10235000BA95C9F712C0B13081F021D1B1E008952A
:102360001EC1672F782F8827B85F39F0B93FCCF3AB
:10237000869577956795B395D9F73EF490958095B6
:10238000709561957F4F8F4F9F4F0895E89409C0D6
:1023900097FB3EF490958095709561957F4F8F4F98
:1023A0009F4F9923A9F0F92F96E9BB279395F695AE
:1023B000879577956795B795F111F8CFFAF4BB0F2C
:1023C00011F460FF1BC06F5F7F4F8F4F9F4F16C090
:1023D000882311F096E911C0772321F09EE8872F1A
:1023E000762F05C0662371F096E8862F70E060E0D6
:1023F0002AF09A95660F771F881FDAF7880F96954F
:10240000879597F90895990F0008550FAA0BE0E8F2
:10241000FEEF16161706E807F907C0F012161306A6
:10242000E407F50798F0621B730B840B950B39F4E6
:102430000A2661F0232B242B252B21F408950A264C
:1024400009F4A140A6958FEF811D811D089597F98C
:102450009F6780E870E060E008959FEF80EC08954A
:10246000DF93CF931F930F93FF92EF92DF927B0145
:102470008C01689405C0DA2EEF01AFD0FE01E8941C
:10248000A5912591359145915591AEF3EF0129DE46
:10249000FE019701A801DA9479F7DF90EF90FF90A1
:1024A0000F911F91CF91DF91089500240A94161681
:1024B000170618060906089500240A941216130632
:1024C000140605060895C9CF50D0E8F3E894E0E07B
:1024D000BB279F57F0F02AED3FE049EC06C0EE0F16
:1024E000BB0F661F771F881F28F0B23A6207730779
:1024F000840728F0B25A620B730B840BE3959A950C
:1025000072F7803830F49A95BB0F661F771F881FCB
:10251000D2F7904806C1092E0394000C11F48823C9
:1025200052F0BB0F40F4BF2B11F460FF04C06F5F8B
:102530007F4F8F4F9F4F0895EF93E0FF06C0A2EAB1
:102540002AED3FE049EC5FEBCCDDE5DF0F90039433
:1025500001FC9058E9EDF0E0F7C057FD9058440FAA
:10256000551F59F05F3F71F04795880F97FB991FF2
:1025700061F09F3F79F087950895121613061406AF
:10258000551FF2CF4695F1DF08C01616170618063C
:10259000991FF1CF86957105610508940895E89417
:1025A000BB2766277727CB0197F908952CDF08F41E
:1025B0008FEF08959B01AC0160E070E080E89FE33D
:1025C0004CCE0BD0A8CF71DF28F076DF18F0952322
:1025D00009F03DCF42CF1124E3CFBFDFA0F3959F99
:1025E000D1F3950F50E0551F629FF001729FBB27FA
:1025F000F00DB11D639FAA27F00DB11DAA1F649FA6
:102600006627B00DA11D661F829F2227B00DA11D58
:10261000621F739FB00DA11D621F839FA00D611DDE
:10262000221F749F3327A00D611D231F849F600DFF
:10263000211D822F762F6A2F11249F5750408AF038
:10264000E1F088234AF0EE0FFF1FBB1F661F771FC4
:10265000881F91505040A9F79E3F510570F0F7CE6A
:102660009FCF5F3FECF3983EDCF3869577956795B7
:10267000B795F795E7959F5FC1F7FE2B880F911DE2
:102680009695879597F908959F931EDF0F9007FC05
:10269000EE5F52CF11F40EF4E0CE41C066DFD0F30E
:1026A0009923D9F3CEF39F57550B87FF46D00024CB
:1026B000A0E640EA900180585695979528F4805CF2
:1026C000660F771F881F20F026173707480730F45A
:1026D000621B730B840B202931294A2BA695179472
:1026E0000794202531254A2758F7660F771F881F42
:1026F00020F026173707480730F4620B730B840B62
:10270000200D311D411DA09581F7B901842F9158ED
:10271000880F9695879508959B01AC0152CF9F3FF6
:1027200031F0915020F4879577956795B795880F8C
:10273000911D9695879597F9089591505040660F91
:10274000771F881FD2F708959F938F937F936F937E
:10275000FF93EF939B01AC0134DFEF91FF9180DE9B
:0E2760002F913F914F915F912CCFF894FFCFB6
:08276E00CDCC4C3FE601A101B6
:00000001FF
