S0160000776972656C6573735F636F6D6D732E7372656322
S11300000C94D5000C94F2000C94F2000C94F200C1
S11300100C94F2000C94F2000C94F2000C94F20094
S11300200C94F2000C94F2000C9420170C945E17BC
S11300300C94F2000C94F2000C94F2000C94F20074
S11300400C94F2000C94F2000C94F2000C94F20064
S11300500C94F2000C94F2000C94F2000C94F20054
S11300600C94F2000C94F2000C94F2000C94F20044
S11300700C94F2000C94F2000C94F2000C94F20034
S11300800C94F2000C94F2000C94F2000C94F20024
S11300900C94F2000C94F2000C94F2000C94F20014
S11300A00C94F2000C944F160C94F200084AD73BBF
S11300B03BCE016E84BCBFFDC12F3D6C74319ABD33
S11300C056833DDA3D00C77F11BED9E4BB4C3E9157
S11300D06BAAAABE000000803F05A84CCDB2D44E46
S11300E0B93836A9020C50B9918688083CA6AAAA48
S11300F02ABE000000803F000100002B0112000214
S113010000003D01430003000080010401030904D1
S11301108401120203090498010603030904A001DF
S1130120080001C112018036018136120100020269
S1130130000010C0167A0400010102030109024301
S113014000020100C032090400000102020100059E
S113015024001001052401010104240206052406DB
S113016000010705820310004009040100020A008F
S11301700000070503024000000705840240000058
S11301800403090412034A002E00200046006900FB
S113019065006E006500000006034D00320000009B
S11301A00803340031003000000011241FBECFEFDB
S11301B0DAE0DEBFCDBF11E0A0E0B1E0EEEAFCE39F
S11301C002C005900D92AC30B107D9F721E0ACE044
S11301D0B1E001C01D92A338B207E1F70E944B0BB6
S11301E00C94551E0C9400002F923F924F925F92F4
S11301F06F927F928F929F92AF92BF92CF92DF9233
S1130200EF92FF920F931F93CF93DF93CDB7DEB797
S113021028970FB6F894DEBF0FBECDBF98868F82A5
S113022010920D0110920C018F3FE3E09E0701F143
S11302306F3FF3E07F07E1F04F3FE3E05E07C1F07B
S11302402F3FF3E03F07A1F00F3FE3E01E0781F0EB
S1130250FFEFEF16F3E0FF0659F0EFEFCE16E3E001
S1130260DE0631F0FFEFAF16F3E0BF0609F0B0C6CB
S113027081E090E090930D0180930C01D1C3F801CB
S1130280A080B180C280D3800C5F1F4F262D372DF4
S1130290482D592D6A2D7B2D8C2D9D2D0E944E1D90
S11302A0181634F4FA82E9826A2C7B2C8C2C9D2C4F
S11302B0222D332D442D552D6A2D7B2D8C2D9D2DD6
S11302C00E949E1B882334F4FE82ED822A2C3B2C50
S11302D04C2C5D2CFFEFEF1AFF0A86E0E816F104C0
S11302E071F6E981FA81E230F10509F43EC134F492
S11302F0309781F0319709F08DC3A2C089819A812A
S11303008430910509F45BC20CF4C4C1059709F06B
S113031081C3EAC2ED81FE81E230F10539F124F4B2
S1130320319709F06EC009C08D819E81833091059B
S1130330B1F1049709F065C04BC082E491E0909359
S11303407601809375018AE391E090935C01809338
S11303505B018EE391E090935E0180935D0186E3FF
S113036091E09093700180936F0154C382E491E013
S1130370909376018093750186E391E090935C01FC
S113038080935B018EE391E090935E0180935D0125
S11303908AE391E09093700180936F013BC38EE3F5
S11303A091E090937601809375018AE391E09093B4
S11303B05C0180935B0182E491E090935E01809301
S11303C05D0186E391E09093700180936F0122C3F5
S11303D08EE391E0909376018093750186E391E03A
S11303E090935C0180935B0182E491E090935E01C1
S11303F080935D018AE391E09093700180936F0193
S113040009C382E491E090937601809375018EE3B1
S113041091E090935C0180935B018AE391E0909377
S11304205E0180935D0186E391E090937001809377
S11304306F0181E090E090930D0180930C01F0C274
S1130440ED81FE81E230F10531F11CF4EF2B51F026
S11304506DC08D819E8183309105B1F1059709F0BE
S113046065C04BC082E491E090937601809375015E
S11304708EE391E090935C0180935B018AE391E0C9
S113048090935E0180935D0186E391E09093700107
S113049080936F01BFC282E491E0909376018093D0
S11304A0750186E391E090935C0180935B018AE39C
S11304B091E090935E0180935D018EE391E09093CF
S11304C0700180936F01A6C28AE391E09093760154
S11304D0809375018EE391E090935C0180935B01BE
S11304E082E491E090935E0180935D0186E391E064
S11304F09093700180936F018DC28AE391E0909391
S113050076018093750186E391E090935C0180937A
S11305105B0182E491E090935E0180935D018EE340
S113052091E09093700180936F0174C282E491E032
S113053090937601809375018EE391E090935C0132
S113054080935B018AE391E090935E0180935D0167
S113055086E391E09093700180936F0181E090E0D5
S113056090930D0180930C015BC2ED81FE81E1301B
S1130570F10531F11CF4EF2B51F06DC08D819E819A
S113058084309105B1F1059709F065C04BC082E450
S113059091E090937601809375018EE391E09093BE
S11305A05C0180935B0186E391E090935E0180930C
S11305B05D018AE391E09093700180936F012AC2F8
S11305C082E491E090937601809375018AE391E04F
S11305D090935C0180935B0186E391E090935E01CC
S11305E080935D018EE391E09093700180936F019D
S11305F011C286E391E090937601809375018EE3B6
S113060091E090935C0180935B0182E491E090938C
S11306105E0180935D018AE391E090937001809381
S11306206F01F8C186E391E09093760180937501A0
S11306308AE391E090935C0180935B0182E491E012
S113064090935E0180935D018EE391E0909370013D
S113065080936F01DFC182E491E0909376018093EF
S113066075018EE391E090935C0180935B018AE3D2
S113067091E090935E0180935D0186E391E0909315
S1130680700180936F0181E090E090930D0180935D
S11306900C01C6C1ED81FE81E130F10531F11CF49C
S11306A0EF2B51F06DC08D819E8184309105B1F1A5
S11306B0059709F065C04BC08EE391E090937601F5
S11306C08093750182E491E090935C0180935B01D7
S11306D08AE391E090935E0180935D0186E391E06B
S11306E09093700180936F0195C18AE391E0909398
S11306F076018093750182E491E090935C0180938C
S11307005B018EE391E090935E0180935D0186E34B
S113071091E09093700180936F017CC18EE391E02E
S1130720909376018093750186E391E090935C0148
S113073080935B018AE391E090935E0180935D0175
S113074082E491E09093700180936F0163C18AE326
S113075091E0909376018093750186E391E0909304
S11307605C0180935B018EE391E090935E01809342
S11307705D0182E491E09093700180936F014AC11E
S113078082E491E090937601809375018EE391E089
S113079090935C0180935B018AE391E090935E0106
S11307A080935D0186E391E09093700180936F01E3
S11307B081E090E090930D0180930C0131C1ED81B3
S11307C0FE81E230F10531F11CF4EF2B51F06DC0E4
S11307D08D819E8183309105B1F1059709F065C043
S11307E04BC08EE391E0909376018093750182E48F
S11307F091E090935C0180935B0186E391E0909398
S11308005E0180935D018AE391E09093700180938F
S11308106F0100C186E391E09093760180937501A6
S113082082E491E090935C0180935B018EE391E01C
S113083090935E0180935D018AE391E0909370014F
S113084080936F01E7C08EE391E0909376018093EB
S113085075018AE391E090935C0180935B0186E3E8
S113086091E090935E0180935D0182E491E0909326
S1130870700180936F01CEC086E391E0909376017E
S1130880809375018AE391E090935C0180935B010E
S11308908EE391E090935E0180935D0182E491E0A8
S11308A09093700180936F01B5C082E491E09093BE
S11308B07601809375018EE391E090935C018093BF
S11308C05B018AE391E090935E0180935D0186E38E
S11308D091E09093700180936F0181E090E0909398
S11308E00D0180930C019CC0ED81FE81E230F10585
S11308F039F124F4319709F06EC009C08D819E81CD
S113090083309105B1F1049709F065C04BC08AE3C7
S113091091E0909376018093750182E491E0909345
S11309205C0180935B0186E391E090935E01809388
S11309305D018EE391E09093700180936F016AC032
S113094086E391E0909376018093750182E491E0CF
S113095090935C0180935B018AE391E090935E0144
S113096080935D018EE391E09093700180936F0119
S113097051C08AE391E090937601809375018EE3F0
S113098091E090935C0180935B0186E391E0909306
S11309905E0180935D0182E491E090937001809305
S11309A06F0138C086E391E09093760180937501DE
S11309B08EE391E090935C0180935B018AE391E084
S11309C090935E0180935D0182E491E090937001C5
S11309D080936F011FC082E491E09093760180932D
S11309E075018EE391E090935C0180935B018AE34F
S11309F091E090935E0180935D0186E391E0909392
S1130A00700180936F0181E090E090930D018093D9
S1130A100C0106C080910C0190910D01892BD1F03D
S1130A2080911C0190911D01EF8DF8A19183808329
S1130A3080911A0190911B01EF81F8859183808345
S1130A408091180190911901ED8DFE8D9183808321
S1130A5080E0EAC3262D372D482D592D60E070E043
S1130A6088EE91E40E94A51B262E372E482E592E7F
S1130A70E0907501F09076010F2EF7E68F2EF1E0ED
S1130A809F2EF02DF70160817181882777FD809575
S1130A90982F0E94401C222D332D442D552D0E9449
S1130AA0591D0E940D1CF401718360830F2EF9E619
S1130AB06F2EF1E07F2EF02DF7016281738188277C
S1130AC077FD8095982F0E94401C222D332D442DB4
S1130AD0552D0E94591D0E940D1CF30171836083E2
S1130AE000915D0110915E010F2EF7E5AF2EF1E04C
S1130AF0BF2EF02DF80160817181882777FD8095E4
S1130B00982F0E94401C222D332D442D552D0E94D8
S1130B10591D0E940D1CF501718360830F2EF9E5A8
S1130B20CF2EF1E0DF2EF02DF8016281738188274A
S1130B3077FD8095982F0E94401C222D332D442D43
S1130B40552D0E94591D0E940D1CF601718360836E
S1130B50F70160817181F80180819181680F791FAB
S1130B60882777FD8095982F0E94401C20E030E074
S1130B7040E05FE30E94591D0E940D1CE9A1FAA107
S1130B8071836083A0917501B0917601E0915D015C
S1130B90F0915E0112966D917C91139782819381FD
S1130BA0680F791F882777FD8095982F0E94401C35
S1130BB020E030E040E05FE30E94591D0E940D1CDC
S1130BC0EBA1FCA171836083F40160817181F50163
S1130BD080819181680F791F882777FD8095982FF0
S1130BE00E94401C20E030E040E05FE30E94591D79
S1130BF00E940D1C1B0170937C0160937B01F30127
S1130C0060817181F60180819181680F791F882745
S1130C1077FD8095982F0E94401C20E030E040E052
S1130C205FE30E94591D0E940D1C8B0170937E018D
S1130C3060937D01229CB001239C700D700D1124E2
S1130C40009FC001019F900D900D1124680F791F22
S1130C50882777FD8095982F0E94401C0E94C61D0E
S1130C602B013C0160935F017093600180936101EB
S1130C709093620180915D0190915E019A838983D2
S1130C80E0917501F0917601FE83ED83FC016081B2
S1130C907181ED81FE8180819181681B790B8827A8
S1130CA077FD8095982F0E94401C6B017C01E9819F
S1130CB0FA8162817381ED81FE8182819381681B57
S1130CC0790B882777FD8095982F0E94401CA701F7
S1130CD096010E944B1B4B015C0160936B01709366
S1130CE06C0180936D0190936E01ED81FE816081B2
S1130CF07181E981FA8180819181681B790B882750
S1130D0077FD8095982F0E94401C6B017C01ED813A
S1130D10FE8162817381E981FA8182819381681BFA
S1130D20790B882777FD8095982F0E94401CA70196
S1130D3096010E944B1B6B017C01609363017093CD
S1130D4064018093650190936601B801882777FD5B
S1130D508095982F0E94401C69837A838B839C839F
S1130D60B101882777FD8095982F0E94401C298126
S1130D703A814B815C810E944B1B9B01AC01DC01DD
S1130D80CB01B05880937F0190938001A09381019F
S1130D90B093820177FA709477F87094C501B40126
S1130DA00E94D81A862E972EA82EB92E0E94A21B16
S1130DB09B01AC01C301B2010E94591D20E030E047
S1130DC040E051E40E94D71A0E940D1C8B017093DD
S1130DD0150160931401682D792D8A2D9B2D0E9495
S1130DE0BC1D9B01AC01C301B2010E94591D20E04E
S1130DF030E040EE50E40E94D81A0E940D1C70931B
S1130E0013016093120120E030E044E353E4C7018E
S1130E10B6010E94591D2BED3FE049E450E40E94C5
S1130E20A51B0E940D1C7093170160931601C090BE
S1130E300E01D0900F01E0901001F090110160912B
S1130E401A0170911B01882777FD8095982F0E94C5
S1130E50401CA70196010E94591D4B015C01A7018A
S1130E60960160E070E080E89FE30E94D71A6B016E
S1130E707C01B801882777FD8095982F0E94401C3B
S1130E809B01AC01C701B6010E94591D9B01AC0135
S1130E90C501B4010E94D81A0E940D1CEF81F88587
S1130EA071836083C0900E01D0900F01E090100117
S1130EB0F09011016091180170911901882777FD54
S1130EC08095982F0E94401CA70196010E94591DED
S1130ED04B015C01A701960160E070E080E89FE3AC
S1130EE00E94D71A6B017C01609112017091130169
S1130EF0882777FD8095982F0E94401C9B01AC01A8
S1130F00C701B6010E94591D9B01AC01C501B40182
S1130F100E94D81A0E940D1CED8DFE8D7183608392
S1130F20C0900E01D0900F01E0901001F0901101DB
S1130F3060911C0170911D01882777FD8095982F81
S1130F400E94401CA70196010E94591D4B015C019F
S1130F50A701960160E070E080E89FE30E94D71A41
S1130F606B017C016091160170911701882777FD50
S1130F708095982F0E94401C9B01AC01C701B601CB
S1130F800E94591D9B01AC01C501B4010E94D81AED
S1130F900E940D1CEF8DF8A171836083EF81F885A9
S1130FA08081918190931B0180931A01ED8DFE8DB8
S1130FB0808191819093190180931801EF8DF8A19C
S1130FC08081918190931D0180931C0181E02CC14B
S1130FD0E0910201F09103014C018E1A9F0A909254
S1130FE04301809242018091000190910101081B0C
S1130FF0190B10934501009344013B016E1A7F0ABB
S113100070923F0160923E01E81AF90AF0924101A0
S1131010E09240012A014E1A5F0A50923B0140922D
S11310203A011601281A390A30923D0120923C01F6
S11310306901CE1ADF0AD0923701C0923601A81A8C
S1131040B90AB0923901A0923801930128193909DB
S1131050C701801B910B229FB001239F700D700D5F
S11310601124889F9001899F300D300D1124620F47
S1131070731F882777FD8095982F0E94401C0E943B
S1131080C61D60931E0170931F01809320019093ED
S11310902101920128193909C101801B910B229F5A
S11310A0B001239F700D700D1124889F9001899FBA
S11310B0300D300D1124620F731F882777FD809542
S11310C0982F0E94401C0E94C61D609322017093B9
S11310D0230180932401909325019601281939094D
S11310E0C501801B910B229FB001239F700D700DD1
S11310F01124889F9001899F300D300D1124620FB7
S1131100731F882777FD8095982F0E94401C0E94AA
S1131110C61D609326017093270180932801909344
S11311202901920126193709C1018E199F09229FAD
S1131130B001239F700D700D1124889F9001899F29
S1131140300D300D1124620F731F882777FD8095B1
S1131150982F0E94401C0E94C61D60932A01709320
S11311602B0180932C0190932D01960126193709A8
S1131170C5018E199F09229FB001239F700D700D28
S11311801124889F9001899F300D300D1124620F26
S1131190731F882777FD8095982F0E94401C0E941A
S11311A0C61D60932E0170932F018093300190939C
S11311B03101C418D508A218B308CC9CB001CD9C49
S11311C0700D700D1124AA9CC001AB9C900D900D64
S11311D01124680F791F882777FD8095982F0E9426
S11311E0401C0E94C61D60933201709333018093AA
S11311F03401909335010EE111E0E12CF12C1E82B3
S11312001D821A821982212C6894332436F80F2EF9
S1131210FCE14F2EF02D0F2EF6E45F2EF02D612C05
S1131220712C812C912C2BC828960FB6F894DEBF14
S11312300FBECDBFDF91CF911F910F91FF90EF9023
S1131240DF90CF90BF90AF909F908F907F906F90E2
S11312505F904F903F902F900895269A279A88E8A0
S113126093E1909389008093880010928B001092F0
S11312708A0010928D0010928C00A1E8B0E08C914D
S113128080618C938C9188608C93E0E8F0E080819D
S1131290826080838081816080838081806280839A
S11312A080818F7E808380818860808380818B7F32
S11312B080838C918B7F8C938C918D7F8C938C917C
S11312C081608C93089583EC8093D100E3ECF0E08B
S11312D080818D7F808380818E7F8083E2E7F0E050
S11312E0808184608083E1ECF0E080818860808389
S11312F080818460808380818D7F80838081816010
S113130080830895ECE7F0E080818F77808380818B
S113131080648083AAE7B0E08C9184608C938C9184
S113132082608C938C9181608C93EEE7F0E08081F5
S113133081608083808182608083808180618083FA
S113134080818062808380818064808380818068E2
S11313508083EDE7F0E08081816080838C918062FE
S11313608C930895EAE7F0E020812F77208383307F
S1131370910509F449C03CF48130910519F19CF5BB
S1131380892B79F095C08530910509F45FC00CF480
S11313904CC08630910509F46AC0079709F088C0EB
S11313A077C0EBE7F0E080818F7D8083ECE7F0E0AD
S11313B080818B7F808380818D7F808380818E7FFD
S11313C0808376C0EBE7F0E080818F7D8083ECE75B
S11313D0F0E080818B7F808380818D7F808380811A
S11313E08160808365C0EBE7F0E080818F7D80833E
S11313F0ECE7F0E080818460808380818D7F80834E
S113140080818E7F808354C0EBE7F0E080818F7D04
S11314108083ECE7F0E080818460808380818D7F2D
S1131420808380818160808343C0EBE7F0E080812A
S11314308F7D8083ECE7F0E080818460808380810D
S11314408260808380818E7F808332C0EBE7F0E00E
S113145080818F7D8083ECE7F0E0808184608083ED
S113146080818260808380818160808321C0EBE7FA
S1131470F0E0808180628083ECE7F0E080818B7F04
S1131480808380818D7F808380818E7F808310C064
S1131490EBE7F0E0808180628083ECE7F0E080811C
S11314A08B7F808380818D7F808380818160808336
S11314B0EAE7F0E0808180688083808180648083B3
S11314C08081806180830895239A539A2B9A5B9A32
S11314D022982A9A559A5D98089510928B0010923A
S11314E08A0010928D0010928C0008952B985B9ABC
S11314F080E89CE090938B0080938A0090938D0009
S113150080938C0008952B9A5B9880E89CE09093DC
S11315108B0080938A0090938D0080938C000895B3
S11315202B9A5B9A84EC99E090938B0080938A00C9
S113153090938D0080938C0008952B985B9884EC95
S113154099E090938B0080938A0090938D00809310
S11315508C0008952B985B988EE299E090938B0011
S113156080938A008EE997E090938D0080938C009D
S113157008952B985B9887E997E090938B0080936C
S11315808A008CEF98E090938D0080938C000895EE
S1131590CF92DF92EF92FF926B017C0141305105B3
S11315A0C1F584EC99E090938D0080938C0020E049
S11315B030E040E253E4C701B6010E944E1D181604
S11315C03CF48EE591E090938B0080938A0058C0A0
S11315D0A701960160E070E080E293E40E94D71ACC
S11315E020E030E040E253E40E94A51B20E030E616
S11315F046E055E40E94591D20E030E04FEA53E4F0
S11316000E94D81A0E94121C70938B0060938A0067
S113161037C084EC99E090938B0080938A0020E09B
S113162030E040E253E4C701B6010E944E1D181693
S11316303CF48BE691E090938D0080938C0020C065
S1131640A701960160E070E080E293E40E94D71A5B
S113165020E030E040E253E40E94A51B20E030E9A2
S113166045E055E40E94591D20E030E845EB53E481
S11316700E94D81A0E94121C70938D0060938C00F3
S11316802B985B98FF90EF90DF90CF9008955D9A30
S113169008955D980895CF93DF93CDB7DEB7C25711
S11316A0D1090FB6F894DEBF0FBECDBF80E885BF69
S11316B085BF1A8219821C821B82FE01359690E234
S11316C0DF011D929A95E9F71EAE1DAE21961FAE5D
S11316D01EAE219723961FAE1EAE2397E1E6F0E0DF
S11316E0808310826A9A729A6E9A769A6E9A769823
S11316F00E9463160E94640A0E942D090E946309D5
S11317000E9482090E94D4198823E1F3BFE3EDE02B
S1131710F3E0B150E040F040E1F700C000006E9A01
S1131720769A40E269E481E00E94741678946F9698
S11317301FAE1EAE6F972C961FAE2C972D961FAE24
S11317402D976A961FAE6A976B961FAE6B97AB96F2
S11317501CAE1DAE1EAE1FAEAB97AC961FAEAC97C3
S1131760AD961FAEAD97AE961FAEAE97AF961FAEB9
S1131770AF97A7961FAE1EAEA797A1961FAE1EAE3B
S1131780A1972F961FAE1EAE2F9761961FAE1EAE69
S1131790619763961FAE1EAE639765961FAE1EAE2D
S11317A0659767961FAE1EAE679769961FAE1EAE0D
S11317B06997A5961FAE1EAEA5976D961FAE1EAE79
S11317C06D979E012D5F3F4F25963FAF2EAF259716
S11317D0CE01019627969FAF8EAF2797DE01AF5BB0
S11317E0BF4F2996BFAFAEAF2997FE01FF962B9648
S11317F0FFAFEEAF2B970F2EFAE72F2E312CF02DE3
S11318000F2EF8E74F2E512CF02D28C022E030E0A7
S11318106D963FAF2EAF6D9721C06F961FAE1EAE73
S11318206F971CC06F961FAE1EAE6F9717C06F9652
S11318301FAE1EAE6F9712C081E090E06D969FAF11
S11318408EAF6D970BC0A1E0B0E06D96BFAFAEAFA9
S11318506D9704C06D961FAE1EAE6D97F894CE01C1
S113186085960E943F197894882311F40C94EB1503
S1131870A9ACBAACCBA8DCA8EDA4FEA40FA118A512
S11318802FA938AD49A95AA96BA57CA52596BFAD4A
S11318902597BF932496EFAD2497EF932796FFAD3A
S11318A02797FF9326968FAD26978F9329969FAD02
S11318B029979F932896AFAD2897AF932B96BFADEA
S11318C02B97BF932A96EFAD2A97EF930F2EFDE344
S11318D08F2E912CF02D8C0E9D1E8DA19EA10E9409
S11318E0F4000FB6F894DEBF0FBECDBF0C94EB1519
S11318F03FEFE31AF30A870101501109C8010E945E
S1131900B209D1018C9184FFFCCF0330110579F128
S11319103CF401301105B9F004F5012B51F06AC013
S113192005301105C1F16CF10630110509F062C0F2
S11319303CC0F2010190F081E02D6996FFAFEEAF5B
S113194069970C94F015D2010D90BC91A02D679667
S1131950BFAFAEAF67970C94F015F2010190F08120
S1131960E02D6596FFAFEEAF65970C94F015D201AC
S11319700D90BC91A02D6396BFAFAEAF63970C944E
S1131980F015F2010190F081E02D6196FFAFEEAF0A
S113199061970C94F015D2010D90BC91A02D2F9657
S11319A0BFAFAEAF2F970C94F015F2010190F08108
S11319B0E02DA196FFAFEEAFA197D1018C9180618C
S11319C08C932F966EAC7FAC2F9761968EAC9FACA8
S11319D061976396CEACDFAC639765960EAD1FAD91
S11319E065976796EEACFFAC67976996AEACBFACF3
S11319F0699721C0F101808180618083F7E0EF164F
S1131A00F1040CF475CF2F966EAC7FAC2F976196D2
S1131A108EAC9FAC61976396CEACDFAC6397659652
S1131A200EAD1FAD65976796EEACFFAC67976996F0
S1131A30AEACBFAC6997809152019091530101976C
S1131A4009F0B3C021E02D83809150018E838DADC8
S1131A508F838FAD888760E870E023968EAD9FAD4D
S1131A6023970E942D1E69878A876C963FAD6C97D9
S1131A703B87AC965FADAC97AD964FADAD97AE9648
S1131A803FADAE97AF962FADAF97652F742F832FD1
S1131A90922F0E940D1CDC01CB0160E870E00E94D3
S1131AA02D1E6C878D87AB966CAD7DAD8EAD9FADD5
S1131AB0AB970E940D1CDC01CB0160E870E00E9432
S1131AC02D1E6E878F8760E870E089819A810E945D
S1131AD02D1E688B898B60E870E08B819C810E944D
S1131AE02D1E6A8B8B8B6E968FAD6E978C8B2C967E
S1131AF05FAD2C972D964FAD2D976A963FAD6A97A3
S1131B006B962FAD6B97652F742F832F922F0E94A6
S1131B100D1CDC01CB0160E870E00E942D1E6D8B72
S1131B208E8B60E870E0C5010E942D1E6F8B888F3C
S1131B3060E870E0C7010E942D1E698F8A8F60E8FB
S1131B4070E0C8010E942D1E6B8F8C8F60E870E0DE
S1131B50C6010E942D1E6D8F8E8F60E870E0C40157
S1131B600E942D1E6F8F88A360E870E0C3010E945D
S1131B702D1E69A38AA360E870E0A1968EAD9FAD87
S1131B80A1970E942D1E6BA38CA340E2BE016B5F44
S1131B907F4F80E60E94CA166E9A9EB180E4892720
S1131BA08EB910925301109252018091500190917C
S1131BB051018330910509F463C64CF481309105D9
S1131BC0A1F10CF0EDC1892BB1F00C94E71585312E
S1131BD0910511F40C94E1152CF4059711F00C9473
S1131BE0E715ECC38631910509F4DFC78336910507
S1131BF009F0EDC766C71A9B07C0ADE8BFEFA5960D
S1131C00BFAFAEAFA59706C0E3E7F0E0A596FFAF80
S1131C10EEAFA59783E090E090935101809350013B
S1131C206D961FAE1EAE6D9719CE6D962EAD3FAD5F
S1131C306D97232B09F041C021966EAD7FAD21979E
S1131C40719561957109882777FD8095982F0E9479
S1131C50401C6B017C018DAD9EADA5966EAD7FAD34
S1131C60A597681B790B882777FD8095982F0E948C
S1131C70401C9058A70196010E944B1B20E030E0C5
S1131C8044E353E40E94591D2BED3FE049E450E442
S1131C900E94A51BAC966FAFAC97AD967FAFAD9786
S1131CA0AE968FAFAE97AF969FAFAF9781E090E0BF
S1131CB06D969FAF8EAF6D97D1CD6D96AEADBFAD26
S1131CC06D97119709F02AC121966EAD7FAD2197CA
S1131CD0719561957109882777FD8095982F0E94E9
S1131CE0401C6B017C018DAD9EADA5966EAD7FADA4
S1131CF0A597681B790B882777FD8095982F0E94FC
S1131D00401C9058A70196010E944B1B20E030E034
S1131D1044E353E40E94591D2BED3FE049E450E4B1
S1131D200E94A51BB62EA72E982E892EAC966FAFB7
S1131D30AC97AD967FAFAD97AE968FAFAE97AF969B
S1131D409FAFAF9723960EAD1FAD2397B801882799
S1131D5077FD8095982F0E94401C6B017C0120E048
S1131D6030E040EE50E46B2D7A2D892D982D0E94A1
S1131D70D71A9B01AC01C701B6010E944E1D8823EE
S1131D809CF020E030E040EE50E46B2D7A2D892D5C
S1131D90982D0E94D81A9B01AC01C701B6010E947C
S1131DA09E1B18160CF032CD20E030E044E353E4DF
S1131DB06B2D7A2D892D982D0E94D71A762E672E99
S1131DC06E968FAF6E97A2969FAFA29720E030E0F9
S1131DD044E353EC0E949E1B88230CF007C720E0C9
S1131DE030E044EB53E46E96AFAD6E97A296FFAD30
S1131DF0A297672D762D8A2F9F2F0E94D81A6E9650
S1131E006FAF6E97A2967FAFA297682E792EA70127
S1131E1096016B2D7A2D892D982D0E944E1D8823B5
S1131E20C4F53BC0A70196016B2D7A2D892D982D01
S1131E300E944E1D88234CF00E94760AE1E0F0E0F7
S1131E406F96FFAFEEAF6F9709CD6E969FAD6E970D
S1131E50A2968FADA297272D362D492F582FC70153
S1131E60B6010E949E1B88235CF0A70196016B2D8E
S1131E707A2D892D982D0E949E1B88230CF0CDCCA1
S1131E800E94830A22E030E06F963FAF2EAF6F9737
S1131E90E5CC0C343FEF13079CF46E967FAD6E9740
S1131EA0A2966FADA297272F362F462D572DC70127
S1131EB0B6010E944E1D882364F0053B11054CF4C5
S1131EC00E94760A83E090E06F969FAF8EAF6F9783
S1131ED0C5CCA70196016B2D7A2D892D982D0E94D2
S1131EE09E1B88230CF09ECC6E967FAD6E97A296B7
S1131EF06FADA297272F362F462D572DC701B60158
S1131F000E949E1B88230CF092CC0E94830AA4E0BA
S1131F10B0E06F96BFAFAEAF6F97A0CC6D96EEAD4D
S1131F20FFAD6D97329751F582E090E090935101A7
S1131F30809350016F962EAD3FAD6F9721303105E0
S1131F4019F02330310519F40E94830A61C66F9693
S1131F508EAD9FAD6F978230910519F0049709F00B
S1131F6057C60E94760A54C601968C34ADE19A078E
S1131F70D9F76D961FAE1EAE6D9770CC6D96EEAD13
S1131F80FFAD6D97339709F069CC85E190E09093AC
S1131F905101809350016D961FAE1EAE6D975ECCBD
S1131FA00E94470B6D962EAD3FAD6D97232B09F024
S1131FB0E8C1EDACFEACC701A596AEADBFADA5972B
S1131FC08A1B9B0B21960EAD1FAD2197889FB001F4
S1131FD0899F700D700D1124009FC001019F900D09
S1131FE0900D1124680F791F882777FD8095982F0D
S1131FF00E94401C0E94C61DAB966CAF7DAF8EAF95
S11320009FAFAB9720E030E040EA51E40E949E1B72
S113201088230CF411CC66277727601B710B882763
S113202077FD8095982F0E94401C4B015C01A5967A
S11320306EAD7FADA5976E197F09882777FD8095D2
S1132040982F0E94401C9058A50194010E944B1B9C
S113205020E030E044E353E40E94591D2BED3FE0BF
S113206049E450E40E94A51BB62EA72E982E892E73
S1132070AC966FAFAC97AD967FAFAD97AE968FAF82
S1132080AE97AF969FAFAF9720E030E044E353E4C0
S11320900E94D71A762E672E2C968FAF2C972D96EA
S11320A09FAF2D9720E030E044E353EC0E949E1B49
S11320B088230CF0B0C520E030E044EB53E42C96C8
S11320C0FFAD2C972D96EFAD2D97672D762D8F2F85
S11320D09E2F0E94D81A2C966FAF2C972D967FAF07
S11320E02D97682E792E23960EAD1FAD2397B80138
S11320F0882777FD8095982F0E94401C6B017C01F6
S11321009B01AC016B2D7A2D892D982D0E944E1DBB
S113211088230CF074C077C0A70196016B2D7A2D2B
S1132120892D982D0E944E1D8823BCF0A70196018D
S11321306B2D7A2D892D982D0E94D71A2C966FAF6E
S11321402C972D967FAF2D976A968FAF6A976B96D3
S11321509FAF6B9700E010E0FCC0A70196012C969E
S1132160AFAD2C972D96FFAD2D97672D762D8A2F29
S11321709F2F0E944E1D18165CF0A70196016B2D2F
S11321807A2D892D982D0E949E1B88230CF0B5C0B2
S11321901123F4F4B80168597E4F882777FD8095A0
S11321A0982F0E94401C2B2D3A2D492D582D0E940A
S11321B0D71A2C966FAF2C972D967FAF2D976A96D2
S11321C08FAF6A976B969FAF6B9701E010E0C1C029
S11321D02B2D3A2D492D582DC701B6010E94D71A2F
S11321E02C966FAF2C972D967FAF2D976A968FAF55
S11321F06A976B969FAF6B9701E010E0AAC00C340E
S1132200BFEF1B079CF4A70196012C96BFAD2C973A
S11322102D96AFAD2D976B2F7A2F862D972D0E947B
S11322209E1B1816CCF1053B1105B4F51123BCF423
S1132230A70196016B2D7A2D892D982D0E94D71A0E
S11322402C966FAF2C972D967FAF2D976A968FAFF4
S11322506A976B969FAF6B9700E010E07AC020E01E
S113226030E044EB53E46B2D7A2D892D982D0E9498
S1132270D81AA70196010E94D71A2C966FAF2C97F3
S11322802D967FAF2D976A968FAF6A976B969FAF07
S11322906B9700E010E05DC0A70196016B2D7A2DCD
S11322A0892D982D0E949E1B8823B4F5A7019601C1
S11322B02C96BFAD2C972D96AFAD2D976B2F7A2F03
S11322C0862D972D0E944E1D1816ACF52B2D3A2DF8
S11322D0492D582DC701B6010E94D71A2C966FAF0D
S11322E02C972D967FAF2D976A968FAF6A976B9632
S11322F09FAF6B9701E010E02CC000E010E02C963B
S11323001FAE2C972D961FAE2D976A961FAE6A9717
S11323106B961FAE6B971DC000E010E02C961FAEAD
S11323202C972D961FAE2D976A961FAE6A976B96C3
S11323301FAE6B970EC000E010E02C961FAE2C97DA
S11323402D961FAE2D976A961FAE6A976B961FAE99
S11323506B97A8012C96FFAD2C972D96EFAD2D977A
S11323606A963FAD6A976B962FAD6B976F2F7E2F52
S1132370832F922F0E94C80A6F961FAF0EAF6F97DC
S11323806DCA6D96EEADFFAD6D97319709F066CAD3
S11323906A9A72980E94900A80E090E001968034D4
S11323A0FCE99F07D9F785E190E090935101809370
S11323B050016D961FAE1EAE6D9750CA6D962EAD30
S11323C03FAD6D97232B09F042C2EDACFEACC701C3
S11323D0A596AEADBFADA5978A1B9B0B21960EADFE
S11323E01FAD2197889FB001899F700D700D112436
S11323F0009FC001019F900D900D1124680F791F5B
S1132400882777FD8095982F0E94401C0E94C61D46
S1132410AB966CAF7DAF8EAF9FAFAB9720E030E053
S113242040EA51E40E949E1B88230CF40CCA6627E0
S11324307727601B710B882777FD8095982F0E9462
S1132440401C4B015C01A5966EAD7FADA5976E193E
S11324507F09882777FD8095982F0E94401C90580B
S1132460A50194010E944B1B20E030E044E353E4B7
S11324700E94591D2BED3FE049E450E40E94A51B46
S1132480D62EC72E782E692EAC966FAFAC97AD962C
S11324907FAFAD97AE968FAFAE97AF969FAFAF9726
S11324A020E030E044E353E40E94D71A2C966FAF47
S11324B02C972D967FAF2D976A968FAF6A976B9660
S11324C09FAF6B9720E030E044E353EC0E949E1BE7
S11324D088230CF0BFC320E030E044EB53E42C9697
S11324E0BFAD2C972D96AFAD2D976A96FFAD6A9729
S11324F06B96EFAD6B976B2F7A2F8F2F9E2F0E94C9
S1132500D81A2C966FAF2C972D967FAF2D976A967D
S11325108FAF6A976B969FAF6B972396EEACFFAC29
S11325202397B701882777FD8095982F0E94401C38
S11325304B015C019B01AC016D2D7C2D872D962DEB
S11325400E944E1D88230CF074C078C0A50194012C
S11325506D2D7C2D872D962D0E944E1D8823ACF069
S1132560A50194016D2D7C2D872D962D0E94D71ADF
S11325702C966FAF2C972D967FAF2D976A968FAFC1
S11325806A976B969FAF6B97DBC0A50194012C965D
S1132590EFAD2C972D96BFAD2D976A96AFAD6A9788
S11325A06B96FFAD6B976E2F7B2F8A2F9F2F0E9408
S11325B04E1D18165CF0A50194016D2D7C2D872D00
S11325C0962D0E949E1B88230CF0ECC0FF20E4F49F
S11325D0B70168597E4F882777FD8095982F0E9410
S11325E0401C2D2D3C2D472D562D0E94D71A2C967C
S11325F06FAF2C972D967FAF2D976A968FAF6A9702
S11326006B969FAF6B979CC02D2D3C2D472D562D5F
S1132610C501B4010E94D71A2C966FAF2C972D9642
S11326207FAF2D976A968FAF6A976B969FAF6B9724
S113263087C0BCE4EB16BFEFFB06D4F4A5019401FC
S11326402C96FFAD2C972D96EFAD2D976A96AFADD6
S11326506A976B96BFAD6B976F2F7E2F8A2F9B2F38
S11326600E949E1B1816B4F1E5EBEE16F10494F5E6
S1132670FF20ACF4A50194016D2D7C2D872D962DA2
S11326800E94D71A2C966FAF2C972D967FAF2D975B
S11326906A968FAF6A976B969FAF6B9751C020E095
S11326A030E044EB53E46D2D7C2D872D962D0E9454
S11326B0D81AA50194010E94D71A2C966FAF2C97B3
S11326C02D967FAF2D976A968FAF6A976B969FAFC3
S11326D06B9736C0A50194016D2D7C2D872D962D09
S11326E00E949E1B88230CF06AC0A50194012C96BD
S11326F0EFAD2C972D96BFAD2D976A96AFAD6A9727
S11327006B96FFAD6B976E2F7B2F8A2F9F2F0E94A6
S11327104E1D18160CF060C02D2D3C2D472D562D46
S1132720C501B4010E94D71A2C966FAF2C972D9631
S11327307FAF2D976A968FAF6A976B969FAF6B9713
S113274020E030E040E752EC2C96BFAD2C972D965C
S1132750AFAD2D976A96FFAD6A976B96EFAD6B9709
S11327606B2F7A2F8F2F9E2F0E944E1D18160CF060
S11327704AC020E030E040E752E42C96BFAD2C97ED
S11327802D96AFAD2D976A96FFAD6A976B96EFAD18
S11327906B976B2F7A2F8F2F9E2F0E949E1B88235F
S11327A03CF131C02C961FAE2C972D961FAE2D9761
S11327B06A961FAE6A976B961FAE6B9719C02C96DC
S11327C01FAE2C972D961FAE2D976A961FAE6A9753
S11327D06B961FAE6B970CC02C961FAE2C972D9644
S11327E01FAE2D976A961FAE6A976B961FAE6B97B6
S11327F082E090E09093510180935001A7961FAE20
S11328001EAEA7972BC81016110684F0A7962EADFE
S11328103FADA797232B09F021C80E94AA0A81E0A3
S113282090E0A7969FAF8EAFA79718C8A796AEADB6
S1132830BFADA797AB2B09F011C80E94B90AE1E01C
S1132840F0E0A796FFAFEEAFA7970C942E0C6D9611
S11328502EAD3FAD6D972130310511F00C942E0C47
S113286085E190E09093510180935001A7961FAEAB
S11328701EAEA7976D961FAE1EAE6D970C942E0CD0
S11328806D968EAD9FAD6D97892B09F0C2C00E94E5
S1132890490BCA14DB0444F481E090E0A614B704A5
S11328A054F080E090E007C081E090E0C814D904BF
S11328B014F080E090E0892B09F0A0C0A396DFAE6D
S11328C0CEAEA397CA14DB0424F4A396BFAEAEAE77
S11328D0A397B5016C197D091AF471956195710975
S11328E0882777FD8095982F0E94401C3B014C015E
S11328F0A396AEADBFADA397BD01882777FD8095A4
S1132900982F0E94401C20E030E040E85EE30E94E3
S1132910591DE0966FAFE097E1967FAFE197E2969D
S11329208FAFE297E3969FAFE397962F872FE296B8
S11329306FADE297E3967FADE397292F382F462FAB
S1132940572FC401B3010E949E1B181664F1A3966D
S1132950EEADFFADA39774970CF441C0B701600FBF
S1132960711F882777FD8095982F0E94401C20E0D6
S113297030E040E05FE30E94591D20E030E040E297
S113298052E40E949E1B882324F40E949D0A0C9406
S11329902E0C0E94470B21E030E06D963FAF2EAF26
S11329A06D970C942E0CE0967FADE097E1966FAD99
S11329B0E197E2969FADE297E3968FADE397272FD9
S11329C0362F492F582FC401B3010E949E1B18169D
S11329D054F0A3968EAD9FADA397449724F40E9420
S11329E0760A0C942E0CCA14DB0424F40E94760A92
S11329F00C942E0C0E94830A0C942E0C68147904F7
S1132A0024F00E94760A0C942E0C0E94830A0C94E3
S1132A102E0C6D96AEADBFAD6D97119711F00C9461
S1132A202E0CB701600F711F882777FD8095982FB2
S1132A300E94401C20E030E040E05FE30E94591D0A
S1132A4020E030E040E252E40E949E1B882314F40C
S1132A500C942A0CB701601B710B1AF471956195E3
S1132A607109882777FD8095982F0E94401C4B019F
S1132A705C01B8010E151F050CF4B701882777FD1A
S1132A808095982F0E94401C2AE939E949E15EE3C8
S1132A900E94591D9B01AC01C501B4010E949E1BFB
S1132AA0882324F40E949D0A0C942E0CE016F1064F
S1132AB024F00E94760A0C942E0C0E94830A0C9433
S1132AC02E0C80914601833A79F140F4813AC9F0A1
S1132AD000F5803A11F00C942E0C0BC0863A09F4E0
S1132AE03FC0873A09F44DC0843A11F00C942E0C7F
S1132AF026C086E190E090935101809350010C949C
S1132B002E0C10925101109250016E9A76980C94EA
S1132B102E0C83B10E946D0A85E190E090935101DF
S1132B20809350010C942E0C83B10E946D0A85E1B0
S1132B3090E090935101809350010C942E0C0E94CC
S1132B40900A80E090E001968034BCE99B07D9F7B5
S1132B5085E190E090935101809350010C942E0CE8
S1132B600E94900A80E090E001968034ECE99E0790
S1132B70D9F785E190E090935101809350010C9432
S1132B802E0C83B10E946D0A0E94900A80E090E0AE
S1132B9001968034FCE99F07D9F785E190E0909392
S1132BA05101809350010C942E0C0E946D0A0E94D6
S1132BB0470B85E190E090935101809350010C9470
S1132BC02E0C6A9A72980E946D0A0C942E0C0E9424
S1132BD06D0A0C942E0CEE24E394F12C0C947B0CD3
S1132BE0D1018C9180618C930C94780C6E969FAD7E
S1132BF06E97A2968FADA297272D362D492F582F69
S1132C00C701B6010E944E1D88230CF00BC91DC9D3
S1132C1080E090E0A9C923960EAD1FAD2397B801BB
S1132C20882777FD8095982F0E94401C6B017C01BA
S1132C309B01AC012C96FFAD2C972D96EFAD2D97F3
S1132C40672D762D8F2F9E2F0E949E1B18160CF039
S1132C5063CA83CA2396EEACFFAC2397B7018827D7
S1132C6077FD8095982F0E94401C4B015C019B01CD
S1132C70AC012C96FFAD2C972D96EFAD2D976A964F
S1132C80AFAD6A976B96BFAD6B976F2F7E2F8A2F70
S1132C909B2F0E949E1B18160CF058CC76CC1F92CA
S1132CA00F920FB60F9211248F939F9381E090E0BF
S1132CB090935301809352019F918F910F900FBE77
S1132CC00F901F901895589A599A5A9A8CE08093AD
S1132CD0B800E9E6F0E080818062808380818F7EA5
S1132CE08083EA9A789408951F93CF93DF93182FE3
S1132CF0D62FC42F0E94631694EA9093BC00ECEB89
S1132D00F0E090819923ECF790E59093BB0094E870
S1132D109093BC00ECEBF0E090819923ECF7909158
S1132D20B900987F903229F484E98093BC0080E054
S1132D302DC081E08093BB0084E88093BC00ECEB61
S1132D40F0E090819923ECF71093BB0084E8809322
S1132D50BC00ECEBF0E080818823ECF7D093BB005F
S1132D6084E88093BC00ECEBF0E080818823ECF7EE
S1132D70C093BB0084E88093BC00ECEBF0E080815E
S1132D808823ECF784E98093BC0081E0DF91CF9144
S1132D901F910895CF93DF93F89494EA9093BC0025
S1132DA0ECEBF0E090819923ECF790E59093BB0075
S1132DB094E89093BC00ECEBF0E090819923ECF75D
S1132DC09091B900987F903231F484E98093BC00EB
S1132DD0789480E032C093E09093BB0094E89093A1
S1132DE0BC00ECEBF0E090819923ECF78093BB00FE
S1132DF084E88093BC00ECEBF0E080818823ECF75E
S1132E00242F30E0121613069CF4A62FB72F80E06F
S1132E1090E0CBEBD0E0ECEBF0E054E84D9148834C
S1132E20508340814423ECF7019682179307B4F34F
S1132E3084E98093BC00789481E0DF91CF91089578
S1132E401F920F920FB60F9211248F939F93EF93BB
S1132E50FF93E1EEF0E08081108283FF11C01092B5
S1132E60E90091E09093EB001092EC0092E19093D2
S1132E70ED0098E09093F0001092550110925601E5
S1132E8082FF13C080915501882379F08091540109
S1132E90882359F0815080935401811106C084E045
S1132EA08093E9008AE38093E800FF91EF919F917A
S1132EB08F910F900FBE0F901F9018951F920F9235
S1132EC00FB60F9211240F931F932F933F934F9399
S1132ED05F936F937F938F939F93AF93BF93CF939E
S1132EE0DF93EF93FF931092E9008091E80083FF52
S1132EF051C1E1EFF0E07081408120813081932F56
S1132F0080E0DC01A22B9D0150816081962F80E03E
S1132F10852BA081B08152EF5093E800463009F030
S1132F205CC004C081E28093EB003BC1C6E047EF84
S1132F3050E0FA01659174912617370719F0495F3B
S1132F405F4F20C0FA0132966591749186179707F6
S1132F5019F0495F5F4F16C0FA0134968591949138
S1132F60282F392FFA01369644919B2F80E08A2B23
S1132F708F3F910519F010F08FEF90E0841728F43B
S1132F80482F03C0C150A9F6CDCFC8EED0E07EEFE4
S1132F90A1EFB0E010E18881982F9570E1F382FDF4
S1132FA000C1642F413108F0612F662309F4F6C093
S1132FB0C901562FFC010196E491EC935150D1F7CD
S1132FC0862F815090E00196280F391F461B788385
S1132FD04111E1CF6031F9F2E4C0453061F48EEF84
S1132FE08093E800E8EEF0E0808180FFFDCF206868
S1132FF02093E300D6C04930A1F571115BC0209342
S1133000550110925601109254018EEF8093E800FE
S113301011E081E291E0C9EED0E0ABEEB0E06CEEFD
S113302070E04DEE50E018839C012F5F3F4FFC0190
S113303004910C93002359F0F9012491FB0120839E
S1133040FC01329603962491FA01208301C0C90140
S11330501F5F153041F7EAEEF0E08EE180831082C5
S1133060A0C0483081F4703809F03FC0E8EEF0E0C9
S1133070808180FFFDCF809155018093F1008EEF18
S11330808093E8008EC04132A9F4713AF1F5E8EE7C
S1133090F0E0808180FFFDCFE4E0F1E0A1EFB0E05B
S11330A081918C9341E0EB30F407D1F78EEF80935C
S11330B0E80077C04032C9F4713209F06BC0E8EE21
S11330C0F0E0808182FFFDCFE4E0F1E0A1EFB0E029
S11330D08C91819351E0EB30F507D1F7E8EEF0E005
S11330E08BEF80838EEF80835CC0423271F4713247
S11330F009F050C020935601E8EEF0E0808180FF93
S1133100FDCF8EEF8093E8004CC041111AC0E8EE69
S1133110F0E0208120FFFDCF723851F4E9EEF0E0B9
S113312080838091EB0085FB882780F9108201C0A1
S113313080E0E1EFF0E0808310828EEF8093E8007E
S113314030C0413011F0433029F5723019F5232B8A
S113315009F58F779927382F31503430D8F43EEF62
S11331603093E8008093E900433021F481E28093B6
S1133170EB0017C099E19093EB0021E030E0D90116
S113318002C0AA0FBB1F8A95E2F7EAEEF0E0A08323
S1133190108207C081E28093EB0003C07883411161
S11331A0FACEFF91EF91DF91CF91BF91AF919F91B3
S11331B08F917F916F915F914F913F912F911F91CB
S11331C00F910F900FBE0F901F90189520E030E0E4
S11331D0ECEBF0E08081882334F02F5F3F4F293EF1
S11331E083E03807B9F781E0283E334009F480E0F2
S11331F008958093BB0084E88093BC000E94E61885
S1133200882321F08091B900887F089580E0089593
S1133210CF93C82F94EA9093BC000E94E6188823A9
S113322061F08C2F880F8F5F0E94F918883439F46D
S113323084E98093BC0080E003C080E001C081E0A9
S1133240CF910895CF93C82F94EA9093BC000E9425
S1133250E618882359F08C2F880F0E94F9188032C1
S113326039F484E98093BC0080E003C080E001C0AD
S113327081E0CF91089584E98093BC000895EF9292
S1133280FF920F931F93CF93DF93CDB7DEB7609771
S11332900FB6F894DEBF0FBECDBFE82EF92EFE01A7
S11332A0319680E1DF011D928A95E9F788E50E9455
S11332B02219882309F466C086E30E94F91888233A
S11332C009F462C00E943B19B8E0BA95F1F7000016
S11332D088E50E940819882309F458C0AE014F5F9D
S11332E05F4F8E01005F1F4FECEBF0E094EC2BEB93
S11332F030E0908380818823ECF7D9018C91DA0146
S11333008D93AD01A017B107A1F784E88093BC00A9
S1133310ECEBF0E080818823ECF78091BB00888B94
S11333200E943B19DE0114966E2D7F2D4C91242FA3
S11333302073CD010297FC01808190E0F0E12F9F82
S1133340800D911D1124FB0191838083842F807C47
S113335090E0880F991F880F991F9D012150310912
S1133360F9012081820F911DFB01938382834F70A9
S11333704483158213966A5F7F4F0A171B07B1F6C1
S113338081E005C080E003C080E001C080E0609679
S11333900FB6F894DEBF0FBECDBFDF91CF911F9162
S11333A00F91FF90EF9008950E94631688E50E94A4
S11333B02219882309F4C7C080E30E94F9188823DE
S11333C009F4C3C081E00E94F918882309F4BFC03E
S11333D00E943B1983EC99E00197F1F700C00000CB
S11333E088E50E942219882309F4B3C080E00E9472
S11333F0F918882309F4AFC080E00E94F9188823E3
S113340009F4ABC080E00E94F918882309F4A7C02E
S113341080E00E94F918882309F4A3C080E00E9488
S1133420F918882309F49FC080E00E94F9188823C2
S113343009F49BC080E00E94F918882309F497C01E
S113344080E90E94F918882309F493C00E943B196B
S113345083EC99E00197F1F700C0000088E50E9431
S11334602219882309F487C087E00E94F918882369
S113347009F483C080E00E94F918882309F47FC00E
S113348081E40E94F918882309F47BC00E943B1947
S113349083EC99E00197F1F700C0000088E50E94F1
S11334A02219882309F46FC08AE10E94F91888233D
S11334B009F46BC080E40E94F918882309F467C0FA
S11334C080E00E94F918882309F463C00E943B1924
S11334D083EC99E00197F1F700C0000088E50E94B1
S11334E02219882309F457C083E30E94F91888231A
S11334F009F453C083E00E94F918882309F44FC0EB
S11335000E943B1983EC99E00197F1F700C0000099
S113351088E50E942219882309F443C080E30E94AD
S1133520F918882309F43FC088E00E94F918882319
S1133530E1F10E943B1983EC99E00197F1F700C097
S1133540000081E0089580E0089580E0089580E01F
S1133550089580E0089580E0089580E0089580E073
S1133560089580E0089580E0089580E0089580E063
S1133570089580E0089580E0089580E0089580E053
S1133580089580E0089580E0089580E0089580E043
S1133590089580E0089580E0089580E0089580E033
S11335A0089580E0089580E0089580E008955058DB
S11335B0BB27AA270ED027C2F0D130F0F5D120F0D6
S11335C031F49F3F11F41EF4C0C10EF4E095E7FB03
S11335D0B6C1E92F3AD280F3BA176207730784079A
S11335E0950718F071F49EF552C20EF4E0950B2E77
S11335F0BA2FA02D0B01B90190010C01CA01A00141
S11336001124FF27591B99F0593F50F4503E68F19B
S11336101A16F040A22F232F342F4427585FF3CFDC
S1133620469537952795A795F0405395C9F77EF4AD
S11336301F16BA0B620B730B840BBAF09150A1F0F6
S1133640FF0FBB1F661F771F881FC2F70EC0BA0F7C
S1133650621F731F841F48F4879577956795B79504
S1133660F7959E3F08F0B3CF9395880F08F09927FC
S1133670EE0F97958795089590D158F080E891E0E2
S113368009F49EEF91D128F040E851E059F45EEF3F
S113369009C05BC1FCC1E92FE078D7D168F3092EDA
S11336A0052AC1F3261737074807590738F00E2EA5
S11336B007F8E02569F0E025E0640AC0EF6307F845
S11336C0009407FADB01B9019D01DC01CA01AD01D7
S11336D0EF934AD098D10AD05F91552331F02BED66
S11336E03FE049E450FD49EC63CF0895DF93DD27C3
S11336F0B92FBF7740E85FE31616170648075B0744
S113370010F4D92FCFD19F938F937F936F937CD253
S1133710ECEAF0E01DD177D12F913F914F915F9169
S1133720D4D1DD2349F09058A2EA2AED3FE049ECD8
S11337305FE3D0785D274DDFDF9165C1DCD008F40D
S113374081E0089539D1E3956FC10CD05CC12CD1CF
S113375040F023D130F021F45F3F19F0F0C0511153
S113376097C1F3C072D198F39923C9F35523B1F3E8
S1133770951B550BBB27AA2762177307840738F0DC
S11337809F5F5F4F220F331F441FAA1FA9F333D03B
S11337900E2E3AF0E0E830D091505040E695001CEF
S11337A0CAF729D0FE2F27D0660F771F881FBB1FAB
S11337B0261737074807AB07B0E809F0BB0B802D85
S11337C0BF01FF2793585F4F2AF09E3F510568F0D1
S11337D0B6C05EC15F3FECF3983EDCF38695779507
S11337E06795B795F7959F5FC9F7880F911D9695D3
S11337F0879597F90895E1E0660F771F881FBB1F2F
S1133800621773078407BA0720F0621B730B840BDB
S1133810BA0BEE1F88F7E095089504D06894B111AF
S113382037C108951AD188F09F5790F0B92F99277E
S1133830B751A0F0D1F0660F771F881F991F1AF0B7
S1133840BA95C9F712C0B13081F021D1B1E0089521
S11338501EC1672F782F8827B85F39F0B93FCCF3A2
S1133860869577956795B395D9F73EF490958095AD
S1133870709561957F4F8F4F9F4F0895E89409C0CD
S113388097FB3EF490958095709561957F4F8F4F8F
S11338909F4F9923A9F0F92F96E9BB279395F695A5
S11338A0879577956795B795F111F8CFFAF4BB0F23
S11338B011F460FF1BC06F5F7F4F8F4F9F4F16C087
S11338C0882311F096E911C0772321F09EE8872F11
S11338D0762F05C0662371F096E8862F70E060E0CD
S11338E02AF09A95660F771F881FDAF7880F969546
S11338F0879597F90895990F0008550FAA0BE0E8EA
S1133900FEEF16161706E807F907C0F0121613069D
S1133910E407F50798F0621B730B840B950B39F4DD
S11339200A2661F0232B242B252B21F408950A2643
S113393009F4A140A6958FEF811D811D089597F983
S11339409F6780E870E060E008959FEF80EC089541
S1133950DF93CF931F930F93FF92EF92DF927B013C
S11339608C01689405C0DA2EEF01AFD0FE01E89413
S1133970A5912591359145915591AEF3EF0129DE3D
S1133980FE019701A801DA9479F7DF90EF90FF9098
S11339900F911F91CF91DF91089500240A94161678
S11339A0170618060906089500240A941216130629
S11339B0140605060895C9CF50D0E8F3E894E0E072
S11339C0BB279F57F0F02AED3FE049EC06C0EE0F0D
S11339D0BB0F661F771F881F28F0B23A6207730770
S11339E0840728F0B25A620B730B840BE3959A9503
S11339F072F7803830F49A95BB0F661F771F881FC3
S1133A00D2F7904806C1092E0394000C11F48823C0
S1133A1052F0BB0F40F4BF2B11F460FF04C06F5F82
S1133A207F4F8F4F9F4F0895EF93E0FF06C0A2EAA8
S1133A302AED3FE049EC5FEBCCDDE5DF0F9003942A
S1133A4001FC9058E9EDF0E0F7C057FD9058440FA1
S1133A50551F59F05F3F71F04795880F97FB991FE9
S1133A6061F09F3F79F087950895121613061406A6
S1133A70551FF2CF4695F1DF08C016161706180633
S1133A80991FF1CF86957105610508940895E8940E
S1133A90BB2766277727CB0197F908952CDF08F415
S1133AA08FEF08959B01AC0160E070E080E89FE334
S1133AB04CCE0BD0A8CF71DF28F076DF18F0952319
S1133AC009F03DCF42CF1124E3CFBFDFA0F3959F90
S1133AD0D1F3950F50E0551F629FF001729FBB27F1
S1133AE0F00DB11D639FAA27F00DB11DAA1F649F9D
S1133AF06627B00DA11D661F829F2227B00DA11D50
S1133B00621F739FB00DA11D621F839FA00D611DD5
S1133B10221F749F3327A00D611D231F849F600DF6
S1133B20211D822F762F6A2F11249F5750408AF02F
S1133B30E1F088234AF0EE0FFF1FBB1F661F771FBB
S1133B40881F91505040A9F79E3F510570F0F7CE61
S1133B509FCF5F3FECF3983EDCF3869577956795AE
S1133B60B795F795E7959F5FC1F7FE2B880F911DD9
S1133B709695879597F908959F931EDF0F9007FCFC
S1133B80EE5F52CF11F40EF4E0CE41C066DFD0F305
S1133B909923D9F3CEF39F57550B87FF46D00024C2
S1133BA0A0E640EA900180585695979528F4805CE9
S1133BB0660F771F881F20F026173707480730F451
S1133BC0621B730B840B202931294A2BA695179469
S1133BD00794202531254A2758F7660F771F881F39
S1133BE020F026173707480730F4620B730B840B59
S1133BF0200D311D411DA09581F7B901842F9158E5
S1133C00880F9695879508959B01AC0152CF9F3FED
S1133C1031F0915020F4879577956795B795880F83
S1133C20911D9695879597F9089591505040660F88
S1133C30771F881FD2F708959F938F937F936F9375
S1133C40FF93EF939B01AC0134DFEF91FF9180DE92
S1133C502F913F914F915F912CCF97FB072E16F434
S1133C60009407D077FD09D00E94411E07FC05D0BF
S1133C703EF4909581959F4F0895709561957F4F7F
S1133C800895AA1BBB1B51E107C0AA1FBB1FA6179F
S1133C90B70710F0A61BB70B881F991F5A95A9F7F1
S1113CA080959095BC01CD010895F894FFCF56
S10F3CAE7001C00100E1000000000800EB
S9030000FC
