S0160000776972656C6573735F636F6D6D732E7372656322
S11300000C94D5000C94F2000C94F2000C94BA12E7
S11300100C94F2000C94F2000C94F2000C94F20094
S11300200C94F2000C94F2000C94B4130C94F2139C
S11300300C94F2000C94F2000C94F2000C94F20074
S11300400C94F2000C94F2000C94F2000C94F20064
S11300500C94F2000C94F2000C94F2000C94F20054
S11300600C94F2000C94F2000C94F2000C94F20044
S11300700C94F2000C94F2000C94F2000C94F20034
S11300800C94F2000C94F2000C94F2000C94F20024
S11300900C94F2000C94F2000C94F2000C94F20014
S11300A00C94F2000C94A6120C94F200084AD73B6C
S11300B03BCE016E84BCBFFDC12F3D6C74319ABD33
S11300C056833DDA3D00C77F11BED9E4BB4C3E9157
S11300D06BAAAABE000000803F05A84CCDB2D44E46
S11300E0B93836A9020C50B9918688083CA6AAAA48
S11300F02ABE000000803F000100002B0112000214
S113010000003D01430003000080010401030904D1
S11301108401120203090498010603030904A001DF
S1130120080001C112018036018136120100020269
S1130130000010C0167A0400010102030109024301
S113014000020100C032090400000102020100059E
S113015024001001052401010104240206052406DB
S113016000010705820310004009040100020A008F
S11301700000070503024000000705840240000058
S11301800403090412034A002E00200046006900FB
S113019065006E006500000006034D00320000009B
S11301A00803340031003000000011241FBECFEFDB
S11301B0DAE0DEBFCDBF11E0A0E0B1E0E6E8F5E3B0
S11301C002C005900D92AE30B107D9F721E0AEE040
S11301D0B1E001C01D92AD39B207E1F70E94210DD3
S11301E00C94C11A0C9400005D9A08955D980895CA
S11301F0239A539A2B9A5B9A22982A9A559A5D9835
S11302000895EAE7F0E020812F7720838330910579
S113021009F449C03CF48130910519F19CF5892B0E
S113022079F095C08530910509F45FC00CF44CC099
S11302308630910509F46AC0079709F088C077C031
S1130240EBE7F0E080818F7D8083ECE7F0E0808154
S11302508B7F808380818D7F808380818E7F80836C
S113026076C0EBE7F0E080818F7D8083ECE7F0E0FF
S113027080818B7F808380818D7F8083808181607A
S1130280808365C0EBE7F0E080818F7D8083ECE7BD
S1130290F0E080818460808380818D7F8083808191
S11302A08E7F808354C0EBE7F0E080818F7D808374
S11302B0ECE7F0E080818460808380818D7F80839F
S11302C080818160808343C0EBE7F0E080818F7D93
S11302D08083ECE7F0E080818460808380818260A9
S11302E0808380818E7F808332C0EBE7F0E0808161
S11302F08F7D8083ECE7F0E080818460808380815F
S11303008260808380818160808321C0EBE7F0E09C
S1130310808180628083ECE7F0E080818B7F808342
S113032080818D7F808380818E7F808310C0EBE706
S1130330F0E0808180628083ECE7F0E080818B7F55
S1130340808380818D7F8083808181608083EAE7E0
S1130350F0E08081806880838081806480838081F4
S113036080618083089583EC8093D100E3ECF0E016
S113037080818D7F808380818E7F8083E2E7F0E0BF
S1130380808184608083E1ECF0E0808188608083F8
S113039080818460808380818D7F8083808181607F
S11303A080830895ECE7F0E080818F7780838081FB
S11303B080648083AAE7B0E08C9184608C938C91F4
S11303C082608C938C9181608C93EEE7F0E0808165
S11303D0816080838081826080838081806180836A
S11303E08081806280838081806480838081806852
S11303F08083EDE7F0E0808181608083808182608A
S113040080838C9180628C930895269A279A88E839
S113041093E1909389008093880010928B0010924E
S11304208A0010928D0010928C00A1E8B0E08C91AB
S113043080618C938C9188608C93E0E8F0E08081FB
S113044082608083808181608083808180628083F8
S113045080818F7E808380818860808380818B7F90
S113046080838C918B7F8C938C918D7F8C938C91DA
S113047081608C9308952F923F924F925F926F9276
S11304807F928F929F92AF92BF92CF92DF92EF9220
S1130490FF920F931F93CF93DF93CDB7DEB72897C7
S11304A00FB6F894DEBF0FBECDBF98868F82109230
S11304B00F0110920E018F3FE3E09E0701F16F3FA1
S11304C0F3E07F07E1F04F3FE3E05E07C1F02F3F29
S11304D0F3E03F07A1F00F3FE3E01E0781F0FFEFD9
S11304E0EF16F3E0FF0659F0EFEFCE16E3E0DE0679
S11304F031F0FFEFAF16F3E0BF0609F0B0C681E0BC
S113050090E090930F0180930E01D1C3F801A08075
S1130510B180C280D3800C5F1F4F262D372D482D0C
S1130520592D6A2D7B2D8C2D9D2D0E94E2191816B4
S113053034F4FA82E9826A2C7B2C8C2C9D2C222D9B
S1130540332D442D552D6A2D7B2D8C2D9D2D0E94F0
S11305503218882334F4FE82ED822A2C3B2C4C2C56
S11305605D2CFFEFEF1AFF0A86E0E816F10471F63E
S1130570E981FA81E230F10509F43EC134F430979F
S113058081F0319709F08DC3A2C089819A818430AA
S1130590910509F45BC20CF4C4C1059709F081C349
S11305A0EAC2ED81FE81E230F10539F124F431979C
S11305B009F06EC009C08D819E8183309105B1F12F
S11305C0049709F065C04BC084E491E090939001D6
S11305D080938F018CE391E0909376018093750171
S11305E080E491E0909378018093770188E391E02F
S11305F090938A018093890154C384E491E0909399
S1130600900180938F0188E391E090937601809329
S1130610750180E491E090937801809377018CE3F5
S113062091E090938A01809389013BC380E491E037
S11306309093900180938F018CE391E090937601E5
S11306408093750184E491E090937801809377011D
S113065088E391E090938A018093890122C380E426
S113066091E09093900180938F0188E391E09093BF
S113067076018093750184E491E0909378018093EE
S113068077018CE391E090938A018093890109C3F7
S113069084E491E09093900180938F0180E491E051
S11306A090937601809375018CE391E090937801A7
S11306B08093770188E391E090938A018093890184
S11306C081E090E090930F0180930E01F0C2ED81E0
S11306D0FE81E230F10531F11CF4EF2B51F06DC0D5
S11306E08D819E8183309105B1F1059709F065C034
S11306F04BC084E491E09093900180938F0180E457
S113070091E090937601809375018CE391E090934E
S113071078018093770188E391E090938A01809334
S11307208901BFC284E491E09093900180938F018A
S113073088E391E090937601809375018CE391E0D6
S1130740909378018093770180E491E090938A01FB
S113075080938901A6C28CE391E0909390018093E9
S11307608F0180E491E0909376018093750184E495
S113077091E0909378018093770188E391E09093DE
S11307808A01809389018DC28CE391E0909390015A
S113079080938F0188E391E09093760180937501B3
S11307A084E491E0909378018093770180E491E070
S11307B090938A018093890174C284E491E09093B8
S11307C0900180938F0180E491E09093760180936F
S11307D075018CE391E0909378018093770188E32D
S11307E091E090938A018093890181E090E0909355
S11307F00F0180930E015BC2ED81FE81E130F105B2
S113080031F11CF4EF2B51F06DC08D819E81843049
S11308109105B1F1059709F065C04BC084E491E0FE
S11308209093900180938F0180E491E090937601FE
S11308308093750188E391E0909378018093770128
S11308408CE391E090938A01809389012AC284E425
S113085091E09093900180938F018CE391E09093C9
S113086076018093750188E391E0909378018093F9
S1130870770180E491E090938A018093890111C209
S113088088E391E09093900180938F0180E491E05C
S1130890909376018093750184E491E090937801BC
S11308A0809377018CE391E090938A01809389018E
S11308B0F8C188E391E09093900180938F018CE3D9
S11308C091E0909376018093750184E491E0909394
S11308D078018093770180E491E090938A0180937A
S11308E08901DFC184E491E09093900180938F01AA
S11308F080E491E090937601809375018CE391E01C
S1130900909378018093770188E391E090938A0132
S11309108093890181E090E090930F0180930E0110
S1130920C6C1ED81FE81E130F10531F11CF4EF2BFC
S113093051F06DC08D819E8184309105B1F1059790
S113094009F065C04BC080E491E0909390018093DE
S11309508F0184E491E090937601809375018CE398
S113096091E0909378018093770188E391E09093EC
S11309708A018093890195C18CE391E09093900161
S113098080938F0184E491E09093760180937501C4
S113099080E491E0909378018093770188E391E07B
S11309A090938A01809389017CC180E491E09093C3
S11309B0900180938F0188E391E090937601809376
S11309C075018CE391E0909378018093770184E43E
S11309D091E090938A018093890163C18CE391E053
S11309E09093900180938F0188E391E09093760136
S11309F08093750180E491E090937801809377016E
S1130A0084E491E090938A01809389014AC184E44B
S1130A1091E09093900180938F0180E491E0909312
S1130A207601809375018CE391E090937801809333
S1130A30770188E391E090938A018093890181E0B2
S1130A4090E090930F0180930E0131C1ED81FE81FE
S1130A50E230F10531F11CF4EF2B51F06DC08D81C2
S1130A609E8183309105B1F1059709F065C04BC0B3
S1130A7080E491E09093900180938F0184E491E06D
S1130A80909376018093750188E391E090937801C7
S1130A90809377018CE391E090938A01809389019C
S1130AA000C188E391E09093900180938F0184E4E6
S1130AB091E0909376018093750180E491E09093A6
S1130AC07801809377018CE391E090938A0180937D
S1130AD08901E7C080E491E09093900180938F01B5
S1130AE08CE391E0909376018093750188E391E023
S1130AF0909378018093770184E491E090938A0144
S1130B0080938901CEC088E391E090939001809313
S1130B108F018CE391E0909376018093750180E4DA
S1130B2091E0909378018093770184E491E090932D
S1130B308A0180938901B5C084E491E09093900187
S1130B4080938F0180E491E0909376018093750106
S1130B508CE391E0909378018093770188E391E0AE
S1130B6090938A018093890181E090E090930F0132
S1130B7080930E019CC0ED81FE81E230F10539F1D4
S1130B8024F4319709F06EC009C08D819E818330B1
S1130B909105B1F1049709F065C04BC08CE391E075
S1130BA09093900180938F0184E491E09093760177
S1130BB08093750188E391E09093780180937701A5
S1130BC080E491E090938A01809389016AC088E36C
S1130BD091E09093900180938F0184E491E090934D
S1130BE07601809375018CE391E090937801809372
S1130BF0770180E491E090938A018093890151C048
S1130C008CE391E09093900180938F0180E491E0D4
S1130C10909376018093750188E391E09093780135
S1130C208093770184E491E090938A018093890111
S1130C3038C088E391E09093900180938F0180E421
S1130C4091E090937601809375018CE391E0909309
S1130C5078018093770184E491E090938A018093F2
S1130C6089011FC084E491E09093900180938F01E7
S1130C7080E491E090937601809375018CE391E098
S1130C80909378018093770188E391E090938A01AF
S1130C908093890181E090E090930F0180930E018D
S1130CA006C080910E0190910F01892BD1F08091A3
S1130CB01E0190911F01EF8DF8A191838083809193
S1130CC01C0190911D01EF81F885918380838091AF
S1130CD01A0190911B01ED8DFE8D9183808380E03C
S1130CE0EAC3262D372D482D592D60E070E088EE9B
S1130CF091E40E943918262E372E482E592EE09062
S1130D008F01F09090010F2EF1E88F2EF1E09F2ECD
S1130D10F02DF70160817181882777FD8095982FE8
S1130D200E94D418222D332D442D552D0E94ED19E7
S1130D300E94A118F401718360830F2EF3E86F2ED3
S1130D40F1E07F2EF02DF70162817381882777FD12
S1130D508095982F0E94D418222D332D442D552D83
S1130D600E94ED190E94A118F30171836083009120
S1130D707701109178010F2EF1E7AF2EF1E0BF2E2D
S1130D80F02DF80160817181882777FD8095982F77
S1130D900E94D418222D332D442D552D0E94ED1977
S1130DA00E94A118F501718360830F2EF3E7CF2E03
S1130DB0F1E0DF2EF02DF80162817381882777FD41
S1130DC08095982F0E94D418222D332D442D552D13
S1130DD00E94ED190E94A118F60171836083F70146
S1130DE060817181F80180819181680F791F882762
S1130DF077FD8095982F0E94D41820E030E040E0E1
S1130E005FE30E94ED190E94A118E9A1FAA1718380
S1130E106083A0918F01B0919001E0917701F091EE
S1130E20780112966D917C91139782819381680F5A
S1130E30791F882777FD8095982F0E94D41820E089
S1130E4030E040E05FE30E94ED190E94A118EBA19D
S1130E50FCA171836083F40160817181F50180815B
S1130E609181680F791F882777FD8095982F0E94BC
S1130E70D41820E030E040E05FE30E94ED190E94C6
S1130E80A1181B017093960160939501F301608191
S1130E907181F60180819181680F791F882777FD20
S1130EA08095982F0E94D41820E030E040E05FE362
S1130EB00E94ED190E94A1188B0170939801609310
S1130EC09701229CB001239C700D700D1124009F8A
S1130ED0C001019F900D900D1124680F791F882780
S1130EE077FD8095982F0E94D4180E945A1A2B01DE
S1130EF03C016093790170937A0180937B01909314
S1130F007C0180917701909178019A838983E091A3
S1130F108F01F0919001FE83ED83FC01608171816A
S1130F20ED81FE8180819181681B790B882777FD93
S1130F308095982F0E94D4186B017C01E981FA8175
S1130F4062817381ED81FE8182819381681B790BBB
S1130F50882777FD8095982F0E94D418A7019601C1
S1130F600E94DF174B015C01609385017093860139
S1130F708093870190938801ED81FE816081718166
S1130F80E981FA8180819181681B790B882777FD3B
S1130F908095982F0E94D4186B017C01ED81FE810D
S1130FA062817381E981FA8182819381681B790B63
S1130FB0882777FD8095982F0E94D418A701960161
S1130FC00E94DF176B017C0160937D0170937E01A9
S1130FD080937F0190938001B801882777FD8095E5
S1130FE0982F0E94D41869837A838B839C83B101E0
S1130FF0882777FD8095982F0E94D41829813A81FB
S11310004B815C810E94DF179B01AC01DC01CB01A9
S1131010B0588093990190939A01A0939B01B09347
S11310209C0177FA709477F87094C501B4010E941A
S11310306C17862E972EA82EB92E0E9436189B0167
S1131040AC01C301B2010E94ED1920E030E040E29E
S113105051E40E946B170E94A1188B017093170131
S113106060931601682D792D8A2D9B2D0E94501AAC
S11310709B01AC01C301B2010E94ED1920E030E0F4
S113108040EC50E40E946C170E94A1187093150163
S11310906093140120E030E044E353E4C701B60157
S11310A00E94ED192BED3FE049E450E40E94391809
S11310B00E94A1187093190160931801C090100147
S11310C0D0901101E0901201F090130160911C0185
S11310D070911D01882777FD8095982F0E94D41860
S11310E0A70196010E94ED194B015C01A70196012D
S11310F060E070E080E89FE30E946B176B017C0165
S1131100B801882777FD8095982F0E94D4189B01F9
S1131110AC01C701B6010E94ED199B01AC01C501E8
S1131120B4010E946C170E94A118EF81F8857183A5
S11311306083C0901001D0901101E0901201F090F2
S1131140130160911A0170911B01882777FD809526
S1131150982F0E94D418A70196010E94ED194B0103
S11311605C01A701960160E070E080E89FE30E94C3
S11311706B176B017C016091140170911501882734
S113118077FD8095982F0E94D4189B01AC01C7016C
S1131190B6010E94ED199B01AC01C501B4010E9486
S11311A06C170E94A118ED8DFE8D71836083C09031
S11311B01001D0901101E0901201F09013016091A0
S11311C01E0170911F01882777FD8095982F0E943A
S11311D0D418A70196010E94ED194B015C01A701E7
S11311E0960160E070E080E89FE30E946B176B015A
S11311F07C016091180170911901882777FD809511
S1131200982F0E94D4189B01AC01C701B6010E941B
S1131210ED199B01AC01C501B4010E946C170E9439
S1131220A118EF8DF8A171836083EF81F885808127
S1131230918190931D0180931C01ED8DFE8D808121
S1131240918190931B0180931A01EF8DF8A1808105
S1131250918190931F0180931E0181E02CC1E09144
S11312600201F09103014C018E1A9F0A90924501EC
S1131270809244018091000190910101081B190B97
S113128010934701009346013B016E1A7F0A709246
S1131290410160924001E81AF90AF0924301E09298
S11312A042012A014E1A5F0A50923D0140923C01CC
S11312B01601281A390A30923F0120923E01690131
S11312C0CE1ADF0AD0923901C0923801A81AB90A9D
S11312D0B0923B01A0923A01930128193909C70140
S11312E0801B910B229FB001239F700D700D112460
S11312F0889F9001899F300D300D1124620F731F58
S1131300882777FD8095982F0E94D4180E945A1A36
S11313106093200170932101809322019093230113
S1131320920128193909C101801B910B229FB00138
S1131330239F700D700D1124889F9001899F300D9B
S1131340300D1124620F731F882777FD8095982F25
S11313500E94D4180E945A1A6093240170932501A4
S11313608093260190932701960128193909C50114
S1131370801B910B229FB001239F700D700D1124CF
S1131380889F9001899F300D300D1124620F731FC7
S1131390882777FD8095982F0E94D4180E945A1AA6
S11313A0609328017093290180932A0190932B0163
S11313B0920126193709C1018E199F09229FB00194
S11313C0239F700D700D1124889F9001899F300D0B
S11313D0300D1124620F731F882777FD8095982F95
S11313E00E94D4180E945A1A60932C0170932D0104
S11313F080932E0190932F01960126193709C50178
S11314008E199F09229FB001239F700D700D112426
S1131410889F9001899F300D300D1124620F731F36
S1131420882777FD8095982F0E94D4180E945A1A15
S113143060933001709331018093320190933301B2
S1131440C418D508A218B308CC9CB001CD9C700D6B
S1131450700D1124AA9CC001AB9C900D900D112419
S1131460680F791F882777FD8095982F0E94D418DC
S11314700E945A1A609334017093350180933601A7
S11314809093370100E211E0E12CF12C1E821D82C1
S11314901A821982212C6894332436F80F2EFCE129
S11314A04F2EF02D0F2EF6E45F2EF02D612C712CB3
S11314B0812C912C2BC828960FB6F894DEBF0FBE52
S11314C0CDBFDF91CF911F910F91FF90EF90DF90EF
S11314D0CF90BF90AF909F908F907F906F905F90D0
S11314E04F903F902F9008952F923F924F925F928A
S11314F06F927F928F929F92AF92BF92CF92DF9220
S1131500EF92FF920F931F93CF93DF936B017C01B4
S1131510EA01890120E030E044E353E40E946B17C0
S1131520962E872E382E292E20E030E044E353EC0B
S11315300E94321888230CF0C8C020E030E044EB4D
S113154053E4692D782D832D922D0E946C17262E3D
S1131550372E882E992EA0905601B0905701B501D0
S1131560882777FD8095982F0E94D4182B013C0181
S11315709B01AC01C701B6010E94E21988230CF05B
S11315804EC052C0A3019201C701B6010E94E219E4
S1131590882374F0A3019201C701B6010E946B175E
S11315A0688379838A839B83F80111821082A6C0A1
S11315B0A3019201692D782D832D922D0E94E219A9
S11315C018164CF0A3019201C701B6010E9432180B
S11315D088230CF093C0BB2094F4B50168597E4F66
S11315E0882777FD8095982F0E94D418A70196012B
S11315F00E946B17688379838A839B830AC0A7013F
S11316009601C301B2010E946B17688379838A83B0
S11316109B8381E090E0F801918380836FC0FCE4B8
S1131620AF16FFEFBF0674F4A3019201622D732D70
S1131630882D992D0E94321818162CF185EBA816C6
S1131640B1040CF5BB205CF4A3019201C701B601FF
S11316500E946B17688379838A839B8310C020E080
S113166030E044EB53E4C701B6010E946C17A301B8
S113167092010E946B17688379838A839B83F801A4
S1131680118210823BC0A3019201C701B6010E94DE
S1131690321888239CF5A3019201622D732D882DA5
S11316A0992D0E94E21918164CF5A7019601C30161
S11316B0B2010E946B17688379838A839B8381E0DC
S11316C090E0F8019183808319C0A0905601B090F6
S11316D05701B501882777FD8095982F0E94D4186B
S11316E02B013C019B01AC01692D782D832D922D9A
S11316F00E94321818160CF045CF5ACFDF91CF91C3
S11317001F910F91FF90EF90DF90CF90BF90AF901B
S11317109F908F907F906F905F904F903F902F900D
S1131720089541305105C9F420E030E040E051E42F
S11317300E94ED1920E030E849E055E40E946C175E
S11317400E94A11870938B0060938A0070938D009F
S113175060938C002B9A5B98089520E030E040E081
S113176051E40E94ED1920E030E849E055E40E947C
S11317706C170E94A11870938D0060938C00709375
S11317808B0060938A002B985B9A0895CF92DF9226
S1131790EF92FF926B017C0141305105C1F588EB5A
S11317A09BE090938D0080938C0020E030E044E334
S11317B053E4C701B6010E94E21918163CF488E903
S11317C098E090938B0080938A0058C0A7019601FB
S11317D060E070E084E393E40E946B1720E030E063
S11317E044E353E40E94391820E030E04FE254E42B
S11317F00E94ED1920E030E849E055E40E946C179E
S11318000E94A61870938B0060938A0037C084E509
S11318109BE090938B0080938A0020E030E044E3C7
S113182053E4C701B6010E94E21918163CF488E992
S113183098E090938D0080938C0020C0A7019601BE
S113184060E070E084E393E40E946B1720E030E0F2
S113185044E353E40E94391820E030E048E454E4BF
S11318600E94ED1920E030E849E055E40E946C172D
S11318700E94A61870938D0060938C002B985B983F
S1131880FF90EF90DF90CF900895019709F588EBD2
S11318909BE090938B0080938A00882777FD809546
S11318A0982F0E94D4182DEC3CEC4CEC5DE30E9484
S11318B0ED1920E030E445E355E40E946C170E94E2
S11318C0A11870938D0060938C002B985B980895F9
S11318D0882777FD8095982F0E94D4182DEC3CEC36
S11318E04CEC5DE30E94ED1920E030E84BE355E455
S11318F00E946C170E94A11870938B0060938A0059
S113190084E59BE090938D0080938C002B985B98EA
S11319100895019709F584E090E190938B008093FA
S11319208A00882777FD8095982F0E94D4182DEC83
S11319303CEC4CEC5DE30E94ED1920E030E240E821
S113194055E40E946C170E94A11870938D00609357
S11319508C002B985B980895882777FD8095982FA5
S11319600E94D4182DEC3CEC4CEC5DE30E94ED1984
S113197020E030E240E855E40E946C170E94A11870
S113198070938B0060938A0084E090E190938D00C3
S113199080938C002B985B98089510928B00109282
S11319A08A0010928D0010928C0008952B985B9AF7
S11319B08CEF98E090938D0080938C0084E59BE0FD
S11319C090938B0080938A0008952B9A5B988CEFF8
S11319D098E090938D0080938C0084E59BE0909335
S11319E08B0080938A0008952B9A5B9A88EB9BE086
S11319F090938D0080938C0084E59BE090938B0002
S1131A0080938A0008952B985B9880E89CE09093DB
S1131A108B0080938A0080EA99E090938D008093F4
S1131A208C0008952B985B9880EA99E090938B0042
S1131A3080938A0080E89CE090938D0080938C00D2
S1131A400895CF93DF93CDB7DEB7C254D1090FB653
S1131A50F894DEBF0FBECDBF20E825BF25BF198295
S1131A601A821B821C8286E190E09E838D831886F5
S1131A701F821A8619861CA21BA21EA21DA2E1E6C1
S1131A80F0E0208310826A9A729A6E9A769A6E9A1D
S1131A9076980E94EC120E94F8000E9405020E94AF
S1131AA0B3010E94D2010E9468168823E1F34AE040
S1131AB062E481E00E94FD1278946E9A769A109204
S1131AC06001109261011092620110926301109200
S1131AD058011092590110925A0110925B01109210
S1131AE064011092650110926601109267011092D0
S1131AF05C0110925D0110925E0110925F011EA6BE
S1131B001DA618AA1FA61AAA19AA1CAA1BAA1EAAAD
S1131B101DAA612C712C1EAE1DAE1AAE19AE9E010B
S1131B20275F3F4F38A72FA3CE0107969AA789A70F
S1131B30FE01B596FCA7EBA70F2EFAE74F2E512C0A
S1131B40F02D0F2EF8E72F2E312CF02D13C022E0AC
S1131B5030E03AAF29AF0EC081E090E09AAF89AF90
S1131B6009C0E3E0F0E0FAAFE9AF04C021E030E0FF
S1131B703AAF29AF8091520190915301019751F4EA
S1131B8083E690E090930501809304011092530141
S1131B9010925201F894CE010B960E94D3157894BA
S1131BA0882309F4CAC4AF8CB8A0C98CDA8CEB883A
S1131BB0FC880D851E852D8D3E8D4F89588D698934
S1131BC07A8998A59F93EFA1EF93FAA5FF9389A52E
S1131BD08F93E6E5F1E0FF93EF939CA59F93EBA52C
S1131BE0EF930F2EF3E28F2E912CF02D8C0E9D1E71
S1131BF08B859C850E943B020FB6F894DEBF0FBE16
S1131C00CDBF9BC43FEFE31AF30A870101501109CA
S1131C10C8010E940101F201808184FFFCCF0330DE
S1131C20110511F13CF40130110581F0B4F4012BDC
S1131C3049F044C00530110529F1ECF006301105D6
S1131C40E9F527C0F101608071807BC4F101019046
S1131C50F081E02DFEABEDAB74C4F1010190F08195
S1131C60E02DFCABEBAB6DC4F1010190F081E02DF4
S1131C70FAABE9AB66C4F1010190F081E02DF8AB59
S1131C80EFA75FC4F1010190F081E02DFEA7EDA75D
S1131C9058C4F10180819181F20180818061808347
S1131CA02DA53EA538AF2FAB8FA498A8C9A8DAA854
S1131CB0ABA8BCA80DA91EA9730116C0F2018081AE
S1131CC080618083F7E0EF16F1040CF49BCF2DA51F
S1131CD03EA538AF2FAB8FA498A8C9A8DAA8ABA8A3
S1131CE0BCA80DA91EA9730180910401909105015E
S1131CF08531910509F419C464F48330910509F41C
S1131D00C7C18530910509F4BCC2892B09F4A5C269
S1131D1011C48035910541F08336910509F482C3DD
S1131D20469709F007C4EBC33DE2E31631E0F3063E
S1131D30BCF40D321140A4F49DE2A91691E0B90659
S1131D407CF4EDE2CE16E1E0DE0654F4FDE28F16FB
S1131D50F1E09F062CF42FA938AD2D3231403CF030
S1131D6083E090E0909305018093040103CF6DA17B
S1131D707EA1882777FD8095982F0E94D4189B0117
S1131D80AC01609158017091590180915A01909170
S1131D905B010E946B176B017C016BA17CA18827FE
S1131DA077FD8095982F0E94D4189B01AC01609117
S1131DB060017091610180916201909163010E94C0
S1131DC06B179058A70196010E94DF1720E030E0BE
S1131DD044E353E40E94ED192BED3FE049E450E461
S1131DE00E9439189E012B5F3F4FAE014F5F5F4F3A
S1131DF00E94740AC980DA80EB80FC80C701B601B6
S1131E000E94A1188B0170936B0160936A01209169
S1131E10680130916901021B130B10936D0100934B
S1131E206C017093690160936801E9ADFAADEF2B21
S1131E3009F075C06BA17CA1882777FD8095982F48
S1131E400E94D41820916001309161014091620197
S1131E50509163010E946B17862E972EA82EB92EDF
S1131E606DA17EA1882777FD8095982F0E94D418B4
S1131E70209158013091590140915A0150915B01D0
S1131E800E946B176FAB7BAF8FAF21969FAF2197EB
S1131E90282D392D4A2D5B2D682D792D8A2D9B2DCA
S1131EA00E94ED194B015C017FA96BAD9FAD21969A
S1131EB08FAD2197272F362F492F582F672F732F38
S1131EC0892F952F0E94ED199B01AC01C501B40126
S1131ED00E946C170E945A1A20E030E0A9010E9467
S1131EE0321888230CF433CE20E030E040E751E48C
S1131EF0C701B6010E94321888230CF42DCEB80114
S1131F00882777FD8095982F0E94D4188B019C0117
S1131F104D815E81C701B6010E94910B2BCE29AD84
S1131F203AAD2130310509F071C06BA17CA188273D
S1131F3077FD8095982F0E94D418209160013091EC
S1131F40610140916201509163010E946B17862EDA
S1131F50972EA82EB92E6DA17EA1882777FD809596
S1131F60982F0E94D4182091580130915901409122
S1131F705A0150915B010E946B176FAB7BAF082F26
S1131F80192F282D392D4A2D5B2D682D792D8A2D59
S1131F909B2D0E94ED194B015C017FA96BAD272F8E
S1131FA0362F402F512F672F732F802F912F0E9490
S1131FB0ED199B01AC01C501B4010E946C170E948C
S1131FC05A1A20E030E0A9010E943218882334F420
S1131FD05D9A82E090E09AAF89AFCCCD20E030E00A
S1131FE040EF51E4C701B6010E94E219181624F427
S1131FF05D9A1AAE19AEBECD5D984D815E81698140
S11320007A818B819C810E94C60BB4CDE9ADFAAD77
S1132010329769F59E012B5F3F4FAE014F5F5F4FD3
S113202060E070E0CB010E94740AC980DA80EB8022
S1132030FC8020E030E040E751E4C701B6010E9493
S1132040321888230CF48DCD60916C0170916D0170
S1132050882777FD8095982F0E94D4188B019C01C6
S11320604D815E81C701B6010E94910B83CD29ADDC
S11320703AAD2330310509F07DCD0E94CD0C83E0CB
S113208090E090930501809304011AAE19AE72CDCD
S1132090033F33E0130774F083EFA81683E0B80618
S11320A04CF085E090E090930501809304011AAE12
S11320B019AE60CDCE14DF0464F481E090E0EFA9A2
S11320C0F8ADEE16FF0614F080E090E09CAF8BAF05
S11320D009C081E090E0C814D90414F080E090E0D5
S11320E09CAF8BAFFCE2EF16F1E0FF06FCF40C3280
S11320F021E01207DCF43CE2A31631E0B306B4F4A9
S11321008CE2C81681E0D8068CF49CE2891691E032
S1132110990664F4EFA9F8ADEC32F1403CF480E5A3
S113212090E0909305018093040124CDB8016A0DD9
S11321307B1D882777FD8095982F0E94D41820E076
S113214030E040E05FE30E94ED196FAF21967FAF6E
S1132150219722968FAF229723969FAF239720E053
S113216030E048E453E40E94E219882344F13DEB53
S1132170E31632E0F3061CF58DEBC81682E0D806B0
S1132180F4F4C8018A199B091AF49195819591096F
S1132190682F792F0A151B054CF081E090E00E940E
S11321A0450CE1E0F0E0FAAFE9AFE4CC80E090E088
S11321B00E94450C21E030E03AAF29AFDBCC20E0AF
S11321C030E048E453E4EFAD2196BFAD2197229669
S11321D0AFAD22972396FFAD23976E2F7B2F8A2FC7
S11321E09F2F0E94321888238CF535E6E316F104FC
S11321F06CF485E6C816D1044CF4EFA9F8ADE536C5
S1132200F10524F4F5E68F16910404F12BAD3CADF1
S1132210232B69F4EC14FD042CF00E94D60C1AAEA6
S113222019AEA8CC0E94E50C1AAE19AEA3CC8FA9A6
S113223098AD881599052CF00E94D60C1AAE19AEEB
S113224099CC0E94E50C1AAE19AE94CC80E590E0CE
S113225090930501809304018DCC1A9B05C0ECE991
S1132260FFEFFEAFEDAF04C023E730E03EAF2DAF8C
S113227083E090E090930501809304011AAE19AEB7
S113228079CC043813402CF084E8A81683E0B8060F
S11322904CF483E090E090930501809304011AAE1E
S11322A019AE68CC0BA11CA1C801EDADFEAD8E1B0F
S11322B09F0BEDA0FEA0889FB001899F700D700D4B
S11322C01124EE9CC001EF9C900D900D1124680F19
S11322D0791F882777FD8095982F0E94D4180E9433
S11322E05A1A20E030E0A9010E94321888234CF4E5
S11322F083E090E090930501809304011AAE19AE37
S113230039CC29AD3AAD232B09F04DC06627772788
S11323106E197F09882777FD8095982F0E94D4181D
S11323206B017C016DAD7EAD601B710B882777FD61
S11323308095982F0E94D4189058A70196010E9466
S1132340DF1720E030E044E353E40E94ED192BED65
S11323503FE049E450E40E9439189E012B5F3F4F4F
S1132360AE014F5F5F4F0E94740A20E030E040EA04
S113237051E469817A818B819C810E94321888237F
S11323800CF4F4CB8D819E81009729F40E94F40013
S11323900E94030DEFCB019709F0ECCB0E94F600ED
S11323A00E94120DE7CB89AD9AAD019709F0E2CBFB
S11323B0662777276E197F09882777FD8095982FE0
S11323C00E94D4186B017C016DAD7EAD601B710B56
S11323D0882777FD8095982F0E94D4189058A701DC
S11323E096010E94DF1720E030E044E353E40E94AA
S11323F0ED192BED3FE049E450E40E9439189E01A9
S11324002B5F3F4FAE014F5F5F4F0E94740A69819B
S11324107A818B819C810E94A1188D819E810E946A
S1132420890CA8CB6E9A9EB180E489278EB98091DD
S11324304801833A39F138F4813AA9F0C8F4803A72
S113244009F098CB09C0863AB9F1873A09F444C037
S1132450843A09F08FCB20C086E190E09093050187
S11324608093040187CB109205011092040182CB62
S113247083B10E94CD0C85E190E090930501809397
S1132480040178CB83B10E94CD0C85E190E0909358
S11324900501809304016ECB0E94F40C80E090E06F
S11324A00196883EE3E09E07D9F785E190E090939A
S11324B00501809304015ECB0E94F40C80E090E05F
S11324C00196883EF3E09F07D9F785E190E0909369
S11324D00501809304014ECB83B10E94CD0C0E9470
S11324E0F40C80E090E00196883E23E09207D9F74F
S11324F085E190E090930501809304013BCB0E9419
S1132500CD0C0E94F4003FEB87E299E0315080400B
S11325109040E1F700C000000E94F60085E190E0E1
S1132520909305018093040125CB0E94F6000E943C
S1132530CD0C20CB0E94CD0C1DCBEE24E394F12CCA
S113254064CBF2018081806180835CCB1F920F9207
S11325500FB60F9211248F939F9381E090E0909394
S11325605501809354019F918F910F900FBE0F904E
S11325701F9018951F920F920FB60F9211242F934C
S11325803F934F935F936F937F938F939F93AF93F7
S1132590BF93EF93FF936AE088E491E00E945313A2
S11325A081E090E090935301809352016A9A9EB126
S11325B084E089278EB9FF91EF91BF91AF919F91EC
S11325C08F917F916F915F914F913F912F910F90D8
S11325D00FBE0F901F901895589A599A5A9A8CE0EA
S11325E08093B800E9E6F0E0808180628083808196
S11325F08F7E8083EA9A789408951F93CF93DF9314
S1132600182FD62FC42F0E94EC1294EA9093BC008A
S1132610ECEBF0E090819923ECF790E59093BB000C
S113262094E89093BC00ECEBF0E090819923ECF7F4
S11326309091B900987F903229F484E98093BC008A
S113264080E02DC081E08093BB0084E88093BC00CF
S1132650ECEBF0E090819923ECF71093BB0084E855
S11326608093BC00ECEBF0E080818823ECF7D093FE
S1132670BB0084E88093BC00ECEBF0E0808188230D
S1132680ECF7C093BB0084E88093BC00ECEBF0E073
S113269080818823ECF784E98093BC0081E0DF919A
S11326A0CF911F910895CF93DF9324EA2093BC0028
S11326B0ECEBF0E020812223ECF721E52093BB0032
S11326C024E82093BC00ECEBF0E020812223ECF71B
S11326D02091B900287F283429F484E98093BC0030
S11326E080E03FC024EC2093BC00ECEBF0E02081C0
S11326F02223ECF74091BB00461309C050E041503F
S113270051091416150644F040E050E018C084E95D
S11327108093BC0080E025C0DC0120E030E0ECEBDD
S1132720F0E074ECCBEBD0E0708360816623ECF7CF
S113273068816D932F5F3F4F24173507ACF324E86E
S11327402093BC00ECEBF0E020812223ECF72091F5
S1132750BB00FC01E40FF51F208384E98093BC00D7
S113276081E0DF91CF9108951F920F920FB60F92DF
S113277011248F939F93EF93FF93E1EEF0E0808118
S1132780108283FF11C01092E90091E09093EB0056
S11327901092EC0092E19093ED0098E09093F00099
S11327A010926F011092700182FF13C080916F012B
S11327B0882379F080916E01882359F081508093A9
S11327C06E01811106C084E08093E9008AE380935E
S11327D0E800FF91EF919F918F910F900FBE0F90A2
S11327E01F9018951F920F920FB60F9211240F93FA
S11327F01F932F933F934F935F936F937F938F9385
S11328009F93AF93BF93CF93DF93EF93FF93109274
S1132810E9008091E80083FF51C1E1EFF0E07081AD
S1132820408120813081932F80E0DC01A22B9D0127
S113283050816081962F80E0852BA081B08152EF7A
S11328405093E800463009F05CC004C081E28093F4
S1132850EB003BC1C6E047EF50E0FA01659174918B
S11328602617370719F0495F5F4F20C0FA013296E7
S1132870659174918617970719F0495F5F4F16C0E9
S1132880FA01349685919491282F392FFA013696BE
S113289044919B2F80E08A2B8F3F910519F010F013
S11328A08FEF90E0841728F4482F03C0C150A9F695
S11328B0CDCFC8EED0E07EEFA1EFB0E010E188818B
S11328C0982F9570E1F382FD00C1642F413108F027
S11328D0612F662309F4F6C0C901562FFC01019645
S11328E0E491EC935150D1F7862F815090E00196FA
S11328F0280F391F461B78834111E1CF6031F9F26B
S1132900E4C0453061F48EEF8093E800E8EEF0E037
S1132910808180FFFDCF20682093E300D6C049303A
S1132920A1F571115BC020936F0110927001109298
S11329306E018EEF8093E80011E081E291E0C9EE30
S1132940D0E0ABEEB0E06CEE70E04DEE50E01883FA
S11329509C012F5F3F4FFC0104910C93002359F01D
S1132960F9012491FB012083FC0132960396249102
S1132970FA01208301C0C9011F5F153041F7EAEE57
S1132980F0E08EE180831082A0C0483081F470387A
S113299009F03FC0E8EEF0E0808180FFFDCF809138
S11329A06F018093F1008EEF8093E8008EC0413276
S11329B0A9F4713AF1F5E8EEF0E0808180FFFDCFF3
S11329C0E6E0F1E0A1EFB0E081918C9341E0ED30DD
S11329D0F407D1F78EEF8093E80077C04032C9F452
S11329E0713209F06BC0E8EEF0E0808182FFFDCF28
S11329F0E6E0F1E0A1EFB0E08C91819351E0ED309D
S1132A00F507D1F7E8EEF0E08BEF80838EEF80835B
S1132A105CC0423271F4713209F050C020937001ED
S1132A20E8EEF0E0808180FFFDCF8EEF8093E80038
S1132A304CC041111AC0E8EEF0E0208120FFFDCF28
S1132A40723851F4E9EEF0E080838091EB0085FB6D
S1132A50882780F9108201C080E0E1EFF0E08083F4
S1132A6010828EEF8093E80030C0413011F0433083
S1132A7029F5723019F5232B09F58F779927382F0B
S1132A8031503430D8F43EEF3093E8008093E900BD
S1132A90433021F481E28093EB0017C099E19093D5
S1132AA0EB0021E030E0D90102C0AA0FBB1F8A95D8
S1132AB0E2F7EAEEF0E0A083108207C081E280939F
S1132AC0EB0003C078834111FACEFF91EF91DF91BF
S1132AD0CF91BF91AF919F918F917F916F915F91B2
S1132AE04F913F912F911F910F910F900FBE0F9017
S1132AF01F90189520E030E0ECEBF0E08081882313
S1132B0034F02F5F3F4F293E83E03807B9F781E067
S1132B10283E334009F480E008958093BB0084E8A4
S1132B208093BC000E947A15882321F08091B9001B
S1132B30887F089580E00895CF93C82F94EA9093F6
S1132B40BC000E947A15882361F08C2F880F8F5F58
S1132B500E948D15883439F484E98093BC0080E0A8
S1132B6003C080E001C081E0CF910895CF93C82FC6
S1132B7094EA9093BC000E947A15882359F08C2F14
S1132B80880F0E948D15803239F484E98093BC004B
S1132B9080E003C080E001C081E0CF91089584E922
S1132BA08093BC000895EF92FF920F931F93CF93ED
S1132BB0DF93CDB7DEB760970FB6F894DEBF0FBED4
S1132BC0CDBFE82EF92EFE01319680E1DF011D9282
S1132BD08A95E9F788E50E94B615882309F466C04A
S1132BE086E30E948D15882309F462C00E94CF15E4
S1132BF0B8E0BA95F1F7000088E50E949C15882397
S1132C0009F458C0AE014F5F5F4F8E01005F1F4F44
S1132C10ECEBF0E094EC2BEB30E0908380818823A4
S1132C20ECF7D9018C91DA018D93AD01A017B107AE
S1132C30A1F784E88093BC00ECEBF0E0808188236A
S1132C40ECF78091BB00888B0E94CF15DE011496AF
S1132C506E2D7F2D4C91242F2073CD010297FC0102
S1132C60808190E0F0E12F9F800D911D1124FB01E4
S1132C7091838083842F807C90E0880F991F880F34
S1132C80991F9D0121503109F9012081820F911D65
S1132C90FB01938382834F704483158213966A5F8A
S1132CA07F4F0A171B07B1F681E005C080E003C01F
S1132CB080E001C080E060960FB6F894DEBF0FBEDE
S1132CC0CDBFDF91CF911F910F91FF90EF900895A9
S1132CD00E94EC1288E50E94B615882309F4C7C047
S1132CE080E30E948D15882309F4C3C081E00E940B
S1132CF08D15882309F4BFC00E94CF1583EC99E099
S1132D000197F1F700C0000088E50E94B6158823FA
S1132D1009F4B3C080E00E948D15882309F4AFC084
S1132D2080E00E948D15882309F4ABC080E00E94E6
S1132D308D15882309F4A7C080E00E948D1588238F
S1132D4009F4A3C080E00E948D15882309F49FC074
S1132D5080E00E948D15882309F49BC080E00E94C6
S1132D608D15882309F497C080E90E948D15882366
S1132D7009F493C00E94CF1583EC99E00197F1F711
S1132D8000C0000088E50E94B615882309F487C0B6
S1132D9087E00E948D15882309F483C080E00E9497
S1132DA08D15882309F47FC081E40E948D15882342
S1132DB009F47BC00E94CF1583EC99E00197F1F7E9
S1132DC000C0000088E50E94B615882309F46FC08E
S1132DD08AE10E948D15882309F46BC080E40E9467
S1132DE08D15882309F467C080E00E948D1588231F
S1132DF009F463C00E94CF1583EC99E00197F1F7C1
S1132E0000C0000088E50E94B615882309F457C065
S1132E1083E30E948D15882309F453C083E00E9444
S1132E208D15882309F44FC00E94CF1583EC99E0D7
S1132E300197F1F700C0000088E50E94B6158823C9
S1132E4009F443C080E30E948D15882309F43FC030
S1132E5088E00E948D158823E1F10E94CF1583EC50
S1132E6099E00197F1F700C0000081E0089580E047
S1132E70089580E0089580E0089580E0089580E05A
S1132E80089580E0089580E0089580E0089580E04A
S1132E90089580E0089580E0089580E0089580E03A
S1132EA0089580E0089580E0089580E0089580E02A
S1132EB0089580E0089580E0089580E0089580E01A
S1132EC0089580E0089580E0089580E0089580E00A
S1132ED0089580E008955058BB27AA270ED027C232
S1132EE0F0D130F0F5D120F031F49F3F11F41EF40D
S1132EF0C0C10EF4E095E7FBB6C1E92F3AD280F3E6
S1132F00BA17620773078407950718F071F49EF5E2
S1132F1052C20EF4E0950B2EBA2FA02D0B01B9016D
S1132F2090010C01CA01A0011124FF27591B99F03B
S1132F30593F50F4503E68F11A16F040A22F232F47
S1132F40342F4427585FF3CF469537952795A79597
S1132F50F0405395C9F77EF41F16BA0B620B730B3E
S1132F60840BBAF09150A1F0FF0FBB1F661F771FAF
S1132F70881FC2F70EC0BA0F621F731F841F48F464
S1132F80879577956795B795F7959E3F08F0B3CFEA
S1132F909395880F08F09927EE0F979587950895D4
S1132FA090D158F080E891E009F49EEF91D128F097
S1132FB040E851E059F45EEF09C05BC1FCC1E92F60
S1132FC0E078D7D168F3092E052AC1F3261737070D
S1132FD04807590738F00E2E07F8E02569F0E02578
S1132FE0E0640AC0EF6307F8009407FADB01B90153
S1132FF09D01DC01CA01AD01EF934AD098D10AD0FA
S11330005F91552331F02BED3FE049E450FD49EC4D
S113301063CF0895DF93DD27B92FBF7740E85FE3DF
S11330201616170648075B0710F4D92FCFD19F93C4
S11330308F937F936F937CD2ECEAF0E01DD177D12C
S11330402F913F914F915F91D4D1DD2349F0905856
S1133050A2EA2AED3FE049EC5FE3D0785D274DDF3B
S1133060DF9165C1DCD008F481E0089539D1E3959E
S11330706FC10CD05CC12CD140F023D130F021F4CD
S11330805F3F19F0F0C0511197C1F3C072D198F3AA
S11330909923C9F35523B1F3951B550BBB27AA27D5
S11330A062177307840738F09F5F5F4F220F331F47
S11330B0441FAA1FA9F333D00E2E3AF0E0E830D013
S11330C091505040E695001CCAF729D0FE2F27D016
S11330D0660F771F881FBB1F261737074807AB07E4
S11330E0B0E809F0BB0B802DBF01FF2793585F4F59
S11330F02AF09E3F510568F0B6C05EC15F3FECF315
S1133100983EDCF3869577956795B795F7959F5F1D
S1133110C9F7880F911D9695879597F90895E1E071
S1133120660F771F881FBB1F621773078407BA07D0
S113313020F0621B730B840BBA0BEE1F88F7E0952B
S1133140089504D06894B11137C108951AD188F054
S11331509F5790F0B92F9927B751A0F0D1F0660F7F
S1133160771F881F991F1AF0BA95C9F712C0B1309A
S113317081F021D1B1E008951EC1672F782F8827EF
S1133180B85F39F0B93FCCF3869577956795B395D9
S1133190D9F73EF490958095709561957F4F8F4F48
S11331A09F4F0895E89409C097FB3EF4909580954D
S11331B0709561957F4F8F4F9F4F9923A9F0F92FF9
S11331C096E9BB279395F695879577956795B79577
S11331D0F111F8CFFAF4BB0F11F460FF1BC06F5F5D
S11331E07F4F8F4F9F4F16C0882311F096E911C06F
S11331F0772321F09EE8872F762F05C0662371F090
S113320096E8862F70E060E02AF09A95660F771FA3
S1133210881FDAF7880F9695879597F90895990F7F
S11332200008550FAA0BE0E8FEEF16161706E8078C
S1133230F907C0F012161306E407F50798F0621BAD
S1133240730B840B950B39F40A2661F0232B242B82
S1133250252B21F408950A2609F4A140A6958FEFA1
S1133260811D811D089597F99F6780E870E060E0F3
S113327008959FEF80EC0895DF93CF931F930F93EE
S1133280FF92EF92DF927B018C01689405C0DA2EE5
S1133290EF01AFD0FE01E894A591259135914591B8
S11332A05591AEF3EF0129DEFE019701A801DA94EE
S11332B079F7DF90EF90FF900F911F91CF91DF91FD
S11332C0089500240A941616170618060906089588
S11332D000240A9412161306140605060895C9CF8D
S11332E050D0E8F3E894E0E0BB279F57F0F02AEDD4
S11332F03FE049EC06C0EE0FBB0F661F771F881F27
S113330028F0B23A62077307840728F0B25A620BB6
S1133310730B840BE3959A9572F7803830F49A9581
S1133320BB0F661F771F881FD2F7904806C1092E6E
S11333300394000C11F4882352F0BB0F40F4BF2B0C
S113334011F460FF04C06F5F7F4F8F4F9F4F08954C
S1133350EF93E0FF06C0A2EA2AED3FE049EC5FEB01
S1133360CCDDE5DF0F90039401FC9058E9EDF0E02B
S1133370F7C057FD9058440F551F59F05F3F71F047
S11333804795880F97FB991F61F09F3F79F08795C8
S11333900895121613061406551FF2CF4695F1DF51
S11333A008C0161617061806991FF1CF86957105E1
S11333B0610508940895E894BB2766277727CB0115
S11333C097F908952CDF08F48FEF08959B01AC0161
S11333D060E070E080E89FE34CCE0BD0A8CF71DFB3
S11333E028F076DF18F0952309F03DCF42CF112461
S11333F0E3CFBFDFA0F3959FD1F3950F50E0551FA6
S1133400629FF001729FBB27F00DB11D639FAA2735
S1133410F00DB11DAA1F649F6627B00DA11D661F84
S1133420829F2227B00DA11D621F739FB00DA11DA5
S1133430621F839FA00D611D221F749F3327A00D5F
S1133440611D231F849F600D211D822F762F6A2FFB
S113345011249F5750408AF0E1F088234AF0EE0F80
S1133460FF1FBB1F661F771F881F91505040A9F78D
S11334709E3F510570F0F7CE9FCF5F3FECF3983E2F
S1133480DCF3869577956795B795F795E7959F5FF4
S1133490C1F7FE2B880F911D9695879597F908958E
S11334A09F931EDF0F9007FCEE5F52CF11F40EF4D2
S11334B0E0CE41C066DFD0F39923D9F3CEF39F5712
S11334C0550B87FF46D00024A0E640EA90018058BF
S11334D05695979528F4805C660F771F881F20F017
S11334E026173707480730F4621B730B840B202917
S11334F031294A2BA69517940794202531254A276C
S113350058F7660F771F881F20F0261737074807DC
S113351030F4620B730B840B200D311D411DA095FB
S113352081F7B901842F9158880F9695879508954E
S11335309B01AC0152CF9F3F31F0915020F487950D
S113354077956795B795880F911D9695879597F907
S1133550089591505040660F771F881FD2F7089541
S11335609F938F937F936F93FF93EF939B01AC0192
S113357034DFEF91FF9180DE2F913F914F915F9166
S10935802CCFF894FFCFEC
S1113586D6010902150000E100000000080053
S9030000FC
