S0160000776972656C6573735F636F6D6D732E7372656322
S11300000C94D5000C94F2000C94F2000C94F200C1
S11300100C94F2000C94F2000C94F2000C94F20094
S11300200C94F2000C94F2000C940A0C0C94480CFE
S11300300C94F2000C94F2000C94F2000C94F20074
S11300400C94F2000C94F2000C94F2000C94F20064
S11300500C94F2000C94F2000C94F2000C94F20054
S11300600C94F2000C94F2000C94F2000C94F20044
S11300700C94F2000C94F2000C94F2000C94F20034
S11300800C94F2000C94F2000C94F2000C94F20024
S11300900C94F2000C94F2000C94F2000C94F20014
S11300A00C94F2000C94F0090C94F200084AD73B2B
S11300B03BCE016E84BCBFFDC12F3D6C74319ABD33
S11300C056833DDA3D00C77F11BED9E4BB4C3E9157
S11300D06BAAAABE000000803F05A84CCDB2D44E46
S11300E0B93836A9020C50B9918688083CA6AAAA48
S11300F02ABE000000803F000100002B0112000214
S113010000003D01430003000080010401030904D1
S11301108401120203090498010603030904A001DF
S1130120080001C112018036018136120100020269
S1130130000010C0167A0400010102030109024301
S113014000020100C032090400000102020100059E
S113015024001001052401010104240206052406DB
S113016000010705820310004009040100020A008F
S11301700000070503024000000705840240000058
S11301800403090412034A002E00200046006900FB
S113019065006E006500000006034D00320000009B
S11301A00803340031003000000011241FBECFEFDB
S11301B0DAE0DEBFCDBF11E0A0E0B1E0E2EFF6E3AC
S11301C002C005900D92AC30B107D9F721E0ACE044
S11301D0B1E001C01D92A139B207E1F70E941103F9
S11301E00C94771B0C9400002F923F924F925F92D5
S11301F06F927F928F929F92AF92BF92CF92DF9233
S1130200EF92FF920F931F93CF93DF936B017C01C7
S1130210EA01890120E030E044E353E40E94F91745
S1130220962E872E382E292E20E030E044E353EC1E
S11302300E94C01888230CF0C8C020E030E044EBD2
S113024053E4692D782D832D922D0E94FA17262EC2
S1130250372E882E992EA0901001B0901101B5016F
S1130260882777FD8095982F0E9462192B013C0105
S11302709B01AC01C701B6010E94701A88230CF0DF
S11302804EC052C0A3019201C701B6010E94701A68
S1130290882374F0A3019201C701B6010E94F917E3
S11302A0688379838A839B83F80111821082A6C0B4
S11302B0A3019201692D782D832D922D0E94701A2D
S11302C018164CF0A3019201C701B6010E94C01890
S11302D088230CF093C0BB2094F4B50168597E4F79
S11302E0882777FD8095982F0E946219A7019601AF
S11302F00E94F917688379838A839B830AC0A701C4
S11303009601C301B2010E94F917688379838A8335
S11303109B8381E090E0F801918380836FC0FCE4CB
S1130320AF16FFEFBF0674F4A3019201622D732D83
S1130330882D992D0E94C01818162CF185EBA8164B
S1130340B1040CF5BB205CF4A3019201C701B60112
S11303500E94F917688379838A839B8310C020E005
S113036030E044EB53E4C701B6010E94FA17A3013D
S113037092010E94F917688379838A839B83F80129
S1130380118210823BC0A3019201C701B6010E94F1
S1130390C01888239CF5A3019201622D732D882D2A
S11303A0992D0E94701A18164CF5A7019601C301E5
S11303B0B2010E94F917688379838A839B8381E061
S11303C090E0F8019183808319C0A0901001B0904F
S11303D01101B501882777FD8095982F0E94621935
S11303E02B013C019B01AC01692D782D832D922DAD
S11303F00E94C01818160CF045CF5ACFDF91CF9148
S11304001F910F91FF90EF90DF90CF90BF90AF902E
S11304109F908F907F906F905F904F903F902F9020
S1130420089541305105C9F420E030E040E051E442
S11304300E947B1A20E030E849E055E40E94FA1754
S11304400E942F1970938B0060938A0070938D0023
S113045060938C002B9A5B98089520E030E040E094
S113046051E40E947B1A20E030E849E055E40E9400
S1130470FA170E942F1970938D0060938C0070936B
S11304808B0060938A002B985B9A08950197F9F486
S113049088E29AE090938B0080938A00882777FD06
S11304A08095982F0E9462192AE037ED43E25CE3BD
S11304B00E947B1A20E030E04FE255E40E94FA17D4
S11304C00E942F1970938D0060938C001EC08827A2
S11304D077FD8095982F0E9462192AE037ED43E258
S11304E05CE30E947B1A20E030E842E255E40E947B
S11304F0FA170E942F1970938B0060938A0080EF83
S11305009AE090938D0080938C002B985B980895CB
S1130510019709F588EB9BE090938B0080938A0008
S1130520882777FD8095982F0E9462192AE037ED7D
S113053043E25CE30E947B1A20E030E44EE455E49D
S11305400E94FA170E942F1970938D0060938C00FB
S11305502B985B980895882777FD8095982F0E94A3
S113056062192AE037ED43E25CE30E947B1A20E043
S113057030E84BE355E40E94FA170E942F19709358
S11305808B0060938A0084EE9CE090938D008093AE
S11305908C002B985B98089510928B0010928A001F
S11305A010928D0010928C0008952B985B9A88E924
S11305B098E090938D0080938C008CEF98E090935A
S11305C08B0080938A0008952B9A5B9888E998E0C1
S11305D090938D0080938C008CEF98E090938B0027
S11305E080938A0008952B985B9888E998E090930B
S11305F08B0080938A0082E297E090938D00809331
S11306008C0008952B985B9888EC97E090938B006E
S113061080938A0080E699E090938D0080938C000B
S11306200895CF93DF93CDB7DEB7CC56D1090FB67B
S1130630F894DEBF0FBECDBF20E825BF25BF1982C9
S11306401A821B821C8286E190E09E838D83188629
S11306501F821A861986FE013B9680E2DF011D92F5
S11306608A95E9F725961FAE1EAE259727961FAEED
S11306701EAE2797E1E6F0E0208310826A9A729A10
S11306806E9A769A6E9A76980E944D0B0E94080A8A
S11306900E94150B0E94C30A0E94E20A0E94BE0E29
S11306A08823E1F340E265EF81E00E945E0B7894D9
S11306B06E9A769A10921A0110921B0110921C01E4
S11306C010921D0110921201109213011092140144
S11306D01092150110921E0110921F011092200118
S11306E01092210110921601109217011092180114
S11306F010921901A1961CAE1DAE1EAE1FAEA1979D
S1130700A6961FAEA697A7961FAEA797A8961FAE4C
S1130710A897A9961FAEA9976D961FAE1EAE6D97AA
S11307202F961FAE1EAE2F9761961FAE1EAE619719
S113073063961FAE1EAE639765961FAE1EAE659799
S113074067961FAE1EAE6797412C512CA5961FAE1F
S11307501EAEA5976B961FAE1EAE6B97FE01EB5BAC
S1130760FF4F2996FFAFEEAF29979E01275F3F4FBA
S11307702B963FAF2EAF2B97AE01495F5F4F2D965F
S11307805FAF4EAF2D970F2EFAE76F2E712CF02D21
S11307900F2EF8E72F2E312CF02D27C082E090E0A9
S11307A06B969FAF8EAF6B9720C0A1E0B0E06B96C5
S11307B0BFAFAEAF6B9719C0E2E0F0E06B96FFAF4E
S11307C0EEAF6B9712C06B961FAE1EAE6B970DC04B
S11307D023E030E06B963FAF2EAF6B9706C041E04D
S11307E050E06B965FAF4EAF6B9780910E01909186
S11307F00F01019709F0BAC00E94040A81E08B87B7
S113080080910C018C8724968FAD24978D87269632
S11308108FAD26978E8760E870E0809110019091EB
S113082011010E944F1B6F87888B6A965FAD6A9790
S1130830598BA6965FADA697A7964FADA797A89696
S11308403FADA897A9962FADA997652F742F832F35
S1130850922F0E942F19DC01CB0160E870E00E9406
S11308604F1B6A8B8B8BA1966CAD7DAD8EAD9FAD0E
S1130870A1970E942F19DC01CB0160E870E00E946F
S11308804F1B6C8B8D8B60E870E08F8198850E9484
S11308904F1B6E8B8F8B60E870E089859A850E9470
S11308A04F1B688F898F8D818A8F69817A818B81B3
S11308B09C810E942F19DC01CB0160E870E00E944A
S11308C04F1B6B8F8C8F60E870E0C2010E944F1B3E
S11308D06D8F8E8F60E870E067968EAD9FAD6797E1
S11308E00E944F1B6F8F88A360E870E065968EAD01
S11308F09FAD65970E944F1B69A38AA360E870E0CF
S113090063968EAD9FAD63970E944F1B6BA38CA320
S113091060E870E061968EAD9FAD61970E944F1BB9
S11309206DA38EA360E870E02F968EAD9FAD2F97D8
S11309300E944F1B6FA388A760E870E06D968EAD90
S11309409FAD6D970E944F1B69A78AA740E2BE0125
S1130950655F7F4F80E60E94B40B6E9A9EB180E47F
S113096089278EB910920F0110920E01F894CE01CE
S11309708B960E94290E7894882309F428C5219621
S1130980AEACBFAC2197C9ACDAACEBA8FCA80DA502
S11309901EA52DAD3EAD4FA958AD69A97AA92B96D8
S11309A08FAD2B978F932A969FAD2A979F932D9661
S11309B0AFAD2D97AF932C96BFAD2C97BF9380E12D
S11309C091E09F938F932996EFAD2997EF93289603
S11309D0FFAD2897FF930F2EF3E48F2E912CF02D6B
S11309E08C0E9D1E8BA59CA50E94C10F0FB6F8947A
S11309F0DEBF0FBECDBFEBC43FEFE31AF30A87019E
S1130A0001501109C8010E94110AD3018C9184FF7D
S1130A10FCCF0330110539F13CF40130110589F0A4
S1130A20CCF4012B51F060C00530110571F124F1B3
S1130A300630110509F058C031C0F10140805180E1
S1130A40CAC4D1010D90BC91A02D6796BFAFAEAFC3
S1130A506797C1C4F1010190F081E02D6596FFAF65
S1130A60EEAF6597B8C4D1010D90BC91A02D6396EB
S1130A70BFAFAEAF6397AFC4F1010190F081E02D39
S1130A806196FFAFEEAF6197A6C4D1010D90BC9102
S1130A90A02D2F96BFAFAEAF2F979DC4F10101904B
S1130AA0F081E02D6D96FFAFEEAF6D97D3018C9181
S1130AB080618C932F968EAC9FAC2F976196EEAD90
S1130AC0FFAD61976996FFAFEEAF69976396CEACC1
S1130AD0DFAC63976596AEACBFAC659767960EAD19
S1130AE01FAD6797720122C0D3018C9180618C93F2
S1130AF0B7E0EB16F1040CF47FCF2F968EAC9FACCD
S1130B002F976196EEADFFAD61976996FFAFEEAF9B
S1130B1069976396CEACDFAC63976596AEACBFAC19
S1130B20659767960EAD1FAD6797720180910C01B2
S1130B3090910D018530910509F42EC33CF4009782
S1130B4009F410C3039709F03FC4FEC1863191052F
S1130B5009F41FC48035910521F0459709F034C488
S1130B602EC4FDE2EF16F1E0FF06CCF40D32114085
S1130B70B4F43DE2A31631E0B3068CF44DE2C4169E
S1130B8041E0D40664F469968EAD9FAD69978D32C9
S1130B9091402CF4BDE28B16B1E09B063CF083E05F
S1130BA090E090930D0180930C011FCE27966EADBB
S1130BB07FAD2797882777FD8095982F0E9462192B
S1130BC09B01AC0160911201709113018091140199
S1130BD0909115010E94F9176B017C0125966EAD69
S1130BE07FAD2597882777FD8095982F0E946219FD
S1130BF09B01AC0160911A0170911B0180911C0151
S1130C0090911D010E94F9179058A70196010E9426
S1130C106D1820E030E044E353E40E947B1A2BED8E
S1130C203FE049E450E40E94C718A6966FAFA69728
S1130C30A7967FAFA797A8968FAFA897A9969FAFBF
S1130C40A9979E012B5F3F4FAE014F5F5F4F0E94FC
S1130C50F40089809A80AB80BC80C501B4010E94F5
S1130C602F198B0170932501609324012091220197
S1130C7030912301FB01E21BF30B6996FFAFEEAF4A
S1130C806997F0932701E093260170932301609301
S1130C9022016B962EAD3FAD6B97232B09F085C0D7
S1130CA025966EAD7FAD2597882777FD8095982F83
S1130CB00E94621920911A0130911B0140911C017C
S1130CC050911D010E94F917E62EF72EC82ED92E39
S1130CD027966EAD7FAD2797882777FD8095982F4F
S1130CE00E94621920911201309113014091140164
S1130CF0509115010E94F917062F172F6E968FAF8A
S1130D006E97A2969FAFA2972E2D3F2D4C2D5D2D51
S1130D106E2D7F2D8C2D9D2D0E947B1A6B017C01E5
S1130D206E969FAD6E97A2968FADA297202F312F0E
S1130D30492F582F602F712F892F952F0E947B1ACE
S1130D409B01AC01C701B6010E94FA170E94E81A80
S1130D50A1966CAF7DAF8EAF9FAFA19720E030E03E
S1130D60A9010E94C01888230CF418CD20E030E0BB
S1130D7040E751E4C501B4010E94C01888230CF473
S1130D8014CD69964EAD5FAD6997BA01882777FD9A
S1130D908095982F0E9462198B019C014D815E8180
S1130DA0C501B4010E94110220CD6B968EAD9FAD9A
S1130DB06B97019709F081C025966EAD7FAD25979D
S1130DC0882777FD8095982F0E94621920911A0137
S1130DD030911B0140911C0150911D010E94F91793
S1130DE0C62ED72EE82EF92E27966EAD7FAD279707
S1130DF0882777FD8095982F0E946219209112010F
S1130E003091130140911401509115010E94F9177A
S1130E1068966FAF68976E967FAF6E97A2968FAF06
S1130E20A297A3969FAFA3972C2D3D2D4E2D5F2DFA
S1130E306C2D7D2D8E2D9F2D0E947B1A6B017C01C4
S1130E4068967FAD68976E966FAD6E97A2969FADCC
S1130E50A297A3968FADA397272F362F492F582FEC
S1130E60672F732F892F952F0E947B1A9B01AC014A
S1130E70C701B6010E94FA170E94E81AA1966CAF46
S1130E807DAF8EAF9FAFA19720E030E0A9010E9413
S1130E90C01888230CF490CC20E030E040EF51E4FB
S1130EA0C501B4010E94701A18160CF48CCC6D8123
S1130EB07E81C8010E94460298CC6B96AEADBFAD50
S1130EC06B97129769F59E012B5F3F4FAE014F5F01
S1130ED05F4F60E070E0CB010E94F400C980DA80CB
S1130EE0EB80FC8020E030E040E751E4C701B6012C
S1130EF00E94C01888230CF46BCC60912601709179
S1130F002701882777FD8095982F0E9462198B010D
S1130F109C014D815E81C701B6010E94110265CC1E
S1130F206B96EEADFFAD6B97339709F05ECC0E94E4
S1130F30CC0283E090E090930D0180930C016B96BA
S1130F401FAE1EAE6B9751CC033FF3E01F0784F036
S1130F5023EFA21623E0B2065CF085E090E09093C4
S1130F600D0180930C016B961FAE1EAE6B973DCCAA
S1130F70CE14DF0464F481E090E0E814F90414F082
S1130F8080E090E0AD969FAF8EAFAD970FC081E04B
S1130F9090E069964EAD5FAD6997C416D50614F01E
S1130FA080E090E0AD969FAF8EAFAD975CE2E51622
S1130FB051E0F5061CF50C3281E01807FCF49CE2C4
S1130FC0A91691E0B906D4F4ACE2CA16A1E0DA0697
S1130FD0ACF46996EEADFFAD6997EC32F14074F470
S1130FE03CE2831631E093064CF40E94060A80E545
S1130FF090E090930D0180930C01F7CBB8016A0D3A
S11310007B1D882777FD8095982F0E94621920E028
S113101030E040E05FE30E947B1AA2966FAFA29794
S1131020A3967FAFA397AA968FAFAA97AB969FAFCD
S1131030AB9720E030E048E453E40E94701A882320
S113104074F14DEBE41642E0F4064CF55DEBC51685
S113105052E0D50624F50E94040AC8018A199B09A6
S11310601AF4919581959109682F792F0A151B051A
S11310705CF081E090E00E94460281E090E06B9693
S11310809FAF8EAF6B97B1CB80E090E00E94460299
S1131090A1E0B0E06B96BFAFAEAF6B97A6CB20E0FC
S11310A030E048E453E4A296EFADA297A396BFAD17
S11310B0A397AA96AFADAA97AB96FFADAB976E2F49
S11310C07B2F8A2F9F2F0E94C01888230CF041C0C9
S11310D0B5E6EB16F1047CF4E5E6CE16D1045CF437
S11310E0F5E68F1691043CF469962EAD3FAD6997F1
S11310F02536310574F10E94060AAD964EAD5FADFA
S1131100AD97452B89F4EC14FD043CF00E94D50204
S11311106B961FAE1EAE6B9768CB0E94E4026B9673
S11311201FAE1EAE6B9761CB69968EAD9FAD69976E
S1131130881699063CF00E94D5026B961FAE1EAE2F
S11311406B9753CB0E94E4026B961FAE1EAE6B9757
S11311504CCB80E590E090930D0180930C010E94AC
S1131160060A43CB1A9B07C0ACE9BFEFA596BFAFF5
S1131170AEAFA59706C0E3E7F0E0A596FFAFEEAFEC
S1131180A59783E090E090930D0180930C016B96FA
S11311901FAE1EAE6B9729CB043813402CF024E805
S11311A0A21623E0B2065CF483E090E090930D0174
S11311B080930C016B961FAE1EAE6B9716CB2596D3
S11311C00EAD1FAD2597C801A5964EAD5FADA59791
S11311D0841B950B2796EEACFFAC2797889FB00134
S11311E0899F700D700D1124EE9CC001EF9C900D31
S11311F0900D1124680F791F882777FD8095982F0B
S11312000E9462190E94E81AA1966CAF7DAF8EAF5E
S11312109FAFA19720E030E0A9010E94C018882365
S11312205CF483E090E090930D0180930C016B9645
S11312301FAE1EAE6B97D9CA6B968EAD9FAD6B97E2
S1131240892B09F057C0662777276E197F098827ED
S113125077FD8095982F0E9462196B017C01A596F9
S11312606EAD7FADA597601B710B882777FD8095C8
S1131270982F0E9462199058A70196010E946D1838
S113128020E030E044E353E40E947B1A2BED3FE07E
S113129049E450E40E94C718A6966FAFA697A79694
S11312A07FAFA797A8968FAFA897A9969FAFA99746
S11312B09E012B5F3F4FAE014F5F5F4F0E94F400D2
S11312C020E030E040EA51E469817A818B819C819D
S11312D00E94C01888230CF482CA8D819E810097D5
S11312E019F40E94F30281CA019709F07ECA0E9490
S11312F002037BCA6B96AEADBFAD6B97119709F035
S113130074CA662777276E197F09882777FD809529
S1131310982F0E9462196B017C01A5966EAD7FAD7A
S1131320A597601B710B882777FD8095982F0E94E5
S113133062199058A70196010E946D1820E030E0D0
S113134044E353E40E947B1A2BED3FE049E450E46C
S11313500E94C718A6966FAFA697A7967FAFA797C8
S1131360A8968FAFA897A9969FAFA9979E012B5FC8
S11313703F4FAE014F5F5F4F0E94F40069817A8155
S11313808B819C810E942F198D819E810E948802ED
S11313902CCA0E94CC020E94040ABFEBE7E2F9E0E7
S11313A0B150E040F040E1F700C000000E94060A9E
S11313B085E190E090930D0180930C0116CA0E9480
S11313C0060A0E94CC0211CA0E94CC020ECAEE2464
S11313D0E394F12C14CBD3018C9180618C930CCBCE
S11313E01F920F920FB60F9211248F939F9381E057
S11313F090E090930F0180930E019F918F910F9035
S11314000FBE0F901F9018955D9A08955D980895EA
S1131410239A539A2B9A5B9A22982A9A559A5D9802
S11314200895EAE7F0E020812F7720838330910547
S113143009F449C03CF48130910519F19CF5892BDC
S113144079F095C08530910509F45FC00CF44CC067
S11314508630910509F46AC0079709F088C077C0FF
S1131460EBE7F0E080818F7D8083ECE7F0E0808122
S11314708B7F808380818D7F808380818E7F80833A
S113148076C0EBE7F0E080818F7D8083ECE7F0E0CD
S113149080818B7F808380818D7F80838081816048
S11314A0808365C0EBE7F0E080818F7D8083ECE78B
S11314B0F0E080818460808380818D7F808380815F
S11314C08E7F808354C0EBE7F0E080818F7D808342
S11314D0ECE7F0E080818460808380818D7F80836D
S11314E080818160808343C0EBE7F0E080818F7D61
S11314F08083ECE7F0E08081846080838081826077
S1131500808380818E7F808332C0EBE7F0E080812E
S11315108F7D8083ECE7F0E080818460808380812C
S11315208260808380818160808321C0EBE7F0E06A
S1131530808180628083ECE7F0E080818B7F808310
S113154080818D7F808380818E7F808310C0EBE7D4
S1131550F0E0808180628083ECE7F0E080818B7F23
S1131560808380818D7F8083808181608083EAE7AE
S1131570F0E08081806880838081806480838081C2
S11315808061808308958DE78093D100E3ECF0E0DF
S113159080818D7F808380818E7F8083E2E7F0E08D
S11315A0808184608083E1ECF0E0808188608083C6
S11315B080818B7F808380818D7F80838081816027
S11315C080830895ECE7F0E080818F7780838081C9
S11315D080648083AAE7B0E08C9184608C938C91C2
S11315E082608C938C9181608C93EEE7F0E0808133
S11315F08160808380818260808380818061808338
S1131600808180628083808180648083808180681F
S11316108083EDE7F0E08081816080838081826057
S113162080838C9180628C930895269A279A88E807
S113163093E1909389008093880080EA9FE09093DF
S11316408B0080938A0090938D0080938C00A1E896
S1131650B0E08C9180618C938C9188608C93E0E8ED
S1131660F0E08081826080838081816080838081DA
S11316708062808380818F7E808380818860808384
S113168080818B7F80838C918B7F8C938C918D7FD9
S11316908C938C9181608C930895589A599A5A9A94
S11316A08CE08093B800E9E6F0E08081806280837A
S11316B080818F7E8083EA9A789408951F93CF93D4
S11316C0DF93182FD62FC42F0E944D0B94EA9093CA
S11316D0BC00ECEBF0E090819923ECF790E590935B
S11316E0BB0094E89093BC00ECEBF0E0908199236C
S11316F0ECF79091B900987F903229F484E98093B3
S1131700BC0080E02DC081E08093BB0084E880931E
S1131710BC00ECEBF0E090819923ECF71093BB0054
S113172084E88093BC00ECEBF0E080818823ECF744
S1131730D093BB0084E88093BC00ECEBF0E08081A4
S11317408823ECF7C093BB0084E88093BC00ECEBE7
S1131750F0E080818823ECF784E98093BC0081E089
S1131760DF91CF911F910895CF93DF93F89494EA7A
S11317709093BC00ECEBF0E090819923ECF790E5BA
S11317809093BB0094E89093BC00ECEBF0E0908164
S11317909923ECF79091B900987F903231F484E961
S11317A08093BC00789480E032C093E09093BB00B7
S11317B094E89093BC00ECEBF0E090819923ECF773
S11317C08093BB0084E88093BC00ECEBF0E0808164
S11317D08823ECF7242F30E0121613069CF4A62F6E
S11317E0B72F80E090E0CBEBD0E0ECEBF0E054E8F6
S11317F04D914883508340814423ECF7019682172E
S11318009307B4F384E98093BC00789481E0DF917A
S1131810CF9108951F920F920FB60F9211248F93B8
S11318209F93EF93FF93E1EEF0E08081108283FFBA
S113183011C01092E90091E09093EB001092EC003B
S113184092E19093ED0098E09093F00010922901BA
S113185010922A0182FF13C080912901882379F014
S113186080912801882359F08150809328018111A7
S113187006C084E08093E9008AE38093E800FF9146
S1131880EF919F918F910F900FBE0F901F9018951D
S11318901F920F920FB60F9211240F931F932F9341
S11318A03F934F935F936F937F938F939F93AF93E4
S11318B0BF93CF93DF93EF93FF931092E90080914E
S11318C0E80083FF51C1E1EFF0E0708140812081A5
S11318D03081932F80E0DC01A22B9D015081608137
S11318E0962F80E0852BA081B08152EF5093E800C1
S11318F0463009F05CC004C081E28093EB003BC138
S1131900C6E047EF50E0FA01659174912617370756
S113191019F0495F5F4F20C0FA01329665917491C6
S11319208617970719F0495F5F4F16C0FA0134967E
S113193085919491282F392FFA01369644919B2F43
S113194080E08A2B8F3F910519F010F08FEF90E023
S1131950841728F4482F03C0C150A9F6CDCFC8EE90
S1131960D0E07EEFA1EFB0E010E18881982F957070
S1131970E1F382FD00C1642F413108F0612F662339
S113198009F4F6C0C901562FFC010196E491EC93C9
S11319905150D1F7862F815090E00196280F391FBE
S11319A0461B78834111E1CF6031F9F2E4C0453040
S11319B061F48EEF8093E800E8EEF0E0808180FF30
S11319C0FDCF20682093E300D6C04930A1F5711102
S11319D05BC02093290110922A01109228018EEFF6
S11319E08093E80011E081E291E0C9EED0E0ABEE33
S11319F0B0E06CEE70E04DEE50E018839C012F5F78
S1131A003F4FFC0104910C93002359F0F9012491F8
S1131A10FB012083FC01329603962491FA01208372
S1131A2001C0C9011F5F153041F7EAEEF0E08EE115
S1131A3080831082A0C0483081F4703809F03FC020
S1131A40E8EEF0E0808180FFFDCF80912901809352
S1131A50F1008EEF8093E8008EC04132A9F4713A10
S1131A60F1F5E8EEF0E0808180FFFDCFE0E0F1E009
S1131A70A1EFB0E081918C9341E0E730F407D1F716
S1131A808EEF8093E80077C04032C9F4713209F0D8
S1131A906BC0E8EEF0E0808182FFFDCFE0E0F1E092
S1131AA0A1EFB0E08C91819351E0E730F507D1F7D5
S1131AB0E8EEF0E08BEF80838EEF80835CC04232EF
S1131AC071F4713209F050C020932A01E8EEF0E07D
S1131AD0808180FFFDCF8EEF8093E8004CC04111E0
S1131AE01AC0E8EEF0E0208120FFFDCF723851F4F7
S1131AF0E9EEF0E080838091EB0085FB882780F994
S1131B00108201C080E0E1EFF0E0808310828EEF6C
S1131B108093E80030C0413011F0433029F5723031
S1131B2019F5232B09F58F779927382F3150343045
S1131B30D8F43EEF3093E8008093E900433021F479
S1131B4081E28093EB0017C099E19093EB0021E0D0
S1131B5030E0D90102C0AA0FBB1F8A95E2F7EAEE72
S1131B60F0E0A083108207C081E28093EB0003C001
S1131B7078834111FACEFF91EF91DF91CF91BF911C
S1131B80AF919F918F917F916F915F914F913F9111
S1131B902F911F910F910F900FBE0F901F901895CA
S1131BA020E030E0ECEBF0E08081882334F02F5F1C
S1131BB03F4F293E83E03807B9F781E0283E3340A0
S1131BC009F480E008958093BB0084E88093BC000E
S1131BD00E94D00D882321F08091B900887F089558
S1131BE080E00895CF93C82F94EA9093BC000E949C
S1131BF0D00D882361F08C2F880F8F5F0E94E30D36
S1131C00883439F484E98093BC0080E003C080E028
S1131C1001C081E0CF910895CF93C82F94EA9093A7
S1131C20BC000E94D00D882359F08C2F880F0E948D
S1131C30E30D803239F484E98093BC0080E003C072
S1131C4080E001C081E0CF91089584E98093BC00D5
S1131C500895EF92FF920F931F93CF93DF93CDB725
S1131C60DEB760970FB6F894DEBF0FBECDBFE82E87
S1131C70F92EFE01319680E1DF011D928A95E9F784
S1131C8088E50E940C0E882309F466C086E30E944E
S1131C90E30D882309F462C00E94250EB8E0BA95CA
S1131CA0F1F7000088E50E94F20D882309F458C07A
S1131CB0AE014F5F5F4F8E01005F1F4FECEBF0E012
S1131CC094EC2BEB30E0908380818823ECF7D901EE
S1131CD08C91DA018D93AD01A017B107A1F784E8C7
S1131CE08093BC00ECEBF0E080818823ECF78091DA
S1131CF0BB00888B0E94250EDE0114966E2D7F2D6D
S1131D004C91242F2073CD010297FC01808190E037
S1131D10F0E12F9F800D911D1124FB01918380839D
S1131D20842F807C90E0880F991F880F991F9D0154
S1131D3021503109F9012081820F911DFB01938308
S1131D4082834F704483158213966A5F7F4F0A170C
S1131D501B07B1F681E005C080E003C080E001C04C
S1131D6080E060960FB6F894DEBF0FBECDBFDF9162
S1131D70CF911F910F91FF90EF9008950E944D0B0A
S1131D8088E50E940C0E882309F4C7C080E30E94F2
S1131D90E30D882309F4C3C081E00E94E30D882386
S1131DA009F4BFC00E94250E83EC99E00197F1F776
S1131DB000C0000088E50E940C0E882309F4B3C01B
S1131DC080E00E94E30D882309F4AFC080E00E9404
S1131DD0E30D882309F4ABC080E00E94E30D88235F
S1131DE009F4A7C080E00E94E30D882309F4A3C08E
S1131DF080E00E94E30D882309F49FC080E00E94E4
S1131E00E30D882309F49BC080E00E94E30D88233E
S1131E1009F497C080E90E94E30D882309F493C074
S1131E200E94250E83EC99E00197F1F700C00000B1
S1131E3088E50E940C0E882309F487C087E00E947D
S1131E40E30D882309F483C080E00E94E30D882316
S1131E5009F47FC081E40E94E30D882309F47BC068
S1131E600E94250E83EC99E00197F1F700C0000071
S1131E7088E50E940C0E882309F46FC08AE10E9451
S1131E80E30D882309F46BC080E40E94E30D8823EA
S1131E9009F467C080E00E94E30D882309F463C05D
S1131EA00E94250E83EC99E00197F1F700C0000031
S1131EB088E50E940C0E882309F457C083E30E942E
S1131EC0E30D882309F453C083E00E94E30D8823C3
S1131ED009F44FC00E94250E83EC99E00197F1F7B5
S1131EE000C0000088E50E940C0E882309F443C05A
S1131EF080E30E94E30D882309F43FC088E00E9438
S1131F00E30D8823E1F10E94250E83EC99E001970B
S1131F10F1F700C0000081E0089580E0089580E0BA
S1131F20089580E0089580E0089580E0089580E0B9
S1131F30089580E0089580E0089580E0089580E0A9
S1131F40089580E0089580E0089580E0089580E099
S1131F50089580E0089580E0089580E0089580E089
S1131F60089580E0089580E0089580E0089580E079
S1131F70089580E0089580E0089580E0089580E069
S1131F8008952F923F924F925F926F927F928F9219
S1131F909F92AF92BF92CF92DF92EF92FF920F93F4
S1131FA01F93CF93DF93CDB7DEB728970FB6F8947E
S1131FB0DEBF0FBECDBF98868F8210922C01109287
S1131FC02B018F3FE3E09E0701F16F3FF3E07F07B2
S1131FD0E1F04F3FE3E05E07C1F02F3FF3E03F073E
S1131FE0A1F00F3FE3E01E0781F0FFEFEF16F3E0EF
S1131FF0FF0659F0EFEFCE16E3E0DE0631F0FFEF17
S1132000AF16F3E0BF0609F0AFC681E090E090930D
S11320102C0180932B01D1C3F801A080B180C28030
S1132020D3800C5F1F4F262D372D482D592D6A2D37
S11320307B2D8C2D9D2D0E94701A181634F4FA8273
S1132040E9826A2C7B2C8C2C9D2C222D332D442D43
S1132050552D6A2D7B2D8C2D9D2D0E94C018882313
S113206034F4FE82ED822A2C3B2C4C2C5D2CFFEFA9
S1132070EF1AFF0A86E0E816F10471F6E981FA81A5
S1132080E230F10509F43EC134F4309781F0319720
S113209009F08DC3A2C089819A818430910509F425
S11320A05BC20CF4C4C1059709F081C3EAC2ED8197
S11320B0FE81E230F10539F124F4319709F06EC064
S11320C009C08D819E8183309105B1F1049709F097
S11320D065C04BC081E691E09093840180938301B5
S11320E089E591E090936A01809369018DE591E01F
S11320F090936C0180936B0185E591E090937E0150
S113210080937D0154C381E691E090938401809390
S1132110830185E591E090936A01809369018DE5DF
S113212091E090936C0180936B0189E591E0909329
S11321307E0180937D013BC38DE591E09093840102
S11321408093830189E591E090936A01809369010A
S113215081E691E090936C0180936B0185E591E0B9
S113216090937E0180937D0122C38DE591E090934D
S113217084018093830185E591E090936A018093C3
S1132180690181E691E090936C0180936B0189E58C
S113219091E090937E0180937D0109C381E691E0F3
S11321A090938401809383018DE591E090936A017B
S11321B08093690189E591E090936C0180936B01B0
S11321C085E591E090937E0180937D0181E090E02C
S11321D090932C0180932B01F0C2ED81FE81E230BB
S11321E0F10531F11CF4EF2B51F06DC08D819E810E
S11321F083309105B1F1059709F065C04BC081E6C4
S113220091E090938401809383018DE591E0909314
S11322106A018093690189E591E090936C01809350
S11322206B0185E591E090937E0180937D01BFC2AF
S113223081E691E0909384018093830185E591E0A8
S113224090936A018093690189E591E090936C0110
S113225080936B018DE591E090937E0180937D01E5
S1132260A6C289E591E090938401809383018DE572
S113227091E090936A018093690181E691E09093E3
S11322806C0180936B0185E591E090937E018093CE
S11322907D018DC289E591E090938401809383014F
S11322A085E591E090936A018093690181E691E06C
S11322B090936C0180936B018DE591E090937E0186
S11322C080937D0174C281E691E0909384018093B0
S11322D083018DE591E090936A018093690189E51A
S11322E091E090936C0180936B0185E591E090936C
S11322F07E0180937D0181E090E090932C01809396
S11323002B015BC2ED81FE81E130F10531F11CF45A
S1132310EF2B51F06DC08D819E8184309105B1F118
S1132320059709F065C04BC081E691E09093840164
S1132330809383018DE591E090936A018093690114
S113234085E591E090936C0180936B0189E591E0C0
S113235090937E0180937D012AC281E691E090935F
S113236084018093830189E591E090936A018093CD
S1132370690185E591E090936C0180936B018DE593
S113238091E090937E0180937D0111C285E591E0F7
S113239090938401809383018DE591E090936A0189
S11323A08093690181E691E090936C0180936B01C5
S11323B089E591E090937E0180937D01F8C185E5E4
S11323C091E0909384018093830189E591E0909357
S11323D06A018093690181E691E090936C01809396
S11323E06B018DE591E090937E0180937D01DFC1C7
S11323F081E691E090938401809383018DE591E0DF
S113240090936A018093690189E591E090936C014E
S113241080936B0185E591E090937E0180937D012B
S113242081E090E090932C0180932B01C6C1ED8153
S1132430FE81E130F10531F11CF4EF2B51F06DC058
S11324408D819E8184309105B1F1059709F065C0B5
S11324504BC08DE591E0909384018093830181E6E4
S113246091E090936A018093690189E591E09093EA
S11324706C0180936B0185E591E090937E018093DC
S11324807D0195C189E591E0909384018093830156
S113249081E691E090936A01809369018DE591E072
S11324A090936C0180936B0185E591E090937E019C
S11324B080937D017CC18DE591E0909384018093AC
S11324C0830185E591E090936A018093690189E530
S11324D091E090936C0180936B0181E691E090937D
S11324E07E0180937D0163C189E591E0909384012D
S11324F08093830185E591E090936A01809369015B
S11325008DE591E090936C0180936B0181E691E0FD
S113251090937E0180937D014AC181E691E090937E
S11325208401809383018DE591E090936A01809307
S1132530690189E591E090936C0180936B0185E5D5
S113254091E090937E0180937D0181E090E09093EF
S11325502C0180932B0131C1ED81FE81E230F10524
S113256031F11CF4EF2B51F06DC08D819E818330CD
S11325709105B1F1059709F065C04BC08DE591E077
S1132580909384018093830181E691E090936A01A2
S11325908093690185E591E090936C0180936B01D0
S11325A089E591E090937E0180937D0100C185E5EA
S11325B091E0909384018093830181E691E090936C
S11325C06A01809369018DE591E090936C01809399
S11325D06B0189E591E090937E0180937D01E7C0D2
S11325E08DE591E0909384018093830189E591E0E6
S11325F090936A018093690185E591E090936C0161
S113260080936B0181E691E090937E0180937D013C
S1132610CEC085E591E0909384018093830189E5A0
S113262091E090936A01809369018DE591E0909324
S11326306C0180936B0181E691E090937E0180931D
S11326407D01B5C081E691E090938401809383017C
S11326508DE591E090936A018093690189E591E0A9
S113266090936C0180936B0185E591E090937E01DA
S113267080937D0181E090E090932C0180932B0165
S11326809CC0ED81FE81E230F10539F124F43197EB
S113269009F06EC009C08D819E8183309105B1F12E
S11326A0049709F065C04BC089E591E090938401DB
S11326B08093830181E691E090936A01809369019C
S11326C085E591E090936C0180936B018DE591E039
S11326D090937E0180937D016AC085E591E090939B
S11326E084018093830181E691E090936A01809351
S11326F0690189E591E090936C0180936B018DE50C
S113270091E090937E0180937D0151C089E591E031
S113271090938401809383018DE591E090936A0105
S11327208093690185E591E090936C0180936B013E
S113273081E691E090937E0180937D0138C085E528
S113274091E090938401809383018DE591E09093CF
S11327506A018093690189E591E090936C0180930B
S11327606B0181E691E090937E0180937D011FC00F
S113277081E691E090938401809383018DE591E05B
S113278090936A018093690189E591E090936C01CB
S113279080936B0185E591E090937E0180937D01A8
S11327A081E090E090932C0180932B0106C08091EE
S11327B02B0190912C01892BD1F080913B019091B8
S11327C03C01EF8DF8A19183808380913901909130
S11327D03A01EF81F885918380838091370190914C
S11327E03801ED8DFE8D9183808380E0E9C3262D31
S11327F0372D482D592D60E070E088EE91E40E9459
S1132800C718262E372E482E592EE0908301F090BB
S113281084010F2EF5E78F2EF1E09F2EF02DF701A6
S113282060817181882777FD8095982F0E946219B5
S1132830222D332D442D552D0E947B1A0E942F19D1
S1132840F401718360830F2EF7E76F2EF1E07F2E82
S1132850F02DF70162817381882777FD8095982F89
S11328600E946219222D332D442D552D0E947B1A6E
S11328700E942F19F3017183608300916B01109101
S11328806C010F2EF5E6AF2EF1E0BF2EF02DF8010E
S113289060817181882777FD8095982F0E94621945
S11328A0222D332D442D552D0E947B1A0E942F1961
S11328B0F501718360830F2EF7E6CF2EF1E0DF2E52
S11328C0F02DF80162817381882777FD8095982F18
S11328D00E946219222D332D442D552D0E947B1AFE
S11328E00E942F19F60171836083F7016081718161
S11328F0F80180819181680F791F882777FD809581
S1132900982F0E94621920E030E040E05FE30E94CB
S11329107B1A0E942F19E9A1FAA171836083A09107
S11329208301B0918401E0916B01F0916C011296E6
S11329306D917C91139782819381680F791F882709
S113294077FD8095982F0E94621920E030E040E0E6
S11329505FE30E947B1A0E942F19EBA1FCA17183F3
S11329606083F40160817181F50180819181680F38
S1132970791F882777FD8095982F0E94621920E09F
S113298030E040E05FE30E947B1A0E942F191B0194
S113299070938A0160938901F30160817181F6016A
S11329A080819181680F791F882777FD8095982F02
S11329B00E94621920E030E040E05FE30E947B1A4D
S11329C00E942F198B0170938C0160938B01229CC0
S11329D0B001239C700D700D1124009FC001019F54
S11329E0900D900D1124680F791F882777FD80952D
S11329F0982F0E9462190E94E81A2B013C016093EF
S1132A006D0170936E0180936F01909370018091BA
S1132A106B0190916C019A838983E0918301F09119
S1132A208401FE83ED83FC0160817181ED81FE816F
S1132A3080819181681B790B882777FD8095982F79
S1132A400E9462196B017C01E981FA8162817381C0
S1132A50ED81FE8182819381681B790B882777FD44
S1132A608095982F0E946219A70196010E946D1803
S1132A704B015C016093790170937A0180937B012F
S1132A8090937C01ED81FE8160817181E981FA81FD
S1132A9080819181681B790B882777FD8095982F19
S1132AA00E9462196B017C01ED81FE816281738158
S1132AB0E981FA8182819381681B790B882777FDEC
S1132AC08095982F0E946219A70196010E946D18A3
S1132AD06B017C01609371017093720180937301A7
S1132AE090937401B801882777FD8095982F0E94F0
S1132AF0621969837A838B839C83B101882777FD6C
S1132B008095982F0E94621929813A814B815C81BA
S1132B100E946D189B01AC01DC01CB01B05880937D
S1132B208D0190938E01A0938F01B093900177FA59
S1132B30709477F87094C501B4010E94FA17862E38
S1132B40972EA82EB92E0E94C4189B01AC01C30174
S1132B50B2010E947B1A20E030E0A9010E94FA171A
S1132B600E942F198B017093340160933301682DF7
S1132B70792D8A2D9B2D0E94DE1A9B01AC01C30185
S1132B80B2010E947B1A20E030E040E151E40E944F
S1132B90FA170E942F19709332016093310120E0DB
S1132BA030E044E353E4C701B6010E947B1A2BEDE5
S1132BB03FE049E450E40E94C7180E942F19709323
S1132BC0360160933501C0902D01D0902E01E09024
S1132BD02F01F09030016091390170913A018827FA
S1132BE077FD8095982F0E946219A70196010E9493
S1132BF07B1A4B015C01A701960160E070E080E85C
S1132C009FE30E94F9176B017C01B801882777FDC7
S1132C108095982F0E9462199B01AC01C701B601EF
S1132C200E947B1A9B01AC01C501B4010E94FA17F2
S1132C300E942F19EF81F88571836083C0902D0164
S1132C40D0902E01E0902F01F09030016091370177
S1132C5070913801882777FD8095982F0E9462191A
S1132C60A70196010E947B1A4B015C01A701960102
S1132C7060E070E080E89FE30E94F9176B017C013B
S1132C806091310170913201882777FD8095982FEA
S1132C900E9462199B01AC01C701B6010E947B1A14
S1132CA09B01AC01C501B4010E94FA170E942F19BF
S1132CB0ED8DFE8D71836083C0902D01D0902E0127
S1132CC0E0902F01F090300160913B0170913C0144
S1132CD0882777FD8095982F0E946219A701960195
S1132CE00E947B1A4B015C01A701960160E070E031
S1132CF080E89FE30E94F9176B017C016091350124
S1132D0070913601882777FD8095982F0E9462196B
S1132D109B01AC01C701B6010E947B1A9B01AC0167
S1132D20C501B4010E94FA170E942F19EF8DF8A172
S1132D3071836083EF81F8858081918190933A015A
S1132D4080933901ED8DFE8D8081918190933801BE
S1132D5080933701EF8DF8A18081918190933C019C
S1132D6080933B0181E02CC1E0910901F0910A01BB
S1132D704C018E1A9F0A90926201809261018091A7
S1132D80070190910801081B190B1093640100932B
S1132D9063013B016E1A7F0A70925E0160925D01CD
S1132DA0E81AF90AF0926001E0925F012A014E1AD2
S1132DB05F0A50925A01409259011601281A390AA1
S1132DC030925C0120925B016901CE1ADF0AD09235
S1132DD05601C0925501A81AB90AB0925801A0929E
S1132DE05701930128193909C701801B910B229FB0
S1132DF0B001239F700D700D1124889F9001899F4D
S1132E00300D300D1124620F731F882777FD8095D4
S1132E10982F0E9462190E94E81A60933D017093F2
S1132E203E0180933F019093400192012819390992
S1132E30C101801B910B229FB001239F700D700D67
S1132E401124889F9001899F300D300D1124620F49
S1132E50731F882777FD8095982F0E9462190E941E
S1132E60E81A609341017093420180934301909367
S1132E704401960128193909C501801B910B229F31
S1132E80B001239F700D700D1124889F9001899FBC
S1132E90300D300D1124620F731F882777FD809544
S1132EA0982F0E9462190E94E81A6093450170935A
S1132EB046018093470190934801920126193709EE
S1132EC0C1018E199F09229FB001239F700D700DBF
S1132ED01124889F9001899F300D300D1124620FB9
S1132EE0731F882777FD8095982F0E9462190E948E
S1132EF0E81A6093490170934A0180934B019093BF
S1132F004C01960126193709C5018E199F09229F84
S1132F10B001239F700D700D1124889F9001899F2B
S1132F20300D300D1124620F731F882777FD8095B3
S1132F30982F0E9462190E94E81A60934D017093C1
S1132F404E0180934F0190935001C418D508A218E4
S1132F50B308CC9CB001CD9C700D700D1124AA9CBB
S1132F60C001AB9C900D900D1124680F791F882728
S1132F7077FD8095982F0E9462190E94E81A609349
S1132F8051017093520180935301909354010DE3C6
S1132F9011E0E12CF12C1E821D821A821982212C4F
S1132FA06894332436F80F2EFCE14F2EF02D0F2EAB
S1132FB0F6E45F2EF02D612C712C812C912C2CC801
S1132FC028960FB6F894DEBF0FBECDBFDF91CF9128
S1132FD01F910F91FF90EF90DF90CF90BF90AF9033
S1132FE09F908F907F906F905F904F903F902F9025
S1132FF008955058BB27AA270ED027C2F0D130F02D
S1133000F5D120F031F49F3F11F41EF4C0C10EF449
S1133010E095E7FBB6C1E92F3AD280F3BA1762070D
S113302073078407950718F071F49EF552C20EF4E5
S1133030E0950B2EBA2FA02D0B01B90190010C01C4
S1133040CA01A0011124FF27591B99F0593F50F4DC
S1133050503E68F11A16F040A22F232F342F442734
S1133060585FF3CF469537952795A795F04053952C
S1133070C9F77EF41F16BA0B620B730B840BBAF0FC
S11330809150A1F0FF0FBB1F661F771F881FC2F767
S11330900EC0BA0F621F731F841F48F4879577957B
S11330A06795B795F7959E3F08F0B3CF9395880F32
S11330B008F09927EE0F97958795089590D158F0C9
S11330C080E891E009F49EEF91D128F040E851E0C6
S11330D059F45EEF09C05BC1FCC1E92FE078D7D198
S11330E068F3092E052AC1F326173707480759073D
S11330F038F00E2E07F8E02569F0E025E0640AC0F8
S1133100EF6307F8009407FADB01B9019D01DC01C4
S1133110CA01AD01EF934AD098D10AD05F915523EB
S113312031F02BED3FE049E450FD49EC63CF0895C5
S1133130DF93DD27B92FBF7740E85FE31616170644
S113314048075B0710F4D92FCFD19F938F937F93B8
S11331506F937CD2ECEAF0E01DD177D12F913F91AF
S11331604F915F91D4D1DD2349F09058A2EA2AED22
S11331703FE049EC5FE3D0785D274DDFDF9165C127
S1133180DCD008F481E0089539D1E3956FC10CD007
S11331905CC12CD140F023D130F021F45F3F19F011
S11331A0F0C0511197C1F3C072D198F39923C9F3B8
S11331B05523B1F3951B550BBB27AA276217730739
S11331C0840738F09F5F5F4F220F331F441FAA1FED
S11331D0A9F333D00E2E3AF0E0E830D091505040AD
S11331E0E695001CCAF729D0FE2F27D0660F771F5B
S11331F0881FBB1F261737074807AB07B0E809F03D
S1133200BB0B802DBF01FF2793585F4F2AF09E3FD1
S1133210510568F0B6C05EC15F3FECF3983EDCF345
S1133220869577956795B795F7959F5FC9F7880F4A
S1133230911D9695879597F90895E1E0660F771F9C
S1133240881FBB1F621773078407BA0720F0621B2D
S1133250730B840BBA0BEE1F88F7E095089504D026
S11332606894B11137C108951AD188F09F5790F02E
S1133270B92F9927B751A0F0D1F0660F771F881F97
S1133280991F1AF0BA95C9F712C0B13081F021D153
S1133290B1E008951EC1672F782F8827B85F39F0F1
S11332A0B93FCCF3869577956795B395D9F73EF4F6
S11332B090958095709561957F4F8F4F9F4F08959E
S11332C0E89409C097FB3EF49095809570956195BC
S11332D07F4F8F4F9F4F9923A9F0F92F96E9BB2772
S11332E09395F695879577956795B795F111F8CFEE
S11332F0FAF4BB0F11F460FF1BC06F5F7F4F8F4F59
S11333009F4F16C0882311F096E911C0772321F04E
S11333109EE8872F762F05C0662371F096E8862FE6
S113332070E060E02AF09A95660F771F881FDAF73D
S1133330880F9695879597F90895990F0008550F6A
S1133340AA0BE0E8FEEF16161706E807F907C0F027
S113335012161306E407F50798F0621B730B840B2F
S1133360950B39F40A2661F0232B242B252B21F409
S113337008950A2609F4A140A6958FEF811D811DA9
S1133380089597F99F6780E870E060E008959FEFE3
S113339080EC0895DF93CF931F930F93FF92EF92E6
S11333A0DF927B018C01689405C0DA2EEF01AFD067
S11333B0FE01E894A5912591359145915591AEF37F
S11333C0EF0129DEFE019701A801DA9479F7DF9075
S11333D0EF90FF900F911F91CF91DF9108950024FA
S11333E00A941616170618060906089500240A9466
S11333F012161306140605060895C9CF50D0E8F333
S1133400E894E0E0BB279F57F0F02AED3FE049EC59
S113341006C0EE0FBB0F661F771F881F28F0B23A55
S113342062077307840728F0B25A620B730B840B8C
S1133430E3959A9572F7803830F49A95BB0F661F1E
S1133440771F881FD2F7904806C1092E0394000CF9
S113345011F4882352F0BB0F40F4BF2B11F460FF2A
S113346004C06F5F7F4F8F4F9F4F0895EF93E0FF2E
S113347006C0A2EA2AED3FE049EC5FEBCCDDE5DFD4
S11334800F90039401FC9058E9EDF0E0F7C057FD6C
S11334909058440F551F59F05F3F71F04795880FBE
S11334A097FB991F61F09F3F79F087950895121655
S11334B013061406551FF2CF4695F1DF08C0161601
S11334C017061806991FF1CF8695710561050894B2
S11334D00895E894BB2766277727CB0197F90895C9
S11334E02CDF08F48FEF08959B01AC0160E070E0DD
S11334F080E89FE34CCE0BD0A8CF71DF28F076DFB5
S113350018F0952309F03DCF42CF1124E3CFBFDF5C
S1133510A0F3959FD1F3950F50E0551F629FF001E2
S1133520729FBB27F00DB11D639FAA27F00DB11D3B
S1133530AA1F649F6627B00DA11D661F829F2227C4
S1133540B00DA11D621F739FB00DA11D621F839F4B
S1133550A00D611D221F749F3327A00D611D231F21
S1133560849F600D211D822F762F6A2F11249F576F
S113357050408AF0E1F088234AF0EE0FFF1FBB1F92
S1133580661F771F881F91505040A9F79E3F510531
S113359070F0F7CE9FCF5F3FECF3983EDCF3869557
S11335A077956795B795F795E7959F5FC1F7FE2BDC
S11335B0880F911D9695879597F908959F931EDF1F
S11335C00F9007FCEE5F52CF11F40EF4E0CE41C031
S11335D066DFD0F39923D9F3CEF39F57550B87FFBA
S11335E046D00024A0E640EA90018058569597956D
S11335F028F4805C660F771F881F20F02617370792
S1133600480730F4621B730B840B202931294A2BA1
S1133610A69517940794202531254A2758F7660F55
S1133620771F881F20F026173707480730F4620BEE
S1133630730B840B200D311D411DA09581F7B90139
S1133640842F9158880F9695879508959B01AC0116
S113365052CF9F3F31F0915020F48795779567952D
S1133660B795880F911D9695879597F90895915070
S11336705040660F771F881FD2F708959F938F934A
S11336807F936F93FF93EF939B01AC0134DFEF9132
S1133690FF9180DE2F913F914F915F912CCF97FB4B
S11336A0072E16F4009407D077FD09D00E94631BFF
S11336B007FC05D03EF4909581959F4F0895709531
S11336C061957F4F0895AA1BBB1B51E107C0AA1F38
S11336D0BB1FA617B70710F0A61BB70B881F991FAF
S11336E05A95A9F780959095BC01CD010895F89459
S10536F0FFCF06
S10F36F200E10000000008A30112020027
S9030000FC
