S0160000776972656C6573735F636F6D6D732E7372656322
S11300000C94D5000C94F2000C94F2000C94F200C1
S11300100C94F2000C94F2000C94F2000C94F20094
S11300200C94F2000C94F2000C9406160C944416F2
S11300300C94F2000C94F2000C94F2000C94F20074
S11300400C94F2000C94F2000C94F2000C94F20064
S11300500C94F2000C94F2000C94F2000C94F20054
S11300600C94F2000C94F2000C94F2000C94F20044
S11300700C94F2000C94F2000C94F2000C94F20034
S11300800C94F2000C94F2000C94F2000C94F20024
S11300900C94F2000C94F2000C94F2000C94F20014
S11300A00C94F2000C9435150C94F200084AD73BDA
S11300B03BCE016E84BCBFFDC12F3D6C74319ABD33
S11300C056833DDA3D00C77F11BED9E4BB4C3E9157
S11300D06BAAAABE000000803F05A84CCDB2D44E46
S11300E0B93836A9020C50B9918688083CA6AAAA48
S11300F02ABE000000803F000100002B0112000214
S113010000003D01430003000080010401030904D1
S11301108401120203090498010603030904A001DF
S1130120080001C112018036018136120100020269
S1130130000010C0167A0400010102030109024301
S113014000020100C032090400000102020100059E
S113015024001001052401010104240206052406DB
S113016000010705820310004009040100020A008F
S11301700000070503024000000705840240000058
S11301800403090412034A002E00200046006900FB
S113019065006E006500000006034D00320000009B
S11301A00803340031003000000011241FBECFEFDB
S11301B0DAE0DEBFCDBF11E0A0E0B1E0EAE7FAE3A8
S11301C002C005900D92AC30B107D9F721E0ACE044
S11301D0B1E001C01D92A338B207E1F70E943F0BC2
S11301E00C943B1D0C9400002F923F924F925F920F
S11301F06F927F928F929F92AF92BF92CF92DF9233
S1130200EF92FF920F931F93CF93DF93CDB7DEB797
S113021028970FB6F894DEBF0FBECDBF98868F82A5
S113022010920D0110920C018F3FE3E09E0701F143
S11302306F3FF3E07F07E1F04F3FE3E05E07C1F07B
S11302402F3FF3E03F07A1F00F3FE3E01E0781F0EB
S1130250FFEFEF16F3E0FF0659F0EFEFCE16E3E001
S1130260DE0631F0FFEFAF16F3E0BF0609F0B0C6CB
S113027081E090E090930D0180930C01D1C3F801CB
S1130280A080B180C280D3800C5F1F4F262D372DF4
S1130290482D592D6A2D7B2D8C2D9D2D0E94341CAB
S11302A0181634F4FA82E9826A2C7B2C8C2C9D2C4F
S11302B0222D332D442D552D6A2D7B2D8C2D9D2DD6
S11302C00E94841A882334F4FE82ED822A2C3B2C6B
S11302D04C2C5D2CFFEFEF1AFF0A86E0E816F104C0
S11302E071F6E981FA81E230F10509F43EC134F492
S11302F0309781F0319709F08DC3A2C089819A812A
S11303008430910509F45BC20CF4C4C1059709F06B
S113031081C3EAC2ED81FE81E230F10539F124F4B2
S1130320319709F06EC009C08D819E81833091059B
S1130330B1F1049709F065C04BC082E491E0909359
S11303407601809375018AE391E090935C01809338
S11303505B018EE391E090935E0180935D0186E3FF
S113036091E09093700180936F0154C382E491E013
S1130370909376018093750186E391E090935C01FC
S113038080935B018EE391E090935E0180935D0125
S11303908AE391E09093700180936F013BC38EE3F5
S11303A091E090937601809375018AE391E09093B4
S11303B05C0180935B0182E491E090935E01809301
S11303C05D0186E391E09093700180936F0122C3F5
S11303D08EE391E0909376018093750186E391E03A
S11303E090935C0180935B0182E491E090935E01C1
S11303F080935D018AE391E09093700180936F0193
S113040009C382E491E090937601809375018EE3B1
S113041091E090935C0180935B018AE391E0909377
S11304205E0180935D0186E391E090937001809377
S11304306F0181E090E090930D0180930C01F0C274
S1130440ED81FE81E230F10531F11CF4EF2B51F026
S11304506DC08D819E8183309105B1F1059709F0BE
S113046065C04BC082E491E090937601809375015E
S11304708EE391E090935C0180935B018AE391E0C9
S113048090935E0180935D0186E391E09093700107
S113049080936F01BFC282E491E0909376018093D0
S11304A0750186E391E090935C0180935B018AE39C
S11304B091E090935E0180935D018EE391E09093CF
S11304C0700180936F01A6C28AE391E09093760154
S11304D0809375018EE391E090935C0180935B01BE
S11304E082E491E090935E0180935D0186E391E064
S11304F09093700180936F018DC28AE391E0909391
S113050076018093750186E391E090935C0180937A
S11305105B0182E491E090935E0180935D018EE340
S113052091E09093700180936F0174C282E491E032
S113053090937601809375018EE391E090935C0132
S113054080935B018AE391E090935E0180935D0167
S113055086E391E09093700180936F0181E090E0D5
S113056090930D0180930C015BC2ED81FE81E1301B
S1130570F10531F11CF4EF2B51F06DC08D819E819A
S113058084309105B1F1059709F065C04BC082E450
S113059091E090937601809375018EE391E09093BE
S11305A05C0180935B0186E391E090935E0180930C
S11305B05D018AE391E09093700180936F012AC2F8
S11305C082E491E090937601809375018AE391E04F
S11305D090935C0180935B0186E391E090935E01CC
S11305E080935D018EE391E09093700180936F019D
S11305F011C286E391E090937601809375018EE3B6
S113060091E090935C0180935B0182E491E090938C
S11306105E0180935D018AE391E090937001809381
S11306206F01F8C186E391E09093760180937501A0
S11306308AE391E090935C0180935B0182E491E012
S113064090935E0180935D018EE391E0909370013D
S113065080936F01DFC182E491E0909376018093EF
S113066075018EE391E090935C0180935B018AE3D2
S113067091E090935E0180935D0186E391E0909315
S1130680700180936F0181E090E090930D0180935D
S11306900C01C6C1ED81FE81E130F10531F11CF49C
S11306A0EF2B51F06DC08D819E8184309105B1F1A5
S11306B0059709F065C04BC08EE391E090937601F5
S11306C08093750182E491E090935C0180935B01D7
S11306D08AE391E090935E0180935D0186E391E06B
S11306E09093700180936F0195C18AE391E0909398
S11306F076018093750182E491E090935C0180938C
S11307005B018EE391E090935E0180935D0186E34B
S113071091E09093700180936F017CC18EE391E02E
S1130720909376018093750186E391E090935C0148
S113073080935B018AE391E090935E0180935D0175
S113074082E491E09093700180936F0163C18AE326
S113075091E0909376018093750186E391E0909304
S11307605C0180935B018EE391E090935E01809342
S11307705D0182E491E09093700180936F014AC11E
S113078082E491E090937601809375018EE391E089
S113079090935C0180935B018AE391E090935E0106
S11307A080935D0186E391E09093700180936F01E3
S11307B081E090E090930D0180930C0131C1ED81B3
S11307C0FE81E230F10531F11CF4EF2B51F06DC0E4
S11307D08D819E8183309105B1F1059709F065C043
S11307E04BC08EE391E0909376018093750182E48F
S11307F091E090935C0180935B0186E391E0909398
S11308005E0180935D018AE391E09093700180938F
S11308106F0100C186E391E09093760180937501A6
S113082082E491E090935C0180935B018EE391E01C
S113083090935E0180935D018AE391E0909370014F
S113084080936F01E7C08EE391E0909376018093EB
S113085075018AE391E090935C0180935B0186E3E8
S113086091E090935E0180935D0182E491E0909326
S1130870700180936F01CEC086E391E0909376017E
S1130880809375018AE391E090935C0180935B010E
S11308908EE391E090935E0180935D0182E491E0A8
S11308A09093700180936F01B5C082E491E09093BE
S11308B07601809375018EE391E090935C018093BF
S11308C05B018AE391E090935E0180935D0186E38E
S11308D091E09093700180936F0181E090E0909398
S11308E00D0180930C019CC0ED81FE81E230F10585
S11308F039F124F4319709F06EC009C08D819E81CD
S113090083309105B1F1049709F065C04BC08AE3C7
S113091091E0909376018093750182E491E0909345
S11309205C0180935B0186E391E090935E01809388
S11309305D018EE391E09093700180936F016AC032
S113094086E391E0909376018093750182E491E0CF
S113095090935C0180935B018AE391E090935E0144
S113096080935D018EE391E09093700180936F0119
S113097051C08AE391E090937601809375018EE3F0
S113098091E090935C0180935B0186E391E0909306
S11309905E0180935D0182E491E090937001809305
S11309A06F0138C086E391E09093760180937501DE
S11309B08EE391E090935C0180935B018AE391E084
S11309C090935E0180935D0182E491E090937001C5
S11309D080936F011FC082E491E09093760180932D
S11309E075018EE391E090935C0180935B018AE34F
S11309F091E090935E0180935D0186E391E0909392
S1130A00700180936F0181E090E090930D018093D9
S1130A100C0106C080910C0190910D01892BD1F03D
S1130A2080911C0190911D01EF8DF8A19183808329
S1130A3080911A0190911B01EF81F8859183808345
S1130A408091180190911901ED8DFE8D9183808321
S1130A5080E0EAC3262D372D482D592D60E070E043
S1130A6088EE91E40E948B1A262E372E482E592E9A
S1130A70E0907501F09076010F2EF7E68F2EF1E0ED
S1130A809F2EF02DF70160817181882777FD809575
S1130A90982F0E94261B222D332D442D552D0E9464
S1130AA03F1C0E94F31AF401718360830F2EF9E650
S1130AB06F2EF1E07F2EF02DF7016281738188277C
S1130AC077FD8095982F0E94261B222D332D442DCF
S1130AD0552D0E943F1C0E94F31AF3017183608319
S1130AE000915D0110915E010F2EF7E5AF2EF1E04C
S1130AF0BF2EF02DF80160817181882777FD8095E4
S1130B00982F0E94261B222D332D442D552D0E94F3
S1130B103F1C0E94F31AF501718360830F2EF9E5DF
S1130B20CF2EF1E0DF2EF02DF8016281738188274A
S1130B3077FD8095982F0E94261B222D332D442D5E
S1130B40552D0E943F1C0E94F31AF60171836083A5
S1130B50F70160817181F80180819181680F791FAB
S1130B60882777FD8095982F0E94261B20E030E08F
S1130B7040E05FE30E943F1C0E94F31AE9A1FAA13E
S1130B8071836083A0917501B0917601E0915D015C
S1130B90F0915E0112966D917C91139782819381FD
S1130BA0680F791F882777FD8095982F0E94261B50
S1130BB020E030E040E05FE30E943F1C0E94F31A13
S1130BC0EBA1FCA171836083F40160817181F50163
S1130BD080819181680F791F882777FD8095982FF0
S1130BE00E94261B20E030E040E05FE30E943F1CAF
S1130BF00E94F31A1B0170937C0160937B01F30143
S1130C0060817181F60180819181680F791F882745
S1130C1077FD8095982F0E94261B20E030E040E06D
S1130C205FE30E943F1C0E94F31A8B0170937E01C4
S1130C3060937D01229CB001239C700D700D1124E2
S1130C40009FC001019F900D900D1124680F791F22
S1130C50882777FD8095982F0E94261B0E94AC1C44
S1130C602B013C0160935F017093600180936101EB
S1130C709093620180915D0190915E019A838983D2
S1130C80E0917501F0917601FE83ED83FC016081B2
S1130C907181ED81FE8180819181681B790B8827A8
S1130CA077FD8095982F0E94261B6B017C01E981BA
S1130CB0FA8162817381ED81FE8182819381681B57
S1130CC0790B882777FD8095982F0E94261BA70112
S1130CD096010E94311A4B015C0160936B01709381
S1130CE06C0180936D0190936E01ED81FE816081B2
S1130CF07181E981FA8180819181681B790B882750
S1130D0077FD8095982F0E94261B6B017C01ED8155
S1130D10FE8162817381E981FA8182819381681BFA
S1130D20790B882777FD8095982F0E94261BA701B1
S1130D3096010E94311A6B017C01609363017093E8
S1130D4064018093650190936601B801882777FD5B
S1130D508095982F0E94261B69837A838B839C83BA
S1130D60B101882777FD8095982F0E94261B298141
S1130D703A814B815C810E94311A9B01AC01DC01F8
S1130D80CB01B05880937F0190938001A09381019F
S1130D90B093820177FA709477F87094C501B40126
S1130DA00E94BE19862E972EA82EB92E0E94881A4C
S1130DB09B01AC01C301B2010E943F1C20E030E062
S1130DC040E051E40E94BD190E94F31A8B01709314
S1130DD0150160931401682D792D8A2D9B2D0E9495
S1130DE0A21C9B01AC01C301B2010E943F1C20E084
S1130DF030E040EE50E40E94BE190E94F31A709352
S1130E0013016093120120E030E044E353E4C7018E
S1130E10B6010E943F1C2BED3FE049E450E40E94E0
S1130E208B1A0E94F31A7093170160931601C090F5
S1130E300E01D0900F01E0901001F090110160912B
S1130E401A0170911B01882777FD8095982F0E94C5
S1130E50261BA70196010E943F1C4B015C01A701C0
S1130E60960160E070E080E89FE30E94BD196B0189
S1130E707C01B801882777FD8095982F0E94261B56
S1130E809B01AC01C701B6010E943F1C9B01AC0150
S1130E90C501B4010E94BE190E94F31AEF81F885BE
S1130EA071836083C0900E01D0900F01E090100117
S1130EB0F09011016091180170911901882777FD54
S1130EC08095982F0E94261BA70196010E943F1C23
S1130ED04B015C01A701960160E070E080E89FE3AC
S1130EE00E94BD196B017C01609112017091130184
S1130EF0882777FD8095982F0E94261B9B01AC01C3
S1130F00C701B6010E943F1C9B01AC01C501B4019D
S1130F100E94BE190E94F31AED8DFE8D71836083C9
S1130F20C0900E01D0900F01E0901001F0901101DB
S1130F3060911C0170911D01882777FD8095982F81
S1130F400E94261BA70196010E943F1C4B015C01D5
S1130F50A701960160E070E080E89FE30E94BD195C
S1130F606B017C016091160170911701882777FD50
S1130F708095982F0E94261B9B01AC01C701B601E6
S1130F800E943F1C9B01AC01C501B4010E94BE1923
S1130F900E94F31AEF8DF8A171836083EF81F885C5
S1130FA08081918190931B0180931A01ED8DFE8DB8
S1130FB0808191819093190180931801EF8DF8A19C
S1130FC08081918190931D0180931C0181E02CC14B
S1130FD0E0910201F09103014C018E1A9F0A909254
S1130FE04301809242018091000190910101081B0C
S1130FF0190B10934501009344013B016E1A7F0ABB
S113100070923F0160923E01E81AF90AF0924101A0
S1131010E09240012A014E1A5F0A50923B0140922D
S11310203A011601281A390A30923D0120923C01F6
S11310306901CE1ADF0AD0923701C0923601A81A8C
S1131040B90AB0923901A0923801930128193909DB
S1131050C701801B910B229FB001239F700D700D5F
S11310601124889F9001899F300D300D1124620F47
S1131070731F882777FD8095982F0E94261B0E9456
S1131080AC1C60931E0170931F0180932001909308
S11310902101920128193909C101801B910B229F5A
S11310A0B001239F700D700D1124889F9001899FBA
S11310B0300D300D1124620F731F882777FD809542
S11310C0982F0E94261B0E94AC1C609322017093EF
S11310D0230180932401909325019601281939094D
S11310E0C501801B910B229FB001239F700D700DD1
S11310F01124889F9001899F300D300D1124620FB7
S1131100731F882777FD8095982F0E94261B0E94C5
S1131110AC1C60932601709327018093280190935F
S11311202901920126193709C1018E199F09229FAD
S1131130B001239F700D700D1124889F9001899F29
S1131140300D300D1124620F731F882777FD8095B1
S1131150982F0E94261B0E94AC1C60932A01709356
S11311602B0180932C0190932D01960126193709A8
S1131170C5018E199F09229FB001239F700D700D28
S11311801124889F9001899F300D300D1124620F26
S1131190731F882777FD8095982F0E94261B0E9435
S11311A0AC1C60932E0170932F01809330019093B7
S11311B03101C418D508A218B308CC9CB001CD9C49
S11311C0700D700D1124AA9CC001AB9C900D900D64
S11311D01124680F791F882777FD8095982F0E9426
S11311E0261B0E94AC1C60933201709333018093E0
S11311F03401909335010EE111E0E12CF12C1E82B3
S11312001D821A821982212C6894332436F80F2EF9
S1131210FCE14F2EF02D0F2EF6E45F2EF02D612C05
S1131220712C812C912C2BC828960FB6F894DEBF14
S11312300FBECDBFDF91CF911F910F91FF90EF9023
S1131240DF90CF90BF90AF909F908F907F906F90E2
S11312505F904F903F902F900895269A279A88E8A0
S113126093E1909389008093880010928B001092F0
S11312708A0010928D0010928C00A1E8B0E08C914D
S113128080618C938C9188608C93E0E8F0E080819D
S1131290826080838081816080838081806280839A
S11312A080818F7E808380818860808380818B7F32
S11312B080838C918B7F8C938C918D7F8C938C917C
S11312C081608C93089583EC8093D100E3ECF0E08B
S11312D080818D7F808380818E7F8083E2E7F0E050
S11312E0808184608083E1ECF0E080818860808389
S11312F080818460808380818D7F80838081816010
S113130080830895ECE7F0E080818F77808380818B
S113131080648083AAE7B0E08C9184608C938C9184
S113132082608C938C9181608C93EEE7F0E08081F5
S113133081608083808182608083808180618083FA
S113134080818062808380818064808380818068E2
S11313508083EDE7F0E0808181608083808182601A
S113136080838C9180628C930895EAE7F0E0208179
S11313702F7720838330910509F449C03CF48130F0
S1131380910519F19CF5892B79F095C0853091056B
S113139009F45FC00CF44CC08630910509F46AC0AE
S11313A0079709F088C077C0EBE7F0E080818F7D74
S11313B08083ECE7F0E080818B7F808380818D7F68
S11313C0808380818E7F808376C0EBE7F0E080812C
S11313D08F7D8083ECE7F0E080818B7F8083808148
S11313E08D7F808380818160808365C0EBE7F0E03E
S11313F080818F7D8083ECE7F0E08081846080834E
S113140080818D7F808380818E7F808354C0EBE7D1
S1131410F0E080818F7D8083ECE7F0E08081846060
S1131420808380818D7F808380818160808343C0BD
S1131430EBE7F0E080818F7D8083ECE7F0E0808152
S11314408460808380818260808380818E7F8083BA
S113145032C0EBE7F0E080818F7D8083ECE7F0E041
S113146080818460808380818260808380818160C8
S1131470808321C0EBE7F0E0808180628083ECE729
S1131480F0E080818B7F808380818D7F8083808169
S11314908E7F808310C0EBE7F0E0808180628083E0
S11314A0ECE7F0E080818B7F808380818D7F808377
S11314B0808181608083EAE7F0E0808180688083B6
S11314C08081806480838081806180830895239AF1
S11314D0539A2B9A5B9A22982A9A559A5D98089562
S11314E010928B0010928A0010928D0010928C0042
S11314F008952B985B9A84EC99E090938B008093E9
S11315008A0090938D0080938C0008952B9A5B98A9
S113151084EC99E090938B0080938A0090938D00E3
S113152080938C0008952B9A5B9A80EA9FE09093B5
S11315308B0080938A0090938D0080938C00089593
S11315402B985B988EE299E090938B0080938A00AD
S11315508EE997E090938D0080938C0008952B98EA
S11315605B9887E997E090938B0080938A008CEFD7
S113157098E090938D0080938C000895CF92DF9231
S1131580EF92FF926B017C0141305105C1F580EA75
S11315909FE090938D0080938C0020E030E040E247
S11315A053E4C701B6010E94341C18163CF48EE5BE
S11315B091E090938B0080938A0058C0A701960114
S11315C060E070E080E293E40E94BD1920E030E026
S11315D040E253E40E948B1A20E030E244E655E4F2
S11315E00E943F1C20E030E04FEA53E40E94BE1901
S11315F00E94F81A70938B0060938A0037C080EAC7
S11316009FE090938B0080938A0020E030E040E2DA
S113161053E4C701B6010E94341C18163CF48BE64F
S113162091E090938D0080938C0020C0A7019601D7
S113163060E070E080E293E40E94BD1920E030E0B5
S113164040E253E40E948B1A20E030E543E655E47F
S11316500E943F1C20E030E845EB53E40E94BE1991
S11316600E94F81A70938D0060938C002B985B98FD
S1131670FF90EF90DF90CF9008955D9A0895CF93F7
S1131680DF93CDB7DEB7CD56D1090FB6F894DEBFE0
S11316900FBECDBF1A8219821C821B82FE013596B1
S11316A080E2DF011D928A95E9F71EAE1DAE2196F8
S11316B01FAE1EAE219723961FAE1EAE2397E1E602
S11316C0F0E080E8808310826A9A729A6E9A769A21
S11316D06E9A76980E9449150E94670A0E942D0905
S11316E00E9463090E9482090E94BA188823E1F3C8
S11316F0BFE3EDE0F3E0B150E040F040E1F700C0BB
S113170000006E9A769A40E269E481E00E945A15DC
S113171078946F961FAE1EAE6F9768961FAE68974B
S113172069961FAE69976A961FAE6A976B961FAE4D
S11317306B97AA961CAE1DAE1EAE1FAEAA97AB96B3
S11317401FAEAB97AC961FAEAC97AD961FAEAD97E0
S1131750AE961FAEAE97A6961FAE1EAEA697A196E6
S11317601FAE1EAEA1972D961FAE1EAE2D972F96BF
S11317701FAE1EAE2F9761961FAE1EAE6197639685
S11317801FAE1EAE639765961FAE1EAE6597679635
S11317901FAE1EAE6797A3961FAE1EAEA3976D969F
S11317A01FAE1EAE6D979E012D5F3F4F25963FAF36
S11317B02EAF2597CE01019627969FAF8EAF279720
S11317C0DE01AF5BBF4F2996BFAFAEAF2997FE01D5
S11317D0FF962B96FFAFEEAF2B970F2EFAE74F2E07
S11317E0512CF02D0F2EF8E76F2E712CF02D23C005
S11317F022E030E06D963FAF2EAF6D971CC06F9620
S11318001FAE1EAE6F9717C06F961FAE1EAE6F97BA
S113181012C06F961FAE1EAE6F970DC081E090E0B0
S11318206D969FAF8EAF6D9706C0A1E0B0E06D9648
S1131830BFAFAEAF6D97F894CE0185960E94251880
S11318407894882311F40C94D114A9ACBAACCBA825
S1131850DCA8EDA4FEA40FA118A52FA938AD49A9B1
S11318605AA96BA57CA52596BFAD2597BF93249651
S1131870EFAD2497EF932796FFAD2797FF93269616
S11318808FAD26978F9329969FAD29979F9328967E
S1131890AFAD2897AF932B96BFAD2B97BF932A96E6
S11318A0EFAD2A97EF930F2EFDE38F2E912CF02DA1
S11318B08C0E9D1E8DA19EA10E94F4000FB6F8947B
S11318C0DEBF0FBECDBF0C94D1143FEFE31AF30A71
S11318D0870101501109C8010E94B509D2018C91F8
S11318E084FFFCCF0330110579F13CF4013011057C
S11318F0B9F004F5012B51F076C005301105C1F1A2
S11319006CF10630110509F06EC03CC0F301019082
S1131910F081E02D6796FFAFEEAF67970C94D61475
S1131920D3010D90BC91A02D6596BFAFAEAF659766
S11319300C94D614F3010190F081E02D6396FFAF6F
S1131940EEAF63970C94D614D3010D90BC91A02DE7
S11319506196BFAFAEAF61970C94D614F3010190BA
S1131960F081E02D2F96FFAFEEAF2F970C94D61495
S1131970D3010D90BC91A02D2D96BFAFAEAF2D9786
S11319800C94D614F3010190F081E02DA196FFAFE1
S1131990EEAFA197D2018C9180618C932C960FAD00
S11319A02C972D961FAD2D972E96EFAC2E972F9634
S11319B0FFAC2F976096CFAC60976196DFAC6197D0
S11319C06296AFAC62976396BFAC639764968FAC34
S11319D0649765969FAC659766962FAC66976796F5
S11319E03FAC67972DC0F201808180618083F7E06E
S11319F0EF16F1040CF469CF2C960FAD2C972D96AD
S1131A001FAD2D972E96EFAC2E972F96FFAC2F97E8
S1131A106096CFAC60976196DFAC61976296AFAC8D
S1131A2062976396BFAC639764968FAC6497659630
S1131A309FAC659766962FAC669767963FAC6797A1
S1131A408091520190915301019709F0B9C021E0AE
S1131A502D83809150018E838DAD8F838FAD8887C8
S1131A6060E870E023968EAD9FAD23970E94131D0E
S1131A7069878A876C963FAD6C973B87AB965FAD61
S1131A80AB97AC964FADAC97AD963FADAD97AE96D8
S1131A902FADAE97652F742F832F922F0E94F31AC8
S1131AA0DC01CB0160E870E00E94131D6C878D8718
S1131AB0AA966CAD7DAD8EAD9FADAA970E94F31A28
S1131AC0DC01CB0160E870E00E94131D6E878F87F4
S1131AD060E870E089819A810E94131D688B898B6C
S1131AE060E870E08B819C810E94131D6A8B8B8B54
S1131AF06E968FAD6E978C8B68965FAD689769967E
S1131B004FAD69976A963FAD6A976B962FAD6B9709
S1131B10652F742F832F922F0E94F31ADC01CB01BF
S1131B2060E870E00E94131D6D8B8E8B60E870E09E
S1131B30822D932D0E94131D6F8B888F60E870E0B7
S1131B40882D992D0E94131D698F8A8F60E870E09B
S1131B508A2D9B2D0E94131D6B8F8C8F60E870E083
S1131B608C2D9D2D0E94131D6D8F8E8F60E870E06B
S1131B708E2D9F2D0E94131D6F8F88A360E870E047
S1131B80802F912F0E94131D69A38AA360E870E03F
S1131B90A1968EAD9FADA1970E94131D6BA38CA33C
S1131BA040E2BE016B5F7F4F80E60E94B0156E9AE3
S1131BB09EB180E489278EB910925301109252018C
S1131BC080915001909151018530910509F4FAC337
S1131BD054F48130910569F18230910509F4E4C12E
S1131BE0892B69F0DAC68631910509F4C4C68336B7
S1131BF0910509F44CC6459709F0CFC6C8C61A9B8F
S1131C0007C0ADE8BFEFA396BFAFAEAFA39706C0C2
S1131C10E3E7F0E0A396FFAFEEAFA39785E090E093
S1131C2090935101809350016D961FAE1EAE6D9737
S1131C3002CE6D962EAD3FAD6D97232B09F041C0BA
S1131C4021966EAD7FAD21977195619571098827B5
S1131C5077FD8095982F0E94261B6B017C018DAD2A
S1131C609EADA3966EAD7FADA397681B790B8827B5
S1131C7077FD8095982F0E94261B9058A701960106
S1131C800E94311A20E030E044E353E40E943F1CF8
S1131C902BED3FE049E450E40E948B1AAB966FAF02
S1131CA0AB97AC967FAFAC97AD968FAFAD97AE9632
S1131CB09FAFAE9781E090E06D969FAF8EAF6D972A
S1131CC0BACD6D96AEADBFAD6D97119709F02AC12F
S1131CD021966EAD7FAD2197719561957109882725
S1131CE077FD8095982F0E94261B6B017C018DAD9A
S1131CF09EADA3966EAD7FADA397681B790B882725
S1131D0077FD8095982F0E94261B9058A701960175
S1131D100E94311A20E030E044E353E40E943F1C67
S1131D202BED3FE049E450E40E948B1AB62EA72E17
S1131D30982E892EAB966FAFAB97AC967FAFAC97CE
S1131D40AD968FAFAD97AE969FAFAE9723960EAD7F
S1131D501FAD2397B801882777FD8095982F0E949F
S1131D60261B6B017C0120E030E040EE50E46B2D3B
S1131D707A2D892D982D0E94BD199B01AC01C701B4
S1131D80B6010E94341C88239CF020E030E040EE31
S1131D9050E46B2D7A2D892D982D0E94BE199B013C
S1131DA0AC01C701B6010E94841A18160CF020CDAC
S1131DB020E030E044E353E46B2D7A2D892D982DF7
S1131DC00E94BD19362E272E6E968FAF6E97A4965D
S1131DD09FAFA49720E030E044E353EC0E94841AC0
S1131DE088230CF0E9C520E030E044EB53E46E9620
S1131DF0AFAD6E97A496FFADA497632D722D8A2F75
S1131E009F2F0E94BE196E966FAF6E97A4967FAFF8
S1131E10A497282E392EA70196016B2D7A2D892D92
S1131E20982D0E94341C8823C4F53BC0A701960159
S1131E306B2D7A2D892D982D0E94341C88234CF00B
S1131E400E94790AE1E0F0E06F96FFAFEEAF6F9782
S1131E50F2CC6E969FAD6E97A4968FADA497232D6A
S1131E60322D492F582FC701B6010E94841A8823A6
S1131E705CF0A70196016B2D7A2D892D982D0E9477
S1131E80841A88230CF0BBCC0E94860A22E030E03E
S1131E906F963FAF2EAF6F97CECC0C343FEF130746
S1131EA09CF46E967FAD6E97A4966FADA497272F82
S1131EB0362F422D532DC701B6010E94341C8823AE
S1131EC064F0053B11054CF40E94790A83E090E02C
S1131ED06F969FAF8EAF6F97AECCA70196016B2D17
S1131EE07A2D892D982D0E94841A88230CF08CCC8D
S1131EF06E967FAD6E97A4966FADA497272F362F5D
S1131F00422D532DC701B6010E94841A88230CF078
S1131F1080CC0E94860AA4E0B0E06F96BFAFAEAF5B
S1131F206F9789CC6D96EEADFFAD6D97329751F5F5
S1131F3082E090E090935101809350016F962EAD12
S1131F403FAD6F972130310519F02330310519F475
S1131F500E94860A43C56F968EAD9FAD6F978230FF
S1131F60910519F0049709F039C50E94790A36C51C
S1131F7001968C34ADE19A07D9F76D961FAE1EAE6B
S1131F806D9759CC6D96EEADFFAD6D97339709F013
S1131F9052CC85E190E090935101809350016D966D
S1131FA01FAE1EAE6D9747CC0E943D0B6D962EADB5
S1131FB03FAD6D97232B09F0E8C1EDACFEACC70132
S1131FC0A396AEADBFADA3978A1B9B0B21960EAD16
S1131FD01FAD2197889FB001899F700D700D11244A
S1131FE0009FC001019F900D900D1124680F791F6F
S1131FF0882777FD8095982F0E94261B0E94AC1C91
S1132000AA966CAF7DAF8EAF9FAFAA9720E030E069
S113201040EA51E40E94841A88230CF4FFCB66271B
S11320207727601B710B882777FD8095982F0E9476
S1132030261B4B015C01A3966EAD7FADA3976E1971
S11320407F09882777FD8095982F0E94261B90583A
S1132050A50194010E94311A20E030E044E353E4E6
S11320600E943F1C2BED3FE049E450E40E948B1A90
S1132070B62EA72E982E892EAB966FAFAB97AC9643
S11320807FAFAC97AD968FAFAD97AE969FAFAE973F
S113209020E030E044E353E40E94BD19362E272E9D
S11320A068968FAF689769969FAF699720E030E094
S11320B044E353EC0E94841A88230CF092C420E079
S11320C030E044EB53E46896FFAD68976996EFAD52
S11320D06997632D722D8F2F9E2F0E94BE196896CB
S11320E06FAF689769967FAF6997282E392E23962C
S11320F00EAD1FAD2397B801882777FD8095982FE3
S11321000E94261B6B017C019B01AC016B2D7A2D77
S1132110892D982D0E94341C88230CF074C077C03C
S1132120A70196016B2D7A2D892D982D0E94341CC0
S11321308823BCF0A70196016B2D7A2D892D982D4B
S11321400E94BD1968966FAF689769967FAF6997CB
S11321506A968FAF6A976B969FAF6B9700E010E01B
S1132160FCC0A70196016896AFAD68976996FFAD6C
S11321706997632D722D8A2F9F2F0E94341C181685
S11321805CF0A70196016B2D7A2D892D982D0E9464
S1132190841A88230CF0B5C01123F4F4B8016859EB
S11321A07E4F882777FD8095982F0E94261B2B2D24
S11321B03A2D492D582D0E94BD1968966FAF689726
S11321C069967FAF69976A968FAF6A976B969FAF50
S11321D06B9701E010E0C1C02B2D3A2D492D582DED
S11321E0C701B6010E94BD1968966FAF68976996DA
S11321F07FAF69976A968FAF6A976B969FAF6B971D
S113220001E010E0AAC00C34BFEF1B079CF4A70147
S113221096016896BFAD68976996AFAD69976B2FC5
S11322207A2F822D932D0E94841A1816CCF1053B27
S11322301105B4F51123BCF4A70196016B2D7A2D79
S1132240892D982D0E94BD1968966FAF689769967D
S11322507FAF69976A968FAF6A976B969FAF6B97BC
S113226000E010E07AC020E030E044EB53E46B2D52
S11322707A2D892D982D0E94BE19A70196010E94DE
S1132280BD1968966FAF689769967FAF69976A962C
S11322908FAF6A976B969FAF6B9700E010E05DC0BD
S11322A0A70196016B2D7A2D892D982D0E94841AF1
S11322B08823B4F5A70196016896BFAD689769961F
S11322C0AFAD69976B2F7A2F822D932D0E94341C0A
S11322D01816ACF52B2D3A2D492D582DC701B601F2
S11322E00E94BD1968966FAF689769967FAF69972A
S11322F06A968FAF6A976B969FAF6B9701E010E079
S11323002CC000E010E068961FAE689769961FAE77
S113231069976A961FAE6A976B961FAE6B971DC03E
S113232000E010E068961FAE689769961FAE699743
S11323306A961FAE6A976B961FAE6B970EC000E04D
S113234010E068961FAE689769961FAE69976A9603
S11323501FAE6A976B961FAE6B97A8016896FFAD88
S113236068976996EFAD69976A963FAD6A976B96E1
S11323702FAD6B976F2F7E2F832F922F0E94BE0A53
S11323806F961FAF0EAF6F9756CA6D96EEADFFAD49
S11323906D97319709F04FCA6A9A72980E94930A0E
S11323A080E090E001968034FCE99F07D9F785E14D
S11323B090E090935101809350016D961FAE1EAE34
S11323C06D9739CA6D962EAD3FAD6D97232B09F0ED
S11323D045C2EDACFEACC701A396AEADBFADA397AD
S11323E08A1B9B0B21960EAD1FAD2197889FB001D0
S11323F0899F700D700D1124009FC001019F900DE5
S1132400900D1124680F791F882777FD8095982FE8
S11324100E94261B0E94AC1CAA966CAF7DAF8EAFA7
S11324209FAFAA9720E030E040EA51E40E94841A6A
S113243088230CF4FAC966277727601B710B882759
S113244077FD8095982F0E94261B4B015C01A39673
S11324506EAD7FADA3976E197F09882777FD8095B0
S1132460982F0E94261B9058A50194010E94311AAE
S113247020E030E044E353E40E943F1C2BED3FE0B6
S113248049E450E40E948B1AD62EC72E382E292EEA
S1132490AB966FAFAB97AC967FAFAC97AD968FAF63
S11324A0AD97AE969FAFAE9720E030E044E353E49F
S11324B00E94BD1968966FAF689769967FAF699758
S11324C06A968FAF6A976B969FAF6B9720E030E068
S11324D044E353EC0E94841A88230CF0A1C220E048
S11324E030E044EB53E46896BFAD68976996AFADAE
S11324F069976A96FFAD6A976B96EFAD6B976B2FF2
S11325007A2F8F2F9E2F0E94BE1968966FAF6897FF
S113251069967FAF69976A968FAF6A976B969FAFFC
S11325206B972396EEACFFAC2397B701882777FD12
S11325308095982F0E94261B4B015C019B01AC01E6
S11325406D2D7C2D832D922D0E94341C88230CF03C
S113255074C078C0A50194016D2D7C2D832D922D1E
S11325600E94341C8823ACF0A50194016D2D7C2DB0
S1132570832D922D0E94BD1968966FAF6897699656
S11325807FAF69976A968FAF6A976B969FAF6B9789
S1132590DBC0A50194016896EFAD68976996BFAD5D
S11325A069976A96AFAD6A976B96FFAD6B976E2F7E
S11325B07B2F8A2F9F2F0E94341C18165CF0A501D4
S11325C094016D2D7C2D832D922D0E94841A8823D5
S11325D00CF0ECC0FF20E4F4B70168597E4F882763
S11325E077FD8095982F0E94261B2D2D3C2D432D81
S11325F0522D0E94BD1968966FAF689769967FAF98
S113260069976A968FAF6A976B969FAF6B979CC0DA
S11326102D2D3C2D432D522DC501B4010E94BD1911
S113262068966FAF689769967FAF69976A968FAF20
S11326306A976B969FAF6B9787C0BCE4EB16BFEFAE
S1132640FB06D4F4A50194016896FFAD68976996DA
S1132650EFAD69976A96AFAD6A976B96BFAD6B970E
S11326606F2F7E2F8A2F9B2F0E94841A1816B4F185
S1132670E5EBEE16F10494F5FF20ACF4A50194010A
S11326806D2D7C2D832D922D0E94BD1968966FAF00
S1132690689769967FAF69976A968FAF6A976B96CA
S11326A09FAF6B9751C020E030E044EB53E46D2DB5
S11326B07C2D832D922D0E94BE19A50194010E94A8
S11326C0BD1968966FAF689769967FAF69976A96E8
S11326D08FAF6A976B969FAF6B9736C0A501940135
S11326E06D2D7C2D832D922D0E94841A88230CF04D
S11326F06AC0A50194016896EFAD68976996BFAD6D
S113270069976A96AFAD6A976B96FFAD6B976E2F1C
S11327107B2F8A2F9F2F0E94341C18160CF060C048
S11327202D2D3C2D432D522DC501B4010E94BD1900
S113273068966FAF689769967FAF69976A968FAF0F
S11327406A976B969FAF6B9720E030E040E752ECBE
S11327506896BFAD68976996AFAD69976A96FFAD05
S11327606A976B96EFAD6B976B2F7A2F8F2F9E2FF7
S11327700E94341C18160CF04AC020E030E040E7F8
S113278052E46896BFAD68976996AFAD69976A964B
S1132790FFAD6A976B96EFAD6B976B2F7A2F8F2FE8
S11327A09E2F0E94841A88233CF131C068961FAE84
S11327B0689769961FAE69976A961FAE6A976B967B
S11327C01FAE6B9719C068961FAE689769961FAEC7
S11327D069976A961FAE6A976B961FAE6B970CC08B
S11327E068961FAE689769961FAE69976A961FAE82
S11327F06A976B961FAE6B9782E090E090935101BD
S113280080935001A6961FAE1EAEA69714C810164C
S1132810110694F0A6962EAD3FADA697232B11F08A
S11328200C941B0C0E94A00A81E090E0A6969FAF36
S11328308EAFA6970C941B0CA696AEADBFADA69713
S1132840AB2B11F00C941B0C0E94AF0AE1E0F0E0FA
S1132850A696FFAFEEAFA6970C941B0C6D962EAD0B
S11328603FAD6D972130310511F00C941B0C85E1BF
S113287090E09093510180935001A6961FAE1EAE36
S1132880A6976D961FAE1EAE6D970C941B0C80918F
S11328904601833A79F140F4813AC9F000F5803A6F
S11328A011F00C941B0C0BC0863A09F43FC0873A14
S11328B009F44DC0843A11F00C941B0C26C086E137
S11328C090E090935101809350010C941B0C109252
S11328D05101109250016E9A76980C941B0C83B19E
S11328E00E94700A85E190E0909351018093500119
S11328F00C941B0C83B10E94700A85E190E09093C4
S11329005101809350010C941B0C0E94930A80E0A7
S113291090E0019680343CE99307D9F785E190E093
S113292090935101809350010C941B0C0E94930AC4
S113293080E090E001968034ACE99A07D9F785E10C
S113294090E090935101809350010C941B0C83B13F
S11329500E94700A0E94930A80E090E001968034FD
S1132960BCE99B07D9F785E190E0909351018093EE
S113297050010C941B0C0E94700A0E943D0B85E1CF
S113298090E090935101809350010C941B0C6A9A2F
S113299072980E94700A0C941B0C0E94700A0C948A
S11329A01B0CEE24E394F12C0C94680CF20180814E
S11329B0806180830C94650C6E969FAD6E97A4968F
S11329C08FADA497232D322D492F582FC701B6015F
S11329D00E94341C88230CF029CA3BCA80E090E092
S11329E0C7CA23960EAD1FAD2397B801882777FD7C
S11329F08095982F0E94261B6B017C019B01AC01E2
S1132A006896FFAD68976996EFAD6997632D722D4F
S1132A108F2F9E2F0E94841A18160CF081CBA1CB05
S1132A202396EEACFFAC2397B701882777FD8095FA
S1132A30982F0E94261B4B015C019B01AC016896F8
S1132A40FFAD68976996EFAD69976A96AFAD6A97DF
S1132A506B96BFAD6B976F2F7E2F8A2F9B2F0E9493
S1132A60841A18160CF076CD94CD1F920F920FB6DF
S1132A700F9211248F939F9381E090E090935301E0
S1132A80809352019F918F910F900FBE0F901F90D2
S1132A901895589A599A5A9A8CE08093B800E9E6A6
S1132AA0F0E080818062808380818F7E8083EA9AD7
S1132AB0789408951F93CF93DF93182FD62FC42FA4
S1132AC00E94491594EA9093BC00ECEBF0E09081ED
S1132AD09923ECF790E59093BB0094E89093BC00A5
S1132AE0ECEBF0E090819923ECF79091B900987F9A
S1132AF0903229F484E98093BC0080E02DC081E009
S1132B008093BB0084E88093BC00ECEBF0E0908100
S1132B109923ECF71093BB0084E88093BC00ECEBA2
S1132B20F0E080818823ECF7D093BB0084E88093A5
S1132B30BC00ECEBF0E080818823ECF7C093BB0091
S1132B4084E88093BC00ECEBF0E080818823ECF710
S1132B5084E98093BC0081E0DF91CF911F910895B7
S1132B60CF93DF93F89494EA9093BC00ECEBF0E0FD
S1132B7090819923ECF790E59093BB0094E89093AF
S1132B80BC00ECEBF0E090819923ECF79091B90054
S1132B90987F903231F484E98093BC00789480E08B
S1132BA032C093E09093BB0094E89093BC00ECEBAC
S1132BB0F0E090819923ECF78093BB0084E8809344
S1132BC0BC00ECEBF0E080818823ECF7242F30E0AC
S1132BD0121613069CF4A62FB72F80E090E0CBEBDF
S1132BE0D0E0ECEBF0E054E84D9148835083408111
S1132BF04423ECF7019682179307B4F384E9809396
S1132C00BC00789481E0DF91CF9108951F920F92D8
S1132C100FB60F9211248F939F93EF93FF93E1EEDE
S1132C20F0E08081108283FF11C01092E90091E0EE
S1132C309093EB001092EC0092E19093ED0098E0F9
S1132C409093F000109255011092560182FF13C028
S1132C5080915501882379F080915401882359F09B
S1132C60815080935401811106C084E08093E9006F
S1132C708AE38093E800FF91EF919F918F910F90E9
S1132C800FBE0F901F9018951F920F920FB60F92C0
S1132C9011240F931F932F933F934F935F936F933D
S1132CA07F938F939F93AF93BF93CF93DF93EF93D0
S1132CB0FF931092E9008091E80083FF51C1E1EF96
S1132CC0F0E07081408120813081932F80E0DC012D
S1132CD0A22B9D0150816081962F80E0852BA081DD
S1132CE0B08152EF5093E800463009F05CC004C054
S1132CF081E28093EB003BC1C6E047EF50E0FA016C
S1132D00659174912617370719F0495F5F4F20C00A
S1132D10FA013296659174918617970719F0495F05
S1132D205F4F16C0FA01349685919491282F392F5C
S1132D30FA01369644919B2F80E08A2B8F3F9105B0
S1132D4019F010F08FEF90E0841728F4482F03C097
S1132D50C150A9F6CDCFC8EED0E07EEFA1EFB0E030
S1132D6010E18881982F9570E1F382FD00C1642FF2
S1132D70413108F0612F662309F4F6C0C901562FCA
S1132D80FC010196E491EC935150D1F7862F8150C8
S1132D9090E00196280F391F461B78834111E1CF3B
S1132DA06031F9F2E4C0453061F48EEF8093E800BD
S1132DB0E8EEF0E0808180FFFDCF20682093E300FF
S1132DC0D6C04930A1F571115BC020935501109212
S1132DD05601109254018EEF8093E80011E081E2D5
S1132DE091E0C9EED0E0ABEEB0E06CEE70E04DEEF9
S1132DF050E018839C012F5F3F4FFC0104910C931A
S1132E00002359F0F9012491FB012083FC0132963F
S1132E1003962491FA01208301C0C9011F5F153074
S1132E2041F7EAEEF0E08EE180831082A0C04830E2
S1132E3081F4703809F03FC0E8EEF0E0808180FF53
S1132E40FDCF809155018093F1008EEF8093E800CF
S1132E508EC04132A9F4713AF1F5E8EEF0E08081D8
S1132E6080FFFDCFE4E0F1E0A1EFB0E081918C932D
S1132E7041E0EB30F407D1F78EEF8093E80077C0A0
S1132E804032C9F4713209F06BC0E8EEF0E08081A1
S1132E9082FFFDCFE4E0F1E0A1EFB0E08C918193FB
S1132EA051E0EB30F507D1F7E8EEF0E08BEF8083EB
S1132EB08EEF80835CC0423271F4713209F050C0ED
S1132EC020935601E8EEF0E0808180FFFDCF8EEF85
S1132ED08093E8004CC041111AC0E8EEF0E0208174
S1132EE020FFFDCF723851F4E9EEF0E08083809149
S1132EF0EB0085FB882780F9108201C080E0E1EFB8
S1132F00F0E0808310828EEF8093E80030C041307F
S1132F1011F0433029F5723019F5232B09F58F7719
S1132F209927382F31503430D8F43EEF3093E800ED
S1132F308093E900433021F481E28093EB0017C0D1
S1132F4099E19093EB0021E030E0D90102C0AA0F8F
S1132F50BB1F8A95E2F7EAEEF0E0A083108207C077
S1132F6081E28093EB0003C078834111FACEFF9194
S1132F70EF91DF91CF91BF91AF919F918F917F910D
S1132F806F915F914F913F912F911F910F910F90EE
S1132F900FBE0F901F90189520E030E0ECEBF0E0AE
S1132FA08081882334F02F5F3F4F293E83E0380728
S1132FB0B9F781E0283E334009F480E00895809316
S1132FC0BB0084E88093BC000E94CC17882321F0C6
S1132FD08091B900887F089580E00895CF93C82F29
S1132FE094EA9093BC000E94CC17882361F08C2F44
S1132FF0880F8F5F0E94DF17883439F484E9809347
S1133000BC0080E003C080E001C081E0CF9108955E
S1133010CF93C82F94EA9093BC000E94CC178823C6
S113302059F08C2F880F0E94DF17803239F484E91D
S11330308093BC0080E003C080E001C081E0CF91B8
S1133040089584E98093BC000895EF92FF920F9352
S11330501F93CF93DF93CDB7DEB760970FB6F89485
S1133060DEBF0FBECDBFE82EF92EFE01319680E102
S1133070DF011D928A95E9F788E50E9408188823E4
S113308009F466C086E30E94DF17882309F462C04E
S11330900E942118B8E0BA95F1F7000088E50E9473
S11330A0EE17882309F458C0AE014F5F5F4F8E01BD
S11330B0005F1F4FECEBF0E094EC2BEB30E09083DF
S11330C080818823ECF7D9018C91DA018D93AD01CD
S11330D0A017B107A1F784E88093BC00ECEBF0E003
S11330E080818823ECF78091BB00888B0E94211893
S11330F0DE0114966E2D7F2D4C91242F2073CD016B
S11331000297FC01808190E0F0E12F9F800D911DDA
S11331101124FB0191838083842F807C90E0880FAD
S1133120991F880F991F9D0121503109F9012081B0
S1133130820F911DFB01938382834F704483158218
S113314013966A5F7F4F0A171B07B1F681E005C02B
S113315080E003C080E001C080E060960FB6F89480
S1133160DEBF0FBECDBFDF91CF911F910F91FF90B6
S1133170EF9008950E94491588E50E940818882355
S113318009F4C7C080E30E94DF17882309F4C3C091
S113319081E00E94DF17882309F4BFC00E94211830
S11331A083EC99E00197F1F700C0000088E50E94E4
S11331B00818882309F4B3C080E00E94DF1788232D
S11331C009F4AFC080E00E94DF17882309F4ABC084
S11331D080E00E94DF17882309F4A7C080E00E94E2
S11331E0DF17882309F4A3C080E00E94DF17882337
S11331F009F49FC080E00E94DF17882309F49BC074
S113320080E00E94DF17882309F497C080E90E94B8
S1133210DF17882309F493C00E94211883EC99E0F6
S11332200197F1F700C0000088E50E940818882380
S113323009F487C087E00E94DF17882309F483C05C
S113324080E00E94DF17882309F47FC081E40E9494
S1133250DF17882309F47BC00E94211883EC99E0CE
S11332600197F1F700C0000088E50E940818882340
S113327009F46FC08AE10E94DF17882309F46BC048
S113328080E40E94DF17882309F467C080E00E946D
S1133290DF17882309F463C00E94211883EC99E0A6
S11332A00197F1F700C0000088E50E940818882300
S11332B009F457C083E30E94DF17882309F453C03D
S11332C083E00E94DF17882309F44FC00E9421186D
S11332D083EC99E00197F1F700C0000088E50E94B3
S11332E00818882309F443C080E30E94DF17882369
S11332F009F43FC088E00E94DF178823E1F10E94AF
S1133300211883EC99E00197F1F700C0000081E0F7
S1133310089580E0089580E0089580E0089580E0B5
S1133320089580E0089580E0089580E0089580E0A5
S1133330089580E0089580E0089580E0089580E095
S1133340089580E0089580E0089580E0089580E085
S1133350089580E0089580E0089580E0089580E075
S1133360089580E0089580E0089580E0089580E065
S1133370089580E0089580E008955058BB27AA2757
S11333800ED027C2F0D130F0F5D120F031F49F3FB8
S113339011F41EF4C0C10EF4E095E7FBB6C1E92FA9
S11333A03AD280F3BA17620773078407950718F0B7
S11333B071F49EF552C20EF4E0950B2EBA2FA02D97
S11333C00B01B90190010C01CA01A0011124FF27CE
S11333D0591B99F0593F50F4503E68F11A16F040C9
S11333E0A22F232F342F4427585FF3CF46953795C8
S11333F02795A795F0405395C9F77EF41F16BA0B8D
S1133400620B730B840BBAF09150A1F0FF0FBB1F3A
S1133410661F771F881FC2F70EC0BA0F621F731F83
S1133420841F48F4879577956795B795F7959E3FE0
S113343008F0B3CF9395880F08F09927EE0F97956E
S11334408795089590D158F080E891E009F49EEFB3
S113345091D128F040E851E059F45EEF09C05BC116
S1133460FCC1E92FE078D7D168F3092E052AC1F30E
S1133470261737074807590738F00E2E07F8E025B6
S113348069F0E025E0640AC0EF6307F8009407FAE6
S1133490DB01B9019D01DC01CA01AD01EF934AD002
S11334A098D10AD05F91552331F02BED3FE049E4E8
S11334B050FD49EC63CF0895DF93DD27B92FBF7723
S11334C040E85FE31616170648075B0710F4D92F88
S11334D0CFD19F938F937F936F937CD2ECEAF0E0EC
S11334E01DD177D12F913F914F915F91D4D1DD239D
S11334F049F09058A2EA2AED3FE049EC5FE3D07826
S11335005D274DDFDF9165C1DCD008F481E00895CB
S113351039D1E3956FC10CD05CC12CD140F023D1DB
S113352030F021F45F3F19F0F0C0511197C1F3C09E
S113353072D198F39923C9F35523B1F3951B550B15
S1133540BB27AA2762177307840738F09F5F5F4F72
S1133550220F331F441FAA1FA9F333D00E2E3AF0B3
S1133560E0E830D091505040E695001CCAF729D0CD
S1133570FE2F27D0660F771F881FBB1F261737071C
S11335804807AB07B0E809F0BB0B802DBF01FF274C
S113359093585F4F2AF09E3F510568F0B6C05EC154
S11335A05F3FECF3983EDCF3869577956795B79586
S11335B0F7959F5FC9F7880F911D9695879597F9A1
S11335C00895E1E0660F771F881FBB1F621773071A
S11335D08407BA0720F0621B730B840BBA0BEE1F2F
S11335E088F7E095089504D06894B11137C108951F
S11335F01AD188F09F5790F0B92F9927B751A0F0AE
S1133600D1F0660F771F881F991F1AF0BA95C9F772
S113361012C0B13081F021D1B1E008951EC1672FED
S1133620782F8827B85F39F0B93FCCF38695779522
S11336306795B395D9F73EF490958095709561950B
S11336407F4F8F4F9F4F0895E89409C097FB3EF436
S113365090958095709561957F4F8F4F9F4F9923DB
S1133660A9F0F92F96E9BB279395F6958795779559
S11336706795B795F111F8CFFAF4BB0F11F460FF19
S11336801BC06F5F7F4F8F4F9F4F16C0882311F071
S113369096E911C0772321F09EE8872F762F05C085
S11336A0662371F096E8862F70E060E02AF09A9520
S11336B0660F771F881FDAF7880F9695879597F915
S11336C00895990F0008550FAA0BE0E8FEEF1616AF
S11336D01706E807F907C0F012161306E407F50702
S11336E098F0621B730B840B950B39F40A2661F076
S11336F0232B242B252B21F408950A2609F4A14019
S1133700A6958FEF811D811D089597F99F6780E825
S113371070E060E008959FEF80EC0895DF93CF930D
S11337201F930F93FF92EF92DF927B018C016894B9
S113373005C0DA2EEF01AFD0FE01E894A5912591E2
S1133740359145915591AEF3EF0129DEFE019701C4
S1133750A801DA9479F7DF90EF90FF900F911F9111
S1133760CF91DF91089500240A94161617061806BF
S11337700906089500240A94121613061406050671
S11337800895C9CF50D0E8F3E894E0E0BB279F57F1
S1133790F0F02AED3FE049EC06C0EE0FBB0F661FC8
S11337A0771F881F28F0B23A62077307840728F04E
S11337B0B25A620B730B840BE3959A9572F78038B7
S11337C030F49A95BB0F661F771F881FD2F7904875
S11337D006C1092E0394000C11F4882352F0BB0F88
S11337E040F4BF2B11F460FF04C06F5F7F4F8F4F15
S11337F09F4F0895EF93E0FF06C0A2EA2AED3FE051
S113380049EC5FEBCCDDE5DF0F90039401FC9058AD
S1133810E9EDF0E0F7C057FD9058440F551F59F0FB
S11338205F3F71F04795880F97FB991F61F09F3FA9
S113383079F087950895121613061406551FF2CFD2
S11338404695F1DF08C0161617061806991FF1CF22
S113385086957105610508940895E894BB27662749
S11338607727CB0197F908952CDF08F48FEF08959B
S11338709B01AC0160E070E080E89FE34CCE0BD08C
S1133880A8CF71DF28F076DF18F0952309F03DCF3B
S113389042CF1124E3CFBFDFA0F3959FD1F3950F5F
S11338A050E0551F629FF001729FBB27F00DB11DC0
S11338B0639FAA27F00DB11DAA1F649F6627B00D50
S11338C0A11D661F829F2227B00DA11D621F739F39
S11338D0B00DA11D621F839FA00D611D221F749F47
S11338E03327A00D611D231F849F600D211D822F8E
S11338F0762F6A2F11249F5750408AF0E1F08823D5
S11339004AF0EE0FFF1FBB1F661F771F881F9150E1
S11339105040A9F79E3F510570F0F7CE9FCF5F3F0F
S1133920ECF3983EDCF3869577956795B795F79514
S1133930E7959F5FC1F7FE2B880F911D969587959C
S113394097F908959F931EDF0F9007FCEE5F52CF07
S113395011F40EF4E0CE41C066DFD0F39923D9F31D
S1133960CEF39F57550B87FF46D00024A0E640EACC
S1133970900180585695979528F4805C660F771FC0
S1133980881F20F026173707480730F4621B730B93
S1133990840B202931294A2BA695179407942025B6
S11339A031254A2758F7660F771F881F20F02617FE
S11339B03707480730F4620B730B840B200D311D5D
S11339C0411DA09581F7B901842F9158880F9695D0
S11339D0879508959B01AC0152CF9F3F31F09150E0
S11339E020F4879577956795B795880F911D9695DF
S11339F0879597F9089591505040660F771F881F57
S1133A00D2F708959F938F937F936F93FF93EF93D0
S1133A109B01AC0134DFEF91FF9180DE2F913F9148
S1133A204F915F912CCF97FB072E16F4009407D08B
S1133A3077FD09D00E94271D07FC05D03EF4909520
S1133A4081959F4F0895709561957F4F0895AA1BA6
S1133A50BB1B51E107C0AA1FBB1FA617B70710F075
S1133A60A61BB70B881F991F5A95A9F780959095A7
S10D3A70BC01CD010895F894FFCFC6
S10F3A7A7001C00100E100000000080021
S9030000FC
