S0160000776972656C6573735F636F6D6D732E7372656322
S11300000C947C000C9499000C9499000C94990025
S11300100C9499000C9499000C9499000C949900F8
S11300200C9499000C9499000C9499000C949900E8
S11300300C9499000C9499000C9499000C949900D8
S11300400C9499000C9499000C9499000C949900C8
S11300500C9499000C9499000C9499000C949900B8
S11300600C9499000C9499000C9499000C949900A8
S11300700C9499000C9499000C9499000C94990098
S11300800C9499000C9499000C9499000C94990088
S11300900C9499000C9499000C9499000C94990078
S11300A00C9499000C948F130C949900084AD73B34
S11300B03BCE016E84BCBFFDC12F3D6C74319ABD33
S11300C056833DDA3D00C77F11BED9E4BB4C3E9157
S11300D06BAAAABE000000803F05A84CCDB2D44E46
S11300E0B93836A9020C50B9918688083CA6AAAA48
S11300F02ABE000000803F0011241FBECFEFDAE0CB
S1130100DEBFCDBF11E0A0E0B1E0E2EAF3E302C05C
S113011005900D92A430B107D9F721E0A4E0B1E035
S113012001C01D92A837B207E1F70E94D50A0C94CA
S1130130CF190C9400002F923F924F925F926F92CE
S11301407F928F929F92AF92BF92CF92DF92EF9263
S1130150FF920F931F93CF93DF93CDB7DEB728970A
S11301600FB6F894DEBF0FBECDBF98868F82109273
S11301700501109204018F3FE3E09E0701F16F3FF8
S1130180F3E07F07E1F04F3FE3E05E07C1F02F3F6C
S1130190F3E03F07A1F00F3FE3E01E0781F0FFEF1C
S11301A0EF16F3E0FF0659F0EFEFCE16E3E0DE06BC
S11301B031F0FFEFAF16F3E0BF0609F0B0C681E0FF
S11301C090E09093050180930401D1C3F801A080CD
S11301D0B180C280D3800C5F1F4F262D372D482D50
S11301E0592D6A2D7B2D8C2D9D2D0E94C818181613
S11301F034F4FA82E9826A2C7B2C8C2C9D2C222DDF
S1130200332D442D552D6A2D7B2D8C2D9D2D0E9433
S11302101817882334F4FE82ED822A2C3B2C4C2CB4
S11302205D2CFFEFEF1AFF0A86E0E816F10471F681
S1130230E981FA81E230F10509F43EC134F43097E2
S113024081F0319709F08DC3A2C089819A818430ED
S1130250910509F45BC20CF4C4C1059709F081C38C
S1130260EAC2ED81FE81E230F10539F124F43197DF
S113027009F06EC009C08D819E8183309105B1F172
S1130280049709F065C04BC08AE391E090936B0139
S113029080936A0182E391E090935101809350012D
S11302A086E391E090935301809352018EE291E0B2
S11302B0909365018093640154C38AE391E0909321
S11302C06B0180936A018EE291E0909351018093D7
S11302D0500186E391E0909353018093520182E3AD
S11302E091E090936501809364013BC386E391E0C0
S11302F090936B0180936A0182E391E090935101A2
S1130300809350018AE391E09093530180935201CA
S11303108EE291E0909365018093640122C386E3A9
S113032091E090936B0180936A018EE291E0909347
S11303305101809350018AE391E09093530180939B
S1130340520182E391E0909365018093640109C3B3
S11303508AE391E090936B0180936A0186E391E0D4
S1130360909351018093500182E391E09093530163
S1130370809352018EE291E0909365018093640131
S113038081E090E09093050180930401F0C2ED8137
S1130390FE81E230F10531F11CF4EF2B51F06DC018
S11303A08D819E8183309105B1F1059709F065C077
S11303B04BC08AE391E090936B0180936A0186E3DA
S11303C091E0909351018093500182E391E09093E6
S11303D05301809352018EE291E0909365018093E2
S11303E06401BFC28AE391E090936B0180936A0138
S11303F08EE291E0909351018093500182E391E069
S1130400909353018093520186E391E090936501A8
S113041080936401A6C282E391E090936B01809380
S11304206A0186E391E090935101809350018AE33D
S113043091E090935301809352018EE291E0909366
S11304406501809364018DC282E391E090936B0116
S113045080936A018EE291E0909351018093500160
S11304608AE391E0909353018093520186E391E0F3
S1130470909365018093640174C28AE391E0909340
S11304806B0180936A0186E391E09093510180931C
S1130490500182E391E090935301809352018EE2E4
S11304A091E0909365018093640181E090E09093E2
S11304B00501809304015BC2ED81FE81E130F10509
S11304C031F11CF4EF2B51F06DC08D819E8184308D
S11304D09105B1F1059709F065C04BC08AE391E03D
S11304E090936B0180936A0186E391E090935101AC
S11304F0809350018EE291E09093530180935201D6
S113050082E391E090936501809364012AC28AE3B7
S113051091E090936B0180936A0182E391E0909360
S11305205101809350018EE291E0909353018093A6
S1130530520186E391E0909365018093640111C2B6
S11305408EE291E090936B0180936A0186E391E0DF
S113055090935101809350018AE391E09093530169
S11305608093520182E391E090936501809364014A
S1130570F8C18EE291E090936B0180936A0182E36B
S113058091E090935101809350018AE391E090931C
S113059053018093520186E391E090936501809327
S11305A06401DFC18AE391E090936B0180936A0157
S11305B086E391E0909351018093500182E391E0AE
S11305C090935301809352018EE291E090936501E0
S11305D08093640181E090E090930501809304018D
S11305E0C6C1ED81FE81E130F10531F11CF4EF2B40
S11305F051F06DC08D819E8184309105B1F10597D4
S113060009F065C04BC086E391E090936B01809341
S11306106A018AE391E0909351018093500182E34F
S113062091E090935301809352018EE291E0909374
S113063065018093640195C182E391E090936B011D
S113064080936A018AE391E0909351018093500171
S113065086E391E090935301809352018EE291E0FE
S113066090936501809364017CC186E391E090934B
S11306706B0180936A018EE291E090935101809323
S1130680500182E391E090935301809352018AE3F5
S113069091E0909365018093640163C182E391E0EA
S11306A090936B0180936A018EE291E090935101E3
S11306B08093500186E391E090935301809352011B
S11306C08AE391E090936501809364014AC18AE3CF
S11306D091E090936B0180936A0186E391E090939B
S11306E051018093500182E391E0909353018093F0
S11306F052018EE291E0909365018093640181E060
S113070090E0909305018093040131C1ED81FE8155
S1130710E230F10531F11CF4EF2B51F06DC08D8105
S11307209E8183309105B1F1059709F065C04BC0F6
S113073086E391E090936B0180936A018AE391E0F0
S113074090935101809350018EE291E09093530174
S11307508093520182E391E0909365018093640158
S113076000C18EE291E090936B0180936A018AE369
S113077091E0909351018093500186E391E090932E
S113078053018093520182E391E090936501809339
S11307906401E7C086E391E090936B0180936A0162
S11307A082E391E090935101809350018EE291E0B5
S11307B090935301809352018AE391E090936501F1
S11307C080936401CEC08EE291E090936B0180939C
S11307D06A0182E391E0909351018093500186E392
S11307E091E090935301809352018AE391E09093B6
S11307F0650180936401B5C08AE391E090936B0135
S113080080936A0186E391E09093510180935001B3
S113081082E391E090935301809352018EE291E040
S1130820909365018093640181E090E090930501C9
S1130830809304019CC0ED81FE81E230F10539F121
S113084024F4319709F06EC009C08D819E818330F4
S11308509105B1F1049709F065C04BC082E391E0C2
S113086090936B0180936A018AE391E09093510124
S1130870809350018EE291E0909353018093520152
S113088086E391E090936501809364016AC08EE2EF
S113089091E090936B0180936A018AE391E09093D5
S11308A051018093500182E391E09093530180932E
S11308B0520186E391E0909365018093640151C0F5
S11308C082E391E090936B0180936A0186E391E067
S11308D090935101809350018EE291E090935301E3
S11308E0809352018AE391E09093650180936401BF
S11308F038C08EE291E090936B0180936A0186E3A5
S113090091E0909351018093500182E391E09093A0
S11309105301809352018AE391E09093650180939F
S113092064011FC08AE391E090936B0180936A0194
S113093086E391E0909351018093500182E391E02A
S113094090935301809352018EE291E0909365015C
S11309508093640181E090E0909305018093040109
S113096006C08091040190910501892BD1F08091FA
S1130970140190911501EF8DF8A1918380838091EA
S1130980120190911301EF81F88591838083809106
S1130990100190911101ED8DFE8D9183808380E093
S11309A0EAC3262D372D482D592D60E070E088EEDE
S11309B091E40E941F17262E372E482E592EE090C0
S11309C06A01F0906B010F2EFCE58F2EF1E09F2E53
S11309D0F02DF70160817181882777FD8095982F2C
S11309E00E94BA17222D332D442D552D0E94D31861
S11309F00E948717F401718360830F2EFEE56F2E2A
S1130A00F1E07F2EF02DF70162817381882777FD55
S1130A108095982F0E94BA17222D332D442D552DE1
S1130A200E94D3180E948717F30171836083009199
S1130A305201109153010F2EFCE4AF2EF1E0BF2EB2
S1130A40F02DF80160817181882777FD8095982FBA
S1130A500E94BA17222D332D442D552D0E94D318F0
S1130A600E948717F501718360830F2EFEE4CF2E59
S1130A70F1E0DF2EF02DF80162817381882777FD84
S1130A808095982F0E94BA17222D332D442D552D71
S1130A900E94D3180E948717F60171836083F701BF
S1130AA060817181F80180819181680F791F8827A5
S1130AB077FD8095982F0E94BA1720E030E040E03F
S1130AC05FE30E94D3180E948717E9A1FAA17183FA
S1130AD06083A0916A01B0916B01E0915201F091A1
S1130AE0530112966D917C91139782819381680FC3
S1130AF0791F882777FD8095982F0E94BA1720E0E8
S1130B0030E040E05FE30E94D3180E948717EBA116
S1130B10FCA171836083F40160817181F50180819E
S1130B209181680F791F882777FD8095982F0E94FF
S1130B30BA1720E030E040E05FE30E94D3180E943F
S1130B4087171B017093710160937001F301608139
S1130B507181F60180819181680F791F882777FD63
S1130B608095982F0E94BA1720E030E040E05FE3C0
S1130B700E94D3180E9487178B01709373016093AE
S1130B807201229CB001239C700D700D1124009FF2
S1130B90C001019F900D900D1124680F791F8827C3
S1130BA077FD8095982F0E94BA170E9440192B0157
S1130BB03C016093540170935501809356019093C6
S1130BC0570180915201909153019A838983E09156
S1130BD06A01F0916B01FE83ED83FC0160817181F8
S1130BE0ED81FE8180819181681B790B882777FDD7
S1130BF08095982F0E94BA176B017C01E981FA81D4
S1130C0062817381ED81FE8182819381681B790BFE
S1130C10882777FD8095982F0E94BA17A70196011F
S1130C200E94C5164B015C016093600170936101E1
S1130C308093620190936301ED81FE8160817181F3
S1130C40E981FA8180819181681B790B882777FD7E
S1130C508095982F0E94BA176B017C01ED81FE816B
S1130C6062817381E981FA8182819381681B790BA6
S1130C70882777FD8095982F0E94BA17A7019601BF
S1130C800E94C5166B017C01609358017093590151
S1130C9080935A0190935B01B801882777FD809572
S1130CA0982F0E94BA1769837A838B839C83B1013E
S1130CB0882777FD8095982F0E94BA1729813A8159
S1130CC04B815C810E94C5169B01AC01DC01CB0108
S1130CD0B0588093740190937501A0937601B093FA
S1130CE0770177FA709477F87094C501B4010E9483
S1130CF05216862E972EA82EB92E0E941C179B01E1
S1130D00AC01C301B2010E94D31820E030E040E2FC
S1130D1051E40E9451160E9487178B0170930D01B4
S1130D2060930C01682D792D8A2D9B2D0E94361914
S1130D309B01AC01C301B2010E94D31820E030E052
S1130D4040EA50E40E9452160E94871770930B01E8
S1130D5060930A0120E030E044E353E4C701B601A4
S1130D600E94D3182BED3FE049E450E40E941F1782
S1130D700E94871770930F0160930E01C0900601C3
S1130D80D0900701E0900801F090090160911201F0
S1130D9070911301882777FD8095982F0E94BA17C8
S1130DA0A70196010E94D3184B015C01A70196018B
S1130DB060E070E080E89FE30E9451166B017C01C3
S1130DC0B801882777FD8095982F0E94BA179B0158
S1130DD0AC01C701B6010E94D3189B01AC01C50147
S1130DE0B4010E9452160E948717EF81F88571831F
S1130DF06083C0900601D0900701E0900801F09054
S1130E0009016091100170911101882777FD809587
S1130E10982F0E94BA17A70196010E94D3184B017C
S1130E205C01A701960160E070E080E89FE30E9406
S1130E3051166B017C0160910A0170910B018827A6
S1130E4077FD8095982F0E94BA179B01AC01C701CA
S1130E50B6010E94D3189B01AC01C501B4010E94E4
S1130E6052160E948717ED8DFE8D71836083C090AA
S1130E700601D0900701E0900801F090090160910B
S1130E80140170911501882777FD8095982F0E9491
S1130E90BA17A70196010E94D3184B015C01A70160
S1130EA0960160E070E080E89FE30E9451166B01B8
S1130EB07C0160910E0170910F01882777FD809568
S1130EC0982F0E94BA179B01AC01C701B6010E947A
S1130ED0D3189B01AC01C501B4010E9452160E94B3
S1130EE08717EF8DF8A171836083EF81F885808186
S1130EF091819093130180931201ED8DFE8D808179
S1130F0091819093110180931001EF8DF8A180815C
S1130F109181909315018093140181E02CC1E0919B
S1130F200201F09103014C018E1A9F0A90923B0139
S1130F3080923A018091000190910101081B190BE4
S1130F4010933D0100933C013B016E1A7F0A70929D
S1130F50370160923601E81AF90AF0923901E092F9
S1130F6038012A014E1A5F0A50923301409232012D
S1130F701601281A390A3092350120923401690188
S1130F80CE1ADF0AD0922F01C0922E01A81AB90AF4
S1130F90B0923101A0923001930128193909C70197
S1130FA0801B910B229FB001239F700D700D1124A3
S1130FB0889F9001899F300D300D1124620F731F9B
S1130FC0882777FD8095982F0E94BA170E944019B0
S1130FD0609316017093170180931801909319017F
S1130FE0920128193909C101801B910B229FB0017C
S1130FF0239F700D700D1124889F9001899F300DDF
S1131000300D1124620F731F882777FD8095982F68
S11310100E94BA170E94401960931A0170931B0131
S113102080931C0190931D01960128193909C5016B
S1131030801B910B229FB001239F700D700D112412
S1131040889F9001899F300D300D1124620F731F0A
S1131050882777FD8095982F0E94BA170E9440191F
S113106060931E0170931F018093200190932101CE
S1131070920126193709C1018E199F09229FB001D7
S1131080239F700D700D1124889F9001899F300D4E
S1131090300D1124620F731F882777FD8095982FD8
S11310A00E94BA170E944019609322017093230191
S11310B08093240190932501960126193709C501CF
S11310C08E199F09229FB001239F700D700D11246A
S11310D0889F9001899F300D300D1124620F731F7A
S11310E0882777FD8095982F0E94BA170E9440198F
S11310F0609326017093270180932801909329011E
S1131100C418D508A218B308CC9CB001CD9C700DAE
S1131110700D1124AA9CC001AB9C900D900D11245C
S1131120680F791F882777FD8095982F0E94BA173A
S11311300E94401960932A0170932B0180932C0123
S113114090932D0106E111E0E12CF12C1E821D8209
S11311501A821982212C6894332436F80F2EFCE16C
S11311604F2EF02D0F2EF6E45F2EF02D612C712CF6
S1131170812C912C2BC828960FB6F894DEBF0FBE95
S1131180CDBFDF91CF911F910F91FF90EF90DF9032
S1131190CF90BF90AF909F908F907F906F905F9013
S11311A04F903F902F900895269A279A88E893E1CC
S11311B0909389008093880010928B0010928A008B
S11311C010928D0010928C00A1E8B0E08C918061A7
S11311D08C938C9188608C93E0E8F0E0808182604D
S11311E0808380818160808380818062808380812C
S11311F08F7E808380818860808380818B7F8083E1
S11312008C918B7F8C938C918D7F8C938C9181604E
S11312108C93089583EC8093D100E3ECF0E080811B
S11312208D7F808380818E7F8083E2E7F0E0808100
S113123084608083E1ECF0E0808188608083808139
S11312408460808380818D7F8083808181608083BE
S11312500895ECE7F0E080818F778083808180645B
S11312608083AAE7B0E08C9184608C938C91826037
S11312708C938C9181608C93EEE7F0E080818160A7
S1131280808380818260808380818061808380818B
S11312908062808380818064808380818068808391
S11312A0EDE7F0E0808181608083808182608083CB
S11312B08C9180628C930895EAE7F0E020812F7787
S11312C020838330910509F449C03CF481309105B1
S11312D019F19CF5892B79F095C08530910509F4B5
S11312E05FC00CF44CC08630910509F46AC00797BE
S11312F009F088C077C0EBE7F0E080818F7D8083C0
S1131300ECE7F0E080818B7F808380818D7F808318
S113131080818E7F808376C0EBE7F0E080818F7DD3
S11313208083ECE7F0E080818B7F808380818D7FF8
S1131330808380818160808365C0EBE7F0E08081F9
S11313408F7D8083ECE7F0E08081846080838081FE
S11313508D7F808380818E7F808354C0EBE7F0E0B3
S113136080818F7D8083ECE7F0E0808184608083DE
S113137080818D7F808380818160808343C0EBE79F
S1131380F0E080818F7D8083ECE7F0E080818460F1
S1131390808380818260808380818E7F808332C05D
S11313A0EBE7F0E080818F7D8083ECE7F0E08081E3
S11313B08460808380818260808380818160808377
S11313C021C0EBE7F0E0808180628083ECE7F0E00D
S11313D080818B7F808380818D7F808380818E7FDD
S11313E0808310C0EBE7F0E0808180628083ECE7CB
S11313F0F0E080818B7F808380818D7F80838081FA
S113140081608083EAE7F0E0808180688083808166
S1131410806480838081806180830895239A539AB5
S11314202B9A5B9A22982A9A559A5D98089510925D
S11314308B0010928A0010928D0010928C000895F7
S11314402B985B9A80E19EE090938B0080938A00B6
S113145090938D0080938C0008952B9A5B9880E183
S11314609EE090938B0080938A0090938D008093EC
S11314708C0008952B9A5B9A80E19EE090938B00F8
S113148080938A0090938D0080938C0008952B980C
S11314905B9880E19EE090938B0080938A00909308
S11314A08D0080938C000895CF92DF92EF92FF928B
S11314B06B017C0141305105C1F580E19EE09093C0
S11314C08B0080938A0020E030E04CED52E4C701A9
S11314D0B6010E94C81818163CF48EE591E090936A
S11314E08D0080938C0058C0A701960160E070E0E5
S11314F08CED92E40E94511620E030E04CED52E471
S11315000E941F1720E030E24BE455E40E94D318F8
S113151020E030E04FEA53E40E9452160E948C17F8
S113152070938D0060938C0037C080E19EE09093AF
S11315308D0080938C0020E030E04CED52E4C70134
S1131540B6010E94C81818163CF48BE691E09093FB
S11315508B0080938A0020C0A701960160E070E0B0
S11315608CED92E40E94511620E030E04CED52E400
S11315700E941F1720E030E54AE455E40E94D31886
S113158020E030E845EB53E40E9452160E948C1789
S113159070938B0060938A002B985B98FF90EF9078
S11315A0DF90CF900895769A0895CF93DF93CDB7C7
S11315B0DEB7CE57D1090FB6F894DEBF0FBECDBF4C
S11315C01A8219821C821B82FE01359689E2DF0190
S11315D01D928A95E9F728961FAE1EAE28972A9683
S11315E01FAE1EAE2A972C961FAE1EAE2C97E1E6B8
S11315F0F0E080E8808310826A9A729A6E9A769AF2
S11316006E9A76980E94A3130E940E0A0E94D40830
S11316100E940A090E9429090E944E158823E1F3B9
S1131620BFE3EDE0F3E0B150E040F040E1F700C08B
S113163000006E9A769A49E269E481E00E94B4134C
S11316407894A2961FAE1EAEA297A6961FAE1EAEAB
S1131650A697A9961FAEA997AA961FAEAA97AB966E
S11316601FAEAB97AC961FAEAC97EB961CAE1DAEFF
S11316701EAE1FAEEB97E3961FAEE397E4961FAE44
S1131680E497E5961FAEE597E6961FAEE697EC96CF
S11316901FAEEC97ED961FAEED97EE961FAEEE974C
S11316A0EF961FAEEF97E0961CAE1DAE1EAE1FAEBA
S11316B0E097A8961FAE1EAEA89766961FAE1EAE04
S11316C0669768961FAE1EAE68976A961FAE1EAEEA
S11316D06A976C961FAE1EAE6C976E961FAE1EAECA
S11316E06E97A0961FAE1EAEA097E2961FAE1EAEDA
S11316F0E297A4961FAE1EAEA4979E012D5F3F4FA6
S11317002E963FAF2EAF2E97CE01019660969FAFD7
S11317108EAF6097DE01A65BBF4F6296BFAFAEAFE0
S11317206297FE01E85BFF4F6496FFAFEEAF6497EC
S11317300F2EFAE74F2E512CF02D0F2EF8E76F2EB7
S1131740712CF02D2DC022E030E0A4963FAF2EAFD7
S1131750A49726C0A2961FAE1EAEA29721C0A29641
S11317601FAE1EAEA2971CC0A2961FAE1EAEA297BD
S113177017C083E090E0A4969FAF8EAFA49710C0EB
S1131780A4961FAE1EAEA4970BC0A4961FAE1EAEA9
S1131790A49706C0A1E0B0E0A496BFAFAEAFA497F3
S11317A0F894CE018E960E94B9147894882309F493
S11317B07CC72496AEACBFAC2497CCACDDACEEA811
S11317C0FFA808A919A922962EAD3FAD22974AADCC
S11317D05BAD6CA97DA92E96BFAD2E97BF932D96B8
S11317E0EFAD2D97EF936096FFAD6097FF932F9623
S11317F08FAD2F978F9362969FAD62979F9361965B
S1131800AFAD6197AF936496BFAD6497BF93639692
S1131810EFAD6397EF930F2EF6E48F2E912CF02DFE
S11318208C0E9D1E8EA59FA50E949B000FB6F8945A
S1131830DEBF0FBECDBF39C73FEFE31AF30A8701FE
S113184001501109C8010E945C09D2018C9184FFE6
S1131850FCCF0330110561F13CF401301105B1F006
S1131860F4F4012B51F070C00530110599F14CF1DD
S11318700630110509F068C036C0F3010190F0810B
S1131880E02DA096FFAFEEAFA09713C7D3010D9044
S1131890BC91A02D6E96BFAFAEAF6E970AC7F30191
S11318A00190F081E02D6C96FFAFEEAF6C9701C70D
S11318B0D3010D90BC91A02D6A96BFAFAEAF6A97CD
S11318C0F8C6F3010190F081E02D6896FFAFEEAF0A
S11318D06897EFC6D3010D90BC91A02D6696BFAF5B
S11318E0AEAF6697E6C6F3010190F081E02DA896AD
S11318F0FFAFEEAFA897D2018C9180618C9365966F
S11319000FAD659766961FAD66976796EFAC6797C0
S11319106896FFAC68976996CFAC69976A96DFAC16
S11319206A976B96AFAC6B976C96BFAC6C976D96E1
S11319308FAC6D976E969FAC6E976F962FAC6F972A
S1131940A0963FACA0972DC0F20180818061808376
S1131950F7E0EF16F1040CF46FCF65960FAD6597C1
S113196066961FAD66976796EFAC67976896FFAC6F
S113197068976996CFAC69976A96DFAC6A976B965D
S1131980AFAC6B976C96BFAC6C976D968FAC6D9744
S11319906E969FAC6E976F962FAC6F97A0963FACE8
S11319A0A09780914A0190914B01019709F0FFC0E3
S11319B081E08D83809148018E8327968FAD279790
S11319C08F8329968FAD2997888760E870E02C96DD
S11319D08EAD9FAD2C970E94A71969878A87A3961D
S11319E02FADA3972B87E0966CAD7DAD8EAD9FADEB
S11319F0E0970E948717DC01CB0160E870E00E9449
S1131A00A7196C878D87EC965FADEC97ED964FAD7B
S1131A10ED97EE963FADEE97EF962FADEF97652FCE
S1131A20742F832F922F0E948717DC01CB0160E86B
S1131A3070E00E94A7196E878F87E3965FADE397E6
S1131A40E4964FADE497E5963FADE597E6962FAD66
S1131A50E697652F742F832F922F0E948717DC013E
S1131A60CB0160E870E00E94A719688B898BEB9624
S1131A706CAD7DAD8EAD9FADEB970E948717DC01F9
S1131A80CB0160E870E00E94A7196A8B8B8B60E839
S1131A9070E089819A810E94A7196C8B8D8B60E814
S1131AA070E08B819C810E94A7196E8B8F8BA1960D
S1131AB03FADA197388FA9965FADA997AA964FAD70
S1131AC0AA97AB963FADAB97AC962FADAC97652F6D
S1131AD0742F832F922F0E948717DC01CB0160E8BB
S1131AE070E00E94A719698F8A8F80918A00909173
S1131AF08B0060E870E00E94A7196B8F8C8F809137
S1131B008C0090918D0060E870E00E94A7196D8FA1
S1131B108E8FA5968FADA5978F8F60E870E0822D8C
S1131B20932D0E94A71968A389A360E870E0882D0B
S1131B30992D0E94A7196AA38BA360E870E08A2DEF
S1131B409B2D0E94A7196CA38DA360E870E08C2DD7
S1131B509D2D0E94A7196EA38FA360E870E08E2DBF
S1131B609F2D0E94A71968A789A760E870E0802FBD
S1131B70912F0E94A7196AA78BA760E870E0A89626
S1131B808EAD9FADA8970E94A7196CA78DA749E2B7
S1131B90BE016B5F7F4F80E60E940A146E9A9EB16D
S1131BA080E489278EB910924B0110924A018091EA
S1131BB04801909149018230910509F481C234F4BD
S1131BC0009781F0019709F06DC526C08631910513
S1131BD009F458C58336910509F4EAC4459709F018
S1131BE061C55BC51A9B07C0ADE8BFEFE296BFAF06
S1131BF0AEAFE29706C0E3E7F0E0E296FFAFEEAFE8
S1131C00E29782E090E09093490180934801A49682
S1131C101FAE1EAEA497C4CDA4962EAD3FADA4971F
S1131C20232B09F05FC028968EAD9FAD2897E296CE
S1131C306EAD7FADE297681B790B882777FD8095A1
S1131C40982F0E94BA17462F572F682F792FE096A6
S1131C504CAF5DAF6EAF7FAFE0972A966EAD7FADB0
S1131C602A97719561957109882777FD8095982F3A
S1131C700E94BA17262F372F482F592FEC966FAF93
S1131C80EC97ED967FAFED97EE968FAFEE97EF96CC
S1131C909FAFEF97E0966CAD7DAD8EAD9FADE097B5
S1131CA090580E94C51620E030E044E353E40E94BB
S1131CB0D3182BED3FE049E450E40E941F17E3964C
S1131CC06FAFE397E4967FAFE497E5968FAFE59720
S1131CD0E6969FAFE69781E090E0A4969FAF8EAF23
S1131CE0A4975ECDA496AEADBFADA497119709F0AD
S1131CF048C128968EAD9FAD2897E2966EAD7FAD14
S1131D00E297681B790B882777FD8095982F0E94AE
S1131D10BA17462F572F682F792FE0964CAF5DAF37
S1131D206EAF7FAFE0972A966EAD7FAD2A9771951F
S1131D3061957109882777FD8095982F0E94BA17BD
S1131D40262F372F482F592FEC966FAFEC97ED962F
S1131D507FAFED97EE968FAFEE97EF969FAFEF972D
S1131D60E0966CAD7DAD8EAD9FADE09790580E942E
S1131D70C51620E030E044E353E40E94D3182BED71
S1131D803FE049E450E40E941F17B62EA72E982E78
S1131D90892EE3966FAFE397E4967FAFE497E596D9
S1131DA08FAFE597E6969FAFE6972C960EAD1FADE5
S1131DB02C97B801882777FD8095982F0E94BA1731
S1131DC06B017C0120E030E040EE50E46B2D7A2D75
S1131DD0892D982D0E9451169B01AC01C701B601B3
S1131DE00E94C81888239CF020E030E040EE50E4C4
S1131DF06B2D7A2D892D982D0E9452169B01AC01D2
S1131E00C701B6010E94181718160CF09CCC20E0EC
S1131E1030E044E353E46B2D7A2D892D982D0E94F4
S1131E205116362E272EA1968FAFA197E7969FAF16
S1131E30E79720E030E044E353EC0E94181788232E
S1131E400CF03CC420E030E044EB53E4A196AFAD89
S1131E50A197E796FFADE797632D722D8A2F9F2FE9
S1131E600E945216A1966FAFA197E7967FAFE797AE
S1131E70282E392EA70196016B2D7A2D892D982DA8
S1131E800E94C8188823C4F53BC0A70196016B2D96
S1131E907A2D892D982D0E94C81888234CF00E9411
S1131EA0200AE1E0F0E0A296FFAFEEAFA29778CC73
S1131EB0A1969FADA197E7968FADE797232D322D7D
S1131EC0492F582FC701B6010E94181788235CF0C8
S1131ED0A70196016B2D7A2D892D982D0E94181734
S1131EE088230CF037CC0E942D0A22E030E0A29621
S1131EF03FAF2EAFA29754CC0C343FEF13079CF4A2
S1131F00A1967FADA197E7966FADE797272F362F60
S1131F10422D532DC701B6010E94C818882364F0CE
S1131F20053B11054CF40E94200A83E090E0A29640
S1131F309FAF8EAFA29734CCA70196016B2D7A2D5B
S1131F40892D982D0E94181788230CF008CCA1968F
S1131F507FADA197E7966FADE797272F362F422DD8
S1131F60532DC701B6010E94181788230CF0FCCB2F
S1131F700E942D0AA4E0B0E0A296BFAFAEAFA29734
S1131F800FCCA496EEADFFADA497329709F086C0AE
S1131F9028962EAD3FAD2897E2968EAD9FADE29781
S1131FA0281B390B2A968EAD9FAD2A97229FB0012C
S1131FB0239F700D700D1124889F9001899F300D0F
S1131FC0300D1124620F731F882777FD8095982F99
S1131FD00E94BA170E944019EB966CAF7DAF8EAF8A
S1131FE09FAFEB9720E030E040EA51E40E941817DD
S1131FF088230CF4BECB2C966EAD7FAD2C9788272E
S113200077FD8095982F0E94BA176B017C0120E020
S113201030E040EE50E4E396BFADE397E496AFAD15
S1132020E497E596FFADE597E696EFADE6976B2F5F
S11320307A2F8F2F9E2F0E9451169B01AC01C7014E
S1132040B6010E94181788230CF49ACB20E030E0E4
S113205040EE50E4E396FFADE397E496EFADE497EA
S1132060E596BFADE597E696AFADE6976F2F7E2F69
S11320708B2F9A2F0E9452169B01AC01C701B60107
S11320800E94C81818160CF480CB0E94470AA5E0D9
S1132090B0E0A296BFAFAEAFA29782CBA496EEAD4E
S11320A0FFADA497339709F07BCB85E190E0909343
S11320B0490180934801A4961FAE1EAEA49770CB2D
S11320C06A9A7298A4962EAD3FADA497232B09F07B
S11320D051C22896EEACFFAC2897C701E296AEAD8C
S11320E0BFADE2978A1B9B0B2A960EAD1FAD2A97B4
S11320F0889FB001899F700D700D1124009FC0014D
S1132100019F900D900D1124680F791F882777FD8A
S11321108095982F0E94BA170E944019EB966CAFD5
S11321207DAF8EAF9FAFEB9720E030E040EA51E403
S11321300E94181788230CF42DCBE2966EAD7FAD68
S1132140E2976E197F09882777FD8095982F0E9462
S1132150BA17462F572F682F792FE0964CAF5DAFF3
S11321606EAF7FAFE09766277727601B710B8827D8
S113217077FD8095982F0E94BA17262F372F482F66
S1132180592FEC966FAFEC97ED967FAFED97EE96E7
S11321908FAFEE97EF969FAFEF97E0966CAD7DAD66
S11321A08EAD9FADE09790580E94C51620E030E0B8
S11321B044E353E40E94D3182BED3FE049E450E498
S11321C00E941F17B62EA72E982E892EE3966FAF66
S11321D0E397E4967FAFE497E5968FAFE597E696AD
S11321E09FAFE69720E030E044E353E40E945116A9
S11321F0362E272EA1968FAFA197A5969FAFA597B0
S113220020E030E044E353EC0E94181788230CF0DC
S113221067C220E030E044EB53E4A196FFADA19700
S1132220A596EFADA597632D722D8F2F9E2F0E943B
S11322305216A1966FAFA197A5967FAFA597282EAA
S1132240392E2C960EAD1FAD2C97B801882777FD3B
S11322508095982F0E94BA176B017C019B01AC01F9
S11322606B2D7A2D892D982D0E94C81888230CF087
S113227090C093C0A70196016B2D7A2D892D982DBE
S11322800E94C8188823FCF0A70196016B2D7A2DB3
S1132290892D982D0E945116A9966FAFA997AA96D9
S11322A07FAFAA97AB968FAFAB97AC969FAFAC9727
S11322B0E1E0F0E0A296FFAFEEAFA297A6961FAEC4
S11322C01EAEA69740C1A7019601A196AFADA197F6
S11322D0A596FFADA597632D722D8A2F9F2F0E947F
S11322E0C81818165CF0A70196016B2D7A2D892D5C
S11322F0982D0E94181788230CF0E7C0112344F589
S1132300B80168597E4F882777FD8095982F0E94E1
S1132310BA172B2D3A2D492D582D0E945116A996E6
S11323206FAFA997AA967FAFAA97AB968FAFAB97DB
S1132330AC969FAFAC9722E030E0A2963FAF2EAFB1
S1132340A29781E090E0A6969FAF8EAFA697FBC0C0
S11323502B2D3A2D492D582DC701B6010E94511637
S1132360A9966FAFA997AA967FAFAA97AB968FAF9E
S1132370AB97AC969FAFAC97A2E0B0E0A296BFAF8C
S1132380AEAFA297E1E0F0E0A696FFAFEEAFA6975E
S1132390DAC00C34FFEF1F07ACF4A7019601A19635
S11323A0BFADA197A596AFADA5976B2F7A2F822DC0
S11323B0932D0E94181718160CF44AC0053B1105FA
S11323C00CF046C01123FCF4A70196016B2D7A2D65
S11323D0892D982D0E945116A9966FAFA997AA9698
S11323E07FAFAA97AB968FAFAB97AC969FAFAC97E6
S11323F023E030E0A2963FAF2EAFA297A6961FAE81
S11324001EAEA697A0C020E030E044EB53E46B2D51
S11324107A2D892D982D0E945216A70196010E94AB
S11324205116A9966FAFA997AA967FAFAA97AB96B4
S11324308FAFAB97AC969FAFAC9783E090E0A2963A
S11324409FAF8EAFA297A6961FAE1EAEA6977BC077
S1132450A70196016B2D7A2D892D982D0E941817AE
S113246088230CF047C0A7019601A196BFADA197A0
S1132470A596AFADA5976B2F7A2F822D932D0E9431
S1132480C81818160CF04BC02B2D3A2D492D582D79
S1132490C701B6010E945116A9966FAFA997AA96D3
S11324A07FAFAA97AB968FAFAB97AC969FAFAC9725
S11324B0A4E0B0E0A296BFAFAEAFA297E1E0F0E037
S11324C0A696FFAFEEAFA6973EC0A2961FAE1EAE75
S11324D0A297A6961FAE1EAEA697A9961FAEA99761
S11324E0AA961FAEAA97AB961FAEAB97AC961FAE3B
S11324F0AC9729C0A2961FAE1EAEA297A6961FAE99
S11325001EAEA697A9961FAEA997AA961FAEAA9724
S1132510AB961FAEAB97AC961FAEAC9714C0A29609
S11325201FAE1EAEA297A6961FAE1EAEA697A99684
S11325301FAEA997AA961FAEAA97AB961FAEAB97EC
S1132540AC961FAEAC97A6964EAD5FADA697A99676
S1132550FFADA997AA96EFADAA97AB963FADAB97FF
S1132560AC962FADAC976F2F7E2F832F922F0E94A6
S1132570540A16C9A4962EAD3FADA4972130310557
S113258009F00EC96E9A76980E943A0A80E090E0AB
S11325900196803335E79307D9F785E190E090936E
S11325A0490180934801A4961FAE1EAEA497F8C8B3
S11325B080913E01833A49F138F4813AA9F0D8F484
S11325C0803A09F0EDC809C0863AC9F1873A09F49E
S11325D046C0843A09F0E4C822C086E190E09093B2
S11325E0490180934801DCC81092490110924801C6
S11325F06E9A7698D5C883B10E94170A85E190E057
S11326009093490180934801CBC883B10E94170A73
S113261085E190E09093490180934801C1C80E94EC
S11326203A0A80E090E001968033A5E79A07D9F74B
S113263085E190E09093490180934801B1C80E94DC
S11326403A0A80E090E001968033B5E79B07D9F71A
S113265085E190E09093490180934801A1C883B13A
S11326600E94170A0E943A0A80E090E001968033A3
S1132670E5E79E07D9F785E190E0909349018093BF
S113268048018EC80E94170A0E94D30A85E190E08F
S1132690909349018093480183C86A9A72980E9472
S11326A0170A7EC80E94170A7BC8EE24E394F12C13
S11326B0C6C8D2018C9180618C93BEC8A1969FAD8F
S11326C0A197E7968FADE797232D322D492F582FE9
S11326D0C701B6010E94C81888230CF0D6CBE8CBFA
S11326E02C960EAD1FAD2C97B801882777FD8095E9
S11326F0982F0E94BA176B017C019B01AC01A19633
S1132700FFADA197A596EFADA597632D722D8F2FE1
S11327109E2F0E94181718160CF0ACCDD4CD1F9222
S11327200F920FB60F9211248F939F9381E090E044
S113273090934B0180934A019F918F910F900FBE0C
S11327400F901F901895589A599A5A9A8CE0809332
S1132750B800E9E6F0E080818062808380818F7E2A
S11327608083EA9A789408951F93CF93DF93182F68
S1132770D62FC42F0E94A31394EA9093BC00ECEBD1
S1132780F0E090819923ECF790E59093BB0094E8F6
S11327909093BC00ECEBF0E090819923ECF79091DE
S11327A0B900987F903229F484E98093BC0080E0DA
S11327B02DC081E08093BB0084E88093BC00ECEBE7
S11327C0F0E090819923ECF71093BB0084E88093A8
S11327D0BC00ECEBF0E080818823ECF7D093BB00E5
S11327E084E88093BC00ECEBF0E080818823ECF774
S11327F0C093BB0084E88093BC00ECEBF0E08081E4
S11328008823ECF784E98093BC0081E0DF91CF91C9
S11328101F910895CF93DF93F89494EA9093BC00AA
S1132820ECEBF0E090819923ECF790E59093BB00FA
S113283094E89093BC00ECEBF0E090819923ECF7E2
S11328409091B900987F903231F484E98093BC0070
S1132850789480E032C093E09093BB0094E8909326
S1132860BC00ECEBF0E090819923ECF78093BB0083
S113287084E88093BC00ECEBF0E080818823ECF7E3
S1132880242F30E0121613069CF4A62FB72F80E0F5
S113289090E0CBEBD0E0ECEBF0E054E84D914883D2
S11328A0508340814423ECF7019682179307B4F3D5
S11328B084E98093BC00789481E0DF91CF910895FE
S11328C020E030E0ECEBF0E08081882334F02F5FEF
S11328D03F4F293E83E03807B9F781E0283E334073
S11328E009F480E008958093BB0084E88093BC00E1
S11328F00E946014882321F08091B900887F089594
S113290080E00895CF93C82F94EA9093BC000E946E
S11329106014882361F08C2F880F8F5F0E947314DA
S1132920883439F484E98093BC0080E003C080E0FB
S113293001C081E0CF910895CF93C82F94EA90937A
S1132940BC000E946014882359F08C2F880F0E94C9
S11329507314803239F484E98093BC0080E003C0AE
S113296080E001C081E0CF91089584E98093BC00A8
S11329700895EF92FF920F931F93CF93DF93CDB7F8
S1132980DEB760970FB6F894DEBF0FBECDBFE82E5A
S1132990F92EFE01319680E1DF011D928A95E9F757
S11329A088E50E949C14882309F466C086E30E948B
S11329B07314882309F462C00E94B514B8E0BA9570
S11329C0F1F7000088E50E948214882309F458C0B6
S11329D0AE014F5F5F4F8E01005F1F4FECEBF0E0E5
S11329E094EC2BEB30E0908380818823ECF7D901C1
S11329F08C91DA018D93AD01A017B107A1F784E89A
S1132A008093BC00ECEBF0E080818823ECF78091AC
S1132A10BB00888B0E94B514DE0114966E2D7F2DA9
S1132A204C91242F2073CD010297FC01808190E00A
S1132A30F0E12F9F800D911D1124FB019183808370
S1132A40842F807C90E0880F991F880F991F9D0127
S1132A5021503109F9012081820F911DFB019383DB
S1132A6082834F704483158213966A5F7F4F0A17DF
S1132A701B07B1F681E005C080E003C080E001C01F
S1132A8080E060960FB6F894DEBF0FBECDBFDF9135
S1132A90CF911F910F91FF90EF9008950E94A3137F
S1132AA088E50E949C14882309F4C7C080E30E942F
S1132AB07314882309F4C3C081E00E94731488232B
S1132AC009F4BFC00E94B51483EC99E00197F1F7B3
S1132AD000C0000088E50E949C14882309F4B3C058
S1132AE080E00E947314882309F4AFC080E00E9440
S1132AF07314882309F4ABC080E00E947314882304
S1132B0009F4A7C080E00E947314882309F4A3C0C9
S1132B1080E00E947314882309F49FC080E00E941F
S1132B207314882309F49BC080E00E9473148823E3
S1132B3009F497C080E90E947314882309F493C0B0
S1132B400E94B51483EC99E00197F1F700C00000EE
S1132B5088E50E949C14882309F487C087E00E94BA
S1132B607314882309F483C080E00E9473148823BB
S1132B7009F47FC081E40E947314882309F47BC0A4
S1132B800E94B51483EC99E00197F1F700C00000AE
S1132B9088E50E949C14882309F46FC08AE10E948E
S1132BA07314882309F46BC080E40E94731488238F
S1132BB009F467C080E00E947314882309F463C099
S1132BC00E94B51483EC99E00197F1F700C000006E
S1132BD088E50E949C14882309F457C083E30E946B
S1132BE07314882309F453C083E00E947314882368
S1132BF009F44FC00E94B51483EC99E00197F1F7F2
S1132C0000C0000088E50E949C14882309F443C096
S1132C1080E30E947314882309F43FC088E00E9473
S1132C2073148823E1F10E94B51483EC99E00197B1
S1132C30F1F700C0000081E0089580E0089580E08D
S1132C40089580E0089580E0089580E0089580E08C
S1132C50089580E0089580E0089580E0089580E07C
S1132C60089580E0089580E0089580E0089580E06C
S1132C70089580E0089580E0089580E0089580E05C
S1132C80089580E0089580E0089580E0089580E04C
S1132C90089580E0089580E0089580E0089580E03C
S1132CA008955058BB27AA270ED027C2F0D130F080
S1132CB0F5D120F031F49F3F11F41EF4C0C10EF49D
S1132CC0E095E7FBB6C1E92F3AD280F3BA17620761
S1132CD073078407950718F071F49EF552C20EF439
S1132CE0E0950B2EBA2FA02D0B01B90190010C0118
S1132CF0CA01A0011124FF27591B99F0593F50F430
S1132D00503E68F11A16F040A22F232F342F442787
S1132D10585FF3CF469537952795A795F04053957F
S1132D20C9F77EF41F16BA0B620B730B840BBAF04F
S1132D309150A1F0FF0FBB1F661F771F881FC2F7BA
S1132D400EC0BA0F621F731F841F48F487957795CE
S1132D506795B795F7959E3F08F0B3CF9395880F85
S1132D6008F09927EE0F97958795089590D158F01C
S1132D7080E891E009F49EEF91D128F040E851E019
S1132D8059F45EEF09C05BC1FCC1E92FE078D7D1EB
S1132D9068F3092E052AC1F3261737074807590790
S1132DA038F00E2E07F8E02569F0E025E0640AC04B
S1132DB0EF6307F8009407FADB01B9019D01DC0118
S1132DC0CA01AD01EF934AD098D10AD05F9155233F
S1132DD031F02BED3FE049E450FD49EC63CF089519
S1132DE0DF93DD27B92FBF7740E85FE31616170698
S1132DF048075B0710F4D92FCFD19F938F937F930C
S1132E006F937CD2ECEAF0E01DD177D12F913F9102
S1132E104F915F91D4D1DD2349F09058A2EA2AED75
S1132E203FE049EC5FE3D0785D274DDFDF9165C17A
S1132E30DCD008F481E0089539D1E3956FC10CD05A
S1132E405CC12CD140F023D130F021F45F3F19F064
S1132E50F0C0511197C1F3C072D198F39923C9F30B
S1132E605523B1F3951B550BBB27AA27621773078C
S1132E70840738F09F5F5F4F220F331F441FAA1F40
S1132E80A9F333D00E2E3AF0E0E830D09150504000
S1132E90E695001CCAF729D0FE2F27D0660F771FAE
S1132EA0881FBB1F261737074807AB07B0E809F090
S1132EB0BB0B802DBF01FF2793585F4F2AF09E3F25
S1132EC0510568F0B6C05EC15F3FECF3983EDCF399
S1132ED0869577956795B795F7959F5FC9F7880F9E
S1132EE0911D9695879597F90895E1E0660F771FF0
S1132EF0881FBB1F621773078407BA0720F0621B81
S1132F00730B840BBA0BEE1F88F7E095089504D079
S1132F106894B11137C108951AD188F09F5790F081
S1132F20B92F9927B751A0F0D1F0660F771F881FEA
S1132F30991F1AF0BA95C9F712C0B13081F021D1A6
S1132F40B1E008951EC1672F782F8827B85F39F044
S1132F50B93FCCF3869577956795B395D9F73EF449
S1132F6090958095709561957F4F8F4F9F4F0895F1
S1132F70E89409C097FB3EF490958095709561950F
S1132F807F4F8F4F9F4F9923A9F0F92F96E9BB27C5
S1132F909395F695879577956795B795F111F8CF41
S1132FA0FAF4BB0F11F460FF1BC06F5F7F4F8F4FAC
S1132FB09F4F16C0882311F096E911C0772321F0A2
S1132FC09EE8872F762F05C0662371F096E8862F3A
S1132FD070E060E02AF09A95660F771F881FDAF791
S1132FE0880F9695879597F90895990F0008550FBE
S1132FF0AA0BE0E8FEEF16161706E807F907C0F07B
S113300012161306E407F50798F0621B730B840B82
S1133010950B39F40A2661F0232B242B252B21F45C
S113302008950A2609F4A140A6958FEF811D811DFC
S1133030089597F99F6780E870E060E008959FEF36
S113304080EC0895DF93CF931F930F93FF92EF9239
S1133050DF927B018C01689405C0DA2EEF01AFD0BA
S1133060FE01E894A5912591359145915591AEF3D2
S1133070EF0129DEFE019701A801DA9479F7DF90C8
S1133080EF90FF900F911F91CF91DF91089500244D
S11330900A941616170618060906089500240A94B9
S11330A012161306140605060895C9CF50D0E8F386
S11330B0E894E0E0BB279F57F0F02AED3FE049ECAD
S11330C006C0EE0FBB0F661F771F881F28F0B23AA9
S11330D062077307840728F0B25A620B730B840BE0
S11330E0E3959A9572F7803830F49A95BB0F661F72
S11330F0771F881FD2F7904806C1092E0394000C4D
S113310011F4882352F0BB0F40F4BF2B11F460FF7D
S113311004C06F5F7F4F8F4F9F4F0895EF93E0FF81
S113312006C0A2EA2AED3FE049EC5FEBCCDDE5DF27
S11331300F90039401FC9058E9EDF0E0F7C057FDBF
S11331409058440F551F59F05F3F71F04795880F11
S113315097FB991F61F09F3F79F0879508951216A8
S113316013061406551FF2CF4695F1DF08C0161654
S113317017061806991FF1CF869571056105089405
S11331800895E894BB2766277727CB0197F908951C
S11331902CDF08F48FEF08959B01AC0160E070E030
S11331A080E89FE34CCE0BD0A8CF71DF28F076DF08
S11331B018F0952309F03DCF42CF1124E3CFBFDFB0
S11331C0A0F3959FD1F3950F50E0551F629FF00136
S11331D0729FBB27F00DB11D639FAA27F00DB11D8F
S11331E0AA1F649F6627B00DA11D661F829F222718
S11331F0B00DA11D621F739FB00DA11D621F839F9F
S1133200A00D611D221F749F3327A00D611D231F74
S1133210849F600D211D822F762F6A2F11249F57C2
S113322050408AF0E1F088234AF0EE0FFF1FBB1FE5
S1133230661F771F881F91505040A9F79E3F510584
S113324070F0F7CE9FCF5F3FECF3983EDCF38695AA
S113325077956795B795F795E7959F5FC1F7FE2B2F
S1133260880F911D9695879597F908959F931EDF72
S11332700F9007FCEE5F52CF11F40EF4E0CE41C084
S113328066DFD0F39923D9F3CEF39F57550B87FF0D
S113329046D00024A0E640EA9001805856959795C0
S11332A028F4805C660F771F881F20F026173707E5
S11332B0480730F4621B730B840B202931294A2BF5
S11332C0A69517940794202531254A2758F7660FA9
S11332D0771F881F20F026173707480730F4620B42
S11332E0730B840B200D311D411DA09581F7B9018D
S11332F0842F9158880F9695879508959B01AC016A
S113330052CF9F3F31F0915020F487957795679580
S1133310B795880F911D9695879597F908959150C3
S11333205040660F771F881FD2F708959F938F939D
S11333307F936F93FF93EF939B01AC0134DFEF9185
S1133340FF9180DE2F913F914F915F912CCF97FB9E
S1133350072E16F4009407D077FD09D00E94BB19FC
S113336007FC05D03EF4909581959F4F0895709584
S113337061957F4F0895AA1BBB1B51E107C0AA1F8B
S1133380BB1FA617B70710F0A61BB70B881F991F02
S11333905A95A9F780959095BC01CD010895F894AC
S10533A0FFCF59
S10733A2C801BD019C
S9030000FC
